:020000040800F2
:1000000070280020D9170108551401085F14010851
:1000100069140108731401087D1401080000000030
:10002000000000000000000000000000871401082C
:100030008D1401080000000093140108AD4D000864
:1000400025180108291801082D1801083118010880
:100050003518010839180108B9110108E91101081A
:100060003D18010841180108451801084918010800
:100070004D180108511801085518010859180108B0
:100080005D180108C9130108611801086518010805
:10009000691801086D180108711801087518010820
:1000A000791801087D1801088118010885180108D0
:1000B00041F70008891801088D18010891180108F6
:1000C00095180108991801089D180108A118010840
:1000D000A51801084D3400086D340008A13400084B
:1000E000A9180108AD180108B1180108B5180108D0
:1000F000B9180108BD180108C1180108C518010880
:10010000C9180108CD180108D1180108D51801082F
:10011000C1340008E1340008D9180108DD180108CD
:10012000E1180108E5180108E9180108ED180108AF
:1001300010B590B004466846402102F0D7FE224632
:100140006CA1684603F026F8684603F035F80346CC
:100150006A46DFF8A41B032003F096F8684603F014
:100160002BF80146684603F025FA002010B010BDB8
:1001700038B504460D46284603F01EF800210A282B
:100180001EDB01EBD1725210B1EB420205D14A19CC
:100190000B1952780A554A5D5A70491C8142F0DBAE
:1001A0000219462102F8011C2246411911F8011CCE
:1001B00001550820BDE838400FF2080103F03DB8B2
:1001C00031BD0000534D533D25730A0070B5044600
:1001D000208830B14FF48671401A1BD0401F3CD0AC
:1001E0006DE00121DFF88C0B03F088FA0FF2D801E3
:1001F000032003F022F801220221DFF87C0B03F038
:1002000078FA41F28831DFF8740B03F02AFB4FF4DF
:10021000867020E0DFF8D85AA035284603F033FB7B
:1002200010B3DFF8546B00220221304603F061FA6C
:1002300000222021DFF8480B03F05BFA00224FF484
:100240000041304603F055FA41F28831284603F068
:1002500008FB40F21110208006E0DFF8945A05F107
:10026000A00003F010FB08B9012070BD0FF26C066E
:1002700031460C2002F0E1FF002105F1400003F0BF
:1002800036FB05F1500003F0B5FB05F1600003F00B
:10029000B1FB01222021DFF8E80A03F02AFA01224B
:1002A0004FF40041DFF8D00A03F023FA31460C2066
:1002B00002F0C3FF0021DFF8BC0A03F01FFA0020A0
:1002C0002080032070BD000073696D393030615F9C
:1002D000686172645F696E69740D0A0073696D39D3
:1002E0003030615F686172645F696E6974320D0AF3
:1002F0000000000025730A002DE9F04704460F4670
:100300002088DFF8EC69154690B140F2CB11401A15
:1003100025D015385DD0113800F09180153800F0E7
:10032000D2800F3800F00B81103800F02F816CE183
:1003300006F14000F0620020B0760FF2E02102F0FA
:100340007CFF0020B076B3A0FFF7F2FE41F28831C7
:1003500006F1D00003F085FA40F2CB1014E106F16B
:10036000D008404603F08FFA18B93078874240F041
:1003700016813078874215D1A5B1A7A1284603F090
:10038000FDFB0746404603F090FA284602F014FFB2
:1003900003462A469FA1032002F076FF17B10020F2
:1003A000B07407E001207076B07E401CB076C0B219
:1003B0000528C8DB0020B0760FF27820FFF7B8FEE2
:1003C00041F2883106F1D00003F04BFA4FF4F0709F
:1003D000DAE006F1D008404603F055FA18B9307853
:1003E000874240F0DC803078874213D195B18AA1F2
:1003F000284603F0C3FB0746404603F056FA28465A
:1004000002F0DAFE03462A460FF22821032002F00A
:100410003BFF2FB9B07E401CB076C0B20528CBDBC5
:100420000020B0760FF21420FFF782FE41F28831EF
:1004300006F1D00003F015FA40F2F110A4E006F145
:10044000D008404603F01FFA18B93078874240F0D0
:10045000A6803078874221D105B36FA1284603F0EA
:100460008DFB81460FF208273946284603F086FBAC
:100470008246404603F019FA284602F09DFE0346E4
:100480002A463946032002F0FFFEB9F1000F18BFDB
:10049000BAF1000F02D00120B07405E0B07E401C1C
:1004A000B076C0B20528BDDB0020B0760FF2981000
:1004B000FFF73EFE41F2883106F1D00003F0D1F99A
:1004C00040F2062060E006F1D008404603F0DBF978
:1004D00010B93078874262D1307887421DD1E5B1BA
:1004E0004DA1284603F04AFB07460FF2681949461A
:1004F000284603F043FB8246404603F0D6F92846DF
:1005000002F05AFE03462A464946032002F0BCFE8A
:10051000002F18BFBAF1000F05D1B07E401CB07695
:10052000C0B20528C2DB0FF23410FFF701FE41F222
:100530008831404603F095F940F2152024E006F199
:10054000D008404603F09FF948B3307887420DD178
:1005500065B1404603F0A9F9284602F02DFE034696
:100560002A460FF20841032002F08EFE0020B076EA
:100570000FF2F000FFF7DCFD41F2883106F1D00008
:1005800003F06FF940F22520208008E006F1D00842
:10059000404603F078F928B93078874202D001202C
:1005A000BDE8F087307887421ED1EDB11AA1284608
:1005B00003F0E4FA81460FF2B8073946284603F003
:1005C000DDFA8246404603F070F9284602F0F4FD59
:1005D00003462A463946032002F056FEB9F1000FC1
:1005E00018BFBAF1000F05D1B07E401CB076C0B282
:1005F0000528BDDB0120B074002106F1500003F096
:1006000076F906F1400003F0F5F900202080032080
:10061000BDE8F087415400004F4B000073696D390D
:100620003030615F636865636B5F70726F636573C1
:10063000730D0A00415445300000000041542B4323
:1006400050494E3F0000000041542B4346554E3F59
:1006500000000000434F50530000000041542B4362
:100660005351000041542B43475245473F0000007F
:100670004350494E000000002DE9F84304460F4660
:100680002088DFF86C66154690B140F2BD21401A13
:100690001FD015384DD0153800F08580463800F051
:1006A000AA80143800F0DC80153800F00F813FE19B
:1006B000F07606F15000F0620FF28820FFF738FD67
:1006C00041F2883106F1E00003F0CBF840F2BD20A2
:1006D000FAE006F1E008404603F0D5F8002800F003
:1006E000FE803078874215D1A5B194A1284603F049
:1006F00045FA93A1284603F041FA404603F0D5F8A5
:10070000284602F059FD03462A460FF260210320D5
:1007100002F0BAFD0020F0760FF23820FFF708FD56
:1007200041F2883106F1E00003F09BF840F2D2205C
:10073000CAE006F1E008404603F0A5F8002800F002
:10074000CE80307887421CD1DDB17CA1284603F0F1
:1007500015FA07467AA1284603F010FA814640466A
:1007600003F0A3F8284602F027FD03462A460FF2BD
:10077000FC11032002F088FDB9F1000F18BF002F13
:1007800005D1F07E401CF076C0B20528C4DB0FF224
:10079000D010FFF7CDFC41F28831404603F061F8FC
:1007A00040F2E72090E006F1E008404603F06BF8E5
:1007B000002800F09480307887420DD165B1404622
:1007C00003F073F8284602F0F7FC03462A460FF2BE
:1007D0009C11032002F058FD0020F0760FF29410D7
:1007E000FFF7A6FC41F2883106F1E00003F039F88A
:1007F00040F22D3068E006F1E008404603F043F88F
:1008000010B9307887426AD13078874213D195B1D8
:100810004BA1284603F0B2F90746404603F045F8DD
:10082000284602F0C9FC03462A460FF2681103204D
:1008300002F02AFD2FB9F07E401CF076C0B20528E8
:10084000CCDB0020F0760FF25410FFF771FC44F679
:10085000206106F1E00003F004F840F2413033E09B
:1008600006F1E008404603F00EF810B930788742F0
:1008700035D13078874213D195B131A1284603F0A4
:100880007DF90746404603F010F8284602F094FC34
:1008900003462A460FF21411032002F0F5FC2FB98B
:1008A000F07E401CF076C0B20528CCDB0020F0764C
:1008B0000FF20010FFF73CFC41F2883106F1E00036
:1008C00002F0CFFF40F25630208008E006F1E00849
:1008D000404602F0D8FF28B93078874202D0012084
:1008E000BDE8F2833078874213D195B114A1284630
:1008F00003F044F90746404602F0D7FF284602F0CD
:100900005BFC03462A460FF2BC01032002F0BCFC4C
:100910002FB9F07E401CF076C0B20528C8DB00215C
:1009200006F1600002F0E3FF06F1500003F062F808
:10093000002020800320BDE8F28300003100000089
:100940004F4B000041542B53494D434F4D415449A7
:100950000000000041542B434E4D503F000000006A
:1009600041542B435053493F000000004C41535326
:100970000000000041542B4347534F434B434F4E1D
:10098000543D312C224950222C22434D4E455422B5
:1009900000000000434744430000000041542B4343
:1009A000534F434B534554504E3D31004347415400
:1009B0000000000041542B4349504D4F44453D3009
:1009C0000000000043534750000000002DE9F041B3
:1009D000044682B02088C64D0F46164648B140F204
:1009E0000141401A1AD011384DD04A3800F08D809C
:1009F000F0E005F16000E862002028770FF2E010D7
:100A0000FFF796FB41F2883105F1F00002F029FF73
:100A100040F2014020800120BDE8F68105F1F00898
:100A2000404602F030FF10B928788742F3D1287889
:100A3000874213D196B1AFA1304603F09FF8074625
:100A4000404602F032FF304602F0B6FB0346324623
:100A50000FF29811032002F017FC2FB9287F401CD9
:100A60002877C0B20528C9DB002028770FF2841050
:100A7000FFF75EFB41F2883105F1F00002F0F1FE74
:100A800040F21240C6E705F1F008404602F0FBFED6
:100A900010B928788742BED12878874216D1AEB1E6
:100AA00094A1304603F06AF80746404602F0FDFE86
:100AB000304602F081FB034632460FF24411032018
:100AC00002F0E2FB17B10320A87405E0287F401C68
:100AD0002877C0B20528C9DBDFF8580BAB6A0FF2E4
:100AE0002811009005F58076A0A2304602F052FB56
:100AF0003046FFF71DFB0020687742F21071404638
:100B000002F0AFFE40F25C4084E7882F04BF05F19D
:100B1000F008464522D105F58070FFF709FB42F247
:100B20001071404602F09DFE687F0A2812D1002015
:100B30006877002105F1300002F0D9FE05F13000A0
:100B4000E86205F1600002F055FF0FF2D4010320C6
:100B500002F073FB687F401C6877D3E728788742F0
:100B6000E2D1002EE0D00FF2CC01304603F006F8BF
:100B70000028D9D00A20A87403F01AF8007838B9F0
:100B8000012003F011F80FF2BC010A2002F055FB1E
:100B90000120E87405F17000E86205F1F00002F050
:100BA00084FEE978002205F1700002F0B1FF3046C2
:100BB00002F002FB034632460FF2AC01032002F0C2
:100BC00063FB0FF2AC010C2002F037FB05F1600073
:100BD00002F010FF002020800320BDE8F681000015
:100BE00041542B4E45544F50454E00004C4F5345F9
:100BF0000000000041542B49504144445200000081
:100C0000534855540000000041542B4349504F5065
:100C1000454E3D25732C222573222C2C2C25730048
:100C2000636F6E6E656374206661696C65640D0A3E
:100C3000000000002B4349504F50454E3A20302CC5
:100C4000300000002D2D2D2D2D2D2D2D2D2D2D2D58
:100C50002D2D2D2D2D2D2D2D2D2D2D4E4554534526
:100C6000544D4F44450A00004950535400000000C1
:100C700073696D393030615F7463707564705F6380
:100C80006F6E5F70726F6365737320657869740D42
:100C90000A00000030B583B044880578042003F0D2
:100CA00001FE022003F0FEFD0346F5B9002001908D
:100CB0000090E2B2DFF884590621281D03F06CFE93
:100CC0000128024611DB2860291DDFF87449201D28
:100CD00003F0B6FE20602246DFF8680941788030D4
:100CE00002F016FF2B682A1D08E003B030BD00009B
:100CF0000C0B00204F4B0000342D000803B0BDE862
:100D000030400FF20801072002F0BEBA53594E439B
:100D1000000000007CB50488DFF82059022003F0B1
:100D2000C1FD034600200190009022469921281D14
:100D300003F032FE012818DB0D4CA17C0A2914D1E6
:100D4000286008200FF23C01DFF8F46802F075FA21
:100D50002A68291D301D03F073FE30603246617829
:100D600004F1800002B001F0E3B973BD300000006F
:100D70000C0B00200004300000080140AC0B0020E8
:100D8000000C01405320594E432041434B0D0A00B3
:100D9000002110F8012B0AB10120704710F8012B37
:100DA000002A04BF10F8012B002A04BF10F8012B01
:100DB000002AF1D1091D2829EBD30020704700003B
:100DC0002DE9F04F044687B089469246042003F08F
:100DD00069FDE0782179DFF86C6840EA01256079E7
:100DE000A17940EA012B0020B075A078992801D0A4
:100DF000B17F09B32B464A460FF24061082002F04A
:100E00001CFA0020A945707513D1504602F04DFD23
:100E1000DFF83448DFF8342804F5967004F5B2732F
:100E2000007B18705D804FF47A7104F5B16003F0B7
:100E30004EFF0020B077FDE2032838D10220DFF812
:100E4000088803F02FFD08F59677387B08B9012054
:100E500038730020307508F5BA764FF45871304673
:100E600002F044F8BBF1050F13DB04F10B0001881D
:100E700079B108F5B2738A001982811C08F5BB703C
:100E800003F058FF4FF4587332460021042003F05A
:100E900014FD08F5B27008F5B87385814FF47A71C6
:100EA000DFF8AC2708F5B56003F011FFC2E2302887
:100EB0004BD1022003F0F6FC8046A94504BF504602
:100EC00002F0F3FCBBF1050F28DB04F10B074FF038
:100ED00000090FF2885A1EE003F0A2FF059007EB0D
:100EE000890B00200290042201208DF80C000BF1E8
:100EF00002010DF10D0003F01DFF04230BF10202AE
:100F00005146092002F0C0F902A803F0B2FF09F12E
:100F100001001FFA80F9E07A8145DDDB0120DFF86E
:100F20001C470190009743462A466021201D03F08C
:100F300033FD0128C0F27E8220600246DFF80057B0
:100F4000211D281D03F07CFD25E205284FD104F169
:100F50000B06A94504BF504602F0A7FCDFF8E8865F
:100F600008F59E752821284601F0C0FFABF104006A
:100F70002828C0F25F82282204F10B01284603F0E2
:100F8000D9FE002015F8011B59B915F8011B41B90C
:100F900015F8011B29B915F8011B11B9001D2828E6
:100FA000F0D396F82820002A00F04482D52A80F257
:100FB000418206F1290108F1010003F0BBFE98F817
:100FC0000D200FF2A44108F596770C20BA7302F0B9
:100FD00034F9B87B4044817B79730F3004F05CF9BD
:100FE0007A7B0FF29C410C2002F027F922E20E28B6
:100FF0004FD1A94504BF504602F057FC0FF29C4167
:10100000DFF844760C2002F018F90422E11D01A853
:1010100003F090FE042204F10B01684603F08AFEFF
:1010200007F5B471084604F10F0208231478240967
:1010300004EB84056C000470157805F00F05A5F12C
:101040000A06052E10D8DFE806F0030507090B0D88
:101050000A340AE00B3408E00C3406E00D3404E0F6
:101060000E3402E00F3400E02C19521C5B1E00F815
:10107000014BDBD107F5B964204604F078FE22234A
:1010800022460FF28841092002F0FEF82221204674
:1010900039E00F2817D1A94504BF504602F005FCDE
:1010A0000422E11D02A803F045FE042204F10B0115
:1010B00001A803F03FFEDFF8900500F5A065E07B96
:1010C0000090C52318E00A2820D1A94504BF504646
:1010D00002F0EBFB0422E11D02A803F02BFE042228
:1010E00004F10B0101A803F025FEDFF85C0500F513
:1010F000A065E07B0090C22301AA02A9284604F063
:1011000094FE1B21284602F045FA93E1122837D1BC
:10111000A94504BF504602F0C8FB0FF29831DFF832
:1011200028650C2002F089F806F5807512202870D9
:101130000422E11D06F2011003F0FCFD042204F17B
:101140000B0106F2051003F0F5FDC42068720822B9
:1011500004F10F0106F5857003F0ECFD12200090FC
:1011600006F21C542B46C422DD21204604F0BEFFAB
:101170000546E9B2204602F00DFAEBB2224654E1F0
:10118000142838D1A94504BF504602F08EFB0FF257
:101190004831DFF8B4640C2002F04FF806F5807592
:1011A0000E2028750422E11D06F2151003F0C2FD81
:1011B000042204F10B0106F2191003F0BBFDC62056
:1011C00068770C2204F10F0106F58F7003F0B2FD71
:1011D0001620009006F5A86406F58A73C622FF2142
:1011E000204604F083FF0546E9B2204602F0D2F91A
:1011F000EBB2224619E1DD2811D1A94504BF5046C2
:1012000002F053FB0FF2D0210C2002F016F8DFF8A9
:10121000B41C4FF00060086004F0B2FF0AE1182827
:1012200036D1A94504BF504602F03FFB0FF2C4215E
:10123000DFF814540C2002F000F805F596770A2028
:1012400038700422E11D05F22D1003F073FD042215
:1012500004F10B0105F2311003F06CFDC820787227
:1012600005F59B7104F10F0005F5AD6402780A7075
:101270000B2000903B46C822FF21204604F036FF99
:101280000546E9B2204602F085F9EBB22246CCE0F1
:1012900010281FD1042003F005FBA94504BF5046C8
:1012A00002F003FB872004F02EF8DFF81C1C0978FD
:1012B000002906F5C0701ABF4FF4FA62514341F29B
:1012C000883102F0CEFA00220421DFF8000C02F08F
:1012D00010FAAFE011281ED1A94504BF504602F014
:1012E000E4FADFF8C05DE07ADFF8BC7D2870002604
:1012F0000AE004EB860000F10C01042207EB8600F3
:1013000003F018FD761CF6B228788642F1DB8620C1
:1013100003F0F9FF8EE0D02845D1A94504BF50461F
:1013200002F0C3FA0422E11D03A803F003FD042226
:1013300004F10B0102A803F0FDFCC34800F5A0670F
:10134000E07BBE4C0090872302AA03A9384604F034
:101350006CFD1B21384602F01DF91B233A460FF2A3
:10136000AC110C2001F090FF042001906A1C02A82F
:10137000009003AB92B2D121201D03F00DFB012898
:1013800058DBB27C0A2A55D120600246AC4D211DA3
:10139000281D03F055FB28602A46717806F180006D
:1013A00002F0B6FB46E024281ED10422E11D03A86A
:1013B00003F0C0FC042204F10B0102A803F0BAFC04
:1013C000A14800F2D44502200190CD2304F10F0082
:1013D000009002AA03A9284604F071FD1C212846AA
:1013E00002F0D8F81C231FE0262823D10422E11D97
:1013F00003A803F09FFC042204F10B0102A803F0F0
:1014000099FC914800F2D4450E200190CE2304F1BE
:101410000F00009002AA03A9284604F050FD2921DC
:10142000284602F0B7F829232A460FF2E0010C20E3
:1014300001F02AFF07B0BDE8F08F00007577536513
:101440006E64536571203D202530347820207577F7
:10145000536571203D20253034780A0073696D3959
:1014600030302D3E000000006572725F616464726E
:101470006573735F6E756D3A307825580A00000009
:10148000736F756E645F6C696768745F6D61635FCD
:101490006E756D3A307825580A0000004750525357
:1014A0005F465F434D445F41534B5F54494D455F39
:1014B00041434B00475052535F465F434D445F45A5
:1014C0004C455F5345545F5448524553484F4C4434
:1014D0005F56414C0A000000475052535F465F433D
:1014E0004D445F57415445525F5345545F56414CFC
:1014F0000A000000475052535F465F434D445F5718
:10150000415445525F43414348450A0072662D3EAF
:10151000000000002DE9F0470446042003F0C2F962
:1015200000270546B84624B14FF45871204604F010
:101530003BFE2888002851D003F07EFC06460FF2BF
:10154000A0090FF2A40A18E0307990B904EB8700E3
:10155000801C0422711D03F0EDFB7F1C3A465146AE
:101560000A2001F06AFE0423721D49460A2001F098
:101570008BFE304603F063FC0646002EE4D128883B
:1015800080452ADA05EB880603F056FC06F10209CD
:1015900009E0042249460AF1050001F029FEC8B11C
:1015A000504603F04CFC5FEA000AF2D104EB8700DE
:1015B000801C0422B11C03F0BDFB7F1C3A460FF2D5
:1015C00034010A2001F039FE0423B21C1AA10A20BA
:1015D00001F05AFE08F10108D1E72780BDE8F08745
:1015E0004F555431000000006931203D2025640A28
:1015F0000000000069203D2025640A0038B504463B
:10160000DFF8AC5A05F13000E8620920A874002028
:10161000E87402F0C9FA002105F1300002F067F920
:101620000FF23001032001F008FE2046BDE83240F1
:1016300002F03BB9842800084F555400EC87002085
:10164000408D00200C0B00200C6C0020950C000835
:10165000150D000873696D393030615F7265636F15
:101660006E6E6563740A00002DE9F043DFF8404AAE
:1016700085B00F462178884240F0AE80002F00F000
:10168000AB800FF64C01384602F078FA30B1DFF843
:10169000240AFFF7B3FF0FF6400124E00FF64401E0
:1016A000384602F06BFA10B10FF640011BE00FF65E
:1016B0004801384602F062FA30B1DFF8F809FFF766
:1016C0009DFF0FF640010EE00FF64801384602F08C
:1016D00055FA60B1AEA0FEF72BFDDFF8D809FFF791
:1016E0008DFF0FF638010A2001F0A7FD53E057F8EF
:1016F000041C384603F062FA06004CD003F0F5F9FA
:10170000002848D00020314640F2DC5211F8013B5D
:101710007F2B01D1054611E011F8013B401C7F2BC6
:101720001EBF401C11F8013B7F2B1EBF401C11F84F
:10173000013B7F2BEED0401C9042E7DBDFF878893D
:101740002A463146404603F0A5F908F1050008F69F
:1017500044160178407841EA002040F2545100F1EB
:101760000A0508F5146001F0C1FBADB2C8F8405994
:101770002A464146304603F0EDFA2B4632460FF238
:10178000A871072001F080FDB8F8DC1508F6D462D6
:101790003046FFF715FB7FA1384602F0EFF970B134
:1017A0000FF28C71082001F048FD0FF2A0710A6859
:1017B000A178009204F180006A4602F0A9F976A1AE
:1017C000384602F0DBF928B1A1783A4604F18000EE
:1017D00002F09EF901F045B8E178884273D1022009
:1017E00003F060F8DFF8D088074608F5BC69484682
:1017F000FFF790FE607D401C6075C0B20A2814DBC4
:101800000020607504F13000E0620920A07400201F
:10181000E07402F0C9F9002104F1300002F067F829
:101820000FF22C71032001F008FD08F2DC56228C27
:10183000B088DFF8885830B18000801C80B20190F9
:10184000CDF8009001E0019000903B460121281D59
:1018500003F0A2F8012822DBA17C0A291FD1A17F75
:1018600001291CD028602A1D208CDFF85478308094
:101870004AA12B68062001F007FD2A68291D381DA2
:1018800003F0DEF838603A46617804F1800002F037
:101890003FF942F2107108F6D46001F0E2FFA07F38
:1018A00030B1318808F6D46208F64410FFF788FAA0
:1018B000207D401C207547F2305108F6C46001F0CD
:1018C000D0FF00F0CEBF2179884269D1002F00F00F
:1018D000A680022002F0E6FF064602A800210022B0
:1018E000DFF8D48706C008F6A465BD420BD03B786C
:1018F0000FF270613A460A2001F0C6FC3A78394688
:10190000284603F017FA0422791C02A803F012FA01
:10191000787ADFF8A8578DF80C003346208C421CEB
:1019200005200190228402A8009092B20221281D75
:1019300003F032F801281ADBA27C0A2A17D12860AA
:101940000246218CDFF87877A8F8DC15381D291DB0
:1019500003F076F838603A46617804F1800002F0CE
:10196000D7F842F2107108F6D46001F07AFF002235
:101970000221DFF8500701F0BCFE00222021DFF831
:101980004C0501F0B6FE04F013FC00F06ABF00BF86
:10199000415448000D0A3E004F4B00005352430093
:1019A000617988423BD1002F78D0022002F07AFF83
:1019B00006463B780FF2B4517A1C072001F064FC14
:1019C000208CDFF8F856421C228433463878019088
:1019D00092B2781C00900D21281D02F0DDFF012835
:1019E000FFF6F8AEA27C0A2A7FF4F4AE2860DFF896
:1019F000C866218CDFF8C876A6F8DC150246291DDA
:101A0000381D03F01DF838603A46617804F1800013
:101A100002F07EF842F2107106F6D4604FE7217CA6
:101A200088423BD1002F7AD0022002F03BFF0646CD
:101A30003B780FF238517A1C072001F025FC208CEE
:101A4000DFF87856421C228433463878019092B2EF
:101A5000781C00900421281D02F09EFF0128FFF64B
:101A6000B9AEA27C0A2A7FF4B5AE2860DFF84866DA
:101A7000218CDFF84C76A6F8DC150246291D381DAE
:101A800002F0DEFF38603A46617804F1800002F02F
:101A90003FF842F2107106F6D46010E7617C88428C
:101AA0003DD1002F7AD0022002F0FCFE0646DFF87E
:101AB00018760FF2B84107233A46072001F0E4FBFD
:101AC000208CDFF8F855421C062001902284781CF7
:101AD00000903346397892B2281D02F05DFF01284C
:101AE000FFF678AEA27C0A2A7FF474AE2860DFF895
:101AF000C865218CDFF8C875A6F8DC150246291DDB
:101B0000381D02F09DFF38603A46617804F180008C
:101B100001F0FEFF42F2107106F6D460CFE6A17923
:101B200088423BD1002F78D0022002F0BBFE06464F
:101B30003B780FF238417A1C072001F0A5FB208C7E
:101B4000DFF87855421C228433463878019092B2EF
:101B5000781C00900B21281D02F01EFF0128FFF6C3
:101B600039AEA27C0A2A7FF435AE2860DFF84865DA
:101B7000218CDFF84C75A6F8DC150246291D381DAE
:101B800002F05EFF38603A46617804F1800001F0AF
:101B9000BFFF42F2107106F6D46090E6217A8842C7
:101BA0003BD1002F78D0022002F07CFE06463B7825
:101BB0000FF2B8317A1C072001F066FB208CDFF8A9
:101BC000FC54421C228433463878019092B2781C2F
:101BD00000900C21281D02F0DFFE0128FFF6FAAD6F
:101BE000A27C0A2A7FF4F6AD2860DFF8CC64218C51
:101BF000DFF8CC74A6F8DC150246291D381D02F06A
:101C00001FFF38603A46617804F1800001F080FFE0
:101C100042F2107106F6D46051E6E17988423BD178
:101C2000002F78D0022002F03DFE06463B780FF2EE
:101C30003C317A1C072001F027FB208CDFF87C5414
:101C4000421C228433463878019092B2781C00906E
:101C50001321281D02F0A0FE0128FFF6BBADA27CD7
:101C60000A2A7FF4B7AD2860DFF84C64218CDFF8D6
:101C70005074A6F8DC150246291D381D02F0E0FE5E
:101C800038603A46617804F1800001F041FF42F289
:101C9000107106F6D46012E6E17A88423BD1002F3B
:101CA00076D0022002F0FEFD06463B780FF2BC2102
:101CB0007A1C072001F0E8FA208CDFF80054421C5F
:101CC000228433463878019092B2781C0090272104
:101CD000281D02F061FE0128FFF67CADA27C0A2AD5
:101CE0007FF478AD2860DFF8D063218CDFF8D07303
:101CF000A6F8DC150246291D381D02F0A1FE386049
:101D00003A46617804F1800001F002FF42F210715E
:101D100006F6D460D3E5A17A884239D1002F00F0CD
:101D20008D80022002F0BEFD06463B780FF23C217A
:101D30007A1C072001F0A8FA208CE04D421C228476
:101D400033463878019092B2781C00902521281DE6
:101D500002F022FE0128FFF63DADA27C0A2A7FF4A4
:101D600039AD2860D44E218CD54FA6F8DC1502463B
:101D7000291D381D02F064FE38603A46617804F18E
:101D8000800001F0C5FE42F2107106F6D46096E5BF
:101D9000617A884238D1002F50D0022002F082FDB3
:101DA00006463B780FF2C4117A1C072001F06CFA4A
:101DB000208CC24D421C228433463878019092B266
:101DC000781C00901521281D02F0E6FD0128FFF681
:101DD00001ADA27C0A2A7FF4FDAC2860B64E218CAE
:101DE000B74FA6F8DC150246291D381D02F028FE63
:101DF00038603A46617804F1800001F089FE42F2D1
:101E0000107106F6D4605AE5217B884216D1AFB135
:101E1000A94E06F6C46001F048FD0920A07406F63C
:101E20009465E562002001F0BFFEE07C02281CBF43
:101E30000020E074617B3A462846C9E488287FF494
:101E4000C9AC9D4901F6C46087420CD101F0B0FED7
:101E5000E178002204F1700001F05AFE208C401C51
:101E6000208400F0FEBC01F6D460874206D10FF258
:101E700004110C2001F0E1F900F0F3BC04F5C0708E
:101E800001F001FD00283FF4A5AC0FF2F8010A2093
:101E900001F0D3F9002204210C4801F02AFC0120B2
:101EA00080F31388BFF34F8FDFF8540DDFF8B42DA4
:101EB000016801F4E06111430160BFF34F8F00BF7F
:101EC000FDE7000008ED00E01CAC00200010014020
:101ED000434C4F5345440000636C6F73656420723C
:101EE00065630A004552524F520000006572726FDE
:101EF00072207265630A000053454E4420464149F2
:101F00004C00000073656E64206661696C20726528
:101F1000630A000052494E470000000052494E47F4
:101F2000207265630A0000003C2D5278000000001A
:101F300073696D393030615F636865636B5F636DD2
:101F4000642073656E64466C61670A000D0A3E008A
:101F500073696D3930306120206E6F2061636B0AC8
:101F6000000000007761726E000000005452414E84
:101F70000000000061636B2074696D65206F7574EB
:101F80000A00000065745F7265626F6F740D0A006D
:101F900010B5044608461146228822B140F6CB030C
:101FA0009A4203D005E040F6CB00D7E0FFF75CFB98
:101FB000F9E7D6E070B53E4D0C46697B884228D1E2
:101FC000002C55D00FF20411DFF8386D0C2001F011
:101FD00034F92821304600F089FF30462146282276
:101FE00002F0A8FE282332460FF2F8010C2001F07F
:101FF0004BF90FF21C10FEF79BF80FF22410FEF7BE
:1020000097F806F12C00BDE8704041F2883101F0EC
:1020100028BC297888422BD154B30FF2D001204636
:1020200001F0ACFD70B1DFF8DC6C0FF2CC010120E7
:1020300086F828000C2001F000F906F12C0001F0D0
:1020400034FC28E019A1204601F098FD10B1E97B8D
:10205000224622E00FF6C401204601F08FFDF8B1C0
:102060000FF2A4010C2001F0E8F8E97B224614E00D
:10207000882802BFDFF88C6C06F12C0084420FD157
:1020800096F8280038B90FF28800FEF751F80FF2E1
:102090009000FEF74DF8A97B324605F1800047E03D
:1020A00070BD000048B600204CB600203E00000085
:1020B0000C0B0020101C00204C0D0020EC87002091
:1020C000408D0020000C01403007002053454E4455
:1020D00020534D5320414E442050484F4E450D0A49
:1020E0000000000050484F4E00000000434C4F538A
:1020F00045204F4B0000000067707231206973204B
:10210000636C6F73650D0A00534D534F4B0A00000B
:1021100041542B434950434C4F53453D310000003F
:1021200041542B434950534855543D310000000061
:10213000BDE8704001F0ECBC10B5044608461146FD
:10214000228822B140F60A139A4203D005E040F6F5
:102150000A1003E0FFF72EFFF9E702E020800120DC
:1021600010BD00202080032010BD00002DE9F043A9
:10217000DFF89C6B85B00F467178884256D1002FEE
:1021800000F0CF8001F014FDDFF8885B0FF2D8611A
:1021900005F128048046A760082001F04EF8A068E9
:1021A0000FF2D8610368021D082001F06DF898F85D
:1021B00000102078012908BF002820D10FF2C46048
:1021C0000FF2C8630FF2D461009005F5D47792A2A4
:1021D000384600F0DFFF3846FDF7AAFF41F28831AC
:1021E00005F5A47001F03DFB0320E07040F6B83126
:1021F00005F1380001F035FB0120207000E028B126
:1022000041F2883105F1480001F02BFB707E20B1CE
:10221000E068401CE060002070760820E2680FF261
:10222000946105B0BDE8F04301F007B8B178884289
:1022300077D1002F00F0A8810FF29061082000F004
:10224000FCFFE9A1384601F099FCA0B3DFF8C45ABD
:1022500005F12804E07803282DD1A06858B303685D
:102260000FF2C061DFF8B08A021D062001F00CF801
:10227000A06850F8041B01F09DF91A2001F098F9AC
:10228000A0680268011D08F1040002F003FC034687
:1022900008F104020FF29461062000F0F5FF01201E
:1022A000E07005F1380001F000FB05F1480001F095
:1022B000FCFA00202070CDA1384601F05FFC002818
:1022C00000F0CF820FF22461DFF8485A082000F0B6
:1022D000B4FF05F5A47001F0E8FA05F12804002028
:1022E000A0600220E07000202071B07D642814DB23
:1022F00006F13000F0620920B0740020F07401F0A3
:1023000053FC002106F1300001F0F1FA0FF2E85120
:10231000032000F092FF0020B075B07D401CB07526
:102320009FE2B17B884279D1002F00F02D81DFF848
:10233000E459BD4204D028463946282202F0FAFC6E
:1023400005F1280400206070A070202105F15800DC
:1023500000F0CCFD202105F1880000F0C7FD05F15B
:10236000C8078021384600F0C1FD05F17800002142
:10237000002200238C46A0E80E1006F1B00105F102
:102380005800FDF7F5FE294605F17800FDF7F0FE4F
:102390000FF2A0500FF2B8520FF2BC51039005F1AA
:1023A00058030FF2C450029005F1780001900FF22B
:1023B000C4500090384600F0EDFE3A460FF2C0518E
:1023C000082000F03AFF0FF2C450FDF7B1FE44F6CA
:1023D000206105F5AC7001F044FADFF8401905F50D
:1023E000BC7001F03EFA6078401C607005F5CC745A
:1023F00002223321204603F00BFF05462B462246DE
:102400000FF210510A2000F03FFF2946204605B088
:10241000BDE8F04301F0E1B830000000F17B8842F4
:1024200040F0B280002F00F0AF806FA1384601F07D
:10243000A5FB90B1DFF8DC5805F1C807384600F07D
:10244000BBFE0146384601F0B5F81A2001F0B0F89D
:1024500005F128010120C87003E20FF2C04138469F
:1024600001F08CFB002800F0FC81DFF8A85805F192
:10247000280405F5AC786078012805F1C8074FD12C
:102480000FF6B8010A2000F0D8FE6078401C60709A
:1024900044F62061404601F0E4F9202105F158009E
:1024A00000F024FD202105F1880000F01FFD8021AF
:1024B000384600F01BFD05F17800002100220023C2
:1024C00000241EC006F1B00105F15800FDF750FED2
:1024D00005F1140105F17800FDF74AFE0FF25440B2
:1024E0000FF26C420FF27041039005F158030FF2A6
:1024F0007840029005F1780001900FF2784000904A
:10250000384600F047FE3A460FF27441082000F0CA
:1025100094FE05B0BDE8F0430FF27040FDF708BE31
:102520000FF638010A2000F088FE0FF640010A205D
:1025300000F083FEA0780FF65801401CA0702A46D8
:10254000384600F027FE404601F0AFF93846FDF767
:10255000EFFD4CF2503105F5B47001F082F905F54C
:10256000CC741121204603F043FE05462B4622463B
:102570000FF624010A2000F087FE2946204605B008
:10258000BDE8F04301F029B8882840F06A81DFF8FF
:10259000845705F5A47087422AD10FF6040108205C
:1025A00000F04BFE05F128042079032818DB06F122
:1025B0003000F06200210920B07406F1300001F013
:1025C00096F901F0F5FA007802281CBF002001F00E
:1025D000EBFA0FF2E071032000F02FFE00202071D3
:1025E0002079401C20713CE13E0000004F4B000070
:1025F00005F1480001F047F900283CD105F1380009
:1026000001F041F990B305F12804E078032840F087
:102610002881A068002800F0248103680FF20431AB
:10262000DFF8F466021D062000F02EFEA06850F8C8
:10263000041B00F0BFFF1A2000F0BAFFA068026878
:10264000011D301D02F026FA0346321D0FF2DC2177
:10265000062000F019FE0120E0700020207005B077
:1026600005F14800BDE8F04301F01FB905F5C4705D
:1026700001F009F918B1002085F82800F1E005F50E
:10268000AC78474540F0948005F128040FF2347986
:10269000627849460A2000F0D0FD6078012805F1F3
:1026A000C80754D1627849460A2000F0C6FD0FF2EF
:1026B00028710A2000F0C1FD6078401C6070202164
:1026C00005F1580000F012FC202105F1880000F00F
:1026D0000DFC8021384600F009FC05F1780000214E
:1026E0000022002300241EC006F1B00105F15800AD
:1026F000FDF73EFD05F1140105F17800FDF738FD09
:102700000FF230200FF248220FF24C21039005F116
:1027100058030FF25420029005F1780001900FF257
:1027200054200090384600F035FD3A460FF2502113
:10273000082000F082FD0FF25420FDF7F9FC40461E
:1027400005B0BDE8F04344F6206101F08AB80FF20D
:10275000A8610A2000F071FDA6A0FDF7E9FC2A4659
:102760000FF22C61384600F015FD3846FDF7E0FC0D
:102770004CF2503105F5B47001F073F80FF2986126
:102780000A2000F05AFD05F5CC741121204603F013
:102790002FFD05462B4622460FF28C610A2000F0E1
:1027A00073FD2946204605B0BDE8F04300F015BF93
:1027B00005F5BC70874227D106F16000F062002168
:1027C0000920B07405F5CC7406F1600001F08FF8B3
:1027D00005F128010020487003200FF2546100F039
:1027E0002CFD1E21204603F003FD05462B46224604
:1027F0000FF250610A2000F047FD2946204605B03F
:10280000BDE8F04300F0E9BE05F5B470874228D179
:102810000FF238610A2000F010FD76A0FDF788FC69
:1028200005F1C80705F114020FF26451384600F0B3
:10283000B1FC3846FDF77CFC05F5CC74112120462F
:1028400003F0D6FC05462B4622460FF2DC510A2047
:1028500000F01AFD2946204605B0BDE8F04300F01F
:10286000BCBE05B0BDE8F0835354415254205345DB
:102870004E4420677072730A0000000054584441AF
:1028800000000000343536360000000034372E39A1
:10289000352E34332E3234380000000041542B439F
:1028A000495053454E443D25732C2C222573222C30
:1028B0002573000073696D5F636F6E6E6563745F8F
:1028C00074696D65203D2025640A000073696D39C7
:1028D00030305F6576656E745F73656E645F6461EA
:1028E00074615F776169740A0000000053454E44CB
:1028F000204F4B0A0000000073696D3930306120B1
:102900007265636F6E6E65637420616769616E0ADC
:10291000000000004D302D3E000000002B434D47CD
:10292000530000002D3E6770000000002D3E314135
:102930000000000035336431373531663730366298
:102940003730376536326135386236360000000080
:1029500030383931363800002573257325732573D7
:10296000257325730000000030303038414130437A
:102970000000000031313030304439313638000049
:102980007761726E736D733D25730A0041542B435A
:102990004D47533D3237000010B5044608461146F6
:1029A000228822B140F6A7239A4204D006E040F6DE
:1029B000A720FFF7D3BBFFF7D9FBF8E7FFF7D1BBA1
:1029C00010B5D34CE17F002904F5C87201461046CA
:1029D00004D103F03CFC30B9012003E003F037FCE4
:1029E00008B10020E07704F1900001F0B0F8012078
:1029F00010BD0000415448002DE9F043044691B059
:102A00002088C84E894620B140F62631884245D0FC
:102A1000DFE0BF4F00F066FF387000F063FF3070FA
:102A200000F060FF787000F05DFFF87000F05AFF72
:102A3000B87000F057FF387100F054FF387300F0A1
:102A400051FF787300F04EFFB87300F04BFFF8733E
:102A500000F048FF387400F045FF787100F042FF45
:102A6000B87100F03FFF387200F03CFFF87100F0E1
:102A700039FF787400F036FF787200F033FFB872D7
:102A800000F030FFF8720A200FF2D03100F0D5FBD1
:102A900004E0C82106F5AA6000F0E3FE9C4F07F5AC
:102AA000C87003F0E9FBB9F1880F804671D106F5D3
:102AB000AA6000F0E8FE00286BD0D6F84C250FF293
:102AC000B431994D0C2000F0B8FB40F25451284627
:102AD00000F00CFAD6F84C252A60311D281D02F0B2
:102AE00039F9D6F84C350FF2A831321D0A2000F022
:102AF000CBFBD6F84C15002000E0401CC0B2884249
:102B000003DA821912797E2AF7D13978F86A2A1DF8
:102B100000F0FEFF0FF28031301D01F02FF8D0B130
:102B20006846402100F0E2F90FF2783276A168465B
:102B300000F030FB684600F03FFB03466A460FF2A8
:102B4000F411032000F0A0FB684600F035FB0146BD
:102B5000684600F02FFD0FF25831301D01F00EF8DD
:102B600078B16AA1301D01F009F8B037C11C0B2201
:102B7000384602F0DFF83A460FF23C31082000F008
:102B80005CFB4FF4A961301D00F0B0F90020C6F8DD
:102B90004C0518F1010F06D140F62630208011B007
:102BA0000120BDE8F083D6F84C0520B95FFA88F122
:102BB0000D297FF473AF8119401C81F80480B0F5B2
:102BC000A96FC6F84C05FFF664AF0020C6F84C05A7
:102BD00064E70020208011B00320BDE8F08310B529
:102BE000524C4FF45871204600F080F92246BDE85F
:102BF00010404FF458730021042001F05EBE000025
:102C00000CED00E010B5424C802204F5CC7104F5C7
:102C1000C87003F015FB424800F03CFC002104F1B1
:102C2000300000F064FE002104F1900000F05FFE2F
:102C3000002104F1700000F05AFE04F18000BDE8AC
:102C40001040002100F053BE30B583B0022001F0E7
:102C500029FE2F4D304C2A8C002101910091034612
:102C6000992112E00400FA0530B583B0022001F08A
:102C700019FE2F49264D0A88274C00919200921C7C
:102C800092B2019203462A8C0321201D01F084FE9A
:102C90002978E86A221D03B0BDE8304000F038BF53
:102CA00080B5042001F0FEFDBDE8005002464FF45F
:102CB00058730FF21C21002000F0E6BA30B50FF275
:102CC000182183B01CC9684669461CC0104C04F525
:102CD00006750C22284602F02DF80C22694604F5F0
:102CE0000B7002F027F828232A460FF2F8110A2069
:102CF00000F0CAFA217B2A4604F1700000F008FFB8
:102D000003B030BDD8BC002025730A002B38360034
:102D10000C0B0020301C0020EC870020E022020079
:102D2000C1290008E47700209882002020AC002010
:102D3000581E00202D3E636D00000000736D73323D
:102D4000312D2D2D2D2D2D2D2D2D2D2D2D2D2D2DAF
:102D50002D2D2D2D2D2D2D2D2D2D0A0073746172ED
:102D600074312070686F6E650A000000706F6E6FBE
:102D700031313131312D2D2D2D2D2D2D2D2D2D2D6F
:102D80002D2D2D2D2D2D2D2D2D2D2D2D2D2D0A00C3
:102D900041544425733B00004D312D3E000000009E
:102DA0005544502053454E442054494D45204F55DD
:102DB000540A000065745F73656E64206F75740A51
:102DC00000000000756250686F6E65496E6465783A
:102DD000203D2025640A0000736D7332322D2D2DA5
:102DE0002D2D2D2D2D2D2D2D2D2D2D2D2D2D2D2D13
:102DF0002D2D2D2D2D2D0A00706F6E6F312D2D2D47
:102E00002D2D2D2D2D2D2D2D2D2D2D2D2D2D2D2DF2
:102E10002D2D2D2D2D2D0A007374617274322070AA
:102E2000686F6E650A0000004D322D3E0000000004
:102E300065745F6261636B5F756470206F75740A9F
:102E4000000000004D332D3E0000000073746172DD
:102E5000742070686F6E6520320A000073696D39E6
:102E60003030615F726573705F70726F636573732A
:102E70000D0A0000726563656976652066696E6992
:102E80007368207072743D2025640D0A00000000F4
:102E90003C2D677000000000534D53205265616463
:102EA0007900000041542B435343413F0000000090
:102EB0004353434100000000736D7343656E7465B6
:102EC0007250686F6E65203D2025730A0000000077
:102ED000666E6F64000000003138383230313039AE
:102EE0003236350070686F6E65000000002203F016
:102EF000D7B9F0B4016844688368091801EB54023B
:102F0000E40748BF4B440C3091422BD011F8014BE1
:102F100014F0030504BF11F8015BED1C26090F2E08
:102F200007D111F8016B0F3603E011F8017B03F8AC
:102F3000017B6D1EF9D1002EE6D0A40811F8015BCB
:102F400004F00304032C08BF11F8014B05EB042423
:102F50001C1BB51CD8D014F8016B03F8016B6D1E57
:102F6000F9D1D1E7F0BC704710B504460A2C04BF74
:102F70000D20FFF7F9FFDFF83C02416821B1491C41
:102F8000416001F8014D10BD0168080003D02046E2
:102F9000BDE81040084710BD2DE9F04788B08046D5
:102FA0008946DFF8106204E059F8040BC0B2FFF75D
:102FB000DBFF18F8010B002800F0E2802528F6D18D
:102FC00018F8010B0021302808BF012102D02D285C
:102FD00002D1022118F8010B4FF0000A07E00AEBBA
:102FE0008A0200EB4200A0F1300A18F8010BA0F1B0
:102FF00030020A2AF3D36C2812BF4C2841F0040196
:1030000018F8010B002800F0BB800446612CA4BF17
:10301000203CE4B2422C41D0432CC5D0442C43D0B8
:103020004F2C3FD0532C04D0552C3DD0582C3DD0A4
:10303000BDE759F8044B0025204600E06D1C10F850
:10304000012B002AFAD1880705D514E03168080061
:103050001CBF202088472846451C50450BD270686D
:103060000028F3D0202100F8011B7060F3E714F86A
:10307000010BFFF779FF20780028F8D1554598D249
:1030800070686D1C20B1202100F8011B7060F5E70D
:1030900031680800F2D020208847EFE7022259F873
:1030A000043B05E00822FAE70A22F8E71022F6E7D7
:1030B000442C04D1002B44BF5B4241F0080100279F
:1030C000EC46B3FBF2FE02FB1E34E4B20A2C73465C
:1030D00007DB78280CBF4FF0270E4FF0070E744423
:1030E000E4B230340CF8014B7F1C0BB1202FE8D335
:1030F000080703D56A462D20B8547F1CC8074CBF6B
:103100003024202488073D4612D57F1E68463C5C4B
:103110000A2C04BF0D20FFF727FF7068C0B100F82C
:10312000014B706019E0316808001CBF20468847D9
:103130002846451C5045E8D20A2C04BF0D20FFF755
:1031400013FF70680028EED000F8014B7060EFE7C5
:10315000316808001CBF20468847002FD5D155454F
:10316000BFF427AF70686D1C20B1202100F8011B4F
:103170007060F4E731680800F1D020208847EEE75E
:1031800008B0BDE8F0870EB400B501A9FFF704FF51
:103190005DF810FB0CB410B5064C60600A4602A93D
:1031A0001046FFF7F9FE616800200870606010BCEF
:1031B0005DF80CFBC8BE002000F10103810704D0BC
:1031C00010F8011B89B18107FAD10268B2F101310F
:1031D000914311F0803F04BF50F8042FF6E710F838
:1031E000011B11B110F8011BFBE7C01A704700006A
:1031F00010B400231446621E2CB110F8013B11F8E4
:10320000014B1B1BF6D010BC1846704770B5044626
:103210000D4614F8010B03F05CF8C6B215F8010B6B
:1032200003F057F8C0B2864203D1002E18BF002821
:10323000EFD1301A70BD774870470CB4F8B5054629
:103240007548744F066838780C46E9B288420DD349
:10325000142816D076B170680FF2C011FFF7D6FFB0
:1032600020B171680FF2C010FFF78DFF3878EDB212
:10327000A84206D33878142803D006A92046FFF7C1
:103280008BFEF1BC5DF80CFB2DE9F24F0546624860
:10329000604C07682078A8421646984611DB14282F
:1032A00000F0A5806FB178680FF27011FFF7AEFFE4
:1032B00038B179680FF27010FFF765FF4FA0FFF784
:1032C00062FF2078A842C0F29280142800F08F801C
:1032D000009828B1014642460FF25410FFF753FF01
:1032E0000027B8F1010F44DBB14645A599F800105D
:1032F0000FF24810FFF747FFF81007EB10700011AE
:10330000A7EB00100F282FD13EA0FFF73CFF27F0BE
:103310000F04A7421BDB04EB060A9AF800B0ABF1DE
:1033200020005F2809D3584602F0DFFF28B958462D
:1033300002F0E5FF08B92E2101E09AF800102846B6
:10334000FFF721FF641CA7420AF1010AE5DA2BA06E
:10335000FFF719FF009838B1781C404504DA2AA11C
:103360000FF2E000FFF70FFF7F1C474509F101094D
:10337000BCDBF81007EB10700011B7EB001030D079
:103380003C4622A503E02846FFF7FDFE641CE01042
:1033900004EB10700011B4EB0010F4D119A0FFF78A
:1033A000F2FE27F00F00B84218DA86193F1A14A56A
:1033B0003478A4F120005F2809D3204602F095FF5D
:1033C00028B9204602F09BFF08B92E2100E0317891
:1033D0002846FFF7D8FE761C7F1EE9D107A0FFF72D
:1033E000D2FEB8F1000F04BF04A0FFF7CCFE00200E
:1033F000BDE8F28F014606A0FFF7C5BE0D0A00002A
:1034000025630000203B0000000000002020200079
:103410002E2564006F24002024BE00204576656EB2
:10342000742074696D657200252D3230737C000044
:10343000252D3573252D34643A00000020253032C7
:1034400058000000252D39733A0000006B480168D0
:103450006B480288930602D50A0006D017E01107D0
:1034600003D54FF6F7710180808870476548016881
:1034700065480288930603D582880A0006D006E0D4
:10348000110703D54FF6F771018080887047808857
:10349000C0B208475D49086070475E4908607047E0
:1034A0005C4801685C480288930602D50A0006D091
:1034B000EDE7110703D54FF6F7710180808870475B
:1034C0005248016855480288930602D50A0006D082
:1034D000DDE7110703D54FF6F7710180808870474B
:1034E0004B4801684E480288930602D50A0006D070
:1034F000CDE7110703D54FF6F7710180808870473B
:10350000411E052900D3704710B53B4901EB8001EE
:1035100084B051F8044C012803D14FF4612000908D
:1035200019E0042803D14FF4E130009013E04FF488
:103530001651022800910ED100200190ADF808002C
:10354000ADF80C000C20ADF80A0000200FF2D401F9
:10355000FFF773FE08E000200190ADF80800ADF819
:103560000C000C20ADF80A00204602F0D3FE69469C
:10357000204602F013FF012240F22551204602F0BE
:103580006DFF0121204602F05FFF04B010BD1B4912
:103590000860704751B1204A0378B2F800C05FEA72
:1035A0000C6CFAD5401C491E9380F5D10020704761
:1035B0001A490DE051B1194A0378B2F800C05FEA28
:1035C0000C6CFAD5401C491E9380F5D10020704741
:1035D0000A881206FCD58880704751B1104A0378DA
:1035E000B2F800C05FEA0C6CFAD5401C491E93800B
:1035F000F5D10020704700006C22002040BF002061
:103600000038014044BF00200044004048BF002073
:103610004CBF002050BF002000480040004C00403C
:1036200000500040554152543220696E69740A00BE
:103630002DE9F041CC78002204F00F03E40644BFEA
:103640008C7823430C88E5B21DB3D0F800C0012567
:103650000F2605FA02F707EA0408B84514D14FEA25
:10366000820E06FA0EF82CEA080C03FA0EFE4EEA59
:103670000C0C91F803E0BEF1280F08BF476103D09E
:10368000BEF1480F08BF0761521C082AE1D3C0F8F9
:1036900000C0FF2C27DDD0F804C0002201250F2632
:1036A00002F1080705FA07F707EA0408B84515D13B
:1036B0004FEA820E06FA0EF82CEA080C03FA0EFE08
:1036C0004EEA0C0C91F803E0BEF1280F08BF4761E9
:1036D00091F803E0BEF1480F08BF0761521C082AA9
:1036E000DED3C0F804C0BDE8F081016170474161DC
:1036F0007047002A14BF01614161704770B4164AD7
:1037000000284CBF9469146800F44016B6F5401FB9
:10371000C0F3034583B206D1156825F0706524F027
:10372000706415600CE0C60203D5032606FA05F5A1
:1037300003E0450D2D0103FA05F5AC4344F0706438
:1037400021B1410D090103FA01F10C4300284CBFDE
:103750009461146070BC70470400014038B55E4C41
:10376000206890B101F052FB21680A684B689A18F2
:10377000121A06E00B684D68EB181B1A934238BF0B
:103780001A4689680029F5D11018606031BDF8B576
:103790000446208810B1592806D03FE04E49086001
:1037A000592020800120F2BD87294B4E04D0822968
:1037B000F6D115E0A86830603568002DF0D0E868D3
:1037C0009042F7D0A8680028EAD0C168914212BFA1
:1037D00005468068A860F5E70020A860FFF7BEFFF7
:1037E0003568002705E006F1080000F0B0F92F4623
:1037F000AD68002DD4D0284602F057FE0028F6D040
:10380000E8682A46882100F083F90028EBD1E860B7
:10381000002FA86814BFB8603060DDE7002020806A
:103820000320F2BD2D4800F092B938B504462A4D68
:1038300005F1080000F08BF92868E16849B10146FC
:1038400000E0896829B1A142FBD125480068E06009
:1038500004E023490968E160A0602C60BDE83140C4
:103860007CE710B5044602F011FE03E010B50446F3
:1038700002F010FE2046BDE81040D6E710B5044621
:1038800002F00DFEF6E7C06800280CBF0120002002
:1038900070471148006800B1012070470E48016868
:1038A000002914BF40680020704710B504460A483C
:1038B00001688C4203D18968016006E0014631B19C
:1038C0008868A042FAD1A0688860FFF747FF00200F
:1038D000A060E06010BD0000180700202007002055
:1038E00024BE0020A0490878421C0A70704738B5F1
:1038F0009D4CA268134600E01B68834218BF002B52
:10390000FAD183420BD00260A060012282730022B0
:1039100082810A46E568812100F04FF8E56031BDFB
:103920002DE9F041904DEE68AF680446884602E00C
:10393000002F40D03F68A742FAD1002F3BD0A07B98
:1039400058B30020A073AF6804E039463846FFF74B
:10395000E7FF3F68B7B1BC42FBD0B87BC007F8D5E2
:10396000BB681800F5D0EF600220B87322468721AB
:1039700007F10C009847022818BF0328E5D0012062
:10398000B873E6E7A368180018BF444505D0EC609B
:103990000022832104F10C009847AF68BC4203D198
:1039A0003868A86006E0074627B13868A042FAD117
:1039B00020683860EE60BDE8F08138B504460D46F9
:1039C000A07BC00715D5A368180012D06648C46054
:1039D0000220A07304F10C00984702281CBF0328A2
:1039E000832D04D121462046BDE8344098E70120CC
:1039F000A07331BD5C49C96892E75B488A210170B8
:103A00000021817041708160C160704738B5564CAB
:103A10000020E070A56804E029462846FFF780FFF3
:103A20002D68C5B1E87B0028FAD00120A8730020DA
:103A3000E873AB681800F3D0E5600220A873002299
:103A4000822105F10C009847022818BF0328E3D013
:103A50000120A873E4E731BD70B5434CE07808B1AC
:103A6000FFF7D4FF6378002B4ED0A5783F4805EBD5
:103A7000450100EB81006D1C017821712E11426817
:103A8000226105EBD66680687611A5EB46155B1EB4
:103A9000A570637090BBA06806E022692179606917
:103AA000FFF78BFF606900686061606960B3E07870
:103AB0000028F2D00020E070A56804E029462846DE
:103AC000FFF72EFF2D68002DE7D0E87B0028F9D006
:103AD0000120A8730020E873AB681800F2D0E560FD
:103AE0000220A8730022822105F10C0098470228C9
:103AF00018BF0328E2D00120A873E3E7812904BF9F
:103B000001238373FFF759FF6078E178081870BDCF
:103B1000F0B4154B5C78202C08BF01200ED09D78A6
:103B2000124E651905F01F0505EB450706EB8705E5
:103B3000A86029706A60601C58700020F0BC704753
:103B400038B5094CE568FFF738FFE56031BD48B18D
:103B5000817B012918BF022904D10121C1730120F1
:103B60000149C8707047000018BE002080AF0020D7
:103B7000817B481E8041C043C00F704770B50C4622
:103B8000257835B970BD11F8013F1678B34206D0DB
:103B9000401C294602F09EFC28B10146224612F83C
:103BA000013F002BEFD170BDDFF8001B0873704799
:103BB000DFF8FC0A704770B582B015460FF6303159
:103BC000DFF8F06A0A20FFF738FB089C069A0FF628
:103BD000343100942B460A20FFF72FFB079D234624
:103BE0002A4635A10A20FFF74FFB346022462946BA
:103BF000301DDFF8B84A01F09DF82178324604F212
:103C00009C50FFF785FF0220207301F009F9206125
:103C100073BD704770B5044682B0208810B1BD28CE
:103C20001BD01EE0DFF8845A0FF6704005F2AC5648
:103C3000314602F060FCDFF8801A05F2BC5002F059
:103C4000A3FCDFF8780A009041F2D61332464FF415
:103C5000FA6105F5AD6002F008FEBD20208001206C
:103C600076BD00202080032076BD30B5044683B0A9
:103C70000D46042000F016FE022000F013FEC4B929
:103C80000021019100910346DFF8204A2A460621CF
:103C900004F1180000F080FE01280ADB606104F1E5
:103CA0001402A17804F29C5003B0BDE83040FFF745
:103CB0002FBF03B030BD00003C2D77002DE9F04F41
:103CC000074685B00D4614461E46042000F0EAFD66
:103CD000E878297940EA01286879A97940EA012938
:103CE000A87899280DD1444540F072823046FFF7FC
:103CF000DCFDDFF8CC09007B5FFA88F1FFF7B5FF48
:103D000066E2032838D1022000F0CCFDDFF8B44988
:103D100004F1AC068246307B08B90120307304F10F
:103D2000C80B4FF458715846FFF7E0F8B9F1050F8A
:103D300011DB05F10B00018869B1B1838A00811C98
:103D400004F1CA0000F0F6FF4FF458735A46002100
:103D5000042000F0B2FD002001900090534642463E
:103D60009921381D00F018FE0128C0F23182386018
:103D70003A46DFF8384926E205283ED105F10B071F
:103D8000444504BF3046FFF790FDDFF8384904F59D
:103D9000966628213046FFF7A9F8A9F104002828E3
:103DA000C0F21682282205F10B01304600F0C2FF56
:103DB000DFF8F808007B022840F00A823046FCF762
:103DC000E7FF97F82820002A00F00282D52A80F227
:103DD000FF8107F12901601C00F0ACFF607B001936
:103DE000817B8DF800100F3001F056FA6A460FF60D
:103DF00040110C20FFF721FAEAE10E2851D1444589
:103E000004BF3046FFF751FD0FF64011DFF8B4480C
:103E10000C20FFF712FA0422E91D01A800F08AFF26
:103E2000042205F10B01684600F084FF04F1BC0197
:103E3000084605F10F02082315782D0905EB8506C4
:103E400075000570167806F00F06A6F10A07052F13
:103E500010D8DFE807F0030507090B0D0A350AE063
:103E60000B3508E00C3506E00D3504E00E3502E0B8
:103E70000F3500E07519521C5B1E00F8015BDBD1A9
:103E800004F59B64204601F072FF222322460FF6C0
:103E9000D4010920FFF7F8F922212046FFF77AFB29
:103EA00096E10F2823D1444504BF3046FFF7FDFCBF
:103EB0000FF6B801DFF80C480C20FFF7BEF904221A
:103EC000E91D02A800F036FF042205F10B0101A84C
:103ED00000F030FFE87B009004F58566C52301AA59
:103EE00002A9304601F0A1FF1B233246D6E00A2882
:103EF00031D1444504BF3046FFF7D7FC0FF66C01C3
:103F0000DFF8C0470C20FFF798F90422E91D02A84A
:103F100000F010FF042205F10B0101A800F00AFFD8
:103F2000E87B009004F58566C22301AA02A9304609
:103F300001F07BFF1B213046FFF72CFB0FF624041A
:103F40001B23324621460C20FFF79EF91B233246E5
:103F500021460220A5E012282DD1444504BF304659
:103F6000FFF7A3FC0FF62401DFF858470C20FFF7FA
:103F700064F904F18006122030700422E91D04F176
:103F8000810000F0D7FE042205F10B0104F1850049
:103F900000F0D0FEC4207072082205F10F0104F178
:103FA0008A0000F0C7FE122004F244440090334619
:103FB000C422DD2168E0142838D1444504BF3046CE
:103FC000FFF773FC0FF2E871DFF8F8460C20FFF7FB
:103FD00034F904F180060E2030750422E91D04F145
:103FE000950000F0A7FE042205F10B0104F19900F1
:103FF00000F0A0FEC62070770C2205F10F0104F13D
:104000009E0000F097FE1620009004F58D6504F1E7
:104010009403C622FF21284602F068F80446E1B264
:104020002846FFF7B7FAE3B22A4637E018283BD113
:10403000444504BF3046FFF738FC0FF29071DFF8BB
:1040400084460C20FFF7F9F804F1AC060A20307022
:104050000422E91D04F1AD0000F06CFE042205F11C
:104060000B0104F1B10000F065FEC820707204F18C
:10407000B60105F10F0004F5926402780A700B2076
:1040800000903346C822FF21204602F02FF8054653
:10409000E9B22046FFF77EFAEBB222460FF2C46186
:1040A0000C20FFF7F1F893E0102826D1042000F04F
:1040B000F9FB444504BF3046FFF7F7FB0FF22471CC
:1040C000DFF8E8450C20FFF7B8F8872001F01BF96E
:1040D000DFF8F4150978002904F2C4501ABF4FF430
:1040E000FA62514341F28831FFF7BBFB0022042101
:1040F000DFF8D805FFF7FDFA6AE0112823D144451F
:1041000004BF3046FFF7D1FB0FF2F061DFF8C04586
:10411000DFF8C0750C20FFF790F8E87A20700026D1
:104120000AE005EB860000F10C01042207EB860093
:1041300000F000FE761CF6B220788642F1DB862085
:1041400001F0E1F844E0D02842D1444504BF3046B4
:10415000FFF7ABFB0422E91D03A800F0EBFD0422EE
:1041600005F10B0102A800F0E5FDE87BDFF85445FE
:10417000009004F58566872302AA03A9304601F062
:1041800054FE1B213046FFF705FA1B2332460FF27F
:10419000D4510C20FFF778F804F1AC06DFF80C4599
:1041A000308B421C04200190328302A8009003ABA4
:1041B00092B2D12104F1180000F0EEFB012807DBD8
:1041C000606104F11402A17804F29C50FFF7A0FC96
:1041D00005B0BDE8F08FF0B5DFF8D04485B00E46ED
:1041E000217888421FD1002E42D0DFF8EC54002005
:1041F0002870301D00F079FC98B133680FF21C6113
:10420000321D0720FFF740F8AA8805F6CC03311DC0
:1042100004F11400FFF752FD207B02281CBF02208E
:10422000207305B0F0BDA178884221D106B3326871
:10423000012AF6DBDFF8A05405F55B77311D38461F
:1042400000F0FEFB064682B2394604F5AD6002F08E
:10425000FDFA42F2107105F6CC00FFF702FB33467F
:104260003A460FF2C0510720FFF70EF805B0F0BD37
:104270006178884208BF002E0CD147F23051DFF838
:104280005C04FFF7EEFA0FF2A4510C20FEF7D5FF05
:1042900005B0F0BDE178884249D1002E7CD00220E3
:1042A00000F000FB074602A80021002206C0DFF84C
:1042B000285405F6DC00B04203D03278314600F0D5
:1042C00039FD0422711C02A800F034FD707A8DF8CB
:1042D0000C003B466888421C052001906A8002A8B9
:1042E000009092B2022104F1180000F055FB012861
:1042F0000FDB606104F114026888A88004F29C500E
:10430000A178FFF705FC42F2107105F6CC00FFF72B
:10431000A8FA00220221DFF8C803FFF7EAF9002219
:104320002021DFF8A803FFF7E4F905B0F0BD2179FB
:10433000884231D1002E4BD0022000F0B3FA07465C
:1043400033780FF2F441721C0720FEF79DFFDFF86F
:1043500088536888421C6A803B463078019092B24C
:10436000701C0090042104F1180000F015FB0128D6
:10437000FFF657AF606104F114026888A88004F268
:104380009C50A178FFF7C4FB42F2107105F6CC00F7
:10439000FFF767FA05B0F0BD617A884218D196B38D
:1043A000022000F07FFA0646CE4F0FF28C41072321
:1043B0003A460720FEF768FFC74D6888421C062072
:1043C00001906A80781C39780090334692B2CAE72F
:1043D0006179884217D18EB3022000F063FA074654
:1043E00033780FF25441721C0720FEF74DFFBA4D8F
:1043F0006888421C6A803B463078019092B2701CFB
:1044000000900D21AFE7E179884217D196B30220E1
:1044100000F048FA074633780FF21C41721C07205F
:10442000FEF732FFAC4D6888421C6A803B4630780C
:10443000019092B2701C00900C2194E7A1798842FF
:1044400018D1002E4CD0022000F02CFA0746337809
:104450000FF2E431721C0720FEF716FF9E4D6888AC
:10446000421C6A803B463078019092B2701C0090EA
:104470000B2178E7217A884217D18EB3022000F011
:1044800011FA074633780FF2B031721C0720FEF79D
:10449000FBFE914D6888421C6A803B463078019053
:1044A00092B2701C009013215DE7A17A884217D167
:1044B000B6B1022000F0F6F9074633780FF27831F2
:1044C000721C0720FEF7E0FE834D6888421C6A805C
:1044D0003B463078019092B2701C0090152142E763
:1044E00088287FF49EAE7C4D05F6BC07BE4232D1D3
:1044F000022000F0D7F9064605F10800FDF70AF89A
:104500006A88288930B18000801C80B2019005F152
:10451000080000E0019000903346012104F11800EA
:1045200000F03AFA012812DB606104F11402688895
:10453000A88004F29C50A178FFF7EAFA42F21071C9
:1045400005F6CC00FFF78DF96888401C688047F2BB
:10455000305138461CE705F6CC0086422DD10FF2CB
:10456000E0210C20FEF769FE2878022820DB207B62
:1045700002281BD10FF2DC210A20FEF75EFE00208C
:104580002073002204215148FFF7B3F8012080F383
:104590001388BFF34F8F5448544A016801F4E06117
:1045A00011430160BFF34F8F00BFFDE7002028706B
:1045B0002878401C287005B0F0BD04F2C450FFF705
:1045C00062F900283FF42DAE0FF2B0210A20FEF769
:1045D00034FE002204213D48FFF78BF8012080F3D0
:1045E0001388BFF34F8F4048404A016801F4E061EF
:1045F00011430160BFF34F8F00BFFDE738B504469C
:1046000008461146228822B140F25A339A422CD0F1
:104610002EE0264DFFF766F92870FFF763F9687002
:10462000FFF760F9A870FFF75DF9E870FFF75AF936
:104630002871FFF757F96871FFF754F9A871FFF770
:1046400051F9E871FFF74EF92872FFF74BF96872DC
:10465000FFF748F9A8720C200FF22C21FEF7EDFDB0
:1046600040F25A302080012032BDFFF7B4FDF7E759
:1046700000202080032032BD38B502F089F902F015
:10468000FAFA02F017FB094C002104F28C50FFF7F4
:104690002EF904F29C5500212846FFF728F961788D
:1046A0002846BDE838400022FFF732BA400000201B
:1046B0004C000020447D0020133C0008B73B00085C
:1046C00040980020949700201CAC0020001001406E
:1046D00048B600204CB6002018410020D4490020E4
:1046E000000C0140300700200CED00E00400FA054A
:1046F00044617461207265636569766564206672E1
:104700006F6D2000206F6E20706F72742025642002
:1047100066726F6D20706F727420256420776974E3
:1047200068206C656E6774682025643A200A000072
:10473000736F756E645F6C696768745F6D61635FEA
:104740006E756D3A307825580A0000004750525374
:104750005F465F434D445F41534B5F54494D455F56
:1047600041434B0072662D3E0000000047505253FB
:104770005F465F434D445F454C4543545249434176
:104780004C5F434F4E54524F4C0A00004750525317
:104790005F465F434D445F454C455F5345545F540E
:1047A00048524553484F4C445F56414C0A00000064
:1047B000475052535F465F434D445F574154455203
:1047C0005F5345545F56414C0A0000004750525316
:1047D0005F465F434D445F57415445525F434143F9
:1047E00048450A00475052535F465F434D445F4877
:1047F0004F53545F52455345540A0000475052539B
:104800005F465F434D445F534F554E444C494748C4
:10481000545F52455345540A000000003C2D697016
:104820000000000049502D3E00000000495048653E
:104830006172740A000000005452414E00000000F2
:1048400049502041434B2054494D45204F55540A6F
:10485000000000002D2D2D2D2D2D2D2D2D2D2D2D3C
:104860002D2D2D2D2D2D2D2D2D2D2D2D2D2D2D2D78
:104870002D736574206D6F64650A000065745F7246
:1048800065626F6F740D0A0069705F646174615FC7
:1048900070726F636573730A000000002F5F2BF85E
:1048A0002F48704738B1072805DA2E49401EC0B29C
:1048B00051F820007047002070472DE9F0410400B6
:1048C00082B0154647D0072C45DA2648244E264F9D
:1048D00000930B4650F824200FF290010920FEF7B8
:1048E000ACFC40F27E3842463946304602F072FD5A
:1048F000012C03D1B81C29460C2214E0022C04D14F
:1049000007F10E00294608220DE0032C04D107F11F
:1049100016002946082206E0042C06D107F11E00E5
:1049200029464FF4587200F005FA43463A460FF212
:1049300058010920FEF7A8FCE0223946304602F073
:1049400009FD434632460FF248010920FEF79CFC60
:104950000020BDE8F6814FF0FF30BDE8F681000091
:1049600000500308B0060020144A002053543A3087
:1049700078253038582B3078253034585B737A20BE
:1049800025645D0D0A000000664E464F00000000E1
:10499000464E464F00000000F8B50D460446194645
:1049A000002614B94FF0FF30F2BD7E202070E27077
:1049B0000E206070A570100A20716671A671042225
:1049C000E01D00F0B7F9069900291CBF079A002ADC
:1049D00003D105206071A67114E0501D6071101D97
:1049E0000012A0710B2D18BF0C2D03D0252D18BF60
:1049F000272D02D16079401E6071164604F10B002C
:104A000000F098F9012D06F10B0705D169490978E5
:104A10003019761CC1727F1C791E89B2601C02F0AD
:104A2000F7FCB6B23219010AD172761CB6B231194E
:104A3000C872711C89B209197F20C872F81CF2BDB6
:104A400038B50024FAB10D78631C1A2D03D1EF2577
:104A50002554EA240FE0EF2D02D12554EF240AE07B
:104A60001B2D03D1EF252554EB2404E0032D05D1A4
:104A7000EF252554E3241C545C1C01E025541C46FE
:104A8000491C521EDFD10FF25C110620FEF7D5FB48
:104A9000204632BDF0B400240023551E02E01E540F
:104AA0005B1C641CAC4219DA665CEF2EF7D1671808
:104AB0007F78EA2F0CD0EF2F06D0EB2F0AD0E32F10
:104AC0000AD0E72FEBD17F261E545B1C641CE8E75D
:104AD0001A26F9E71B26F7E70326F5E7511811F820
:104AE000011C1954581CF0BC704770B504460025D1
:104AF000002C5DD020787E281CBF60780E2801D065
:104B0000002070BD0026204610F8011B7F2907D128
:104B100035462A460FF2D8010C20FEF78EFB12E034
:104B200010F8011B761C7F291EBF761C10F8011B94
:104B30007F291EBF761C10F8011B7F29E8D0761C48
:104B4000B6F57A7FE0D3B6F57A7F2ED01A4E4FF4C1
:104B50007A713046FEF7CAF96A1C92B22146304695
:104B6000FFF798FF0446234632460FF294010A20CD
:104B7000FEF78AFB22460FF290010C20FEF75DFB48
:104B8000A01910F8031D407840EA0125211F89B2C1
:104B9000701C02F03DFC044623462A460FF27C01BD
:104BA0000C20FEF74AFBA54201D0002070BD012079
:104BB00070BD000048BE0020D4A4002010B4002224
:104BC000002310B910BC70475B1C8B4207DA1C5CD9
:104BD0007E2C02BF1C1864780E2CF5D11A1810BC5C
:104BE00010467047434F444520305831410A000079
:104BF00055574C454E203D20253034780A000000A2
:104C00003C2D677000000000706275666665725F1B
:104C10006C656E203D20253034780A00757743524C
:104C20004346203D20253034782075774352432079
:104C30003D20253034780A00F8B504461646208811
:104C400010B14B2812D030E0384F381D02F0FDFC77
:104C5000054604E0A968281DFEF703FE2D68002D17
:104C6000F8D1012038704B20208001E0882901D044
:104C70000120F2BD2D4F381D02F0E7FC054600E093
:104C80002D68002DEFD0281DB042F9D12946381DDE
:104C900002F008FD264E686937683060A96908008F
:104CA0001CBFE86988473760DDE7002020800320CB
:104CB000F2BD10B51D4C00202070201D02F0C2FC7A
:104CC00004F10800BDE810400021FEF710BEF8B561
:104CD000174D164E044628686061A261E361307882
:104CE00040B12F6806F108002860201DFEF7B9FDCD
:104CF0002F6000E0A1602146301D01E02146281D03
:104D0000BDE8F44002F0A3BC38B5084D044628784D
:104D100018B1201DFEF7C9FD01E0E06020612146C9
:104D2000281DBDE8344002F0BDBC000098060020FC
:104D300024BE002062B38B0708D0521E11F8013B3D
:104D400000F8013B00F024808B07F6D1830740F088
:104D5000208000BF103A07D330B4B1E83810103AC1
:104D6000A0E83810F9D230BC530724BFB1E80810CE
:104D7000A0E8081044BF51F8043B40F8043BD207B8
:104D800024BF31F8022B20F8022B44BF0B780370AC
:104D90007047083A07D3B1E80810083A40F8043BD6
:104DA00040F804CBF7D25307E4E7000038B51E4CB7
:104DB0002068401C2060FEF76CFD30B12568FEF7CE
:104DC0006DFD854228BFFEF72DFDA068401E04D171
:104DD0006068401C60604FF47A70A06031BD124979
:104DE000002008604FF47A7110480068B0FBF1F0C1
:104DF000401EB0F1807F08D20D490E4A4860F02075
:104E0000107000208860072008607047064800681E
:104E1000704705490A680B689B1A8342FBD37047A9
:104E200001484068704700001406002090220020CE
:104E300010E000E023ED00E0524802F006BC00283C
:104E400018BF02F058BC704738B504464D4802F010
:104E5000FCFB01E002F04FFC050008D00422691DB4
:104E60002046FEF7C5F900282846F3D132BD0020C0
:104E700032BD70B50646701DFFF7E6FF040011D085
:104E80000423721D3DA10820FEF7FEF90FF2FC017C
:104E90000820FEF7D2F9FFF7C3FFE0600120207180
:104EA000204670BD364C201D02F036FC050006D1B0
:104EB0000FF2F0010620FEF7C0F9002070BD0FCE02
:104EC0000FC5103DFFF7ACFFE860294601202871AF
:104ED00004F1100002F0BBFB2068401C2060284653
:104EE00070BD38B50446264D214605F1100002F08C
:104EF000D9FB2146281D02F028FC2868401E2860A6
:104F000031BD38B51F48204D02F09FFB04000BE077
:104F1000FFF786FFE168691888428041C00F207161
:104F2000204602F0E8FB0400F2D131BD2DE9F0414A
:104F300014480FF2AC050FF2A0060FF28C070FF227
:104F4000780802F082FB040014E021794046FEF765
:104F50001AF9E1683846FEF716F90423621D314656
:104F60000020FEF791F92846FEF70DF9204602F0E1
:104F7000C2FB0400E9D1BDE8F08100006D6163006F
:104F80000407002014070020745301007468652092
:104F90006E6F646520697320696E206C6973740D8F
:104FA0000A0000006E6F20737061636520666F7287
:104FB000206E6F64650D0A006E6F64657374612006
:104FC0003D2025640A0000007265762074696D65D5
:104FD000203D2025640A00004E4D414300000000A2
:104FE0002D2D2D2D2D2D2D2D2D2D2D2D2D2D2D2DF1
:104FF0002D2D2D2D2D2D0A00F8B504000D46164639
:1050000004F10D0702D14FF0FF30F2BD7E20207079
:10501000BB2116206070A172FF20A070E07020718B
:105020006071A071E07120726072E07225730A20D5
:105030003870FF220421781C02F0BAFB04223146AA
:10504000781DFFF777FE7D72601C617802F0E0F951
:10505000B8722246000AF8720D2038730FF2A031A0
:105060006078051D2B460920FEF70EF92846F2BD93
:10507000F8B505460420FFF715FC2946872918BF17
:10508000892923D1B0F82223002A00F0B880102A01
:1050900080F2B580D44C04F140067378934202D379
:1050A0000022727002E00F2B80F2A380727800EB76
:1050B000820000F54972892908BF88212046FFF740
:1050C0009BFF0128C0F29580C1B28FE088292ED1C4
:1050D000C6480078002800F09280102880F28F8067
:1050E000C14C04F140067378834202D300207070F3
:1050F00001E00F2B7DDA7778BD4D0FF2F0310422FD
:1051000005EB870002F088FB002872D004EB8700D3
:105110000421443001F048F8707805EB80028821C2
:105120002046FFF769FF012863DBC1B25EE08629F4
:105130005FD1AD4C04F14006307800285FD01028D4
:105140005DDA7378834202D30020707001E00F2B88
:105150004FDA75780FF2943104EB85000422443065
:1051600002F05AFB002844D0A148042100EB85003E
:1051700001F01AF8707804EB800000F144057E20FD
:105180002070BB2116206070A172FF20A070E0701B
:1051900020716071A071E07120726072E072FF2274
:1051A0008720207304210A20607304F10E0002F0AE
:1051B000FFFA0422294604F11200FFF7BBFD872005
:1051C000A075601C617802F023F9E0752246000AA0
:1051D00020760D2060760FF228216078051D2B4681
:1051E0000920FEF751F8012D03DBE9B22046FEF756
:1051F000D1F97D4C04F140067078401C7070F1BD0F
:1052000070B505460420FFF74DFB0446B4F82203B1
:105210000F2840DA208800283DD0002600E0761CC8
:10522000B4F82213F0B288420BD2F6B204EB860037
:1052300000F5497104222846FDF7DAFF0028EED177
:1052400070BD6C4E304621464FF45872FFF772FD28
:10525000B6F8220306EB80000422294600F54970C7
:10526000FFF768FDB6F822030FF29C11401CA6F868
:10527000220306F549720004830B0820FEF704F8A8
:105280004FF45873324600210420FFF716FBB4F8A0
:10529000220386F8600370BD2DE9F04505465348AA
:1052A00083B00C0004701ED00F2C1CDADFF8408194
:1052B0000FF2681A00274646042229463046FFF7B7
:1052C00039FDE87801905146A87800900C206B7861
:1052D00015F8042BFDF7B1FF7F1C361DA742EBDB51
:1052E00008EB840501E00024414D0FF2FC16042276
:1052F00031462846FFF71EFD641C2D1D0F2CF6DBE2
:1053000003B0BDE8F0853C4B1979187203F108022F
:1053100003F11000FEF7FCBB38B50446208810B13D
:10532000EF280DD058E0FEF7DDFA334908710C2064
:105330000FF29011FDF781FFEF202080012032BD98
:105340002D4D2879814227D132B310780FF2EC012C
:10535000286002460820FDF770FF2878882808BFDB
:105360000FF2FC010BD0872818BF862805D00FF25A
:1053700020110820FDF761FF20E00FF2FC0108205A
:10538000FDF75BFF40F22B20E86046F28F1105F13C
:105390003000FEF766FA11E088290FD105F12000F0
:1053A00082420BD005F13000824207D10FF2F801A2
:1053B0000820FDF742FF47F23050E86005F1200079
:1053C000E968FEF74EFA287888281CBF87288628C7
:1053D000B2D1FFF74DFEAFE700202080032032BDA1
:1053E00000210648FEF783BA08B600201FAC002053
:1053F00048B90020BCA800200000002010000020B8
:1054000072662D3E00000000416464536F756E6447
:105410004C696768745461626C650000736F756EE7
:10542000645F6C696768745F6D61633A2558202515
:10543000582025582025580A00000000736F756E0B
:1054400064206C6967687420737461746520636894
:10545000616E676520746F20253032580D0A000098
:10546000534F554E445F4C494748545F5354415441
:10547000455F4F4E0D0A0000534F554E445F4C4957
:105480004748545F53544154455F4F46460D0A0008
:10549000534F554E445F4C494748545F5354415411
:1054A000455F4552520D0A00534F554E445F4C49DB
:1054B0004748545F53544154455F4E4F4D414C0D46
:1054C0000A000000736F756E645F6C696768745FD3
:1054D0006D73675F68616E646C65725F70726F6335
:1054E0006573730A00000000000000000000000067
:1054F00010B5040084B011D0FFF792FC0390042291
:105500000020009004F10E0101208DF804000DF13F
:105510000500FFF70FFC6846FFF7ABFC04B010BDB9
:1055200070B50420FFF7BEF90088F8B1FFF784FCDE
:1055300011E005EB8600811C0422601DFDF758FE7A
:1055400030B1761C28888642F3DB2046FFF7C9FC81
:105550002046FFF774FC040008D00420FFF7A2F9EE
:105560000546002628880028ECD1F1E7FFF7C9FCA2
:105570000FF690210A20FDF760FEBDE87040002381
:10558000DFF8E029DFF8E00942F21071FFF79FBB76
:10559000F8B505462A4668780FF67821031D0920DC
:1055A00005F10D04FDF770FE607ACB2826D10FF6C9
:1055B0006C210C20FDF741FE2846FFF799FFA87AE1
:1055C000BB2804BF601CFFF71BFEDFF8A059E87A78
:1055D000022840F09281DFF898090178DFF89409F9
:1055E0002A46FEF795FADFF890090178DFF88C0972
:1055F0002A46FEF78DFA0020E872F1BDC12818BFD7
:10560000CA2819D10FF624210C20FDF716FE2846D2
:10561000FFF76EFF607ACA2804BF8820FFF773FE89
:10562000DFF85C090178DFF84C092246FEF770FAD2
:105630002246DFF8500959E1EE282ED1E078DD2826
:105640001CBF2079DD2800F058810FF6EC11DFF83F
:1056500038690C20FDF7F1FD20780FF6EC1106F10A
:10566000A007821F3A74D2B260787874A078B874B8
:10567000E078F8742079387506F1B0040C20FDF755
:10568000DCFDDFF808090178DFF8E8082246FEF7BC
:105690003FFA2246DFF8F80828E1C2281CD1DFF8DB
:1056A000E868207806F18005801F28702A46607817
:1056B0006870A078A870E078E87020792871A07AE6
:1056C0006871DFF8D0080178DFF8A808FEF720FA43
:1056D0002A46DFF8C40809E1C3281ED1DFF8A8680C
:1056E000207806F18005801F287260786872A078A3
:1056F000A872E078E87220792873A07A687306F1BE
:105700008804DFF898080178DFF868082246FEF779
:10571000FFF92246DFF88808E8E0C42816D1DFF850
:105720006868207806F18005801F287460786874A6
:10573000A078A874E078E87420792875A07A687554
:1057400006F190042246DFF85C08C7E0C7281ED1A6
:10575000DFF83468207806F18005801F28766078AD
:105760006876A078A876E078E87620792877A07A1D
:10577000687706F19804DFF830080178DFF8F4075D
:105780002246FEF7C5F92246DFF82008AEE0CC2815
:105790006FD121780B296CDB2846FFF7A9FE207812
:1057A000DFF8E467DFF8C4570A38307004F10A0103
:1057B000401D707006F1A007CC20B0706078F070CA
:1057C000A0783071E07870712079B0713078821DE6
:1057D0003270F01DD2B2FFF7ADFA0422611C05F160
:1057E000100002F019F840B10422611C05F110000C
:1057F000FFF7A0FA0120387601E0387E90B1DFF89B
:10580000B0070178DFF86C073246FEF781F9DFF860
:10581000A4070178DFF864073246FEF779F9002023
:105820003876F1BDA07C06281EBFA17E0729082876
:1058300017D0DFF87C070178DFF838073246FEF72B
:1058400067F9DFF870070178DFF830073246FEF7B6
:105850005FF9E87A022850D14FF4FA7105F174002B
:1058600003E041F2883105F16400BDE8F440FDF742
:10587000F8BFCE281AD1DFF81067207806F1A0070C
:10588000801F38703A4660787870A078B870E078F9
:10589000F87020793871A07A7871DFF81C070178E8
:1058A000DFF8D006FEF734F93A461DE0CD2824D1C2
:1058B000DFF8D466207806F1A007801F3872607880
:1058C0007872A078B872E078F87220793873A07A8C
:1058D000787306F1A8042246DFF8E0060178DFF8C5
:1058E0009406FEF715F92246DFF8D406BDE8F84025
:1058F0000178DFF88806FEF70BB9F1BD10B5044654
:10590000104622881AB1B2F5C37F05D00EE04FF4DD
:10591000C3702080012010BDDFF85026127A91421A
:10592000F5D10028F3D0FFF733FEF0E70020208008
:10593000032010BD2DE9F04780468946B8F80000E5
:1059400020B1B0F5097F00F02F8169E10FF21071ED
:105950000C20FDF772FCFDF7C5FFDFF8101608728A
:10596000DFF80866DFF85C7606F1840000F084FC5E
:10597000B9F1880F054607F1800420D107F18800AE
:10598000FDF781FF38B10FF2EC610820FDF755FCFF
:1059900000206060387007F1A80A5046FDF773FFD9
:1059A00068B100220421DFF82006FDF7A2FE0FF205
:1059B000CC610C20FDF741FC5046FDF757FF15F177
:1059C000010F16D1207838B9DFF8001607F1A800CA
:1059D000FDF747FF0120207001220421DFF8E805D0
:1059E000FDF787FE4FF40970A8F800000120BDE81C
:1059F000F0876068812880F2D480C555401C6060C3
:105A0000012804BF38787E2810D1002020700C2097
:105A10000FF27861FDF711FC4FF4FA7107F188007D
:105A2000FDF71FFF07F1A800FDF720FF38787E285B
:105A300040F0B78060681028C0F2B680F97897F817
:105A40000DA03879FF2908BFFF280DD0B071A02222
:105A500032707171FF20F87038710120F0720C20E3
:105A60000FF23061FDF7E9FB7978781C01F0D0FC8A
:105A70000AEB0701897BB1EB202F01BF0AEB07017D
:105A8000497BC0B2814240F08F800D2D01BF7878F4
:105A9000001D6168884240F087800420FEF702FF05
:105AA00079787B7BA1F10C029A4276D1008868B3A9
:105AB0000B1D3A460FF234510A20FDF7E5FB042393
:105AC00007F10E020FF22C510A20FDF7DDFB042036
:105AD000FEF7E8FE05464FF0000A288810B90EE0F0
