:020000040800F2
:100000009022002005140108811001088B100108BE
:10001000951001089F100108A910010800000000B8
:10002000000000000000000000000000B310010804
:10003000B910010800000000BF100108316000087D
:100040005114010855140108591401085D140108E0
:100050006114010865140108E50D0108150E010879
:10006000691401086D140108711401087514010860
:10007000791401087D140108811401088514010810
:1000800089140108F50F01088D1401089114010865
:1000900095140108991401089D140108A114010880
:1000A000A5140108A9140108AD140108B114010830
:1000B0006DF30008B5140108B9140108BD14010856
:1000C000C1140108C5140108C9140108CD140108A0
:1000D000D1140108CD310008ED31000821320008AB
:1000E000D5140108D9140108DD140108E114010830
:1000F000E5140108E9140108ED140108F1140108E0
:10010000F5140108F9140108FD140108011501088E
:10011000413200086132000805150108091501087F
:100120000D1501081115010815150108191501080B
:1001300010B590B004466846402102F097FD224673
:100140006CA1684602F0E6FE684602F0F5FE034642
:100150006A46DFF8A41B032002F056FF684602F04F
:10016000EBFE0146684603F0E5F8002010B010BD34
:1001700038B504460D46284602F0DEFE00210A2866
:100180001EDB01EBD1725210B1EB420205D14A19CC
:100190000B1952780A554A5D5A70491C8142F0DBAE
:1001A0000219462102F8011C2246411911F8011CCE
:1001B00001550820BDE838400FF2080102F0FDBEED
:1001C00031BD0000534D533D25730A0070B5044600
:1001D000208830B14FF48571401A1BD0401F3CD0AD
:1001E0006DE00121DFF88C0B03F048F90FF2D80124
:1001F000032002F0E2FE01220221DFF87C0B03F073
:1002000038F941F28831DFF8740B03F0EAF94FF462
:10021000857020E0DFF8D85A9C35284603F0F3F9C2
:1002200010B3DFF8546B00220221304603F021F9AD
:1002300000222021DFF8480B03F01BF900224FF4C5
:100240000041304603F015F941F28831284603F0A9
:10025000C8F940F20F10208006E0DFF8945A05F14B
:100260009C0003F0D0F908B9012070BD0FF26C06B4
:1002700031460C2002F0A1FE002105F13C0003F004
:10028000F6F905F14C0003F075FA05F15C0003F096
:1002900071FA01222021DFF8E80A03F0EAF80122CE
:1002A0004FF40041DFF8D00A03F0E3F831460C20A8
:1002B00002F083FE0021DFF8BC0A03F0DFF8002023
:1002C0002080032070BD000073696D393030615F9C
:1002D000686172645F696E69740D0A0073696D39D3
:1002E0003030615F686172645F696E6974320D0AF3
:1002F0000000000025730A002DE9F04704460F4670
:100300002088DFF8EC69154690B140F2C911401A17
:1003100025D015385DD0113800F09180153800F0E7
:10032000D2800F3800F00B81103800F02F816CE183
:1003300006F13C00B062002030760FF2E02102F0BE
:100340003CFE00203076B3A0FFF7F2FE41F2883188
:1003500006F1CC0003F045F940F2C91014E106F1B2
:10036000CC08404603F04FF918B93078874240F086
:1003700016813078874215D1A5B1A7A1284603F090
:10038000BDFA0746404603F050F9284602F0D4FD76
:1003900003462A469FA1032002F036FE17B1002033
:1003A000307407E00120F075307E401C3076C0B21A
:1003B0000528C8DB002030760FF27820FFF7B8FE62
:1003C00041F2883106F1CC0003F00BF94FF4EF70E5
:1003D000DAE006F1CC08404603F015F918B9307898
:1003E000874240F0DC803078874213D195B18AA1F2
:1003F000284603F083FA0746404603F016F92846DC
:1004000002F09AFD03462A460FF22821032002F04B
:10041000FBFD2FB9307E401C3076C0B20528CBDB07
:10042000002030760FF21420FFF782FE41F288316F
:1004300006F1CC0003F0D5F840F2EF10A4E006F18D
:10044000CC08404603F0DFF818B93078874240F016
:10045000A6803078874221D105B36FA1284603F0EA
:100460004DFA81460FF208273946284603F046FA2E
:100470008246404603F0D9F8284602F05DFD034667
:100480002A463946032002F0BFFDB9F1000F18BF1C
:10049000BAF1000F02D00120307405E0307E401C1C
:1004A0003076C0B20528BDDB002030760FF2981000
:1004B000FFF73EFE41F2883106F1CC0003F091F8DF
:1004C0004FF4017060E006F1CC08404603F09BF861
:1004D00010B93078874262D1307887421DD1E5B1BA
:1004E0004DA1284603F00AFA07460FF2681949465B
:1004F000284603F003FA8246404603F096F8284661
:1005000002F01AFD03462A464946032002F07CFD0C
:10051000002F18BFBAF1000F05D1307E401C307695
:10052000C0B20528C2DB0FF23410FFF701FE41F222
:100530008831404603F055F840F2132024E006F1DC
:10054000CC08404603F05FF848B3307887420DD1BD
:1005500065B1404603F069F8284602F0EDFC034619
:100560002A460FF20841032002F04EFD00203076AB
:100570000FF2F000FFF7DCFD41F2883106F1CC000C
:1005800003F02FF840F22320208008E006F1CC0889
:10059000404603F038F828B93078874202D001206D
:1005A000BDE8F087307887421ED1EDB11AA1284608
:1005B00003F0A4F981460FF2B8073946284603F044
:1005C0009DF98246404603F030F8284602F0B4FC1C
:1005D00003462A463946032002F016FDB9F1000F02
:1005E00018BFBAF1000F05D1307E401C3076C0B282
:1005F0000528BDDB01203074002106F14C0003F01A
:1006000036F806F13C0003F0B5F800202080032006
:10061000BDE8F087415400004F4B000073696D390D
:100620003030615F636865636B5F70726F636573C1
:10063000730D0A00415445300000000041542B4323
:1006400050494E3F0000000041542B4346554E3F59
:1006500000000000434F50530000000041542B4362
:100660005351000041542B43475245473F0000007F
:100670004350494E000000002DE9F84304460F4660
:100680002088DFF86C66154690B140F2BB21401A15
:100690001FD015384DD0153800F08580463800F051
:1006A000AA80143800F0DC80153800F00F813FE19B
:1006B000707606F14C00B0620FF28820FFF738FD2B
:1006C00041F2883106F1DC0002F08BFF40F2BB20E2
:1006D000FAE006F1DC08404602F095FF002800F041
:1006E000FE803078874215D1A5B194A1284603F049
:1006F00005F993A1284603F001F9404602F095FF61
:10070000284602F019FC03462A460FF26021032016
:1007100002F07AFC002070760FF23820FFF708FD17
:1007200041F2883106F1DC0002F05BFF4FF43470D7
:10073000CAE006F1DC08404602F065FF002800F040
:10074000CE80307887421CD1DDB17CA1284603F0F1
:10075000D5F807467AA1284603F0D0F881464046EE
:1007600002F063FF284602F0E7FB03462A460FF239
:10077000FC11032002F048FCB9F1000F18BF002F54
:1007800005D1707E401C7076C0B20528C4DB0FF224
:10079000D010FFF7CDFC41F28831404602F021FF36
:1007A00040F2E52090E006F1DC08404602F02BFF25
:1007B000002800F09480307887420DD165B1404622
:1007C00002F033FF284602F0B7FB03462A460FF239
:1007D0009C11032002F018FC002070760FF2941098
:1007E000FFF7A6FC41F2883106F1DC0002F0F9FEC9
:1007F00040F22B3068E006F1DC08404602F003FFCF
:1008000010B9307887426AD13078874213D195B1D8
:100810004BA1284603F072F80746404602F005FF58
:10082000284602F089FB03462A460FF2681103208E
:1008300002F0EAFB2FB9707E401C7076C0B205282A
:10084000CCDB002070760FF25410FFF771FC44F6F9
:10085000206106F1DC0002F0C4FE40F23F3033E0DC
:1008600006F1DC08404602F0CEFE10B9307887422F
:1008700035D13078874213D195B131A1284603F0A4
:100880003DF80746404602F0D0FE284602F054FBF1
:1008900003462A460FF21411032002F0B5FB2FB9CC
:1008A000707E401C7076C0B20528CCDB00207076CC
:1008B0000FF20010FFF73CFC41F2883106F1DC003A
:1008C00002F08FFE4FF45570208008E006F1DC083E
:1008D000404602F098FE28B93078874202D00120C5
:1008E000BDE8F2833078874213D195B114A1284630
:1008F00003F004F80746404602F097FE284602F04F
:100900001BFB03462A460FF2BC01032002F07CFBCE
:100910002FB9707E401C7076C0B20528C8DB00215C
:1009200006F15C0002F0A3FE06F14C0002F022FF8B
:10093000002020800320BDE8F28300003100000089
:100940004F4B000041542B53494D434F4D415449A7
:100950000000000041542B434E4D503F000000006A
:1009600041542B435053493F000000004C41535326
:100970000000000041542B4347534F434B434F4E1D
:10098000543D312C224950222C22434D4E455422B5
:1009900000000000434744430000000041542B4343
:1009A000534F434B534554504E3D31004347415400
:1009B0000000000041542B4349504D4F44453D3009
:1009C0000000000043534750000000002DE9F041B3
:1009D000044682B02088C64D0F46164648B140F204
:1009E000FF31401A1AD011384DD04A3800F08D80AE
:1009F000F0E005F15C00A8620020A8760FF2E0109C
:100A0000FFF796FB41F2883105F1EC0002F0E9FDB9
:100A100040F2FF3020800120BDE8F68105F1EC08AE
:100A2000404602F0F0FD10B928788742F3D12878CB
:100A3000874213D196B1AFA1304602F05FFF07465F
:100A4000404602F0F2FD304602F076FA03463246A6
:100A50000FF29811032002F0D7FA2FB9A87E401C9C
:100A6000A876C0B20528C9DB0020A8760FF2841052
:100A7000FFF75EFB41F2883105F1EC0002F0B1FDB9
:100A80004FF48260C6E705F1EC08404602F0BBFD7A
:100A900010B928788742BED12878874216D1AEB1E6
:100AA00094A1304602F02AFF0746404602F0BDFD01
:100AB000304602F041FA034632460FF24411032059
:100AC00002F0A2FA17B10320287405E0A87E401CAA
:100AD000A876C0B20528C9DBDFF8100A6B6A0FF2EE
:100AE0002811009005F1FC06A0A2304602F012FA8F
:100AF0003046FFF71DFB0020E87642F210714046B9
:100B000002F06FFD40F25A4084E7882F04BF05F1E0
:100B1000EC08464522D105F1FC00FFF709FB42F243
:100B20001071404602F05DFDE87E0A2812D10020D7
:100B3000E876002105F12C0002F099FD05F12C006A
:100B4000A86205F15C0002F015FE0FF2D40103204B
:100B500002F033FAE87E401CE876D3E72878874233
:100B6000E2D1002EE0D00FF2CC01304602F0C6FEFA
:100B70000028D9D00A20287402F0DAFE007838B9AB
:100B8000012002F0D1FE0FF2BC010A2002F015FA9A
:100B90000120687405F16C00A86205F1EC0002F018
:100BA00044FDE978002205F16C0002F071FE304648
:100BB00002F0C2F9034632460FF2AC01032002F004
:100BC00023FA0FF2AC010C2002F0F7F905F15C00FA
:100BD00002F0D0FD002020800320BDE8F681000057
:100BE00041542B4E45544F50454E00004C4F5345F9
:100BF0000000000041542B49504144445200000081
:100C0000534855540000000041542B4349504F5065
:100C1000454E3D25732C222573222C2C2C25730048
:100C2000636F6E6E656374206661696C65640D0A3E
:100C3000000000002B4349504F50454E3A20302CC5
:100C4000300000002D2D2D2D2D2D2D2D2D2D2D2D58
:100C50002D2D2D2D2D2D2D2D2D2D2D4E4554534526
:100C6000544D4F44450A00004950535400000000C1
:100C700073696D393030615F7463707564705F6380
:100C80006F6E5F70726F6365737320657869740D42
:100C90000A00000030B583B044880578042003F0D2
:100CA000C1FC022003F0BEFC0346F5B90020019010
:100CB0000090E2B2DFF838580621281D03F02CFD21
:100CC0000128024611DB2860291DDFF82848201D75
:100CD00003F072FD20602246DFF81C0841787C306A
:100CE00002F0D6FD2B682A1D08E003B030BD0000DD
:100CF0000C0B00204F4B00003C2B000803B0BDE85C
:100D000030400FF20801072002F07EB953594E43DC
:100D1000000000007CB50488DFF8D457022003F0FF
:100D200081FC034600200190009022469921281D55
:100D300003F0F2FC012818DB0D4C217C0A2914D1A8
:100D4000286008200FF23C01DFF8A86702F035F9AF
:100D50002A68291D301D03F02FFD3060324661786E
:100D600004F17C0002B001F0A3B873BD30000000B4
:100D70000C0B00200004300000080140A80B0020EC
:100D8000000C01405320594E432041434B0D0A00B3
:100D9000002110F8012B0AB10120704710F8012B37
:100DA000002A04BF10F8012B002A04BF10F8012B01
:100DB000002AF1D1091D2829EBD30020704700003B
:100DC0002DE9F043054685B00C461746042003F094
:100DD00029FCE8782979DFF8208740EA012668793C
:100DE000A97940EA0129002088F81400A8789928F8
:100DF0001FD1334622460FF20451082002F0DDF8DD
:100E00000020B44288F8130040F07582384602F0A2
:100E10000CFCDFF8E846DFF8E82604F5967004F5E8
:100E2000B273007B18705E804FF47A7104F25C50EC
:100E300038E0032839D10220DFF8C04603F0F2FB86
:100E400004F59677387B08B901203873002088F8BC
:100E5000120004F5BA774FF45871384601F006FFD6
:100E6000B9F1050F13DB05F10B00018879B104F529
:100E7000B2738A001982811C04F5BB7003F086FDF1
:100E80004FF458733A460021042003F0D6FB04F5D2
:100E9000B27004F5B87386814FF47A71DFF8A02D33
:100EA00004F27C5003F0F9FD25E205284DD105F14F
:100EB0000B08B44204BF384602F0B7FBDFF83C46EB
:100EC00004F59E762821304601F0D0FEA9F10400F9
:100ED0002828C0F21082282205F10B01304603F0C9
:100EE00055FD002016F8011B59B916F8011B41B930
:100EF00016F8011B29B916F8011B11B9001D282885
:100F0000F0D398F82820002A00F0F581D52A80F245
:100F1000F28108F12901601C03F038FD627B0FF2B9
:100F2000FC3104F596770C20BA7302F046F8B87BD2
:100F30000019817B79730F3003F032FF7A7B0FF257
:100F4000F4310C2002F039F8D5E10E284ED1B4422C
:100F500004BF384602F069FB0FF2F431DFF89C451C
:100F60000C2002F02AF80422E91D01A803F00EFD6E
:100F7000042205F10B01684603F008FD04F5B47185
:100F8000084605F10F02082315782D0905EB8506A3
:100F900075000570167806F00F06A6F10A07052FF2
:100FA00010D8DFE807F0030507090B0D0A350AE042
:100FB0000B3508E00C3506E00D3504E00E3502E097
:100FC0000F3500E07519521C5B1E00F8015BDBD188
:100FD00004F29C54204604F014FC222322460FF213
:100FE000E031092002F010F8222138E00F2817D153
:100FF000B44204BF384602F018FB0422E91D02A8DF
:1010000003F0C4FC042205F10B0101A803F0BEFCAF
:10101000E87BDFF8E844009004F2D444C52318E0EC
:101020000A2820D1B44204BF384602F0FEFA042256
:10103000E91D02A803F0AAFC042205F10B0101A896
:1010400003F0A4FCE87BDFF8B444009004F2D4443D
:10105000C22301AA02A9204604F031FC1B2120462C
:1010600002F058F947E112282DD1B44204BF3846A6
:1010700002F0DBFA0FF2F021DFF880440C2001F0DF
:101080009CFF04F58076122030700422E91D04F2E2
:10109000011003F07BFC042205F10B0104F20510A2
:1010A00003F074FCC4207072082205F10F0104F5EE
:1010B000857003F06BFC122004F59E6400903346AB
:1010C000C422DD217BE0142838D1B44204BF384665
:1010D00002F0ABFA0FF2B421DFF820440C2001F04B
:1010E0006CFF04F580760E2030750422E91D04F2B1
:1010F000151003F04BFC042205F10B0104F219104A
:1011000003F044FCC62070770C2205F10F0104F5B2
:101110008F7003F03BFC1620009004F2145504F588
:101120008A73C622FF21284604F0D2FC0446E1B2AD
:10113000284602F0EFF8E3B22A464AE0DD2811D152
:10114000B44204BF384602F070FA0FF240210C207E
:1011500001F033FFDFF8C41C4FF00060086004F0BA
:1011600001FDC8E018283AD1B44204BF384602F065
:101170005CFA0FF23421E14C0C2001F01EFF04F563
:1011800096770A2038700422E91D04F22D1003F02E
:10119000FDFB042205F10B0104F2311003F0F6FB14
:1011A000C820787204F59B7105F10F0004F23C54DD
:1011B00002780A700B2000903B46C822FF2120468F
:1011C00004F086FC0546E9B2204602F0A3F8EBB233
:1011D00022460FF2EC110C2001F016FF8BE01028D4
:1011E0001FD1042003F01EFAB44204BF384602F0B7
:1011F0001CFA872003F00BFEDFF8241C0978002975
:1012000008F5BE701ABF4FF4FA62514341F28831BB
:1012100002F0E7F900220421DFF8080C02F029F9B6
:1012200069E011281ED1B44204BF384602F0FDF92E
:10123000DFF8F44BE87ADFF8F47B207000260AE050
:1012400005EB860000F10C01042207EB860003F099
:101250009DFB761CF6B220788642F1DB862003F0F7
:10126000D6FD48E0D02846D1B44204BF384602F04B
:10127000DCF90422E91D03A803F088FB042205F130
:101280000B0102A803F082FBE87B9C4C009004F267
:10129000D444872302AA03A9204604F010FB1B2193
:1012A000204602F037F81B2322460FF21411904C0F
:1012B0000C2001F0A9FE04200190721C02A80090ED
:1012C00003AB92B2D121201D03F026FA012812DBD4
:1012D00098F810200A2A0ED120600246854D211D63
:1012E000281D03F069FA28602A4698F8011008F1D1
:1012F0007C0002F0CDFA05B0BDE8F0837577536548
:101300006E64536571203D20253034782020757738
:10131000536571203D20253034780A006572725F74
:10132000616464726573735F6E756D3A30782558C9
:101330000A000000736F756E645F6C696768745FA4
:101340006D61635F6E756D3A307825580A00000054
:10135000475052535F465F434D445F41534B5F5488
:10136000494D455F41434B00475052535F465F43F1
:101370004D445F454C455F5345545F544852455377
:10138000484F4C445F56414C0A00000047505253AE
:101390005F465F434D445F57415445525F53455448
:1013A0005F56414C0A000000475052535F465F436E
:1013B0004D445F57415445525F43414348450A00FD
:1013C00072662D3E000000002DE9F047044604201F
:1013D00003F028F900270546B84624B14FF45871A8
:1013E000204604F0D3FB2888002851D004F0D2FB1B
:1013F00006460FF2A0090FF2A40A18E0307990B95E
:1014000004EB8700801C0422711D03F0BFFA7F1CCF
:101410003A4651460A2001F0D0FD0423721D494688
:101420000A2001F0F1FD304604F0B7FB0646002E1D
:10143000E4D1288880452ADA05EB880604F0AAFB67
:1014400006F1020909E0042249460AF1050001F00B
:101450008FFDC8B1504604F0A0FB5FEA000AF2D14C
:1014600004EB8700801C0422B11C03F08FFA7F1C60
:101470003A460FF234010A2001F09FFD0423B21C0A
:1014800019A10A2001F0C0FD08F10108D1E7278069
:10149000BDE8F0874F555431000000006931203D10
:1014A0002025640A0000000069203D2025640A0010
:1014B00038B50446DFF87C5905F12C00A8620920F4
:1014C00028740020687402F02FFA002105F12C0026
:1014D00002F0CDF80FF22C01032001F06EFD204642
:1014E000BDE8324002F0A1B84F5554001026000864
:1014F000E0810020348700200C0B0020186C0020B5
:10150000950C000873696D393030615F7265636FE7
:101510006E6E6563740A00002DE9F043DFF814492C
:10152000FDB00F462178884240F0B080002F00F0D7
:10153000AD800FF21071384602F0E0F930B1DFF8FB
:10154000F808FFF7B5FF0FF2047124E00FF20871FD
:10155000384602F0D3F910B10FF204711BE00FF21C
:101560000C71384602F0CAF930B1DFF8CC08FFF749
:101570009FFF0FF204710EE00FF20C71384602F07B
:10158000BDF960B1A5A0FEF7D3FDDFF8AC08FFF709
:101590008FFF0FF2FC610A2001F00FFD56E0684654
:1015A0004FF4FA7101F062FB57F8041C384603F05F
:1015B000AFF905004AD003F050F9002846D00020CA
:1015C000294611F8012B7F2A01D1064612E011F8B5
:1015D000012B401C7F2A1EBF401C11F8012B7F2AC3
:1015E0001EBF401C11F8012B7F2AEED0401CB0F525
:1015F000FA7FE6DB32462946684603F007F99DF894
:1016000005109DF80600DFF8346841EA00200A3032
:101610001FFA80F840F2545106F5597001F026FB8C
:1016200006F55A79C6F8648342462946484603F0CF
:10163000ADF943464A460FF26461072001F0E4FC2D
:10164000318806F6F8024846FFF7BAFB74A138461F
:1016500002F054F970B10FF24C61082001F0ADFCBA
:101660000FF25C610A68A178009204F17C006A467E
:1016700002F00EF96BA1384602F040F928B1A178CA
:101680003A4604F17C0002F003F93BE3E17888423A
:1016900061D1022002F0C6FF0746DFF8A067301DC7
:1016A000FFF792FEE07C401CE074C0B20A2814DB15
:1016B0000020E07404F12C00A062092020740020B6
:1016C000607402F031F9002104F12C0001F0CFFF29
:1016D0000FF2F051032001F070FCE28BB088DFF8CC
:1016E000605728B18000801C80B20190301D00E05E
:1016F000019000903B460121281D03F00DF80128C0
:101700001FDB217C0A291CD128602A1DE08BDFF811
:101710003477308044A12B68062001F075FC2A68DC
:10172000291D381D03F048F838603A46617804F105
:101730007C0002F0ADF842F2107106F6F80001F0FC
:1017400050FFA07C401CA07447F2305106F6E80020
:1017500001F047FFD6E22179884267D1002F00F0DF
:10176000A380022002F05EFF804602A80021002232
:10177000DFF8C86606C006F6C805BD420BD03B7848
:101780000FF254513A460A2001F03EFC3A783946AD
:10179000284603F0FBF80422791C02A803F0F6F8AF
:1017A000787ADFF89C568DF80C004346E08B421C9B
:1017B00005200190E28302A8009092B20221281D28
:1017C00002F0AAFF012819DB227C0A2A16D1286020
:1017D0000246E18BDFF86C763180381D291D02F05E
:1017E000EBFF38603A46617804F17C0002F050F873
:1017F00042F2107106F6F80001F0F3FE0022022119
:10180000DFF8440601F035FE00222021DFF814063F
:1018100001F02FFE04F09EFA74E200BF415448002C
:101820000D0A3E004F4B000053524300617988423D
:101830003AD1002F76D0022002F0F4FE06463B7823
:101840000FF29C417A1C072001F0DEFBE08BDFF8F1
:10185000F055421CE28333463878019092B2781CEE
:1018600000900D21281D02F057FF0128FFF60DAF53
:10187000227C0A2A7FF409AF2860DFF8C065E18B7B
:10188000DFF8C07531800246291D381D02F094FF33
:1018900038603A46617804F17C0001F0F9FF42F2C9
:1018A000107106F6F80053E7A17B88423AD1002F69
:1018B00078D0022002F0B6FE06463B780FF22041B7
:1018C0007A1C072001F0A0FBE08BDFF87455421C66
:1018D000E28333463878019092B2781C009004215C
:1018E000281D02F019FF0128FFF6CFAE227C0A2A3C
:1018F0007FF4CBAE2860DFF84465E18BDFF84475F8
:1019000031800246291D381D02F056FF38603A46E4
:10191000617804F17C0001F0BBFF42F2107106F621
:10192000F80015E7E17B88423CD1002F78D00220F7
:1019300002F078FE0646DFF8B87C0FF2A4310723E8
:101940003A46072001F060FBE08BDFF8F454421CBC
:1019500006200190E283781C00903346397892B2D9
:10196000281D02F0D9FE0128FFF68FAE227C0A2A3C
:101970007FF48BAE2860DFF8C464E18BDFF8C474B9
:1019800031800246291D381D02F016FF38603A46A4
:10199000617804F17C0001F07BFF42F2107106F6E1
:1019A000F800D5E6A17988423AD1002F76D00220FE
:1019B00002F038FE06463B780FF224317A1C0720ED
:1019C00001F022FBE08BDFF87854421CE2833346BF
:1019D0003878019092B2781C00900B21281D02F0FB
:1019E0009BFE0128FFF651AE227C0A2A7FF44DAE01
:1019F0002860DFF84864E18BDFF8487431800246E4
:101A0000291D381D02F0D8FE38603A46617804F18D
:101A10007C0001F03DFF42F2107106F6F80097E6F7
:101A2000217A88423AD1002F74D0022002F0FAFDC8
:101A300006463B780FF2A8217A1C072001F0E4FA51
:101A4000E08BDFF8FC53421CE28333463878019088
:101A500092B2781C00900C21281D02F05DFE012836
:101A6000FFF613AE227C0A2A7FF40FAE2860DFF85F
:101A7000CC63E18BDFF8CC7331800246291D381D21
:101A800002F09AFE38603A46617804F17C0001F079
:101A9000FFFE42F2107106F6F80059E6E17988423D
:101AA00038D1002F00F08B80022002F0BBFD0646EB
:101AB0003B780FF22C217A1C072001F0A5FAE08B6D
:101AC000DF4D421CE28333463878019092B2781C95
:101AD00000901321281D02F01FFE0128FFF6D5AD4E
:101AE000227C0A2A7FF4D1AD2860D44EE18BD54FF9
:101AF00031800246291D381D02F05EFE38603A46EC
:101B0000617804F17C0001F0C3FE42F2107106F628
:101B1000F8001DE6617A884237D1002F4FD00220AD
:101B200002F080FD06463B780FF2B4117A1C0720C4
:101B300001F06AFAE08BC24D421CE28333463878EA
:101B4000019092B2781C00901521281D02F0E4FD4E
:101B50000128FFF69AAD227C0A2A7FF496AD286010
:101B6000B64EE18BB74F31800246291D381D02F079
:101B700023FE38603A46617804F17C0001F088FE6B
:101B800042F2107106F6F800E2E5A17A884216D119
:101B9000AFB1AA4E06F6E80001F047FD0920207417
:101BA00006F6B805A562002001F0BEFE607C0228A2
:101BB0001CBF00206074E17A3A46284663E5882815
:101BC0007FF463AD9D4E06F6E80087420BD101F02D
:101BD000AFFEE178002204F16C0001F059FEE08BC9
:101BE000401CE0838EE006F6F800874205D10FF234
:101BF000F8010C2001F0E1F984E004F5BE7001F079
:101C000002FD00283FF441AD0FF2EC010A2001F083
:101C1000D4F900220421834801F02BFC012080F339
:101C20001388BFF34F8FDFF8E40BDFF8E02D016876
:101C300001F4E06111430160BFF34F8F00BFFDE786
:101C4000150D0008434C4F5345440000636C6F73FF
:101C50006564207265630A004552524F52000000CD
:101C60006572726F72207265630A000053454E44BC
:101C7000204641494C00000073656E64206661692E
:101C80006C207265630A000052494E470000000054
:101C900052494E47207265630A0000003C2D52787D
:101CA0000000000073696D393030615F63686563FF
:101CB0006B5F636D642073656E64466C61670A00D8
:101CC0000D0A3E0073696D3930306120206E6F203F
:101CD00061636B0A000000007761726E0000000013
:101CE0005452414E0000000061636B2074696D65C1
:101CF000206F75740A00000065745F7265626F6F13
:101D0000740D0A007DB0BDE8F08310B504460846A6
:101D10001146228822B140F648039A4203D005E0DA
:101D200040F64800DAE0FFF7F7FBF9E7D9E070B5D5
:101D3000404D0C46E97A884228D1002C55D00FF24C
:101D40000C11DFF8C86D0C2001F037F9282130465E
:101D500000F08CFF30462146282202F017FE28238F
:101D600032460FF200110C2001F04EF90FF2201054
:101D7000FEF7DEF90FF22810FEF7DAF906F12C0073
:101D8000BDE8704041F2883101F02BBC29788842CF
:101D90002BD154B30FF2D401204601F0AFFD70B146
:101DA000DFF8686D0FF2D001012086F828000C20C2
:101DB00001F003F906F12C0001F037FC28E01CA12A
:101DC000204601F09BFD10B1697B224622E00FF610
:101DD000D801204601F092FDF8B10FF2AC010C20C1
:101DE00001F0EBF8697B224614E0882802BFDFF897
:101DF0001C6D06F12C0084420FD196F8280038B9EA
:101E00000FF28C00FEF794F90FF29400FEF790F9B0
:101E1000297B324605F17C004AE070BD08ED00E008
:101E200028A200200010014050AD002054AD002039
:101E30003E0000000C0B002030160020480D002052
:101E4000E081002034870020000C014053454E44BF
:101E500020534D5320414E442050484F4E450D0ACB
:101E60000000000050484F4E00000000434C4F530C
:101E700045204F4B000000006770723120697320CD
:101E8000636C6F73650D0A00534D534F4B0A00008E
:101E900041542B434950434C4F53453D31000000C2
:101EA00041542B434950534855543D3100000000E4
:101EB000BDE8704001F0ECBC10B504460846114680
:101EC000228822B140F687039A4203D005E040F60B
:101ED000870003E0FFF72BFFF9E702E020800120F5
:101EE00010BD00202080032010BD00002DE9F0432C
:101EF000DFF8246C85B00F467178884256D1002FE8
:101F000000F0D08001F014FDDFF8105C0FF2E46106
:101F100005F128048046A760082001F04EF8A0686B
:101F20000FF2E4610368021D082001F06DF898F8D3
:101F300000102078012908BF002820D10FF2D060BE
:101F40000FF2D4630FF2E061009005F5D47793A20D
:101F5000384600F0DFFF3846FEF7EAF841F28831F4
:101F600005F5A47001F03DFB0320E07040F6B831A8
:101F700005F1380001F035FB0120207000E028B1A8
:101F800041F2883105F1480001F02BFBF07D20B1D2
:101F9000E068401CE0600020F0750820E2680FF265
:101FA000A06105B0BDE8F04301F007B8B178884200
:101FB00078D1002F00F0AB810FF29C61082000F077
:101FC000FCFFEBA1384601F099FCA0B3DFF84C5BB5
:101FD00005F12804E07803282DD1A06858B30368E0
:101FE0000FF24C71DFF8388B021D062001F00CF85F
:101FF000A06850F8041B01F09DF91A2001F098F92F
:10200000A0680268011D08F1040002F0FFFB03460E
:1020100008F104020FF22071062000F0F5FF012004
:10202000E07005F1380001F000FB05F1480001F017
:10203000FCFA00202070CFA1384601F05FFC002898
:1020400000F0D4820FF23061DFF8D05A082000F09F
:10205000B4FF05F5A47001F0E8FA05F128040020AA
:10206000A0600220E07000202071307D642814DB25
:1020700006F12C00B062092030740020707401F069
:1020800053FC002106F12C0001F0F1FA0FF2F4519B
:10209000032000F092FF00203075307D401C307529
:1020A000FFF729B9317B88427AD1002F00F02F81C8
:1020B000DFF8685ABD4204D028463946282202F08B
:1020C00065FC05F1280400206070A070202105F156
:1020D000580000F0CBFD202105F1880000F0C6FD7E
:1020E00005F1C8078021384600F0C0FD05F17800F1
:1020F0000021002200238C46A0E80E1006F1AC015E
:1021000005F15800FEF734F8294605F17800FEF78E
:102110002FF80FF22C600FF244620FF24861039027
:1021200005F158030FF24C60029005F17800019020
:102130000FF24C600090384600F0ECFE3A460FF289
:102140004C61082000F039FF0FF24C60FDF7F0FF02
:1021500044F6206105F5AC7001F043FADFF8C419CC
:1021600005F5BC7001F03DFA6078401C607005F523
:10217000CC7402223321204603F01CFE05462B4678
:1021800022460FF21C510A2000F03EFF294620464D
:1021900005B0BDE8F04301F0E0B800BF300000003A
:1021A000717B884240F0B380002F00F0B08070A1B6
:1021B000384601F0A3FB98B1DFF8605905F1C80774
:1021C000384600F0B9FE0146384601F0B3F81A204F
:1021D00001F0AEF805F128010120C870FFF78BB8B7
:1021E0000FF2C441384601F089FB002800F0FE815F
:1021F000DFF8285905F1280405F5AC786078012846
:1022000005F1C8074FD10FF2A8410A2000F0D5FE12
:102210006078401C607044F62061404601F0E1F9AE
:10222000202105F1580000F021FD202105F1880052
:1022300000F01CFD8021384600F018FD05F1780003
:1022400000210022002300241EC006F1AC0105F18C
:102250005800FDF78DFF05F1140105F17800FDF739
:1022600087FF0FF2DC400FF2F4420FF2F8410390C7
:1022700005F158030FF2FC40029005F1780001903F
:102280000FF2FC400090384600F044FE3A460FF250
:10229000FC41082000F091FE05B0BDE8F0430FF2CC
:1022A000F840FDF745BF0FF228410A2000F085FEF7
:1022B0000FF22C410A2000F080FEA0780FF2E441DA
:1022C000401CA0702A46384600F024FE404601F02B
:1022D000ACF93846FDF72CFF4CF2503105F5B470DF
:1022E00001F07FF905F5CC741121204603F052FD71
:1022F00005462B4622460FF20C410A2000F084FED0
:102300002946204605B0BDE8F04301F026B88828EC
:1023100040F06C81DFF8045805F5A47087422BD19A
:102320000FF2E831082000F048FE05F1280420797A
:10233000032818DB06F12C00B0620021092030745C
:1023400006F12C0001F093F901F0F2FA007802286E
:102350001CBF002001F0E8FA0FF2C431032000F0A6
:102360002CFE002020712079401C2071FEF7C3BF95
:102370003E0000004F4B000005F1480001F043F91A
:1023800000283CD105F1380001F03DF990B305F18A
:102390002804E078032840F02981A068002800F094
:1023A000258103680FF28831DFF87467021D06206B
:1023B00000F02AFEA06850F8041B00F0BBFF1A20B2
:1023C00000F0B6FFA0680268011D301D02F01EFA81
:1023D0000346321D0FF26031062000F015FE012089
:1023E000E0700020207005B005F14800BDE8F04322
:1023F00001F01BB905F5C47001F005F920B100200A
:1024000085F82800FEF777BF05F5AC78474540F022
:10241000948005F128040FF22C79627849460A204D
:1024200000F0CBFD6078012805F1C80754D162782F
:1024300049460A2000F0C1FD0FF21C710A2000F08D
:10244000BCFD6078401C6070202105F1580000F050
:102450000DFC202105F1880000F008FC80213846A1
:1024600000F004FC05F17800002100220023002484
:102470001EC006F1AC0105F15800FDF779FE05F12B
:10248000140105F17800FDF773FE0FF2B4200FF28E
:10249000CC220FF2D021039005F158030FF2D42083
:1024A000029005F1780001900FF2D4200090384698
:1024B00000F030FD3A460FF2D421082000F07DFDF7
:1024C0000FF2D420FDF734FE404605B0BDE8F043DE
:1024D00044F6206101F085B80FF29C610A2000F0FB
:1024E0006CFDC9A0FDF724FE2A460FF2B82138463C
:1024F00000F010FD3846FDF71BFE4CF2503105F59B
:10250000B47001F06EF80FF290610A2000F055FDF2
:1025100005F5CC741121204603F03CFC05462B4602
:1025200022460FF284610A2000F06EFD2946204603
:1025300005B0BDE8F04300F010BF05F5BC70874260
:1025400027D106F15C00B06200210920307405F546
:10255000CC7406F15C0001F08AF805F12801002036
:10256000487003200FF2486100F027FD1E2120462D
:1025700003F010FC05462B4622460FF248610A2064
:1025800000F042FD2946204605B0BDE8F04300F0CA
:10259000E4BE05F5B470874228D10FF230610A20FD
:1025A00000F00BFD98A0FDF7C3FD05F1C80705F18C
:1025B00014020FF2F011384600F0ACFC3846FDF77B
:1025C000B7FD05F5CC741121204603F0E3FB054669
:1025D0002B4622460FF2D0510A2000F015FD294665
:1025E000204605B0BDE8F04300F0B7BEFEF783BE5D
:1025F0003007002053544152542053454E44206725
:102600007072730A0000000054584441000000003A
:1026100034353636000000003133392E3135392E4D
:102620003232302E3133380041542B434950534518
:102630004E443D25732C2C222573222C257300003B
:1026400073696D5F636F6E6E6563745F74696D65EA
:10265000203D2025640A000073696D3930305F65C4
:1026600076656E745F73656E645F646174615F77D5
:102670006169740A0000000053454E44204F4B0A24
:102680000000000073696D39303061207265636F3E
:102690006E6E65637420616769616E0A00000000F8
:1026A0004D302D3E000000002B434D4753000000ED
:1026B000736D7332312D2D2D2D2D2D2D2D2D2D2D75
:1026C0002D2D2D2D2D2D2D2D2D2D2D2D2D2D0A008A
:1026D0007374617274312070686F6E650A00000057
:1026E000706F6E6F31313131312D2D2D2D2D2D2DFE
:1026F0002D2D2D2D2D2D2D2D2D2D2D2D2D2D2D2D0A
:102700002D2D0A004D312D3E000000005544502073
:1027100053454E442054494D45204F55540A00001E
:1027200065745F73656E64206F75740A0000000045
:102730002D3E6770000000002D3E3141000000007A
:102740003533643137353166373036623730376587
:1027500036326135386236360000000030383931A3
:10276000363800002573257325732573257325736B
:10277000000000003030303841413043000000009C
:102780003131303030443931363800007761726E83
:10279000736D733D25730A0041542B434D47533DE0
:1027A0003237000041544425733B000010B5044605
:1027B00008461146228822B140F624239A4204D0CA
:1027C00006E040F62420FFF789BBFFF78FFBF8E710
:1027D000FFF787BB10B5D04C217F002904F5C672E6
:1027E0000146104604D103F004FB30B9012003E098
:1027F00003F0FFFA08B10020207704F18C0001F00B
:1028000066F8012010BD0000415448000CED00E0C6
:102810002DE9F043044691B02088C44E894620B18A
:1028200040F6A12188423FD0D9E0BB4F00F01AFF0B
:10283000387000F017FF307000F014FF787000F06F
:1028400011FFF87000F00EFFB87000F00BFF387148
:1028500000F008FFB87200F005FFF87200F002FF08
:10286000387300F0FFFE787300F0FCFEB87300F0E0
:10287000F9FE787100F0F6FEB87100F0F3FE3872E0
:1028800000F0F0FEF87100F0EDFEF87300F0EAFEE3
:1028900078720A200FF2443100F08FFB04E0C82167
:1028A00006F5AA6000F09DFE9B4F07F5C67003F089
:1028B000B5FAB9F1880F804671D106F5AA6000F02B
:1028C000A2FE00286BD0D6F84C250FF22831984D87
:1028D0000C2000F072FB40F25451284600F0C6F97B
:1028E000D6F84C252A60311D281D02F05FF8D6F875
:1028F0004C350FF21C31321D0A2000F085FBD6F852
:102900004C15002000E0401CC0B2884203DA821956
:1029100012797E2AF7D13978B86A2A1D00F0B8FFFB
:102920000FF2F421301D00F0E9FFD0B168464021DC
:1029300000F09CF90FF2EC2275A1684600F0EAFA6B
:10294000684600F0F9FA03466A460FF2F0110320D8
:1029500000F05AFB684600F0EFFA0146684600F0C6
:10296000E9FC0FF2CC21301D00F0C8FF78B169A15D
:10297000301D00F0C3FFAC37C11C0B22384602F0FB
:1029800005F83A460FF2B021082000F016FB4FF48C
:10299000A961301D00F06AF90020C6F84C0518F155
:1029A000010F06D140F6A120208011B00120BDE822
:1029B000F083D6F84C0520B95FFA88F10D297FF431
:1029C00073AF8119401C81F80480B0F5A96FC6F877
:1029D0004C05FFF664AF0020C6F84C0564E7002004
:1029E000208011B00320BDE8F08310B5514C4FF4A6
:1029F0005871204600F03AF92246BDE810404FF4E5
:102A000058730021042001F018BE00000400FA05EC
:102A100010B5414C802204F5CA7104F5C67003F06C
:102A2000E1F9414800F0F6FB002104F12C0000F030
:102A30001EFE002104F18C0000F019FE002104F1BB
:102A40006C0000F014FE04F17C00BDE81040002191
:102A500000F00DBE30B583B0022001F0E3FD2E4D35
:102A60002F4CEA8B0021019100910346992110E03F
:102A700030B583B0022001F0D5FD2F49264D0A88DC
:102A8000274C00919200921C92B201920346EA8B6D
:102A90000321201D01F040FE2978A86A221D03B001
:102AA000BDE8304000F0F4BE80B5042001F0BAFD6E
:102AB000BDE8005002464FF458730FF29411002005
:102AC00000F0A2BA30B50FF2901183B01CC968466D
:102AD00069461CC0104C04F505750C22284601F00F
:102AE00055FF0C22694604F50A7001F04FFF2823B8
:102AF0002A460FF270110A2000F086FAA17A2A46BF
:102B000004F16C0000F0C4FE03B030BDD0B300206F
:102B100025730A002B3836000C0B002050160020BD
:102B2000E0810020E0220200D5270008D8710020B3
:102B30008C7C00202CA20020781800202D3E636D94
:102B400000000000756250686F6E65496E646578BC
:102B5000203D2025640A0000736D7332322D2D2D27
:102B60002D2D2D2D2D2D2D2D2D2D2D2D2D2D2D2D95
:102B70002D2D2D2D2D2D0A00706F6E6F312D2D2DC9
:102B80002D2D2D2D2D2D2D2D2D2D2D2D2D2D2D2D75
:102B90002D2D2D2D2D2D0A0073746172743220702D
:102BA000686F6E650A0000004D322D3E0000000087
:102BB00065745F6261636B5F756470206F75740A22
:102BC000000000004D332D3E000000007374617260
:102BD000742070686F6E6520320A000073696D3969
:102BE0003030615F726573705F70726F63657373AD
:102BF0000D0A0000726563656976652066696E6915
:102C00007368207072743D2025640D0A0000000076
:102C10003C2D677000000000534D532052656164E5
:102C20007900000041542B435343413F0000000012
:102C30004353434100000000736D7343656E746538
:102C40007250686F6E65203D2025730A00000000F9
:102C5000666E6F6400000000313838323031303930
:102C60003236350070686F6E65000000002203F098
:102C7000E9B8F0B4016844688368091801EB5402AC
:102C8000E40748BF4B440C3091422BD011F8014B64
:102C900014F0030504BF11F8015BED1C26090F2E8B
:102CA00007D111F8016B0F3603E011F8017B03F82F
:102CB000017B6D1EF9D1002EE6D0A40811F8015B4E
:102CC00004F00304032C08BF11F8014B05EB0424A6
:102CD0001C1BB51CD8D014F8016B03F8016B6D1EDA
:102CE000F9D1D1E7F0BC704710B504460A2C04BFF7
:102CF0000D20FFF7F9FFDFF83C02416821B1491CC4
:102D0000416001F8014D10BD0168080003D0204664
:102D1000BDE81040084710BD2DE9F04788B0804657
:102D20008946DFF8106204E059F8040BC0B2FFF7DF
:102D3000DBFF18F8010B002800F0E2802528F6D10F
:102D400018F8010B0021302808BF012102D02D28DE
:102D500002D1022118F8010B4FF0000A07E00AEB3C
:102D60008A0200EB4200A0F1300A18F8010BA0F132
:102D700030020A2AF3D36C2812BF4C2841F0040118
:102D800018F8010B002800F0BB800446612CA4BF9A
:102D9000203CE4B2422C41D0432CC5D0442C43D03B
:102DA0004F2C3FD0532C04D0552C3DD0582C3DD027
:102DB000BDE759F8044B0025204600E06D1C10F8D3
:102DC000012B002AFAD1880705D514E031680800E4
:102DD0001CBF202088472846451C50450BD27068F0
:102DE0000028F3D0202100F8011B7060F3E714F8ED
:102DF000010BFFF779FF20780028F8D1554598D2CC
:102E000070686D1C20B1202100F8011B7060F5E78F
:102E100031680800F2D020208847EFE7022259F8F5
:102E2000043B05E00822FAE70A22F8E71022F6E759
:102E3000442C04D1002B44BF5B4241F00801002721
:102E4000EC46B3FBF2FE02FB1E34E4B20A2C7346DE
:102E500007DB78280CBF4FF0270E4FF0070E7444A5
:102E6000E4B230340CF8014B7F1C0BB1202FE8D3B7
:102E7000080703D56A462D20B8547F1CC8074CBFED
:102E80003024202488073D4612D57F1E68463C5CCE
:102E90000A2C04BF0D20FFF727FF7068C0B100F8AF
:102EA000014B706019E0316808001CBF204688475C
:102EB0002846451C5045E8D20A2C04BF0D20FFF7D8
:102EC00013FF70680028EED000F8014B7060EFE748
:102ED000316808001CBF20468847002FD5D15545D2
:102EE000BFF427AF70686D1C20B1202100F8011BD2
:102EF0007060F4E731680800F1D020208847EEE7E1
:102F000008B0BDE8F0870EB400B501A9FFF704FFD3
:102F10005DF810FB0CB410B5064C60600A4602A9BF
:102F20001046FFF7F9FE616800200870606010BC71
:102F30005DF80CFBC0B5002000F10103810704D04F
:102F400010F8011B89B18107FAD10268B2F1013191
:102F5000914311F0803F04BF50F8042FF6E710F8BA
:102F6000011B11B110F8011BFBE7C01A70470000EC
:102F700010B400231446621E2CB110F8013B11F866
:102F8000014B1B1BF6D010BC1846704770B50446A9
:102F90000D4614F8010B02F06EFFC6B215F8010BD6
:102FA00002F069FFC0B2864203D1002E18BF00288C
:102FB000EFD1301A70BD774870470CB4F8B50546AC
:102FC0007548744F066838780C46E9B288420DD3CC
:102FD000142816D076B170680FF2C011FFF7D6FF33
:102FE00020B171680FF2C010FFF78DFF3878EDB295
:102FF000A84206D33878142803D006A92046FFF744
:103000008BFEF1BC5DF80CFB2DE9F24F05466248E2
:10301000604C07682078A8421646984611DB1428B1
:1030200000F0A5806FB178680FF27011FFF7AEFF66
:1030300038B179680FF27010FFF765FF4FA0FFF706
:1030400062FF2078A842C0F29280142800F08F809E
:10305000009828B1014642460FF25410FFF753FF83
:103060000027B8F1010F44DBB14645A599F80010DF
:103070000FF24810FFF747FFF81007EB1070001130
:10308000A7EB00100F282FD13EA0FFF73CFF27F041
:103090000F04A7421BDB04EB060A9AF800B0ABF161
:1030A00020005F2809D3584602F0F1FE28B958469F
:1030B00002F0F7FE08B92E2101E09AF80010284628
:1030C000FFF721FF641CA7420AF1010AE5DA2BA0F1
:1030D000FFF719FF009838B1781C404504DA2AA19F
:1030E0000FF2E000FFF70FFF7F1C474509F10109D0
:1030F000BCDBF81007EB10700011B7EB001030D0FC
:103100003C4622A503E02846FFF7FDFE641CE010C4
:1031100004EB10700011B4EB0010F4D119A0FFF70C
:10312000F2FE27F00F00B84218DA86193F1A14A5EC
:103130003478A4F120005F2809D3204602F0A7FECE
:1031400028B9204602F0ADFE08B92E2100E0317802
:103150002846FFF7D8FE761C7F1EE9D107A0FFF7AF
:10316000D2FEB8F1000F04BF04A0FFF7CCFE002090
:10317000BDE8F28F014606A0FFF7C5BE0D0A0000AC
:1031800025630000203B00000000000020202000FC
:103190002E2564008F1E00201CB500204576656E2C
:1031A000742074696D657200252D3230737C0000C7
:1031B000252D3573252D34643A000000202530324A
:1031C00058000000252D39733A0000006B48016853
:1031D0006B480288930602D50A0006D017E0110753
:1031E00003D54FF6F7710180808870476548016804
:1031F00065480288930603D582880A0006D006E057
:10320000110703D54FF6F7710180808870478088D9
:10321000C0B208475D49086070475E490860704762
:103220005C4801685C480288930602D50A0006D013
:10323000EDE7110703D54FF6F771018080887047DD
:103240005248016855480288930602D50A0006D004
:10325000DDE7110703D54FF6F771018080887047CD
:103260004B4801684E480288930602D50A0006D0F2
:10327000CDE7110703D54FF6F771018080887047BD
:10328000411E052900D3704710B53B4901EB800171
:1032900084B051F8044C012803D14FF46120009010
:1032A00019E0042803D14FF4E130009013E04FF40B
:1032B0001651022800910ED100200190ADF80800AF
:1032C000ADF80C000C20ADF80A0000200FF2D4017C
:1032D000FFF773FE08E000200190ADF80800ADF89C
:1032E0000C000C20ADF80A00204602F0E5FD69460E
:1032F000204602F025FE012240F22551204602F030
:103300007FFE0121204602F071FE04B010BD1B4972
:103310000860704751B1204A0378B2F800C05FEAF4
:103320000C6CFAD5401C491E9380F5D100207047E3
:103330001A490DE051B1194A0378B2F800C05FEAAA
:103340000C6CFAD5401C491E9380F5D100207047C3
:103350000A881206FCD58880704751B1104A03785C
:10336000B2F800C05FEA0C6CFAD5401C491E93808D
:10337000F5D10020704700008C1C002034B60020DE
:103380000038014038B60020004400403CB6002020
:1033900040B6002044B6002000480040004C0040E9
:1033A00000500040554152543220696E69740A0041
:1033B0002DE9F041CC78002204F00F03E40644BF6D
:1033C0008C7823430C88E5B21DB3D0F800C00125EA
:1033D0000F2605FA02F707EA0408B84514D14FEAA8
:1033E000820E06FA0EF82CEA080C03FA0EFE4EEADC
:1033F0000C0C91F803E0BEF1280F08BF476103D021
:10340000BEF1480F08BF0761521C082AE1D3C0F87B
:1034100000C0FF2C27DDD0F804C0002201250F26B4
:1034200002F1080705FA07F707EA0408B84515D1BD
:103430004FEA820E06FA0EF82CEA080C03FA0EFE8A
:103440004EEA0C0C91F803E0BEF1280F08BF47616B
:1034500091F803E0BEF1480F08BF0761521C082A2B
:10346000DED3C0F804C0BDE8F0810161704741615E
:103470007047002A14BF01614161704770B4164A59
:1034800000284CBF9469146800F44016B6F5401F3C
:10349000C0F3034583B206D1156825F0706524F0AA
:1034A000706415600CE0C60203D5032606FA05F524
:1034B00003E0450D2D0103FA05F5AC4344F07064BB
:1034C00021B1410D090103FA01F10C4300284CBF61
:1034D0009461146070BC70470400014038B55E4CC4
:1034E000206890B102F0D4FD21680A684B689A18F0
:1034F000121A06E00B684D68EB181B1A934238BF8E
:103500001A4689680029F5D11018606031BDF8B5F8
:103510000446208810B1592806D03FE04E49086083
:10352000592020800120F2BD87294B4E04D08229EA
:10353000F6D115E0A86830603568002DF0D0E86855
:103540009042F7D0A8680028EAD0C168914212BF23
:1035500005468068A860F5E70020A860FFF7BEFF79
:103560003568002705E006F1080000F0B0F92F46A5
:10357000AD68002DD4D0284602F0AFFD0028F6D06B
:10358000E8682A46882100F083F90028EBD1E8603A
:10359000002FA86814BFB8603060DDE700202080ED
:1035A0000320F2BD2D4800F092B938B504462A4DEB
:1035B00005F1080000F08BF92868E16849B101467F
:1035C00000E0896829B1A142FBD125480068E0608C
:1035D00004E023490968E160A0602C60BDE8314047
:1035E0007CE710B5044602F069FD03E010B504461F
:1035F00002F068FD2046BDE81040D6E710B504464D
:1036000002F065FDF6E7C06800280CBF012000202D
:1036100070471148006800B1012070470E480168EA
:10362000002914BF40680020704710B504460A48BE
:1036300001688C4203D18968016006E0014631B11E
:103640008868A042FAD1A0688860FFF747FF002091
:10365000A060E06010BD00001807002020070020D7
:103660001CB50020A0490878421C0A70704738B584
:103670009D4CA268134600E01B68834218BF002BD4
:10368000FAD183420BD00260A06001228273002233
:1036900082810A46E568812100F04FF8E56031BD7E
:1036A0002DE9F041904DEE68AF680446884602E08F
:1036B000002F40D03F68A742FAD1002F3BD0A07B1B
:1036C00058B30020A073AF6804E039463846FFF7CE
:1036D000E7FF3F68B7B1BC42FBD0B87BC007F8D565
:1036E000BB681800F5D0EF600220B873224687212E
:1036F00007F10C009847022818BF0328E5D00120E5
:10370000B873E6E7A368180018BF444505D0EC601D
:103710000022832104F10C009847AF68BC4203D11A
:103720003868A86006E0074627B13868A042FAD199
:1037300020683860EE60BDE8F08138B504460D467B
:10374000A07BC00715D5A368180012D06648C460D6
:103750000220A07304F10C00984702281CBF032824
:10376000832D04D121462046BDE8344098E701204E
:10377000A07331BD5C49C96892E75B488A2101703A
:103780000021817041708160C160704738B5564C2E
:103790000020E070A56804E029462846FFF780FF76
:1037A0002D68C5B1E87B0028FAD00120A87300205D
:1037B000E873AB681800F3D0E5600220A87300221C
:1037C000822105F10C009847022818BF0328E3D096
:1037D0000120A873E4E731BD70B5434CE07808B12F
:1037E000FFF7D4FF6378002B4ED0A5783F4805EB58
:1037F000450100EB81006D1C017821712E1142689A
:10380000226105EBD66680687611A5EB46155B1E36
:10381000A570637090BBA06806E022692179606999
:10382000FFF78BFF606900686061606960B3E078F2
:103830000028F2D00020E070A56804E02946284660
:10384000FFF72EFF2D68002DE7D0E87B0028F9D088
:103850000120A8730020E873AB681800F2D0E5607F
:103860000220A8730022822105F10C00984702284B
:1038700018BF0328E2D00120A873E3E7812904BF21
:1038800001238373FFF759FF6078E178081870BD52
:10389000F0B4154B5C78202C08BF01200ED09D7829
:1038A000124E651905F01F0505EB450706EB870568
:1038B000A86029706A60601C58700020F0BC7047D6
:1038C00038B5094CE568FFF738FFE56031BD48B110
:1038D000817B012918BF022904D10121C173012074
:1038E0000149C8707047000010B500208CA5002069
:1038F000817B481E8041C043C00F704770B50C46A5
:10390000257835B970BD11F8013F1678B34206D05D
:10391000401C294602F0F6FB28B10146224612F867
:10392000013F002BEFD170BDDFF8001B087370471B
:10393000DFF8FC0A704770B582B015460FF63031DB
:10394000DFF8F06A0A20FFF738FB089C069A0FF6AA
:10395000343100942B460A20FFF72FFB079D2346A6
:103960002A4635A10A20FFF74FFB3460224629463C
:10397000301DDFF8B84A01F009F82178324604F228
:103980009C50FFF785FF0220207302F08BFB206123
:1039900073BD704770B5044682B0208810B1BD2851
:1039A0001BD01EE0DFF8845A0FF6704005F2AC56CB
:1039B000314602F0B8FBDFF8801A05F2BC5002F085
:1039C000FBFBDFF8780A009041F2D61332464FF441
:1039D000FA6105F5AD6002F060FDBD202080012098
:1039E00076BD00202080032076BD30B5044683B02C
:1039F0000D46042000F016FE022000F013FEC4B9AC
:103A00000021019100910346DFF8204A2A46062151
:103A100004F1180000F080FE01280ADB606104F167
:103A20001402A17804F29C5003B0BDE83040FFF7C7
:103A30002FBF03B030BD00003C2D77002DE9F04FC3
:103A4000074685B00D4614461E46042000F0EAFDE8
:103A5000E878297940EA01286879A97940EA0129BA
:103A6000A87899280DD1444540F072823046FFF77E
:103A7000DCFDDFF8CC09007B5FFA88F1FFF7B5FFCA
:103A800066E2032838D1022000F0CCFDDFF8B4490B
:103A900004F1AC068246307B08B90120307304F192
:103AA000C80B4FF458715846FFF7E0F8B9F1050F0D
:103AB00011DB05F10B00018869B1B1838A00811C1B
:103AC00004F1CA0000F062FF4FF458735A46002117
:103AD000042000F0B2FD00200190009053464246C1
:103AE0009921381D00F018FE0128C0F2318238609B
:103AF0003A46DFF8384926E205283ED105F10B07A2
:103B0000444504BF3046FFF790FDDFF8384904F51F
:103B1000966628213046FFF7A9F8A9F10400282865
:103B2000C0F21682282205F10B01304600F02EFF6C
:103B3000DFF8F808007B022840F00A823046FDF7E3
:103B400027F997F82820002A00F00282D52A80F26F
:103B5000FF8107F12901601C00F018FF607B00194C
:103B6000817B8DF800100F3001F01AF96A460FF6CC
:103B700040110C20FFF721FAEAE10E2851D144450B
:103B800004BF3046FFF751FD0FF64011DFF8B4488F
:103B90000C20FFF712FA0422E91D01A800F0F6FE3E
:103BA000042205F10B01684600F0F0FE04F1BC01AF
:103BB000084605F10F02082315782D0905EB850647
:103BC00075000570167806F00F06A6F10A07052F96
:103BD00010D8DFE807F0030507090B0D0A350AE0E6
:103BE0000B3508E00C3506E00D3504E00E3502E03B
:103BF0000F3500E07519521C5B1E00F8015BDBD12C
:103C000004F59B64204601F0FCFD222322460FF6BA
:103C1000D4010920FFF7F8F922212046FFF77AFBAB
:103C200096E10F2823D1444504BF3046FFF7FDFC41
:103C30000FF6B801DFF80C480C20FFF7BEF904229C
:103C4000E91D02A800F0A2FE042205F10B0101A863
:103C500000F09CFEE87B009004F58566C52301AA70
:103C600002A9304601F02BFE1B233246D6E00A287B
:103C700031D1444504BF3046FFF7D7FC0FF66C0145
:103C8000DFF8C0470C20FFF798F90422E91D02A8CD
:103C900000F07CFE042205F10B0101A800F076FE85
:103CA000E87B009004F58566C22301AA02A930468C
:103CB00001F005FE1B213046FFF72CFB0FF6240414
:103CC0001B23324621460C20FFF79EF91B23324668
:103CD00021460220A5E012282DD1444504BF3046DC
:103CE000FFF7A3FC0FF62401DFF858470C20FFF77D
:103CF00064F904F18006122030700422E91D04F1F9
:103D0000810000F043FE042205F10B0104F185005F
:103D100000F03CFEC4207072082205F10F0104F18E
:103D20008A0000F033FE122004F24444009033462F
:103D3000C422DD2168E0142838D1444504BF304650
:103D4000FFF773FC0FF2E871DFF8F8460C20FFF77D
:103D500034F904F180060E2030750422E91D04F1C7
:103D6000950000F013FE042205F10B0104F1990007
:103D700000F00CFEC62070770C2205F10F0104F153
:103D80009E0000F003FE1620009004F58D6504F1FE
:103D90009403C622FF21284601F09AFE0446E1B2B0
:103DA0002846FFF7B7FAE3B22A4637E018283BD196
:103DB000444504BF3046FFF738FC0FF29071DFF83E
:103DC00084460C20FFF7F9F804F1AC060A203070A5
:103DD0000422E91D04F1AD0000F0D8FD042205F134
:103DE0000B0104F1B10000F0D1FDC820707204F1A4
:103DF000B60105F10F0004F5926402780A700B20F9
:103E000000903346C822FF21204601F061FE05469E
:103E1000E9B22046FFF77EFAEBB222460FF2C46108
:103E20000C20FFF7F1F893E0102826D1042000F0D1
:103E3000F9FB444504BF3046FFF7F7FB0FF224714E
:103E4000DFF8E8450C20FFF7B8F8872000F0DFFF27
:103E5000DFF8F4150978002904F2C4501ABF4FF4B2
:103E6000FA62514341F28831FFF7BBFB0022042183
:103E7000DFF8D805FFF7FDFA6AE0112823D14445A1
:103E800004BF3046FFF7D1FB0FF2F061DFF8C04509
:103E9000DFF8C0750C20FFF790F8E87A2070002654
:103EA0000AE005EB860000F10C01042207EB860016
:103EB00000F06CFD761CF6B220788642F1DB86209D
:103EC00000F0A5FF44E0D02842D1444504BF30466D
:103ED000FFF7ABFB0422E91D03A800F057FD042205
:103EE00005F10B0102A800F051FDE87BDFF8544515
:103EF000009004F58566872302AA03A9304601F0E5
:103F0000DEFC1B213046FFF705FA1B2332460FF279
:103F1000D4510C20FFF778F804F1AC06DFF80C451B
:103F2000308B421C04200190328302A8009003AB26
:103F300092B2D12104F1180000F0EEFB012807DB5A
:103F4000606104F11402A17804F29C50FFF7A0FC18
:103F500005B0BDE8F08FF0B5DFF8D04485B00E466F
:103F6000217888421FD1002E42D0DFF8EC54002087
:103F70002870301D00F071FC98B133680FF21C619D
:103F8000321D0720FFF740F8AA8805F6CC03311D43
:103F900004F11400FFF752FD207B02281CBF022011
:103FA000207305B0F0BDA178884221D106B33268F4
:103FB000012AF6DBDFF8A05405F55B77311D3846A2
:103FC00000F0FAFB064682B2394604F5AD6002F015
:103FD00055FA42F2107105F6CC00FFF702FB3346AA
:103FE0003A460FF2C0510720FFF70EF805B0F0BDBA
:103FF0006178884208BF002E0CD147F23051DFF8BB
:104000005C04FFF7EEFA0FF2A4510C20FEF7D5FF87
:1040100005B0F0BDE178884249D1002E7CD0022065
:1040200000F000FB074602A80021002206C0DFF8CE
:10403000285405F6DC00B04203D03278314600F057
:10404000A5FC0422711C02A800F0A0FC707A8DF877
:104050000C003B466888421C052001906A8002A83B
:10406000009092B2022104F1180000F055FB0128E3
:104070000FDB606104F114026888A88004F29C5090
:10408000A178FFF705FC42F2107105F6CC00FFF7AE
:10409000A8FA00220221DFF8C803FFF7EAF900229C
:1040A0002021DFF8A803FFF7E4F905B0F0BD21797E
:1040B000884231D1002E4BD0022000F0B3FA0746DF
:1040C00033780FF2F441721C0720FEF79DFFDFF8F2
:1040D00088536888421C6A803B463078019092B2CF
:1040E000701C0090042104F1180000F015FB012859
:1040F000FFF657AF606104F114026888A88004F2EB
:104100009C50A178FFF7C4FB42F2107105F6CC0079
:10411000FFF767FA05B0F0BD617A884218D196B30F
:10412000022000F07FFA0646CE4F0FF28C410723A3
:104130003A460720FEF768FFC74D6888421C0620F4
:1041400001906A80781C39780090334692B2CAE7B1
:104150006179884217D18EB3022000F063FA0746D6
:1041600033780FF25441721C0720FEF74DFFBA4D11
:104170006888421C6A803B463078019092B2701C7D
:1041800000900D21AFE7E179884217D196B3022064
:1041900000F048FA074633780FF21C41721C0720E2
:1041A000FEF732FFAC4D6888421C6A803B4630788F
:1041B000019092B2701C00900C2194E7A179884282
:1041C00018D1002E4CD0022000F02CFA074633788C
:1041D0000FF2E431721C0720FEF716FF9E4D68882F
:1041E000421C6A803B463078019092B2701C00906D
:1041F0000B2178E7217A884217D18EB3022000F094
:1042000011FA074633780FF2B031721C0720FEF71F
:10421000FBFE914D6888421C6A803B4630780190D5
:1042200092B2701C009013215DE7A17A884217D1E9
:10423000B6B1022000F0F6F9074633780FF2783174
:10424000721C0720FEF7E0FE834D6888421C6A80DE
:104250003B463078019092B2701C0090152142E7E5
:1042600088287FF49EAE7C4D05F6BC07BE4232D155
:10427000022000F0D7F9064605F10800FDF7A4F882
:104280006A88288930B18000801C80B2019005F1D5
:10429000080000E0019000903346012104F118006D
:1042A00000F03AFA012812DB606104F11402688818
:1042B000A88004F29C50A178FFF7EAFA42F210714C
:1042C00005F6CC00FFF78DF96888401C688047F23E
:1042D000305138461CE705F6CC0086422DD10FF24E
:1042E000E0210C20FEF769FE2878022820DB207BE5
:1042F00002281BD10FF2DC210A20FEF75EFE00200F
:104300002073002204215148FFF7B3F8012080F305
:104310001388BFF34F8F5448544A016801F4E06199
:1043200011430160BFF34F8F00BFFDE700202870ED
:104330002878401C287005B0F0BD04F2C450FFF787
:1043400062F900283FF42DAE0FF2B0210A20FEF7EB
:1043500034FE002204213D48FFF78BF8012080F352
:104360001388BFF34F8F4048404A016801F4E06171
:1043700011430160BFF34F8F00BFFDE738B504461E
:1043800008461146228822B140F253339A422CD07B
:104390002EE0264DFFF766F92870FFF763F9687085
:1043A000FFF760F9A870FFF75DF9E870FFF75AF9B9
:1043B0002871FFF757F96871FFF754F9A871FFF7F3
:1043C00051F9E871FFF74EF92872FFF74BF968725F
:1043D000FFF748F9A8720C200FF22C21FEF7EDFD33
:1043E00040F253302080012032BDFFF7B4FDF7E7E3
:1043F00000202080032032BD38B502F0E1F802F041
:1044000052FA02F06FFA094C002104F28C50FFF7C7
:104410002EF904F29C5500212846FFF728F961780F
:104420002846BDE838400022FFF732BA400000209D
:104430004C000020387700209339000837390008F5
:10444000349200208891002028A200200010014012
:1044500050AD002054AD0020383B0020F443002034
:10446000000C0140300700200CED00E00400FA05CC
:104470004461746120726563656976656420667263
:104480006F6D2000206F6E20706F72742025642085
:1044900066726F6D20706F72742025642077697466
:1044A00068206C656E6774682025643A200A0000F5
:1044B000736F756E645F6C696768745F6D61635F6D
:1044C0006E756D3A307825580A00000047505253F7
:1044D0005F465F434D445F41534B5F54494D455FD9
:1044E00041434B0072662D3E00000000475052537E
:1044F0005F465F434D445F454C45435452494341F9
:104500004C5F434F4E54524F4C0A00004750525399
:104510005F465F434D445F454C455F5345545F5490
:1045200048524553484F4C445F56414C0A000000E6
:10453000475052535F465F434D445F574154455285
:104540005F5345545F56414C0A0000004750525398
:104550005F465F434D445F57415445525F4341437B
:1045600048450A00475052535F465F434D445F48F9
:104570004F53545F52455345540A0000475052531D
:104580005F465F434D445F534F554E444C49474847
:10459000545F52455345540A000000003C2D697099
:1045A0000000000049502D3E0000000049504865C1
:1045B0006172740A000000005452414E0000000075
:1045C00049502041434B2054494D45204F55540AF2
:1045D000000000002D2D2D2D2D2D2D2D2D2D2D2DBF
:1045E0002D2D2D2D2D2D2D2D2D2D2D2D2D2D2D2DFB
:1045F0002D736574206D6F64650A000065745F72C9
:1046000065626F6F740D0A0069705F646174615F49
:1046100070726F636573730A000000008B9FDC8A01
:104620002F48704738B1072805DA2E49401EC0B21E
:1046300051F820007047002070472DE9F041040038
:1046400082B0154647D0072C45DA2648244E264F1F
:1046500000930B4650F824200FF290010920FEF73A
:10466000ACFC40F27E3842463946304602F0CAFC85
:10467000012C03D1B81C29460C2214E0022C04D1D1
:1046800007F10E00294608220DE0032C04D107F1A2
:1046900016002946082206E0042C06D107F11E0068
:1046A00029464FF4587200F071F943463A460FF22A
:1046B00058010920FEF7A8FCE0223946304602F0F6
:1046C00061FC434632460FF248010920FEF79CFC8C
:1046D0000020BDE8F6814FF0FF30BDE8F681000014
:1046E00000500308B00600203444002053543A30F0
:1046F00078253038582B3078253034585B737A2041
:1047000025645D0D0A000000664E464F0000000063
:10471000464E464F00000000F8B50D4604461946C7
:10472000002614B94FF0FF30F2BD7E202070E270F9
:104730000E206070A570100A20716671A6710422A7
:10474000E01D00F023F9069900291CBF079A002AF2
:1047500003D105206071A67110E0501D6071101D1D
:104760000012A0710B2D18BF0C2D02D16079401ED4
:104770006071164604F10B0000F008F9012D06F1F6
:104780000B0705D1604909783019761CC1727F1C6E
:10479000791E89B2601C02F053FCB6B23219010ACC
:1047A000D172761CB6B23119C872711C89B209195E
:1047B0007F20C872F81CF2BD38B50024FAB10D781C
:1047C000631C1A2D03D1EF252554EA240FE0EF2DA9
:1047D00002D12554EF240AE01B2D03D1EF252554E7
:1047E000EB2404E0032D05D1EF252554E3241C54CC
:1047F0005C1C01E025541C46491C521EDFD10FF2FF
:1048000038110620FEF7D9FB204632BDF0B4002453
:104810000023551E02E01E545B1C641CAC4215DADA
:10482000665CEF2EF7D167187F78EA2F0AD0EF2F5A
:1048300004D0EB2F08D0E32FEDD103261E545B1CD0
:10484000641CEAE71A26F9E71B26F7E7511811F866
:10485000011C1954581CF0BC704770B50446002563
:10486000002C50D020787E281CBF60780E2801D004
:10487000002070BD0026204610F8011B7F2907D1BB
:104880003546AAB20FF2BC010C20FEF796FB07E0FA
:1048900010F8011B761C7F29F2D0761CFA2EEBD380
:1048A000FA2E2DD0194EFA213046FEF7DFF96A1C98
:1048B00092B221463046FFF7A9FF84B22346324622
:1048C0000FF290010A20FEF79FFB22460FF28C01A7
:1048D0000C20FEF772FBA01910F8031D407840EA87
:1048E0000125211F89B2701C02F0AAFB0446234651
:1048F0002A460FF27C010C20FEF75FFBA54201D097
:10490000002070BD012070BD40B5002058AA0020D5
:1049100010B40022002310B910BC70475B1C8B42FE
:1049200007DA1C5C7E2C02BF1C1864780E2CF5D1B3
:104930001A1810BC10467047434F44452030583178
:10494000410A000055574C454E203D202530347813
:104950000A0000003C2D6770000000007062756660
:104960006665725F6C656E203D20253034780A00E4
:10497000757743524346203D2025303478207577A3
:10498000435243203D20253034780A0062B38B0720
:1049900008D0521E11F8013B00F8013B00F02480C2
:1049A0008B07F6D1830740F0208000BF103A07D371
:1049B00030B4B1E83810103AA0E83810F9D230BC61
:1049C000530724BFB1E80810A0E8081044BF51F80D
:1049D000043B40F8043BD20724BF31F8022B20F8F7
:1049E000022B44BF0B7803707047083A07D3B1E835
:1049F0000810083A40F8043B40F804CBF7D25307BC
:104A0000E4E70000F8B504461646208810B14B28AC
:104A100012D030E0384F381D02F02FFC054604E07C
:104A2000A968281DFEF7DDFD2D68002DF8D10120B5
:104A300038704B20208001E0882901D00120F2BD90
:104A40002D4F381D02F019FC054600E02D68002DA1
:104A5000EFD0281DB042F9D12946381D02F03AFCAA
:104A6000264E686937683060A96908001CBFE8698C
:104A700088473760DDE7002020800320F2BD10B5B5
:104A80001D4C00202070201D02F0F4FB04F10800F2
:104A9000BDE810400021FEF7EABDF8B5174D164EEF
:104AA000044628686061A261E361307840B12F68F4
:104AB00006F108002860201DFEF793FD2F6000E03E
:104AC000A1602146301D01E02146281DBDE8F440CB
:104AD00002F0D5BB38B5084D0446287818B1201D22
:104AE000FEF7A3FD01E0E06020612146281DBDE83E
:104AF000344002F0EFBB0000980600201CB50020F7
:104B0000F8B504000D46164604F10D0702D14FF02A
:104B1000FF30F2BD7E202070BB2116206070A17294
:104B2000FF20A070E07020716071A071E0712072B0
:104B30006072E07225730A203870FF220421781C0D
:104B400002F0F4FB04223146781DFFF71FFF7D724F
:104B5000601C617802F074FAB8722246000AF8729A
:104B60000D2038730FF2A0316078051D2B46092007
:104B7000FEF74AFA2846F2BDF8B505460420FFF7CD
:104B800051FD2946872918BF892923D1B0F822234E
:104B9000002A00F0B880102A80F2B580D44C04F1CD
:104BA00040067378934202D30022727002E00F2B0A
:104BB00080F2A380727800EB820000F549728929A7
:104BC00008BF88212046FFF79BFF0128C0F295808F
:104BD000C1B28FE088292ED1C6480078002800F0A5
:104BE0009280102880F28F80C14C04F140067378C7
:104BF000834202D30020707001E00F2B7DDA7778BA
:104C0000BD4D0FF2F031042205EB870002F0C2FB2C
:104C1000002872D004EB87000421443000F0B6FF76
:104C2000707805EB800288212046FFF769FF012894
:104C300063DBC1B25EE086295FD1AD4C04F1400672
:104C4000307800285FD010285DDA7378834202D371
:104C50000020707001E00F2B4FDA75780FF294315D
:104C600004EB85000422443002F094FB002844D079
:104C7000A148042100EB850000F088FF707804EB68
:104C8000800000F144057E202070BB21162060705A
:104C9000A172FF20A070E07020716071A071E071BE
:104CA00020726072E072FF228720207304210A20A4
:104CB000607304F10E0002F039FB0422294604F16E
:104CC0001200FFF763FE8720A075601C617802F078
:104CD000B7F9E0752246000A20760D2060760FF2C3
:104CE00028216078051D2B460920FEF78DF9012D3E
:104CF00003DBE9B22046FEF70DFB7D4C04F14006D4
:104D00007078401C7070F1BD70B505460420FFF747
:104D100089FC0446B4F822030F2840DA20880028D2
:104D20003DD0002600E0761CB4F82213F0B2884291
:104D30000BD2F6B204EB860000F549710422284636
:104D4000FEF716F90028EED170BD6C4E30462146B4
:104D50004FF45872FFF71AFEB6F8220306EB8000F4
:104D60000422294600F54970FFF710FEB6F8220329
:104D70000FF29C11401CA6F8220306F549720004AC
:104D8000830B0820FEF740F94FF458733246002198
:104D90000420FFF752FCB4F8220386F8600370BDCC
:104DA0002DE9F0450546534883B00C0004701ED031
:104DB0000F2C1CDADFF840810FF2681A00274646F4
:104DC000042229463046FFF7E1FDE878019051467C
:104DD000A87800900C206B7815F8042BFEF7EDF8FE
:104DE0007F1C361DA742EBDB08EB840501E00024A5
:104DF000414D0FF2FC16042231462846FFF7C6FD4E
:104E0000641C2D1D0F2CF6DB03B0BDE8F0853C4B78
:104E10001979187203F1080203F11000FEF738BD8A
:104E200038B50446208810B1EF280DD058E0FEF7C1
:104E300019FC334908710C200FF29011FEF7BDF8F0
:104E4000EF202080012032BD2D4D2879814227D1CD
:104E500032B310780FF2EC01286002460820FEF70A
:104E6000ACF82878882808BF0FF2FC010BD08728FF
:104E700018BF862805D00FF220110820FEF79DF8F4
:104E800020E00FF2FC010820FEF797F840F22B20FB
:104E9000E86046F28F1105F13000FEF7A2FB11E049
:104EA00088290FD105F1200082420BD005F1300096
:104EB000824207D10FF2F8010820FEF77EF847F290
:104EC0003050E86005F12000E968FEF78AFB287899
:104ED00088281CBF87288628B2D1FFF74DFEAFE790
:104EE00000202080032032BD00210648FEF7BFBB12
:104EF00010AD00202BA2002040B00020C89E002052
:104F0000000000201000002072662D3E000000000E
:104F1000416464536F756E644C6967687454616270
:104F20006C650000736F756E645F6C696768745FB1
:104F30006D61633A25582025582025582025580AA8
:104F400000000000736F756E64206C6967687420E0
:104F50007374617465206368616E676520746F2087
:104F6000253032580D0A0000534F554E445F4C49CE
:104F70004748545F53544154455F4F4E0D0A00005B
:104F8000534F554E445F4C494748545F5354415426
:104F9000455F4F46460D0A00534F554E445F4C49FE
:104FA0004748545F53544154455F4552520D0A00DF
:104FB000534F554E445F4C494748545F53544154F6
:104FC000455F4E4F4D414C0D0A000000736F756EEA
:104FD000645F6C696768745F6D73675F68616E6456
:104FE0006C65725F70726F636573730A0000000016
:104FF000000000000000000010B5040084B011D0D3
:1050000001F050F8039004220020009004F10E01FA
:1050100001208DF804000DF10500FFF7B7FC68468C
:1050200000F0D5FD04B010BD70B50420FFF7FAFA0A
:105030000088F8B100F0AEFD11E005EB8600811CA0
:105040000422601DFDF794FF30B1761C288886424B
:10505000F3DB204600F0F3FD204600F09EFD040047
:1050600008D00420FFF7DEFA05460026288800282D
:10507000ECD1F1E700F0F3FD0FF66C110A20FDF71B
:105080009CFFBDE870400023DFF8C828DFF8C8089F
:1050900042F21071FFF701BDF8B505462A4668785F
:1050A0000FF65411031D092005F10D04FDF7ACFFA7
:1050B000607ACB2826D10FF648110C20FDF77DFF32
:1050C0002846FFF799FFA87ABB2804BF601CFFF7AA
:1050D0001BFEDFF88858E87A022840F05A81DFF892
:1050E00080080178DFF87C082A46FEF7D1FBDFF85C
:1050F00078080178DFF874082A46FEF7C9FB00201B
:10510000E872F1BDC12818BFCA2819D10FF60011E5
:105110000C20FDF752FF2846FFF76EFF607ACA2881
:1051200004BF8820FFF773FEDFF844080178DFF83A
:1051300034082246FEF7ACFB2246DFF83808AFE021
:10514000EE282CD1E078DD281CBF2079DD2800F086
:1051500020810FF6C801DFF820780C20FDF72DFF25
:1051600020780FF6C80107F1A006821F3270D2B274
:1051700060787070A078B070E078F070207930714D
:105180000C20FDF71AFFDFF8F4070178DFF8D407E9
:105190003246FEF77DFB3246DFF8E40780E0C228A6
:1051A0001CD1DFF8D477207807F18005801F2870A4
:1051B0002A4660786870A078A870E078E870207956
:1051C0002871A07A6871DFF8BC070178DFF89407CE
:1051D000FEF75EFB2A46DFF8B00761E0C3281ED168
:1051E000DFF89477207807F18005801F28726078B7
:1051F0006872A078A872E078E87220792873A07AA3
:10520000687307F18804DFF884070178DFF8540732
:105210002246FEF73DFB2246DFF8740740E0C42833
:105220001ED1DFF85477207807F18005801F28749D
:1052300060786874A078A874E078E874207928759C
:10524000A07A687507F19004DFF848070178DFF865
:1052500014072246FEF71CFB2246DFF83C071FE03E
:10526000C72824D1DFF81077207807F18005801F48
:10527000287660786876A078A876E078E876207955
:105280002877A07A687707F19804DFF8100701788B
:10529000DFF8D0062246FEF7FBFA2246DFF80007C9
:1052A0000178DFF8C806BDE8F840FEF7F1BACC286F
:1052B0006FD120780B286CDB2846FFF79DFE207805
:1052C000DFF8B476DFF894560A38387004F10A0132
:1052D000401D787007F1A006CC20B8706078F87097
:1052E000A0783871E07878712079B8713878821DAB
:1052F0003A70F81DD2B2FFF749FB0422611C05F198
:10530000100002F047F840B10422611C05F11000C2
:10531000FFF73CFB0120307201E0307A90B1DFF8FA
:1053200084060178DFF83C063A46FEF7B1FADFF86A
:1053300078060178DFF834063A46FEF7A9FA00202D
:105340003072F1BDA07C06281EBFA17E0729082867
:1053500017D0DFF850060178DFF808063A46FEF766
:1053600097FADFF844060178DFF800063A46FEF7C0
:105370008FFAE87A02280CD14FF4FA7105F1740023
:1053800003E041F2883105F16400BDE8F440FEF726
:1053900028B9F1BD10B50446104622881AB1B2F5FD
:1053A000B67F05D00EE04FF4B6702080012010BD0E
:1053B000DFF8A825127A9142F5D10028F3D0FFF743
:1053C0006BFEF0E700202080032010BD2DE9F047A0
:1053D00080468946B8F8000028B140F20A21884288
:1053E00000F02F8166E10FF25C610C20FDF7E5FD16
:1053F000FEF738F9DFF864150872DFF86065DFF84A
:10540000AC7506F1840000F009FDB9F1880F05467E
:1054100007F1800420D107F18800FEF7F4F838B1D5
:105420000FF234610820FDF7C8FD0020606038707D
:1054300007F1A80A5046FEF7E6F868B100220421F9
:10544000DFF86C05FEF715F80FF214610C20FDF77C
:10545000B4FD5046FEF7CAF815F1010F16D12078B9
:1054600038B9DFF8501507F1A800FEF7BAF80120A7
:10547000207001220421DFF83805FDF7FAFF40F221
:105480000A20A8F800000120BDE8F08760688128A4
:1054900080F2D480C555401C6060012804BF387874
:1054A0007E2810D1002020700C200FF2C451FDF78F
:1054B00084FD4FF4FA7107F18800FEF792F807F1C6
:1054C000A800FEF793F838787E2840F0B78060682F
:1054D0001028C0F2B680F97897F80DA03879FF2926
:1054E00008BFFF280DD0B071A02232707171FF206B
:1054F000F87038710120F0720C200FF27C51FDF72A
:105500005CFD7978781C01F09BFD0AEB0701897B33
:10551000B1EB202F01BF0AEB0701497BC0B28142EA
:1055200040F08F800D2D01BF7878001D61688842A2
:1055300040F087800420FFF775F879787B7BA1F134
:105540000C029A4276D1008868B30B1D3A460FF2DE
:1055500080410A20FDF758FD042307F10E020FF2E7
:1055600078410A20FDF750FD0420FFF75BF805465F
:105570004FF0000A288810B90EE00AF1010A2888C5
:10558000824557DA05EB8A00811C042207F10E00E0
:10559000FDF7EEFC0028F0D1042305220FF2404174
:1055A0000A20FDF731FD00224021DFF80C04FDF751
:1055B00060FF4FF47A7107F19800FEF712F8F07A65
:1055C00060B1042207F10E01701CFFF7DFF9022021
:1055D000F0720C200FF2B841FDF7EFFC96F90900CC
:1055E00096F90A10884221D07878DFF8D033051D6B
:1055F00096F90A00EDB22A46394603EBC010FFF7D0
:10560000C5F996F90A00401C811000EB5171C910D0
:10561000A0EBC100B072294696F9090010F1010F04
:1056200004BF002070723846FDF720FB06F15400DD
:10563000FEF74DF907F18800FDF7F7FF00206060E5
:105640003870B9F1880F7FF4D8AEDD48FDF7DBFF85
:1056500020B101224021D848FDF70BFFBF4E06F1D3
:105660006400FDF7D0FF38B106F16400FDF7DDFFFF
:1056700006F110000021016006F17400FDF7C3FF80
:1056800000283FF4BAAE06F17400FDF7CEFFF07AC1
:1056900002287FF4B2AEB2480178B2483246FEF733
:1056A000F7F8B1480178B1483246FEF7F1F800202A
:1056B000F072A2E60020A8F800000320BDE8F08701
:1056C000F8B50446208820B140F2A922904209D0C2
:1056D00055E00FF2D4310C20FDF76FFC40F2A92009
:1056E000208001E0822901D00120F2BD9B4D95F977
:1056F000090010F1010F38D095F90900AF4F07EB01
:10570000C0104078061DF6B2812EA8BF00260FDA21
:1057100095F9090007EBC011324605F58670FFF7D1
:1057200035F995F90900314607EBC01000F02EFA63
:1057300095F90900401C811000EB5171C910A0EBD4
:10574000C100687295F9090095F90A10884204D1E0
:105750004FF0FF3068720020A87236B105F58672EE
:10576000297A05F14400FEF793F895F9090010F144
:10577000010FB3D005F15400FEF7A9F8AEE7002001
:1057800020800320F2BD10B5744C217B002904F168
:1057900084020146104604D100F02BFB30B90120F1
:1057A00003E000F026FB08B10020207304F1340070
:1057B000FEF78DF8012010BD10B5684C802204F171
:1057C0008C0104F1840000F00DFB002104F1340091
:1057D000FDF74DFF7B48FDF720FD00235D4A47F2B2
:1057E000305104F11400FFF758F9002104F144008E
:1057F000FDF73DFF04F15400BDE810400021FDF726
:1058000036BF30B583B0044608226846FFF7BEF8BD
:105810009DF800109DF801306B4D642202FB0131B0
:1058200089B28DF801100A0A8DF800207E212C60C3
:10583000204600F10D0401701E214170DD218170B0
:10584000291D0A7800F8032F4A784270A81D29689C
:10585000027801F8052F42784A7005F1080029689E
:10586000027801F8072F42784A70FF2128684172B8
:105870008172C1720422EE2101731220207005F1A1
:105880000C01601CFFF782F8042205F11001601D75
:10589000FFF77CF8EE2060720822694604F10A00E6
:1058A000FFF774F828681E21401C01F0C9FB80B284
:1058B000E074010A0D20A174207503B030BDF8B565
:1058C000424E30601D460FF2FC13144602467E2005
:1058D000107002F10D0717205070FF20907093F8A0
:1058E00000C002F803CF5B7853700FF2DC1233680C
:1058F00092F800C003F805CF52785A700FF2CC121C
:10590000336892F800C003F807CF52785A703268B3
:1059100050729072D07215730B2038700422781C6C
:10592000FFF734F804222146781DFFF72FF806A868
:105930007D7207F10A0102780A7017213068401C55
:1059400001F07EFB80B23873010A0D207873F97282
:10595000F1BD000029500008440700203007002056
:105960001B0B0020780B002049000020DC050020E4
:10597000100B00204300002084AE0020110B0020FB
:1059800045000020120B002046000020140B0020D0
:1059900047000020130B002048000020150B0020BA
:1059A0004A0000201A0B002044000020CCAD00204B
:1059B0000010014020BF020000080140C89A0020EA
:1059C00064AE002087570008BC08002024B60020E1
:1059D00066696E640000000061646472000000008B
:1059E00065646472000000006E6F64652063686522
:1059F000636B210A0000000072663C2D000000006D
:105A0000687767675F636D645F68656172740A00D9
:105A1000687767675F7761726E0A0000485747478B
:105A20005F434D445F54494D4552000070466972D2
:105A3000654E6F64652D3E75624C656E3A20256437
:105A40000A000000666972655F6E6F64655F75616C
:105A500072740D0A00000000545F4F0D0A00000030
:105A6000726620726573746172740D0A0000000022
:105A700073746172740D0A00727373695F73656E7B
:105A8000645F666C6167203D20310D0A00000000F4
:105A9000727373695F73656E645F666C6167203DE6
:105AA00020320D0A0000000072665F726164696F47
:105AB0005F70726F636573733A207374617274659B
:105AC000640D0A00FFFF0000FFFF0000FFFF000061
:105AD000F8B50546002615B94FF0FF30F2BD7E201F
