:020000040800F2
:1000000028B30020C5FA000845F700084FF700089C
:1000100059F7000863F700086DF7000800000000BA
:1000200000000000000000000000000077F700085A
:100030007DF700080000000083F70008A1420008D7
:1000400011FB000815FB000819FB00081DFB000848
:1000500021FB000825FB0008A9F40008D9F40008DA
:1000600029FB00082DFB000831FB000835FB0008C8
:1000700039FB00083DFB000841FB000845FB000878
:1000800049FB0008B9F600084DFB000851FB0008C9
:1000900055FB000859FB00085DFB000861FB0008E8
:1000A00065FB000869FB00086DFB000871FB000898
:1000B000ADD9000875FB000879FB00087DFB00083E
:1000C00081FB000885FB000889FB00088DFB000808
:1000D00091FB00084527000865270008A5270008B0
:1000E00095FB000899FB00089DFB0008A1FB000898
:1000F000A5FB0008A9FB0008ADFB0008B1FB000848
:10010000B5FB0008B9FB0008BDFB0008C1FB0008F7
:10011000C5270008E5270008C5FB0008C9FB000843
:10012000CDFB0008D1FB0008D5FB0008D9FB000877
:1001300010B590B0044600A8402102F079F822469C
:1001400066A100A802F0A1F900A802F0B1F90346E7
:1001500000AADFF8B81B092002F012FA00A802F08A
:10016000A7F9014600A802F0A7FB002010B010BDBF
:1001700038B504460D46284602F09AF900210A28AF
:100180001EDB01EBD1725210B1EB420205D14A19CC
:100190000B1952780A554A5D5A70491C8142F0DBAE
:1001A0000219462102F8011C2246411911F8011CCE
:1001B00001550820BDE838400FF2080102F0B9B936
:1001C00031BD0000534D533D25730A0070B5044600
:1001D000208820B1F0281AD0F5283AD063E0DFF863
:1001E000A40B012102F00AFC0FF2C4010C2002F062
:1001F000A0F901220221DFF8900B02F0FAFBDFF8F0
:100200008C0B41F2883102F0ACFCF0201FE0DFF8EB
:100210009C5AA435284602F0B6FC08B3DFF8686B98
:1002200000220221304602F0E4FB00222021DFF808
:10023000600B02F0DEFB00224FF40041304602F07A
:10024000D8FB41F28831284602F08BFCF520208053
:1002500006E0DFF8585A05F1A40002F094FC08B952
:10026000012070BD0FF25C0631460C2002F061F9EE
:10027000002105F1340002F0BAFC01222021DFF850
:10028000100B02F0B6FBDFF8000B01224FF4004127
:1002900002F0AFFB31460C2002F04BF90021DFF8F1
:1002A000E40A02F0ABFB00202080032070BD0000B8
:1002B00073696D393030615F686172645F696E695E
:1002C000740D0A0073696D393030615F6861726462
:1002D0005F696E6974320D0A0000000025730A0020
:1002E0002DE9F04704460F462088DFF8C05916462E
:1002F00060B140F2AD11401A1FD0133855D01038FC
:1003000000F08880143800F0C88004E105F1340062
:100310002862002028740FF2102102F00AF9002050
:1003200028747FA0FFF704FF41F2883105F1D40063
:1003300002F017FC40F2AD10ADE005F1D4084046E4
:1003400002F021FC18B92878874240F0AF80287865
:10035000874215D1A6B173A1304602F08FFD074642
:10036000404602F022FC304602F0A2F80346324634
:100370006BA10A2002F004F917B10020A87205E071
:10038000287C401C2874C0B20528CADB00202874D1
:100390000FF2AC10FFF7CCFE41F2883105F1D4002A
:1003A00002F0DFFB4FF4E07075E005F1D408404641
:1003B00002F0E9FB10B92878874277D12878874284
:1003C00013D196B157A1304602F058FD074640467A
:1003D00002F0EBFB304602F06BF8034632460FF2B8
:1003E00060110A2002F0CCF82FB9287C401C287438
:1003F000C0B20528CCDB002028740FF24C10FFF7A8
:1004000097FE41F2883105F1D40002F0AAFB4FF4C7
:10041000E87040E005F1D408404602F0B4FB10B9A2
:100420002878874242D12878874220D1FEB13DA169
:10043000304602F023FD07460FF2181949463046B0
:1004400002F01CFD8246404602F0AFFB304602F04F
:100450002FF80346324649460A2002F091F8002F51
:1004600018BFBAF1000F02D00120A87205E0287C65
:10047000401C2874C0B20528BFDB002028740FF28E
:10048000DC00FFF755FE41F2883105F1D40002F09F
:1004900068FB4FF4F270208008E005F1D408404674
:1004A00002F071FB28B92878874202D00120BDE80C
:1004B000F087287887421DD1E6B11AA1304602F0B4
:1004C000DDFC07460FF2A0094946304602F0D6FC93
:1004D0008246404602F069FB304601F0E9FF0346E0
:1004E000324649460A2002F04BF8002F18BFBAF1F5
:1004F000000F05D1287C401C2874C0B20528BEDB43
:100500000120A872002105F1440002F070FB05F102
:10051000340002F0EFFB002020800320BDE8F087CC
:10052000415400004F4B000073696D393030615FFA
:10053000636865636B5F70726F636573730D0A0048
:10054000415445300000000041542B4350494E3F78
:10055000000000004350494E0000000041542B436E
:100560004F50533F00000000434F50530000000025
:100570002DE9F84304460F462088DFF8306715461A
:10058000A8B140F26A21401A22D0123856D012384F
:1005900000F08A80133800F0BD80133800F0F0803E
:1005A000133800F022813A3800F0568188E17074E7
:1005B00006F1440030620FF21030FFF7B9FD41F24E
:1005C000883106F1E40002F0CCFA40F26A2041E101
:1005D00006F1E408404602F0D6FA18B930788742AE
:1005E00040F043813078874213D195B1B5A12846B8
:1005F00002F044FC0746404602F0D7FA284601F0D4
:1006000057FF03462A460FF2D0210C2001F0B8FF15
:100610002FB9707C401C7074C0B20528CBDB002061
:1006200070740FF2BC20FFF783FD41F2883106F1B0
:10063000E40002F096FA4FF41F700BE106F1E408B3
:10064000404602F0A0FA18B93078874240F00D8198
:100650003078874213D195B19AA1284602F00EFC5A
:100660000746404602F0A1FA284601F021FF034662
:100670002A460FF288210C2001F082FF2FB9707CEE
:10068000401C7074C0B20528CBDB002070740FF2E0
:100690007420FFF74DFD44F6206106F1E40002F0FE
:1006A00060FA40F28E20D5E006F1E408404602F000
:1006B0006AFA18B93078874240F0D780307887429C
:1006C00013D195B17FA1284602F0D8FB07464046DA
:1006D00002F06BFA284601F0EBFE03462A460FF2C1
:1006E00030210C2001F04CFF2FB9707C401C70743D
:1006F000C0B20528CBDB002070740FF21C20FFF77E
:1007000017FD41F2883106F1E40002F02AFA40F2C6
:10071000A1209FE006F1E408404602F034FA18B93F
:100720003078874240F0A1803078874213D195B16C
:1007300064A1284602F0A2FB0746404602F035FAC3
:10074000284601F0B5FE03462A460FF2E4110C20BC
:1007500001F016FF2FB9707C401C7074C0B20528E0
:10076000CBDB002070740FF2D010FFF7E1FC41F2F8
:10077000883106F1E40002F0F4F94FF42D7069E0DD
:1007800006F1E408404602F0FEF910B930788742DD
:100790006BD13078874213D195B14AA1284602F037
:1007A0006DFB0746404602F000FA284601F080FE45
:1007B00003462A460FF290110C2001F0E1FE2FB9FA
:1007C000707C401C7074C0B20528CCDB00207074B3
:1007D0000FF27C10FFF7ACFC41F2883106F1E40027
:1007E00002F0BFF940F2C72034E006F1E4084046C9
:1007F00002F0C9F910B93078874236D13078874293
:1008000014D19DB12FA1284602F038FB0746284697
:1008100001F04EFE03462A460FF240110C2001F073
:10082000AFFE1FB1404602F0C0F905E0707C401CED
:100830007074C0B20528CBDB00207074DFF8FC07B1
:10084000FFF776FC41F2883106F1E40002F089F905
:1008500040F20130208008E006F1E408404602F052
:1008600092F918B93078874200D015E23078874283
:1008700017D1B5B1DFF8147D3946284602F0FEFAEB
:100880008146284601F014FE03462A4639460C20CC
:1008900001F076FEB9F1000F03D0404602F085F971
:1008A00005E0707C401C7074C0B20528C6DB0021D6
:1008B00006F1540002F09BF906F1440002F01AFA26
:1008C000EDE100004F4B000041542B4347434C41A6
:1008D00053533D22422200004C415353000000007C
:1008E00041542B434744434F4E543D312C224950F1
:1008F000222C22434D4E45542200000043474443DE
:100900000000000041542B43474154543D31000046
:10091000434741540000000041542B434950435386
:1009200047503D312C22434D4E45542200000000DB
:10093000435347500000000041542B434950484561
:1009400041443D3100000000504845414400000052
:1009500041542B434D47463D30000000434D474630
:10096000000000002DE9F84304460F462088DFF818
:100970003C63154660B140F24731401A1BD0103835
:100980004ED0153800F08480333800F0C58028E15F
:1009900006F1540030620020B074DFF8F40BFFF76A
:1009A000C7FB41F2883106F1F40002F0DAF840F2B8
:1009B0004730208070E106F1F408404602F0E3F889
:1009C00010B930788742F5D13078874213D195B18C
:1009D000B5A1284602F052FA0746404602F0E5F873
:1009E000284601F065FD03462A460FF2F8110C2057
:1009F00001F0C6FD2FB9B07C401CB074C0B2052810
:100A0000CBDB0020B074DFF88C0BFFF791FB41F2D9
:100A1000883106F1F40002F0A4F840F25730C8E73C
:100A200006F1F408404602F0AEF810B9307887427B
:100A3000C0D13078874216D1ADB19BA1284602F0D3
:100A40001DFA0746404602F0B0F8284601F030FD96
:100A500003462A460FF294110C2001F091FD17B1C4
:100A60000320B07205E0B07C401CB074C0B2052811
:100A7000C9DB0020B074DFF8C405FFF759FB41F271
:100A8000883106F1F40002F06CF84FF45B7090E7E7
:100A900006F1F408404602F076F810B93078874243
:100AA00088D13078874217D1B5B1DFF8E07A39467E
:100AB000284602F0E3F98146284601F0F9FC034696
:100AC0002A4639460C2001F05BFDB9F1000F03D036
:100AD000404602F06AF805E0B07C401CB074C0B239
:100AE0000528C8DB0FF20C100FF21013F2690FF299
:100AF0001C11009006F58275284601F0C6FC2846B8
:100B0000FFF716FB0020F07442F21071404602F02D
:100B100028F840F29F304CE7882F04BF06F1F40814
:100B2000454522D106F58270FFF702FB42F21071B3
:100B3000404602F016F8F07C0A2812D10020F0742A
:100B4000002106F1240002F052F806F12400306280
:100B500006F1540002F0CEF80FF2CC010A2001F0A9
:100B6000E8FCF07C401CF074D3E730788742E2D197
:100B7000002DE0D00FF2C401284602F07FF90028D2
:100B8000D9D00A20B07202F093F9007838B9012068
:100B900002F08AF90A200FF2B00101F0CAFC01202C
:100BA000F07206F16400306206F1F40001F0FDFF1E
:100BB000F178002206F1640002F02AF9284601F0DB
:100BC00077FC03462A460FF2A4010C2001F0D8FC62
:100BD0000FF2A0010C2001F0ACFC06F1540002F071
:100BE00089F85CE04C4F53450000000053485554D1
:100BF0000000000034353637000000003131392E56
:100C000032392E3232342E323800000041542B4318
:100C1000495053544152543D222573222C222573AE
:100C2000222C222573220000636F6E6E6563742090
:100C30006661696C65640D0A00000000434F4E4E0A
:100C4000454354204F4B00002D2D2D2D2D2D2D2DA6
:100C50002D2D2D2D2D2D2D2D2D2D2D2D2D2D2D4EA3
:100C600045545345544D4F44450A00004950535490
:100C70000000000073696D393030615F7463707516
:100C800064705F636F6E5F70726F6365737320650E
:100C90007869740D0A0000000120BDE8F28300208D
:100CA00020800320BDE8F2834F4B0000AC090020F8
:100CB00030B583B044880578042002F0E9FB0220B7
:100CC00002F0E6FB0346F5B9002001900090E2B285
:100CD000DFF8C8580621281D02F054FC02460128FE
:100CE00011DB2860291DDFF8B848201D02F088FCC0
:100CF00020602246DFF8AC084178743002F088F8B2
:100D00002B682A1D04E003B030BD0000C01F00089E
:100D100003B0BDE830400FF20801072001F030BCFD
:100D200053594E43000000007CB50488022002F0B5
:100D3000AFFB03460020019000902246DFF85C588C
:100D40009921281D02F01EFC012819DBDFF8544808
:100D5000A17A0A2914D1286008200FF2380101F085
:100D6000E8FBDFF83C682A68291D301D02F048FCCA
:100D700030603246617804F1740002B000F03ABC91
:100D800073BD00000004300000080140500A00203C
:100D9000000C01405320594E432041434B0D0A00A3
:100DA000002110F8012B0AB10120704710F8012B27
:100DB000002A04BF10F8012B002A04BF10F8012BF1
:100DC000002AF1D1091D2829EBD3002070472DE915
:100DD000F84305460F469046042002F059FBE87898
:100DE0002979DFF8C09740EA01246879A97940EAB7
:100DF0000126002089F80D00A87899281AD12346E9
:100E00003A460FF2F401082001F093FBA74271D19A
:100E1000404601F0CAFEDFF89077DFF89027387877
:100E200087F82C00FC8507F12C034FF47A7107F545
:100E3000657031E0032834D1022002F029FBDFF88D
:100E40006877387808B901203870002089F80C00DC
:100E50004FF4587107F1340001F0EAF9052E12DB66
:100E600005F20B00018871B1B9868A00811C07F177
:100E7000360002F07DFC4FF4587307F13402002174
:100E8000042002F010FB3C8607F13003DFF88C2DC4
:100E90004FF47A7107F56D7001B0BDE8F04302F0D0
:100EA000EEBC052826D1A74204BF404601F07DFED6
:100EB000DFF8F4762821381D01F0BAF9301F282810
:100EC00018D1282205F10B01381D02F051FC002039
:100ED000C119097971B9401CC119097951B9401C6E
:100EE000C119097931B9401CC119097911B9401CDE
:100EF0002828EDD3BDE8F183757753656E6453659B
:100F000071203D202530347820207577536571207D
:100F10003D20253034780A002DE9F04704460420AE
:100F200002F0B6FA00270546B84624B14FF45871CE
:100F3000204602F0D7FC2888002851D002F0D6FCC9
:100F400006460FF2A0090FF2A40A18E0307990B912
:100F500004EB87000422711D801C02F009FC7F1C39
:100F60003A4651460A2001F0E4FA0423721D49462C
:100F70000A2001F005FB304602F0BBFC0646002EBD
:100F8000E4D1288880452ADA05EB880606F10209B3
:100F900002F0ACFC09E0042249460AF1050001F028
:100FA000A3FAC8B1504602F0A4FC5FEA000AF2D1ED
:100FB00004EB87000422B11C801C02F0D9FB7F1CCB
:100FC0003A460FF234010A2001F0B3FA0423B21CAE
:100FD00019A10A2001F0D4FA08F10108D1E727800D
:100FE000BDE8F0874F555431000000006931203DC5
:100FF0002025640A0000000069203D2025640A00C5
:1010000038B50446DFF89C5505F124002862092014
:10101000A8720020E87201F047FF002105F12400CA
:1010200001F0E5FD0FF21801082001F082FA2046D8
:10103000BDE8324001F0B9BD4F555400C81F00084B
:101040004552524F520A00002DE9F043DFF8544553
:101050000F46217885B0884240F08980002F00F04B
:1010600086800FF28031384601F008FF30B1DFF89A
:10107000240CFFF7C5FF0FF2743128E00FF278312E
:10108000384601F0FBFE30B1DFF8080CFFF7B8FF7F
:101090000FF26C311BE00FF27431384601F0EEFEB6
:1010A00030B1DFF8F00BFFF7ABFF0FF26C310EE061
:1010B0000FF27431384601F0E1FE60B1BFA0FFF7D6
:1010C00037F8DFF8D00BFFF79BFF0FF264310A20EF
:1010D00001F02FFA2FE057F8041C384602F00FFBFE
:1010E000060028D002F0D2FA28B37079B179DFF87F
:1010F0006C5D40EA01200A301FFA80F840F254513A
:1011000005F5597001F094F805F55A79C5F864832E
:1011100042463146484602F02BFB43464A460FF210
:101120001C31072001F02CFA298805F6E80205F5A4
:101130005A70FFF74CFEA2A1384601F09FFE50B155
:101140000FF200310A68A17800A8026004F174006F
:1011500000AA01F05DFE9BA1384601F08FFE002839
:1011600000F03D81A1783A4604F17400FBE0E1789B
:10117000884244D1022002F08BF90746DFF8DC5C9C
:10118000281DFFF7C9FEE28AA888DFF8106428B19D
:101190008000801C80B20190281D00E0019000902A
:1011A0003B460121301D02F0EDF901281FDBA17A39
:1011B0000A291CD13060321DE08A3368288082A160
:1011C000062001F0DDF9DFF8D8733268311D381DD3
:1011D00002F016FA38603A46617804F1740001F0C2
:1011E00017FE42F2107105F6E80001F0BAFC207B10
:1011F000401C207347F2305105F6D80098E0217961
:1012000088425CD1002F00F0B180022002F040F94A
:10121000804602A80021002206C0DFF8405C05F6E7
:10122000B806BE420BD03B780FF21C213A460A208A
:1012300001F0A6F93A783946304602F099FA0422CC
:10124000791C02A802F094FA787AD44E8DF80C003A
:101250004346E08A421C05200190E28202A80090E9
:1012600092B20221301D02F08DF9012818DBA27A1A
:101270000A2A15D1E18A306029800246C84F311D03
:10128000381D02F0BDF938603A46617804F1740007
:1012900001F0BEFD42F2107105F6E80001F061FCBC
:1012A00000220221DFF8C00C01F0A3FBDFF8BC0C28
:1012B0000022202101F09DFB02F0F6FB8FE0617A15
:1012C000884238D1002F51D0022002F0E1F80546C3
:1012D0003B780FF27C117A1C072001F051F9E08A6B
:1012E000AE4E421CE2822B463878019092B2781CB6
:1012F00000900421301D02F045F901286FDBA27A2D
:101300000A2A6CD1DFF8545BE18A306029800246FA
:10131000A34F311D381D02F073F938603A466178E9
:1013200004F1740001F074FD42F2107105F6E8005A
:1013300001F017FC53E06179884217D1B7B1DFF8AB
:10134000540901F032FC0920A07204F194052562D1
:10135000002001F0A9FDE07A02281CBF0020E07205
:10136000A1793A46284601F053FD38E0882836D165
:10137000DFF8E85A05F6D800874227D101F098FD3A
:101380000546E178002204F1640001F041FDE08AA5
:10139000401CE082287810BB0FF2BC010A2001F04B
:1013A000C8F804F12400206200210920A072002066
:1013B000E07204F1240001F01AFC10E041544800EE
:1013C0000D0A3E004F4B00005352430005F6E80063
:1013D000874204D10FF290010C2001F0AAF805B069
:1013E000BDE8F083434C4F5345440000636C6F737A
:1013F0006564207265630A004552524F5200000036
:101400006572726F72207265630A000053454E4424
:10141000204641494C00000073656E642066616996
:101420006C207265630A000052494E4700000000BC
:1014300052494E47207265630A0000003C2D5278E5
:10144000000000000D0A3E007761726E000000008F
:101450005452414E0000000065745F68656172740B
:1014600020636865636B0A0061636B2074696D6556
:10147000206F75740A00000010B504460846114636
:10148000228822B140F2DF539A4203D005E040F2B5
:10149000DF50C5E0FFF7D8FDF9E7C4E070B5414D76
:1014A0000C46A979884228D1002C55D00FF20011A2
:1014B0000C2001F03EF8DFF8C06A2821304600F029
:1014C000B7FE30462146282202F052F92823324640
:1014D0000FF2F4010C2001F053F80FF6C420FEF7D0
:1014E00027FE0FF6CC20FEF723FE06F12C00BDE808
:1014F000704041F2883101F034BB297888422BD109
:1015000054B30FF2CC01204601F0B8FC70B1DFF803
:10151000686A0FF2C801012086F828000C2001F04B
:1015200008F806F12C0001F040FB28E01AA1204643
:1015300001F0A4FC10B1297A224622E00FF2E0610A
:10154000204601F09BFCF8B10FF2A0010C2000F046
:10155000F0FF297A224614E0882802BFDFF8186AD3
:1015600006F12C0084420FD196F8280038B90FF606
:101570003020FEF7DDFD0FF63820FEF7D9FDE979C2
:10158000324605F1740035E070BD0000D41F00083C
:10159000A01F0008B01F00083E0000005C7700207C
:1015A000B07C0020AC090020488F0020B10C00085E
:1015B00053454E4420534D5320414E442050484FF4
:1015C0004E450D0A0000000050484F4E000000003C
:1015D000434C4F5345204F4B000000006770723161
:1015E00020697320636C6F73650D0A00534D534F70
:1015F0004B0A0000BDE8704001F00ABC10B504467B
:1016000008461146228822B140F21E639A4203D056
:1016100005E040F21E6003E0FFF740FFF9E702E05B
:101620002080012010BD00202080032010BD00007C
:101630002DE9F043DFF844690D46717885B08842A2
:1016400024D1002D00F0868001F032FCDFF83079E3
:101650000FF6881107F1280406466560082000F09F
:1016600068FF60680FF688110368021D082000F00B
:1016700087FF3078012840F0CF820FF67C10FEF70C
:1016800057FD41F2883107F5907037E2B178884212
:1016900060D1002D00F09A81E1A1284601F0EEFB17
:1016A00000281FBFDFF8D80800F128046068002870
:1016B0001DD003680FF64C11021D062000F060FFDC
:1016C000606850F8041B01F0F7F81A2001F0F2F8F6
:1016D0006068DFF8B0480268011D201D01F0B3FF0B
:1016E0000346221D0FF62411062000F049FFCDA16C
:1016F000284601F0C3FB002800F08E820FF614117B
:10170000082000F016FFDFF8785805F5907001F01A
:101710004CFA05F1280400206060A070707B6428FA
:1017200014DB06F1240030620920B0720020F07250
:1017300001F0BAFB002106F1240001F058FA0FF67F
:10174000E001082000F0F5FE00207073707B401C63
:10175000707344E6F17988427DD1002D00F0368126
:10176000DFF81C98A94504D048462946282201F0F4
:10177000FFFF002009F1280189F828004870202483
:1017800002460027214609F1300002F093FB3A4659
:10179000214609F1600002F08DFB09F1A0053A46EF
:1017A0008021284602F086FB3A46102109F15000BC
:1017B00002F080FB06F1B40109F13000FEF7D8FC1D
:1017C000494609F15000FEF7D3FC0FF63C200FF21A
:1017D00058420FF66801039009F130030FF25040B0
:1017E000029009F1500001900FF638200090284631
:1017F00000F04BFE2A460FF65401082000F099FE37
:101800000FF65400FEF794FC44F6206109F5987039
:1018100001F0A7F9DFF8701709F5A87001F0A1F938
:1018200099F82800401C89F8280009F5B0740222B4
:101830003321204602F06BFB05462B4622460FF66D
:1018400024010A2000F09CFE2946204605B0BDE890
:10185000F04301F044B8317A884240F0B780002D5F
:1018600000F0B4806EA1284601F008FB80B1DFF8DB
:10187000100700F1A005284600F01AFE0146284690
:1018800001F01AF805B0BDE8F0431A2001F012B8D3
:101890000FF28C31284601F0F1FA002800F0BC81EB
:1018A000DFF8DC9699F8280009F5987709F1A0058A
:1018B000012855D10FF2B4710A2000F03AFE99F8D0
:1018C0002800401C89F8280044F62061384601F0C1
:1018D00048F9202400270022214609F1300002F0B7
:1018E000E9FA3A46214609F1600002F0E3FA3A4685
:1018F0008021284602F0DEFA3A46102109F1500014
:1019000002F0D8FA06F1B40109F13000FEF730FC1C
:1019100009F1140109F15000FEF72AFC0FF6E80066
:101920000FF204320FF21471039009F130030FF239
:101930000030029009F1500001900FF6E80000908D
:10194000284600F0A2FD2A460FF20071082000F0A0
:10195000F0FD05B0BDE8F0430FF2FC60FEF7E8BB18
:101960000FF228710A2000F0E4FD0FF230710A2016
:1019700000F0DFFD09F128044A4660780FF240715B
:10198000401C6070284600F080FD384601F00DF9DB
:101990002846FEF7CDFB4CF2503109F5A07001F05E
:1019A000E0F809F5B0741121204602F0A1FA0546CD
:1019B0002B4622460FF210710A2000F0E1FD294665
:1019C000204605B0BDE8F04300F089BF882840F00C
:1019D0002381DFF8AC9509F59070854224D10FF290
:1019E000F061082000F0A5FD09F12804A078032883
:1019F00010DB06F12400306200210920B07206F1EC
:101A0000240001F0F4F80FF2DC610A2000F091FDEF
:101A10000020A07005B0A078401CA070BDE8F08345
:101A20003E0000004F4B000009F59878454540F016
:101A30009B800FF2C06499F8282021460A2000F00C
:101A400078FD99F8280009F1A00501285BD199F8E3
:101A5000282021460A2000F06CFD0FF2AC610A201C
:101A600000F067FD99F82800401C89F82800202420
:101A700000270022214609F1300002F01BFA3A4605
:101A8000214609F1600002F015FA3A468021284605
:101A900002F010FA3A46102109F1500002F00AFA59
:101AA00006F1B40109F13000FEF762FB09F11401FF
:101AB00009F15000FEF75CFB0FF24C700FF2681258
:101AC0000FF27851039009F130030FF26410029085
:101AD00009F1500001900FF24C700090284600F080
:101AE000D4FC2A460FF26451082000F022FD0FF2C8
:101AF0006850FEF71DFB44F62061404605B0BDE886
:101B0000F04301F02EB80FF220610A2000F011FD21
:101B1000D1A0FEF70DFB4A460FF2A451284600F073
:101B2000B4FC2846FEF704FB4CF2503109F5A070D6
:101B300001F017F80FF210610A2000F0FAFC09F525
:101B4000B0741121204602F0D3F905462B462246F7
:101B50000FF204610A2000F013FD2946204605B06B
:101B6000BDE8F04300F0BBBE09F5A870854226D160
:101B700006F15400306200210920B07206F15400D1
:101B800001F035F8002089F828000A200FF2D05122
:101B900000F0CFFC09F5B0741E21204602F0A8F930
:101BA00005462B4622460FF2CC510A2000F0E8FCF5
:101BB0002946204605B0BDE8F04300F090BE09F587
:101BC000A070854228D10FF2B4510A2000F0B1FC78
:101BD000A1A0FEF7ADFA09F1A00509F114020FF278
:101BE000E041284600F051FC2846FEF7A1FA09F52D
:101BF000B0741121204602F07BF905462B4622469F
:101C00000FF254510A2000F0BBFC2946204605B0D3
:101C1000BDE8F04300F063BEFFF7E1BB290D00080B
:101C20002B434D475300000030383931363800001F
:101C300030303038414130430000000010B50446D8
:101C400008461146228822B140F255739A4203D0C9
:101C500005E040F25570E3E4FFF7EAFCF9E7E2E45F
:101C600010B5C64C217D002904F5C272014610460C
:101C700004D102F010FA30B9012003E002F00BFAAF
:101C800008B10020207504F1840001F0E0F8012083
:101C900010BD0000503F00202DE9F045044691B0F2
:101CA0002088BB4E8A4618B1B0F5F76F2DD0BDE045
:101CB000B24F00F097FF387000F094FF307000F0E2
:101CC00091FF787000F08EFFF87000F08BFFB87015
:101CD00000F088FF387100F085FF787100F082FF16
:101CE000B87100F07FFFF87100F07CFF387200F0EF
:101CF00079FF78720A200FF2944100F01AFC04E098
:101D0000C82106F5AA6000F02CFF9C4F07F5C270B1
:101D100002F0D6F98046BAF1880F67D106F5AA60BD
:101D200000F031FF002861D0D6F84C250FF2744145
:101D30000C2000F0FEFB974D002240F25451284643
:101D400002F0B8F8D6F84C252A60311D281D01F0A4
:101D50001FFDD6F84C350FF26841321D0A2000F005
:101D60000FFC3978386A2A1D01F052F80FF25841F9
:101D7000301D01F083F8D0B100A8402100F058FADE
:101D80000FF244227AA100A800F07FFB00A800F027
:101D90008FFB034600AA0FF22821092000F0F0FB78
:101DA00000A800F085FB014600A800F085FD0FF2B9
:101DB0002421301D01F062F878B16EA1301D01F0D0
:101DC0005DF8B437C11C0B22384601F0D1FC3A460D
:101DD0000FF20041082000F0ACFB00224FF4A96193
:101DE000301D02F067F80020C6F84C0518F1010F0D
:101DF00006D14FF4F760208011B00120BDE8F085D6
:101E0000D6F84C0520B95FFA88F10D297FF47DAF33
:101E10008119401C81F80480C6F84C05B0F5A96F03
:101E2000FFF66EAF0020C6F84C056EE7002020805C
:101E300011B00320BDE8F08510B5574C4FF4587130
:101E4000204600F0F5F92246BDE810404FF45873E3
:101E50000021042001F027BB4154480078360020BF
:101E600010B5464C802204F5C67104F5C27002F02C
:101E70000BF9464800F08DFC002104F1240000F02D
:101E8000B6FE002104F1840000F0B1FE002104F14F
:101E9000640000F0ACFE002104F1740000F0A7FE25
:101EA00004F19400BDE81040002100F0A0BE30B560
:101EB00083B0022001F0ECFA304D324CEA8A002166
:101EC000019100910346992110E030B583B00220C2
:101ED00001F0DEFA3149294D0A882A4C009192001E
:101EE000921C92B201920346EA8A0321201D01F05E
:101EF00049FB2978286A221D03B0BDE8304000F074
:101F000087BF80B5042001F0C3FABDE80050024647
:101F10004FF458730FF2D421002000F031BB30B5DC
:101F200085B00FF2D0211CC900A800A91CC0134C19
:101F300004F503750C22284601F01AFC0C2200A9B6
:101F400004F5087001F014FC28232A460FF2B02192
:101F50000A2000F015FB61792A4604F1640000F0C4
:101F600057FF05B030BD0000000C014000100140DB
:101F700025730A002B383600A4AC0020AC090020E1
:101F80005CA000205C770020E0220200611C0008B9
:101F90005467002008720020089A0020C005002025
:101FA00041542B434950434C4F53453D31000000B1
:101FB00041542B434950534855543D3100000000D3
:101FC0002D3E636D0000000041542B435343413FBD
:101FD00000000000435343410000000053544152AD
:101FE000542053454E4420677072730A000000006D
:101FF000545844410000000041542B43495053457C
:102000004E4400002D3E6770000000002D3E31411F
:102010000000000053454E44204F4B0A00000000D2
:1020200073696D39303061207265636F6E6E656300
:102030007420616769616E0A0000000025732573D2
:102040002573257325732573000000007761726E78
:10205000736D733D25730A0041542B434D47533D27
:10206000323700004D302D3E00000000736D73329A
:10207000312D2D2D2D2D2D2D2D2D2D2D2D2D2D2D8C
:102080002D2D2D2D2D2D2D2D2D2D0A0073746172CA
:1020900074312070686F6E650A000000706F6E6F9B
:1020A00031313131312D2D2D2D2D2D2D2D2D2D2D4C
:1020B0002D2D2D2D2D2D2D2D2D2D2D2D2D2D0A00A0
:1020C00041544425733B00004D312D3E000000007B
:1020D0005544502053454E442054494D45204F55BA
:1020E000540A000065745F73656E64206F75740A2E
:1020F00000000000756250686F6E65496E64657817
:10210000203D2025640A0000736D7332322D2D2D81
:102110002D2D2D2D2D2D2D2D2D2D2D2D2D2D2D2DEF
:102120002D2D2D2D2D2D0A00706F6E6F312D2D2D23
:102130002D2D2D2D2D2D2D2D2D2D2D2D2D2D2D2DCF
:102140002D2D2D2D2D2D0A00737461727432207087
:10215000686F6E650A0000004D322D3E00000000E1
:1021600065745F6261636B5F756470206F75740A7C
:10217000000000004D332D3E0000000073746172BA
:10218000742070686F6E6520320A000073696D39C3
:102190003030615F726573705F70726F6365737307
:1021A0000D0A0000726563656976652066696E696F
:1021B0007368207072743D2025640D0A00000000D1
:1021C0003C2D677000000000534D53205265616440
:1021D00079000000736D7343656E74657250686FAB
:1021E0006E65203D2025730A00000000666E6F6456
:1021F00000000000313838323031303932363500A5
:1022000070686F6E650000003533643137353166B4
:1022100037303662373037653632613538623636B8
:1022200000000000313130303044393136380000A0
:10223000002201F043BE50F8041B61B150F8042B9A
:10224000D30744BFA9F101039A18002342F8043BC5
:10225000091FFAD1EFE7704710B504460A2C04BFF6
:102260000D20FFF7F9FFDFF84402416821B1491C56
:10227000416001F8014D10BD0168080003D02046FF
:10228000BDE81040084710BD2DE9F0478AB08046F0
:102290008946DFF8186204E059F8040BC0B2FFF772
:1022A000DBFF18F8010B002800F0E5802528F6D1A7
:1022B00018F8010B0021302808BF012102D02D2879
:1022C00002D1022118F8010B4FF0000A07E00AEBD7
:1022D0008A0200EB4200A0F1300A18F8010BA0F1CD
:1022E00030020A2AF3D36C2812BF4C2841F00401B3
:1022F00018F8010B002800F0BE800446612CA4BF32
:10230000A4F12002D4B2422C41D0432CC4D0442C9E
:1023100043D04F2C3FD0532C04D0552C3DD0582CBB
:102320003DD0BCE759F8044B0025204600E06D1C69
:1023300010F8012B002AFAD1880705D514E031687E
:1023400008001CBF202088472846451C50450BD25A
:1023500070680028F3D0202100F8011B7060F3E7BB
:1023600014F8010BFFF778FF20780028F8D15545C5
:1023700097D270686D1C20B1202100F8011B70609D
:10238000F5E731680800F2D020208847EFE7022205
:1023900059F8043B05E00822FAE70A22F8E7102280
:1023A000F6E7442C04D1002B44BF5B4241F0080106
:1023B00000270DF1000CB3FBF2FE02FB1E34E4B269
:1023C00073460A2C07DB78280CBF4FF0270E4FF01E
:1023D000070E7444E4B204F1300E0CF801EB7F1CDC
:1023E0000BB1202FE7D3080703D500AA2D20B8543E
:1023F0007F1C3D46C8074CBF30242024880712D5D7
:102400007F1E00A83C5C0A2C04BF0D20FFF724FFB0
:102410007068C0B100F8014B706019E031680800C5
:102420001CBF204688472846451C5045E8D20A2C48
:1024300004BF0D20FFF710FF70680028EED000F8F1
:10244000014B7060EFE7316808001CBF20468847E9
:10245000002FD5D15545BFF424AF70686D1C20B155
:10246000202100F8011B7060F4E731680800F1D00A
:1024700020208847EEE70AB0BDE8F0870EB400B52B
:1024800001A9FFF701FF5DF810FB0CB410B5074C74
:102490000A46606002A91046FFF7F6FE6168002058
:1024A0000870606010BC5DF80CFB000088AE002076
:1024B00000F10103810704D010F8011B89B18107E5
:1024C000FAD10268B2F10131914311F0803F04BFAB
:1024D00050F8042FF6E710F8011B11B110F8011B9A
:1024E000FBE7C01A7047000010B400231446621EB8
:1024F0002CB110F8013B11F8014B1B1BF6D010BC9E
:102500001846704770B504460D4614F8010B01F0EB
:10251000EBFDC6B215F8010B01F0E6FDC0B2864234
:1025200003D1002E18BF0028EFD1301A70BD7748B4
:1025300070470CB4F8B505467548744F066838788E
:102540000C46E9B288420DD3142816D076B17068D3
:102550000FF2C011FFF7D6FF20B171680FF2C01063
:10256000FFF78CFF3878EDB2A84206D338781428EC
:1025700003D006A92046FFF787FEF1BC5DF80CFBEF
:102580002DE9F24F05466248604C076820781646F0
:102590009846A84211DB142800F0A5806FB1786836
:1025A0000FF27011FFF7AEFF38B179680FF27010BB
:1025B000FFF764FF4FA0FFF761FF2078A842C0F249
:1025C0009280142800F08F80009828B1014642467E
:1025D0000FF25410FFF752FF0027B8F1010F44DB50
:1025E000B14645A599F800100FF24810FFF746FFD5
:1025F000F81007EB10700011A7EB00100F282FD177
:102600003EA0FFF73BFF27F00F04A7421BDB04EBC4
:10261000060A9AF800B0ABF120005F2809D35846AB
:1026200001F06EFD28B9584601F074FD08B92E215D
:1026300001E09AF800102846FFF720FF641C0AF119
:10264000010AA742E5DA2BA0FFF718FF009838B17E
:10265000781C404504DA2AA10FF2E000FFF70EFFD4
:102660007F1C09F101094745BCDBF81007EB10702E
:102670000011B7EB001030D03C4622A503E02846FD
:10268000FFF7FCFE641CE01004EB10700011B4EBCB
:102690000010F4D119A0FFF7F1FE27F00F00B842A7
:1026A00018DA86193F1A14A53478A4F120005F289F
:1026B00009D3204601F024FD28B9204601F02AFD67
:1026C00008B92E2100E031782846FFF7D7FE761CA6
:1026D0007F1EE9D107A0FFF7D1FEB8F1000F04BFBC
:1026E00004A0FFF7CBFE0020BDE8F28F014606A054
:1026F000FFF7C4BE0D0A000025630000203B000068
:1027000000000000202020002E256400D3140020AB
:10271000D8AD00204576656E742074696D657200D1
:10272000252D3230737C0000252D3573252D346422
:102730003A0000002025303258000000252D397362
:102740003A0000006E4801686E480288930602D580
:102750000A0006D017E0110703D54FF6F771018084
:10276000808870476848016868480288930603D5E6
:1027700082880A0006D006E0110703D54FF6F771EC
:102780000180808870478088C0B208475E49086031
:1027900070475F49086070475E49086070475E494E
:1027A000086070475C4801685C480288930602D55F
:1027B0000A0006D0E7E7110703D54FF6F77101804D
:1027C000808870475248016855480288930602D5B0
:1027D0000A0006D0D7E7110703D54FF6F77101803D
:1027E000808870474B4801684E480288930602D59E
:1027F0000A0006D0C7E7110703D54FF6F77101802D
:1028000080887047411E052900D3704710B53B49A9
:1028100001EB800184B051F8044C012803D14FF43E
:102820006120009019E0042803D14FF4E1300090BA
:1028300013E04FF41651022800910ED100200190B0
:10284000ADF80800ADF80C000C20ADF80A0000202F
:102850000FF2D401FFF76DFE08E000200190ADF803
:102860000800ADF80C000C20ADF80A00204601F07D
:102870005BFC00A9204601F09BFC012240F225519F
:10288000204601F0F5FC0121204601F0E7FC04B0F0
:1028900010BD1B490860704751B1204A0378B2F857
:1028A00000C05FEA0C6CFAD5401C9380491EF5D13C
:1028B000002070471A490DE051B1194A0378B2F867
:1028C00000C05FEA0C6CFAD5401C9380491EF5D11C
:1028D000002070470A881206FCD58880704751B1E5
:1028E000104A0378B2F800C05FEA0C6CFAD5401CBD
:1028F0009380491EF5D1002070470000C4130020CA
:10290000F4AE002000380140F8AE00200044004042
:10291000FCAE002000AF002004AF002000480040C3
:10292000004C004000500040554152543220696E26
:1029300069740A002DE9F041CC78002204F00F03FD
:10294000E40644BF8C7823430C88E5B225B3D0F865
:1029500000C001250F2605FA02F7BE460EEA04085C
:10296000F04514D14FEA820E06FA0EF82CEA080C54
:1029700003FA0EFE4EEA0C0C91F803E0BEF1280FAC
:1029800008BF476103D0BEF1480F08BF0761521C62
:10299000082AE0D3C0F800C0FF2C28DDD0F804C01E
:1029A000002201250F2602F1080705FA07F7BE46A7
:1029B0000EEA0408F04515D14FEA820E06FA0EF829
:1029C0002CEA080C03FA0EFE4EEA0C0C91F803E018
:1029D000BEF1280F08BF476191F803E0BEF1480F30
:1029E00008BF0761521C082ADDD3C0F804C0BDE847
:1029F000F0810AB1016170474161704770B4164AB5
:102A000000284CBF9469146800F44016C0F30345D5
:102A100083B2B6F5401F06D1156825F0706524F025
:102A2000706415600CE0C60203D5032606FA05F5AE
:102A300003E0450D2D0103FA05F5AC4344F0706445
:102A400021B1410D090103FA01F10C4300284CBFEB
:102A50009461146070BC70470400014038B55E4C4E
:102A6000206890B101F04CFC21680A684B689A1804
:102A7000121A06E00B684D68EB181B1A934238BF18
:102A80001A4689680029F5D11018606031BDF8B583
:102A90000446208810B1592806D03FE04E4908600E
:102AA000592020800120F2BD87294B4E04D0822975
:102AB000F6D115E0A86830603568002DF0D0E868E0
:102AC0009042F7D0A8680028EAD0C168914212BFAE
:102AD00005468068A860F5E70020A860FFF7BEFF04
:102AE0000027356805E006F1080000F0B0F92F4630
:102AF000AD68002DD4D0284601F027FC0028F6D080
:102B0000E8682A46882100F083F90028EBD1E860C4
:102B1000002FA86814BFB8603060DDE70020208077
:102B20000320F2BD2D4800F092B938B504462A4D75
:102B300005F1080000F08BF92868E16849B1014609
:102B400000E0896829B1A142FBD125480068E06016
:102B500004E023490968E160A0602C60BDE83140D1
:102B60007CE710B5044601F0E1FB03E010B5044634
:102B700001F0E0FB2046BDE81040D6E710B5044662
:102B800001F0DDFBF6E7C06808B9012070470020BE
:102B900070471148006800B1012070470E48016875
:102BA00009B9002070474068704710B504460A48CC
:102BB00001688C4203D18968016006E0014631B1A9
:102BC0008868A042FAD1A0688860FFF747FF00201C
:102BD000A060E06010BD0000441300204C130020F2
:102BE000D8AD0020A0490878421C0A70704738B55B
:102BF0009D4CA268134600E01B68834218BF002B5F
:102C0000FAD183420BD00260A060012282730022BD
:102C100082810A46E568812100F04FF8E56031BD08
:102C20002DE9F041904DEE68AF680446884602E019
:102C3000002F40D03F68A742FAD1002F3BD0A07BA5
:102C400058B30020A073AF6804E039463846FFF758
:102C5000E7FF3F68B7B1BC42FBD0B87BC007F8D5EF
:102C6000BB681800F5D0EF600220B87322468721B8
:102C700007F10C009847022818BF0328E5D001206F
:102C8000B873E6E7A368180018BF444505D0EC60A8
:102C90000022832104F10C009847AF68BC4203D1A5
:102CA0003868A86006E0074627B13868A042FAD124
:102CB00020683860EE60BDE8F08138B504460D4606
:102CC000A07BC00715D5A368180012D06648C46061
:102CD0000220A07304F10C00984702281CBF0328AF
:102CE000832D04D121462046BDE8344098E70120D9
:102CF000A07331BD5C49C96892E75B488A210170C5
:102D00000021817041708160C160704738B5564CB8
:102D10000020E070A56804E029462846FFF780FF00
:102D20002D68C5B1E87B0028FAD00120A8730020E7
:102D3000E873AB681800F3D0E5600220A8730022A6
:102D4000822105F10C009847022818BF0328E3D020
:102D50000120A873E4E731BD70B5434CE07808B1B9
:102D6000FFF7D4FF6378002B4ED0A5783F4A05EBE0
:102D7000450080006D1C815C217180182E11426815
:102D8000226105EBD66680687611A5EB46155B1EC1
:102D9000A570637090BBA06806E022692179606924
:102DA000FFF78BFF606900686061606960B3E0787D
:102DB0000028F2D00020E070A56804E029462846EB
:102DC000FFF72EFF2D68002DE7D0E87B0028F9D013
:102DD0000120A8730020E873AB681800F2D0E5600A
:102DE0000220A8730022822105F10C0098470228D6
:102DF00018BF0328E2D00120A873E3E7812904BFAC
:102E000001238373FFF759FF6078E178081870BDDC
:102E100070B4154B5C78202C08BF01200ED09D7833
:102E2000651905F01F0505EB4506B5000F4EA955C0
:102E3000A9194A608860601C5870002070BC7047F7
:102E400038B5094CE568FFF738FFE56031BD48B19A
:102E5000817B012918BF022904D10121C1730120FE
:102E60000149C87070470000CCAD0020689D00206B
:102E7000817B481E8041C043C00F704738B50C4667
:102E8000217831B932BD11F8013F1578AB4206D037
:102E9000401C217801F06EFA28B10146224612F852
:102EA000013F002BEFD132BDDFF8001508727047EB
:102EB000DFF8FC04704770B582B015460FF214516C
:102EC0000A20FFF736FB089C069A0FF21C5100946B
:102ED0002B460A20FFF72DFB079D23462A4676A1A5
:102EE0000A20FFF74DFBDFF8CC6422463460294608
:102EF000301D00F03DFCDFF8B4442178324604F583
:102F0000B360FFF785FF0220207201F003FAE06052
:102F100073BD704770B5044682B0208810B1A328F5
:102F20001BD01EE0DFF884540FF25C5005F2A85667
:102F3000314601F030FADFF8801405F5B76001F092
:102F400073FADFF87804009041F2D71332464FF459
:102F5000FA6105F2645001F0DAFBA3202080012021
:102F600076BD00202080032076BD30B5044683B0B6
:102F70000D46042000F08CFA022000F089FAC4B952
:102F80000021019100910346DFF820442A460621E2
:102F900004F1140000F0F6FA01280ADB206104F1C4
:102FA0001002A17804F5B36003B0BDE83040FFF72C
:102FB0002FBF03B030BD2DE9F043044683B00D466A
:102FC00090461E46042000F063FAE878297940EA2A
:102FD00001296879A97940EA0127A87899280DD1B3
:102FE000C84566D13046FFF7E0FD5FFA89F103B0CE
:102FF000BDE8F043DFF8C8030078B6E7032837D10F
:10300000022000F045FADFF8B8638046307808B94E
:10301000012030704FF45871301DFFF709F9052F6A
:1030200010DB05F20B00018861B1B1808A00811CC0
:10303000B01D00F09DFB4FF45873321D0021042099
:1030400000F031FA00200190009043464A46992151
:10305000201D00F097FA01282BDB2060224603B0E8
:10306000BDE8F043D148817800F5B360FFF7D0BEEA
:1030700005281ED1C84504BF3046FFF796FDD0484D
:1030800000F5597428212046FFF7D2F8381F282868
:103090000FD1282205F10B01204600F069FBC3483F
:1030A000007A022805D1204603B0BDE8F043FDF7C1
:1030B00077BE03B0BDE8F0833C2D7700F0B5BB4C84
:1030C0000E46217885B0884221D1002E44D0BD4DD6
:1030D00000202870301D00F0D9FA002800F01E8171
:1030E00033680FF23031321D0720FFF749FAAA8802
:1030F00005F6CC03311D04F11000FFF75CFF207AC8
:10310000022800F00B810220207205B0F0BDA178EA
:10311000884221D106B33268012AC0F2FF80A94D4E
:1031200005F55B77311D384600F06AFA0646B2B203
:10313000394604F2645001F0DBFA42F2107105F6F0
:10314000CC00FFF70EFD33463A460FF2D0210720A0
:10315000FFF716FA05B0F0BD6178884208BF002E6F
:103160000BD147F230519848FFF7FBFC0FF2B42126
:103170000C20FFF7DEF905B0F0BDE178884246D1BA
:10318000002E73D0022000F083F9074602A8002128
:10319000002206C08B4D05F6DC00B04203D0327829
:1031A000314600F0E5FA0422711C02A800F0E0FAB2
:1031B000707A8DF80C003B466888421C052001900F
:1031C0006A8002A8009092B2022104F1140000F07B
:1031D000D9F901280FDB206104F110026888A17879
:1031E000A88004F5B360FFF713FE42F2107105F6F4
:1031F000CC00FFF7B6FC002202217448FFF7F9FB70
:10320000734800222021FFF7F4FB05B0F0BD2179BF
:1032100088422BD156B3022000F03AF907463378A2
:103220000FF20C21721C0720FFF7AAF9654D688880
:10323000421C6A803B463078019092B2701C00902C
:10324000042104F1140000F09DF9012866DB2061DF
:1032500004F110026888A178A88004F5B360FFF734
:10326000D7FD42F2107105F6CC0038E0882855D120
:10327000544D05F6BC07BE4235D1022000F008F9D6
:10328000064605F10800FDF747FE6A88288930B137
:103290008000801C80B2019005F1080000E00190E0
:1032A00000903346012104F1140000F06BF901286D
:1032B00012DB206104F110026888A178A88004F56F
:1032C000B360FFF7A5FD42F2107105F6CC00FFF7E1
:1032D00048FC6888401C688047F230513846FFF748
:1032E00040FC05B0F0BD05F6CC00864216D10FF2C9
:1032F00048110C20FFF71DF9287802280BDB207AF3
:10330000022806D10FF244110A20FFF712F900201B
:103310002072002028702878401C287005B0F0BD6D
:1033200038B5044608461146228822B140F2CB1334
:103330009A421AD01CE01D4DFFF754FC2870FFF78D
:1033400051FC6870FFF74EFCA870FFF74BFCE8706B
:10335000FFF748FC28710C200FF21811FFF7E9F86D
:1033600040F2CB102080012032BDFFF7A7FEF7E727
:1033700000202080032032BD38B501F05BFA01F057
:10338000CBFB01F0E9FB094C002104F5B160FFF72C
:103390002EFC04F2985500212846FFF728FC61789E
:1033A0002846BDE838400022FFF732BD000000206B
:1033B00008000020B46C0020132F0008B72E00086E
:1033C0001C9300207C2D002038360020000C01408A
:1033D000001001404461746120726563656976651F
:1033E000642066726F6D2000206F6E20706F7274A3
:1033F0002025642066726F6D20706F7274202564C2
:103400002077697468206C656E6774682025643A5B
:10341000200A00003C2D69700000000049502D3E3C
:1034200000000000495048656172740A0000000005
:103430005452414E0000000049502041434B20545B
:10344000494D45204F55540A000000002D2D2D2DCB
:103450002D2D2D2D2D2D2D2D2D2D2D2D2D2D2D2D9C
:103460002D2D2D2D2D2D2D2D2D736574206D6F641B
:10347000650A000069705F646174615F70726F63F8
:103480006573730A00000000771DE01C2F48704729
:1034900038B1072805DA401E2D49C0B251F8200086
:1034A0007047002070472DE9F04182B004001546B6
:1034B00047D0072C45DA264800930B4650F82420C5
:1034C0000FF294010920FFF734F8204E214F40F20B
:1034D0007E3842463946304601F0E0FE012C03D1E9
:1034E000B81C29460C2214E0022C04D107F10E006E
:1034F000294608220DE0032C04D107F116002946C5
:10350000082206E0042C06D107F11E0029464FF4DC
:10351000587200F02DF943463A460FF2580109203F
:10352000FFF72EF8E0223946304601F077FE434699
:1035300032460FF248010920FFF722F80020BDE8CB
:10354000F6814FF0FF30BDE8F681000000F0010881
:10355000EC130020703F002053543A307825303867
:10356000582B3078253034585B737A2025645D0DF4
:103570000A000000664E464F00000000464E464FCF
:103580000000000070B50446002514B94FF0FF306C
:1035900070BD7E2020700E206070A170E270100A55
:1035A00020716571A57104221946E01D00F0E0F854
:1035B000049900291CBF059A002A03D104206071D8
:1035C000A57108E0101D607115460012A07104F18C
:1035D0000B0000F0CDF805F10B06711E89B2601CDE
:1035E00001F07AFE2A19010AD1726D1CADB22919B7
:1035F000C872691C89B209197F20C872F01C70BD9D
:1036000058B50024C2B10B78661C1A2B03D1EF23E6
:103610002354EA2308E0EF2B08BF235404D01B2BCC
:1036200005D1EF232354EB233354741C01E02354BE
:103630003446491C521EE6D10FF2EC010620FEF77B
:1036400078FF204652BDF0B400230024551E02E04E
:103650002654641C5B1CAB4211DA5E5CEF2EF7D182
:103660005F187F78EA2F08D0EF2F02D0EB2FEFD131
:103670001B262654641C5B1CECE71A26F9E751183C
:1036800011F8011C2154601CF0BC7047F8B504000F
:1036900031D020787E281CBF60780E282BD160792D
:1036A000A17940EA012000F10A06B6B232460FF2D3
:1036B00084010C20FEF73DFF3719FD1E287869783C
:1036C00041EA0025311F89B2601C01F005FE044665
:1036D00023462A460FF26C010C20FEF72AFFA54272
:1036E00009D17D1E0FF278012A780C20FEF721FF08
:1036F00028787F2801D00020F2BD0120F2BD10B44F
:103700000022002310B910BC70475B1C8B4207DA03
:103710001C5C7E2C02BF1C1864780E2CF5D11A1884
:1037200010BC104670470000434F444520305831CC
:10373000410A000055574C454E203D202530347835
:103740000A000000757743524346203D202530345F
:1037500078207577435243203D20253034780A0085
:10376000656E6466203D20253032780A0000000036
:1037700062B38B0708D0521E11F8013B00F8013BE1
:1037800000F024808B07F6D1830740F0208000BF33
:10379000103A07D330B4B1E83810103AA0E8381026
:1037A000F9D230BC530724BFB1E80810A0E80810D4
:1037B00044BF51F8043B40F8043BD20724BF31F822
:1037C000022B20F8022B44BF0B7803707047083A95
:1037D00007D3B1E80810083A40F8043B40F804CB9E
:1037E000F7D25307E4E70000F8B5044616462088F0
:1037F00010B14B2812D030E0384F381D01F089FE4F
:10380000054604E0A968281DFFF7ABF92D68002DD7
:10381000F8D1012038704B20208001E0882901D0A8
:103820000120F2BD2D4F381D01F073FE054600E06A
:103830002D68002DEFD0281DB042F9D12946381D42
:1038400001F093FE264E686937683060A969080068
:103850001CBFE86988473760DDE70020208003202F
:10386000F2BD10B51D4C00202070201D01F04EFE51
:1038700004F10800BDE810400021FFF7B8B9F8B521
:10388000174D164E044628686061A261E3613078E6
:1038900040B12F6806F108002860201DFFF761F98C
:1038A0002F6000E0A1602146301D01E02146281D67
:1038B000BDE8F44001F02FBE38B5084D0446287825
:1038C00018B1201DFFF771F901E0E0602061214689
:1038D000281DBDE8344001F048BE00002C13002034
:1038E000D8AD0020002201F06FBE0000524801F068
:1038F00010BE002818BF01F060BE704738B50446FE
:103900004D4801F006FE01E001F057FE050008D029
:103910000422691D2046FEF7E7FD00282846F3D162
:1039200032BD002032BD70B50646701DFFF7E6FFC0
:10393000040011D00423721D3DA10820FEF720FED3
:103940000FF2F8010820FEF7F4FD00F0E3FCE06060
:1039500001202071204670BD364C201D01F074FE00
:10396000050006D10FF2EC010620FEF7E2FD002073
:1039700070BD0FCE0FC5103D00F0CCFCE8602946AD
:103980000120287104F1100001F0C5FD2068401CE1
:103990002060284670BD38B50446264D214605F105
:1039A000100001F0E2FD2146281D01F066FE2868A6
:1039B000401E286031BD70B51F4801F0AAFD05000A
:1039C00042F208060BE000F0A5FCE9687118884295
:1039D0008041C00F2871284601F0EFFD0500F2D1AB
:1039E00061BD2DE9F041144801F093FD0FF2A005EF
:1039F0000FF294060FF280070FF26C08040014E037
:103A000021794046FEF73AFDE1683846FEF736FD7B
:103A10000423621D31460020FEF7B2FD2846FEF762
:103A20002DFD204601F0C9FD0400E9D1BDE8F0817B
:103A30006D61630074130020841300207468652096
:103A40006E6F646520697320696E206C6973740DF4
:103A50000A0000006E6F20737061636520666F72EC
:103A6000206E6F64650D0A006E6F6465737461206B
:103A70003D2025640A0000007265762074696D653A
:103A8000203D2025640A00004E4D41430000000007
:103A90002D2D2D2D2D2D2D2D2D2D2D2D2D2D2D2D56
:103AA0002D2D2D2D2D2D0A0010B500224FF48071E3
:103AB000CE48FEF79EFFCE4C00224FF40071204608
:103AC000FEF797FF2046BDE810400022C8E138B558
:103AD000C84C2279904263D1002961D008882060C7
:103AE0002078C00624D40FF280310C20FEF721FD8F
:103AF00000220221C048FEF77CFFBD4D002220219C
:103B00002846FEF776FF00224FF48071B748FEF793
:103B100070FF00224FF400712846FEF76AFF002272
:103B20004FF480712846FEF764FF882001F05DFEA7
:103B30002078000624D40FF23C310C20FEF7F9FC6B
:103B400001220221AC48FEF754FFA94D0122202199
:103B50002846FEF74EFF01224FF48071A348FEF77E
:103B600048FF01224FF400712846FEF742FF012270
:103B70004FF480712846FEF73CFF872001F035FEA8
:103B8000207880060CD40FF200310C20FEF7D1FC17
:103B90006179224604F12C00BDE83840FFF738B9BE
:103BA00031BD38B5441EA441E443934DE20F0121D9
:103BB0002846FEF71EFFE20F02212846FEF719FFF6
:103BC000E20F10218A48FEF714FF8848E20FBDE893
:103BD00038404021FEF70DBF38B5864C62799042DF
:103BE00024D119B30020208106200FF2B021FEF766
:103BF000A0FC0020A0714FF47A7104F13C00FEF7A4
:103C0000B0FFA2797A482021FEF7F3FE0020E07190
:103C100041F2883104F14C00FEF7A3FFE079FFF791
:103C2000C0FFBDE832407548FFF764B8882859D115
:103C300004F13C0081420FD1207A002852D1A079B2
:103C400080F00102A27120216948FEF7D2FE4FF4F4
:103C50007A7104F13C0041E004F14C00814241D111
:103C6000607A401C6072E07980F00100E071FFF73B
:103C700098FF607A08282DDB0120207201225C4C1D
:103C800020212046FEF7B5FE5B4D01221146284655
:103C9000FEF7AFFE012202212846FEF7AAFE01220E
:103CA00010212046FEF7A5FE504D01224021284656
:103CB000FEF79FFE002210212046FEF79AFE00220A
:103CC00040212846FEF795FEBDE8344000214B48D0
:103CD000FEF78DBF4FF47A7104F14C00BDE834401B
:103CE000FEF73FBF31BD10B5044608461146228895
:103CF00012B1C62A02D004E0C62012E0FFF76CFF22
:103D0000FAE711E010B5044608461146228812B1C0
:103D1000D32A02D004E0D32003E0FFF7D8FEFAE76D
:103D200002E02080012010BD00202080032010BD73
:103D300070B50446208810B1EC2819D052E02D4E01
:103D4000FEF750FF3071FEF74DFF2D4D70710222CE
:103D50000021281D01F04AFE02220021284601F020
:103D600045FE32212748FEF7FCFEEC20208005E0CE
:103D7000234D05F10C00FEF706FF08B9012070BDC8
:103D800021480068297A00F0B0000246B02A0DD020
:103D90002870491C68782972401C68700B200FF24B
:103DA0000811FEF7C6FB00206881DAE70029D8D0A9
:103DB0000020287268780228CEDB2868686002221A
:103DC0000021284601F012FE2A790FF2DC010620BC
:103DD000FEF7AFFB074E31792A1D06F11C00FFF7F5
:103DE00017F8BEE700202080032070BD00080140C6
:103DF0000010014038110020000C01404412002046
:103E0000B0AD0020BCAD00200808014010B50C4C3E
:103E1000002104F10C00FEF7EAFE002104F11C0071
:103E2000FEF7E5FE5FF0000104F12C00FEF7DFFE77
:103E300001224FF480710348FEF7DBFD024C05E0E0
:103E400038110020000801400010014001224FF409
:103E500000712046FEF7CDFD2046BDE8104001224E
:103E60004FF48071FEF7C5BD414C41524D5F4B454B
:103E7000590A000053494C454E4345525F4B455942
:103E80005F50494E0A00000053454C465F5445536D
:103E9000545F4B45595F50494E0A000073656C668C
:103EA000636865636B0A00004B4559203D2025304F
:103EB00034780A0062F30F2262F31F4200B500BF9C
:103EC000130096469446103928BFA0E80C50FAD843
:103ED0005FEA417C28BF0CC048BF40F8042BC907EB
:103EE00028BF20F8022B48BF00F8012B00BD0000BE
:103EF00000B91FE07E220270032242708170411CD3
:103F000049785140C170EF2101710520704700B917
:103F100010E07E230370042343708170C270411C43
:103F200004224B7889785A4051400171EF21417148
:103F3000062070474FF0FF30704710B5414C217894
:103F40000029014604F1240004D100F0A4F830B99E
:103F5000012003E000F09FF808B100202070201D30
:103F6000FEF775FF012010BD10B50446208810B182
:103F7000B62805D008E00FF2DC010A20FEF7D9FAD6
:103F8000B6202080012010BD00202080032010BD1D
:103F9000F8B504460D46208810B1D7280CD034E07F
:103FA0000FF2C4010A20FEF7C4FA05E04FF4FA71DB
:103FB00006F18400FEF7D5FD234800F081F807469E
:103FC000882D0ED1214E06F18400FEF7DCFD40B1B4
:103FD00032460FF2A8010520FEF7ABFA0020C6F822
:103FE000800017F1010F03D1D72020800120F2BDFE
:103FF000164ED6F880008755401CC6F880008028F1
:10400000D4DB0020C6F88000D6E700202080032003
:10401000F2BD10B50B4C802204F12C0104F12400F8
:1040200000F032F80A48FEF7B7FB0021201DFEF72A
:10403000DEFD04F11400BDE810400021FEF7D7BDFD
:10404000000000003C0D0020600D002068A700204B
:104050003B3F00086D70335F6D73675F70726F6315
:104060006573730D0A0000006D70335F7265765FD3
:1040700070726F636573730D0A00000072657620BD
:104080003D2025730A0000000160511E01710021CE
:10409000417181717047437990F806C00279A3EBB2
:1040A0000C0C02EA0C0C944501D100207047026808
:1040B000995441790279491C11404171012070479E
:1040C00010B4827944790379A41A1C40012C07DBCF
:1040D0000468115D521C1A408271084610BC70477A
:1040E00010BC4FF0FF30704710B50446012001F0BE
:1040F00087FCA4F161001A2838BF203C204610BD7F
:1041000010B50446012001F07BFC2046BDE81040BC
:1041100001F082BC10B50446012001F071FC20467C
:10412000BDE8104001F083BC80B5474988420BD1FF
:1041300001214FF4804001F0DCFCBDE80440002187
:104140004FF4804001F0D5BC4049884208D101219C
:104150004FF4003001F0D6FC00214FF4003022E093
:104160003B49884208D101214FF4802001F0CAFC6C
:1041700000214FF4802016E03649884208D1012101
:104180004FF4002001F0BEFC00214FF400200AE0B3
:10419000314988420BD101214FF4801001F0B2FC6B
:1041A00000214FF48010BDE8044001F0ABBC01BD1C
:1041B00030B5044685B00D46208A4CF6FF710840A4
:1041C000E988084320824EF6F311A0890840A988A7
:1041D00008432989084369890843A0814FF6FF41B4
:1041E000A08A0840A9890843A08200A801F032FCF7
:1041F000154884420CBF039802982968192250433D
:10420000A28912044CBF49008900B0FBF1F164207F
:10421000B1FBF0F000010209642303FB1211A28933
:10422000120406D5C9003231B1FBF3F101F00701E8
:1042300005E009013231B1FBF3F101F00F01084350
:10424000208105B030BD000000380140004400402E
:1042500000480040004C0040005000400029818987
:1042600012BF41F400514DF6FF7211408181704739
:104270000B065B0F4FF0010C01F01F010CFA01F16E
:10428000012B08BF0C3003D0022B0CBF10301430B0
:10429000002A026814BF114322EA0101016070473D
:1042A00038B51E4C2068401C2060FEF772FC30B10F
:1042B0002568FEF773FC854228BFFEF733FCA06833
:1042C000401E04D16068401C60604FF47A70A060AA
:1042D00031BD1249002008604FF47A71104800681F
:1042E000B0FBF1F0401EB0F1807F08D20D490E4ABC
:1042F0004860F02010700020886007200860704738
:1043000006480068704705490A680B689B1A834293
:10431000FBD3704701484068704700009C140020A0
:10432000E813002010E000E023ED00E010B50446A3
:10433000616006E00168426851180160704710B57D
:104340000446FFF7DDFF206010BD10B50446FFF7FF
:10435000D7FF2168401A6168401C81428041C00F2C
:1043600010BD10B5016840684418FFF7C9FF201A56
:1043700010BD00000278C9B28A421AB11CBF10F801
:10438000012FF9E718BF002070470422FFF7F0B9AA
:104390001022FFF7EDB900220A704A708A70CA70C5
:1043A0000A714A718A71CA710A724A72FF228A724C
:1043B000CA7202780A7342784A7382788A73C07824
:1043C000C873012070470278002A04BF4278002A8F
:1043D00027D18278002A04BFC278002A21D102792D
:1043E000002A04BF4279002A1BD18279002A04BF27
:1043F000C279002A15D1027A002A04BF427A002A23
:104400000FD1827AFF2A04BFC27AFF2A09D1027B28
:104410000A70427B4A70827B8A70C07BC870012020
:10442000704700207047000038B10A0005D0416095
:104430000146DFF8A80201F06EB8704710B5DFF84A
:10444000A04204F1240001F0EEF804F1200001F094
:104450005DF80FF29911201D01F048FC04F13400C1
:1044600001F0E1F804F1300001F050F804F14000EF
:10447000BDE8104001F04AB880B540B14168DFF8AE
:10448000640201F0F5FCBDE8024001F053BD02BD3D
:10449000DFF8540201F03DB8002818BF01F08DB8D4
:1044A0007047DFF83C02006870472DE9F041044690
:1044B000DFF82C820025002608F1200001F029F801
:1044C00013E097F82400B0420CDBC20807F10801A2
:1044D000204601F0C1FD002802BF97F824603D4648
:1044E000802E05D0384601F068F80700E9D17DB18B
:1044F00008F1200001F00DF8854209D0294608F1A5
:10450000200001F032F8294608F1200001F016F8E9
:104510002846BDE8F081F8B505001CBF6868002892
:104520004BD06F4C294604F1200001F01EF868685A
:10453000406800F0EEFF05E07068A84208D0304601
:1045400001F03BF80600F7D105F1080001F0B6FDD7
:1045500068684068314601F008F86868406800F013
:10456000D8FF20B968684168201D01F05EFC29462B
:1045700004F1240001F081F8314604F1140001F047
:104580007CF82068401E2060201D696801F070FCE6
:1045900001F0D0FC0646083504F1400000F0B9FFF8
:1045A00009E02368D7F804C0324629460320E047D3
:1045B000384601F002F80700F3D1F1BD10B5040050
:1045C0001CBF606800280ED003E04068FFF7A3FF1F
:1045D000606800F09EFF0028F7D12146BDE810403A
:1045E000404801F022BC10BD00000000E6E7F8B52D
:1045F00004463B4D05F1300000F08BFF01E000F078
:10460000DCFF10B3A042FAD1214605F1300000F0E2
:10461000ACFF214605F1340001F02FF8261D241DC2
:1046200005F1400000F075FF0DE005F1300000F0ED
:10463000ADFF0346D7F804C0324621460120E047CB
:10464000384600F0BAFF0700EFD1F1BD38B5044697
:10465000264800F05EFF01E000F0AFFF050008D043
:1046600010222146281D01F0F7FC00282846F3D12E
:1046700032BD002032BD38B500241C4800F049FF8F
:1046800003E02C1D284600F098FF05000AD0281DE5
:1046900001F036FC00281CBF90F822000028F0D062
:1046A000281D32BD204632BD38B50D4C02E02846EB
:1046B000FFF79DFF04F1300000F02BFF05000BD049
:1046C000287F28B905F1140001F044FD0028EED13F
:1046D000284600F072FFF1E731BD0000D411002040
:1046E0009411002098110020B4110020C411002062
:1046F00038B50346D86940B19C8A250A45EA0424A6
:10470000A4B200941B1D01F033FD002032BD2DE941
:10471000F047404E044630780D4690461F4628B973
:104720000021301DFEF763FA01203070E582A78278
:10473000B8F1000F04D0201D41461022FFF718F8F1
:104740000898DFF8D490A061301DD9F800A0C9F80E
:1047500000002246380A40EA072189B2404601F0AB
:1047600049FDE06118B1290A41EA05210182C9F831
:1047700000A000B10120BDE8F0872DE9F043044618
:1047800083B02088154610B18B2806D03AE08B20E4
:10479000208003B00120BDE8F083204800788142EA
:1047A000F5D1002DF3D01E4800788007EFD51D48C5
:1047B0001D4F01681D4E3A883046FEF7D9FFA869A3
:1047C0000028E4D0DFF85080286AD8F800903B88B1
:1047D000C8F80000029301961548428D018D130A16
:1047E00043EA022292B2009200F118030A0A42EA56
:1047F000012200F108012846AD6992B2A847C8F825
:104800000090C4E70020208003B00320BDE8F083BF
:10481000000000009C130020D8AD002016AF00203F
:10482000474F0020804F0020744F00206861002017
:104830007047002010B586B00121182001F047F91B
:1048400001214FF4804001F04BF94FF46040ADF886
:10485000000003208DF8020018208DF8030000A945
:10486000264C2046FEF766F84FF48050ADF8000065
:1048700000A901208DF8020010208DF803002046C9
:10488000FEF758F80020ADF804004FF48270ADF840
:10489000060000200290ADF80C004FF40070ADF857
:1048A0000E001820ADF810000020ADF8120007200F
:1048B000ADF8140001A9124C204601F051FF01216E
:1048C000204601F069FF06B010BD38B504460C4D16
:1048D0000221284601F06EFF0028F9D02146284623
:1048E00001F064FF0121284601F064FF0028F9D09F
:1048F000284601F05DFFC0B232BD0000000C01404F
:104900000038004010B502F020F900218C4A032342
:10491000147844B1947C012C05D19478FE2C06BF08
:10492000D478802C911C20325B1EF1D118B110225A
:1049300001F092FB38B9834C2078E0B100F0A2F886
:104940000020207010BD02F000F94FF6FF71808B3F
:104950007C4C884205D1207818B100F093F80020F3
:10496000207004F11C00BDE810400023764A44F694
:104970002061FEF784BF10BD00283CD1002918BF7C
:10498000002A38D00888002804BF4888002811D1A0
:104990008888002804BFC88800280BD1088900280F
:1049A00004BF4889002805D18889002804BFC88928
:1049B000002820D01088002804BF5088002811D17A
:1049C0009088002804BFD08800280BD110890028C7
:1049D00004BF5089002805D19089002804BFD089E0
:1049E000002808D05748017829B1574A00230021F0
:1049F0001C30FEF744BF704738B5524C6078002831
:104A00003FD120704AF6AA20A0800020E0802081BB
:104A10006081A081E08120826082201D4B4902F0EC
:104A2000F7FA01220021201D02F0B5F9484D95F852
:104A30002A00297E31B1002812BF012805F11A0091
:104A400001F03CFB95F84A0095F8381031B1002888
:104A500012BF012805F13A0001F030FB95F86A0019
:104A600095F8581031B1002812BF012805F15A00FD
:104A700001F024FB374904F11400FFF7D5FC0120B5
:104A8000607031BD10B584B00024FFF7B5FF2C482D
:104A90000321027842B1827C012A05D18278FE2A64
:104AA00006BFC278802A841C2030491EF1D17CB315
:104AB000204602F0D6F938B321461E2001F0CDFE83
:104AC00002F043F8044602F008FB206A00281CBFED
:104AD000D0F88800002805D0FFF789FD216A002062
:104AE000C1F888004AF6AA20ADF800004022002054
:104AF000ADF8020001900290039000A9204601F059
:104B000089FF002004B010BD4FF0FF3004B010BD8D
:104B10006FF0010004B010BD10B5FFF76DFF094C38
:104B2000094A002344F6206104F11C00FEF7A7FEA9
:104B3000012020700020BDE8104002F0EABA000019
:104B400024A3002068AC002005490008DCAE00204A
:104B50000CA300207949000810B5DFF8A046FF201B
:104B600020706070A070E07000202071DFF8900667
:104B70000068804702F068FCDFF8881691F82A2068
:104B80000B7E00206BB1002A18BF012A09D101EB6E
:104B9000401000F11A0104F11400BDE81040FFF7C5
:104BA000F7BB91F84A2091F8383001201BB1002A58
:104BB00018BF012AEBD091F86A2091F858300220F2
:104BC0001BB1002A18BF012AE1D010BDDFF82C2646
:104BD00001211171014602F10800FFF7D6BB014621
:104BE000DFF82406FFF7D1BB0146DFF82006FFF708
:104BF000CCBBDFF81C067047DFF80C067047DFF807
:104C00000C06704730B45218521E91420CD20C78E8
:104C10004D7805EB0424A4B2201880B2A04238BF1E
:104C2000401C891C9142F2D3914207D1097800EBD4
:104C3000012080B2B0EB012F38BF401C30BC80B2E5
:104C4000704738B504461046A1F1280540191022D6
:104C500004F1080180B2FFF7D5FF102204F118011A
:104C6000FFF7D0FFAAB204F12801FFF7CBFF00281D
:104C70001CBFBDE8324003F0A2BE4FF6FF7032BD4C
:104C80002DE9F84F044615466079227900EB02239E
:104C90009942C0F24F8100EB022028301FFA80FBBE
:104CA000ABF1280204F1280105F11400FEF760FDC4
:104CB0004520287005F1140600206870E871A8717D
:104CC00005F1140AABF114001FFA80F94FEA19201C
:104CD000A87005F11408DFF8247585F80390388A68
:104CE000401C388280B2010A29716871A0790628B7
:104CF00004D0112809D03A2821D01BE1687206227D
:104D000059462046FFF79DFF23E06872ABF1280B60
:104D10000BF11100102204F1080180B2FFF772FFBD
:104D2000102204F11801FFF76DFF1FFA8BF204F156
:104D30002801FFF767FF60B103F041FE09E00120A1
:104D4000687294F82800812840F0F480002088F8E8
:104D5000000005F11001E079287204F11800FFF756
:104D600032FB002800F0E680387940B9288A39887B
:104D7000884202BF688A7988884240F0DB8007F168
:104D8000080105F10C00FFF700FB687A112818BF35
:104D9000062868D1308803F012FE03F053FE002885
:104DA00030880BD003F00BFE00AA04F1080103F0D9
:104DB00045FE002857D0BDF8000051E003F0FFFD8C
:104DC000B0F5806F4FDB708803F0F9FD074630883F
:104DD00003F0F5FD697A00913B46014605F11002AA
:104DE00004F1080003F04CFE070013D1708803F0B3
:104DF000E6FD0746308803F0E2FD697A00913B4604
:104E0000014605F1100204F1080003F081FE0700DD
:104E100000F09080687A062815D19AF80D00810775
:104E200048BF44F6206105D440074CBF47F23051DB
:104E3000DFF8E013384603F0F1FE9AF80D00052183
:104E400008420CD008E0DFF8CC13384603F0E6FE49
:104E50007088B0F5545F02D1384603F0E5FE388C17
:104E600003F0ADFD30800020688114222946FFF751
:104E7000C9FE00280CBF4FF6FF7003F0A0FDC04331
:104E80006881687A012841D0062802D011281DD0F7
:104E900050E00020AAF81000A9F11404A01D082277
:104EA00005F10C0180B2FFF7ADFEA2B205F11401CD
:104EB000FFF7A8FE00280CBF4FF6FF7003F07FFD40
:104EC000C043AAF810004846BDE8F28F0020F080E9
:104ED000A9F1140404F11100082205F10C0180B2BB
:104EE000FFF790FEA2B205F11401FFF78BFE002838
:104EF0000CBF4FF6FF7003F062FDC043F080F088F6
:104F00000028E0D14FF6FF70F080DCE70020A9F127
:104F10001402A8F8020092B205F11401FFF772FE24
:104F200000280CBF4FF6FF7003F049FDC043A8F8FE
:104F30000200C8E70020BDE8F28F2DE9F04F0646D9
:104F400085B01446F078B27800EB02239942A2BFF4
:104F500000EB0227BFB2152FC0F2458107F1140004
:104F600040F2EB51884280F23E81A7F1140206F133
:104F7000140104F12800FEF7FBFB07F11400ADF863
:104F8000020004F12805BDF80200A0F12807602006
:104F90002070BFB200206070608004F12808380AD9
:104FA0002071677106F1140B307AE07104F1280961
:104FB00004F1080106F10C00FFF7EDF9002800F0FC
:104FC0001281707ADFF834A2012806D0062818BFB3
:104FD000112840F00881A0710FE09BF8000008281C
:104FE00040F001813A20A0710AF11401802089F873
:104FF000000004F11800FFF7CBF9308ABAF800205E
:10500000904202BF718ABAF80230994225D0BAF8AC
:105010000C30BAF8081003EA000C03EA010EF4455C
:1050200029D1BAF80EC0B6F812E0BAF80AB00CEA04
:105030000E0E0CEA0B0BDE4501BFDB4303EA000E4C
:105040001A40964517D16FEA0C02738ABAF802C06B
:10505000134002EA0C0293420DD140F2FF2020835C
:1050600000206083A083E08320846084A0844FF4C8
:105070008070E0844DE09AF80420002A00F0B380AC
:10508000884202BF708ABAF80A10884240F0AB80AA
:10509000707A062818BF11283BD1B8F8020003F037
:1050A0008EFCB0F5806F1BDBB8F8020003F087FCC4
:1050B00003F0C6FCD8B1B8F8020003F080FC00AAE7
:1050C00001A903F0B9FC58B101A904F11800FFF7D8
:1050D0005FF9BDF8000003F072FCA8F8020018E0C8
:1050E0000AF1140104F11800FFF752F911E0688881
:1050F00003F065FC717A03F0F7FC060073D006F14B
:105100000C0104F11800FFF743F9708C03F057FC11
:105110006880A079062804D0112822D03A2843D0EC
:1051200061E008F102050020E8811022B81D04F1B9
:10513000080180B2FFF766FD102204F11801FFF7A5
:1051400061FD3A4604F12801FFF75CFD00280CBF21
:105150004FF6FF7003F033FCC043E881BDF8020056
:1051600042E00020E880102207F1110004F108015C
:1051700080B2FFF747FD102204F11801FFF742FD4E
:105180003A4604F12801FFF73DFD00280CBF4FF619
:10519000FF7003F014FCC043E880E8880028DDD1EC
:1051A0004FF6FF70E880D9E70020A9F8020010222E
:1051B00007F13A0004F1080180B2FFF723FD102245
:1051C00004F11801FFF71EFD3A4604F12801FFF72C
:1051D00019FD00280CBF4FF6FF7003F0F0FBC04331
:1051E000A9F80200BAE7002005B0BDE8F08F0A4830
:1051F0000068004708484068004700006CAD002088
:1052000058F900080CA3002078AD0020ECAE002077
:1052100074AD0020E0930400F8FA00082DE9F04195
:1052200015460C46234A0026014612180F46B2F5D1
:10523000805F07D90FF28000FDF720F94FF0FF30B3
:10524000BDE8F081C00748BF6FF0010024D4002002
:1052500000E0401C80B2A84207D251F8042B12F1A2
:10526000010FF6D06FF0010800E0B04603F0E4FC57
:1052700018F1020F0AD1384603F0F0FC06E054F8AA
:10528000041B384603F007FD3F1D761CB6B2AE4244
:10529000F5D303F0DBFC0020BDE8F08138B5034610
:1052A0000C461546002024B119462046FEF760FA48
:1052B000284632BD0010FEF7656557726974654D6A
:1052C000756C7469576F72643A4F7574206F6620FD
:1052D00072616E67650D0A0070B4FF22FF2359B139
:1052E0000FF224140FF21C0510F8016B5640725D8A
:1052F0005A40335D491EF7D1FFE770BC43EA0220F4
:105300007047000000C1814001C0804101C0804160
:1053100000C1814001C0804100C1814000C1814085
:1053200001C0804101C0804100C1814000C1814075
:1053300001C0804100C1814001C0804101C0804165
:1053400000C1814001C0804100C1814000C1814055
:1053500001C0804100C1814001C0804101C0804145
:1053600000C1814000C1814001C0804101C0804135
:1053700000C1814001C0804100C1814000C1814025
:1053800001C0804101C0804100C1814000C1814015
:1053900001C0804100C1814001C0804101C0804105
:1053A00000C1814000C1814001C0804101C08041F5
:1053B00000C1814001C0804100C1814000C18140E5
:1053C00001C0804100C1814001C0804101C08041D5
:1053D00000C1814001C0804100C1814000C18140C5
:1053E00001C0804101C0804100C1814000C18140B5
:1053F00001C0804100C1814001C0804101C08041A5
:1054000000C181400000000000C0C101C30302C20E
:10541000C60607C705C5C404CC0C0DCD0FCFCE0EF4
:105420000ACACB0BC90908C8D81819D91BDBDA1A64
:105430001EDEDF1FDD1D1CDC14D4D515D71716D6D4
:10544000D21213D311D1D010F03031F133F3F23244
:1054500036F6F737F53534F43CFCFD3DFF3F3EFEB4
:10546000FA3A3BFB39F9F83828E8E929EB2B2AEA24
:10547000EE2E2FEF2DEDEC2CE42425E527E7E62694
:1054800022E2E323E12120E0A06061A163A3A26204
:1054900066A6A767A56564A46CACAD6DAF6F6EAE74
:1054A000AA6A6BAB69A9A86878B8B979BB7B7ABAE4
:1054B000BE7E7FBF7DBDBC7CB47475B577B7B67654
:1054C00072B2B373B17170B05090915193535292C4
:1054D00096565797559594549C5C5D9D5F9F9E5E34
:1054E0005A9A9B5B99595898884849894B8B8A4AA4
:1054F0004E8E8F4F8D4D4C8C448485458747468614
:10550000824243834181804000000000002101600D
:1055100070470068704738B504460D4600F025F81E
:1055200000202860206828B100E0084601680029B2
:10553000FBD108B9256031BD056031BD026882B17B
:10554000002301E0134612685AB18A42FAD1D2F818
:1055500000C0002B0CBFC0F800C0C3F800C000237F
:10556000136002680A600160704702686AB1002334
:1055700001E01346126842B18A42FAD11168002B49
:105580000CBF01601960002010607047002100E02E
:10559000491C00680028FBD10846704738B504460E
:1055A000154631B92946FFF7E0FF206828602560DD
:1055B00031BD086828600D6031BD00B100687047DA
:1055C00062F30F2262F31F42401810F0030308D069
:1055D000C91A1FD3DB0748BF00F8012D28BF20F8E8
:1055E000022D130030B414461546103928BF20E9A7
:1055F0003C00FAD8490728BF20E90C0048BF40F812
:10560000042D890028BF20F8022D48BF00F8012D85
:1056100030BC7047C91818BF00F8012DCB0728BF50
:1056200000F8012D70471CB50446618860680022AF
:10563000FFF7C6FF208861884143A06802B0BDE83B
:1056400010400022FFF7BCBF30B4426844880021FC
:10565000134600E0491CA1420CDA13F8015B002D4F
:10566000F8D18B5C5B1C8B540288806830BC02FBD9
:105670000100704730BC0020704730B48268448815
:105680000588002301E0AA185B1CA3420ADA8A42BB
:10569000F9D141685A5C0AB1521E5A544068185CEC
:1056A00030BC704730BCFF2070478268914207D3FE
:1056B0004388008800FB032081428041C00F70476F
:1056C000002070470021002204E04368D35C03B946
:1056D000491C521C43889A42F7DB08467047000079
:1056E000F8B504000D46164604F20D0702D14FF03E
:1056F000FF30F2BD7E202070FF2216206070A27065
:10570000E27022716271A271E27122726272BB2038
:10571000A072E27225730A2038700421781CFFF70A
:105720004FFF04223146781DFEF722F87D72601C7F
:105730006178FFF7D1FD010AB972F87222460D2097
:1057400038730FF2E0116078051D2B460920FCF735
:1057500017FF2846F2BD70B504460420FDF798FEF9
:105760000546B5F822030F283EDA288800283BD0EA
:10577000002600E0761CB5F82213F0B288420BD266
:10578000F6B205EB860000F5497104222046FCF7CD
:10579000ABFE0028EED170BD5F4E304629464FF477
:1057A0005872FDF7E5FFB6F8220306EB80000422ED
:1057B000214600F54970FDF7DBFFB6F822030FF232
:1057C0006C11401CA6F8220306F549720004830BF5
:1057D0000820FCF7D5FE3246BDE870404FF4587300
:1057E00000210420FDF75FBE70BD4C4B1979187283
:1057F00003F1080203F11000FDF70ABB38B5474C6E
:105800002279904225D121B308780FF2341120601B
:1058100002460820FCF78DFE2078882808BF0FF28A
:10582000441103D087280ED10FF250110820FCF745
:1058300080FE40F22B20E06046F28F1104F17000F0
:10584000FDF78FF917E00FF24C110820FCF771FEFD
:1058500011E088280FD104F1600081420BD004F1DF
:105860007000814207D10FF244110820FCF761FE5D
:1058700047F23050E06004F16000E168FDF771F933
:105880002578882D18BF872D23D10420FDF700FE31
:10589000B0F82213E9B110291BDA62798A4202D3E7
:1058A0000021617101E00F2A10DA617900EB8100BB
:1058B00000F54972294604F12000FFF711FF012885
:1058C00004DBC1B204F12000FCF7E6FF6079401C64
:1058D000607131BD10B5044608461146228812B1E8
:1058E0009B2A0DD00FE0FDF77DF90C4908710C20C3
:1058F0000FF2D401FCF71DFE9B202080012010BD7B
:10590000FFF77CFFF8E700202080032010BD002176
:105910000348FDF76CB90000A89600204410002051
:105920005410002072662D3E000000004164645354
:105930006F756E644C696768745461626C650000D1
:10594000736F756E64206C6967687420737461741A
:1059500065206368616E676520746F20253032585A
:105960000D0A0000534F554E445F4C494748545F61
:1059700053544154455F4F4E0D0A0000534F554E4E
:10598000445F4C494748545F53544154455F4F4628
:10599000460D0A00534F554E445F4C494748545FEB
:1059A00053544154455F4552520D0A00534F554ED2
:1059B000445F4C494748545F53544154455F4E4FF0
:1059C0004D414C0D0A000000736F756E645F6C6989
:1059D0006768745F6D73675F68616E646C65725F42
:1059E00070726F636573730A0000000010B504469F
:1059F00010460A4601462046FFF7E2FD204610BD4C
:105A000010B50446DFF80C0003F09EF950F82400AE
:105A100010BD0000CC100020A0F161011A2904D3B0
:105A200041381A288041C00F704701207047A0F10B
:105A300021010F2921BFA0F13A010729A0F15B0143
:105A4000062904D37B3804288041C00F7047012009
:105A50007047000010B430490A6802F00C02082AAE
:105A60000FD10A680B68C2F38342921CDB0358BF54
:105A70002A4B04D50B689B034CBF284B284B5A4339
:105A800000E0274A02600B68264A0468C3F3031348
:105A90009B5C24FA03F343600B684468C3F302235E
:105AA0009B5C24FA03F383600B684468C3F3C2234E
:105AB0009B5C24FA03F3C3600968C368C1F38131B6
:105AC0008918097CB3FBF1F1016110BC7047164ADB
:105AD0000029116814BF084321EA000010607047D4
