:020000040800F2
:10000000A8180020290301085DFF000867FF000809
:1000100071FF00087BFF000885FF0008000000005A
:100020000000000000000000000000008FFF00083A
:1000300095FF0008000000009BFF00080948000829
:1000400075030108790301087D0301088103010894
:100050008503010889030108C1FC0008F1FC0008C0
:100060008D03010891030108950301089903010814
:100070009D030108A1030108A5030108A9030108C4
:10008000AD030108D1FE0008B1030108B503010862
:10009000B9030108BD030108C1030108C503010834
:1000A000C9030108CD030108D1030108D5030108E4
:1000B00025E20008D9030108DD030108E103010876
:1000C000E5030108E9030108ED030108F103010854
:1000D000F5030108C5270008E527000825280008C2
:1000E000F9030108FD0301080104010805040108E2
:1000F000090401080D040108110401081504010890
:10010000190401081D04010821040108250401083F
:100110004528000865280008290401082D04010865
:100120003104010835040108390401083D040108BF
:1001300010B590B004466846402102F08FF8224680
:1001400066A1684602F0E1F9684602F0F1F903465B
:100150006A46DFF8B81B092002F052FA684602F03E
:10016000E7F90146684602F0E7FB002010B010BD39
:1001700038B504460D46284602F0DAF900210A286F
:100180001EDB01EBD1725210B1EB420205D14A19CC
:100190000B1952780A554A5D5A70491C8142F0DBAE
:1001A0000219462102F8011C2246411911F8011CCE
:1001B00001550820BDE838400FF2080102F0F9B9F6
:1001C00031BD0000534D533D25730A0070B5044600
:1001D000208820B1F5281AD0FA283AD063E001210E
:1001E000DFF8A00B02F04EFC0FF2C4010C2002F06D
:1001F000E0F901220221DFF8900B02F03EFC41F20F
:100200008831DFF8880B02F0F0FCF5201FE0DFF802
:100210009C5AA435284602F0FAFC08B3DFF8686B54
:1002200000220221304602F028FC00222021DFF8C3
:10023000600B02F022FC00224FF40041304602F035
:100240001CFC41F28831284602F0CFFCFA202080C5
:1002500006E0DFF8585A05F1A40002F0D8FC08B90E
:10026000012070BD0FF25C0631460C2002F0A1F9AE
:10027000002105F1340002F0FEFC01222021DFF80C
:10028000100B02F0FAFB01224FF40041DFF8F80AEC
:1002900002F0F3FB31460C2002F08BF90021DFF86D
:1002A000E40A02F0EFFB00202080032070BD000074
:1002B00073696D393030615F686172645F696E695E
:1002C000740D0A0073696D393030615F6861726462
:1002D0005F696E6974320D0A0000000025730A0020
:1002E0002DE9F04704460F462088DFF8C05916462E
:1002F00060B14FF4D971401A1FD0133855D010385F
:1003000000F08880143800F0C88004E105F1340062
:100310002862002028740FF2102102F04AF9002010
:1003200028747FA0FFF704FF41F2883105F1D40063
:1003300002F05BFC4FF4D970ADE005F1D408404603
:1003400002F065FC18B92878874240F0AF80287821
:10035000874215D1A6B173A1304602F0D3FD0746FE
:10036000404602F066FC304602F0E2F803463246B0
:100370006BA10A2002F044F917B10020A87205E031
:10038000287C401C2874C0B20528CADB00202874D1
:100390000FF2AC10FFF7CCFE41F2883105F1D4002A
:1003A00002F023FC40F2C51075E005F1D408404688
:1003B00002F02DFC10B92878874277D1287887423F
:1003C00013D196B157A1304602F09CFD0746404636
:1003D00002F02FFC304602F0ABF8034632460FF233
:1003E00060110A2002F00CF92FB9287C401C2874F7
:1003F000C0B20528CCDB002028740FF24C10FFF7A8
:1004000097FE41F2883105F1D40002F0EEFB40F294
:10041000D51040E005F1D408404602F0F8FB10B9D1
:100420002878874242D12878874220D1FEB13DA169
:10043000304602F067FD07460FF21819494630466C
:1004400002F060FD8246404602F0F3FB304602F0C7
:100450006FF80346324649460A2002F0D1F8002FD1
:1004600018BFBAF1000F02D00120A87205E0287C65
:10047000401C2874C0B20528BFDB002028740FF28E
:10048000DC00FFF755FE41F2883105F1D40002F09F
:10049000ACFB40F2E910208008E005F1D4084046AA
:1004A00002F0B5FB28B92878874202D00120BDE8C8
:1004B000F087287887421DD1E6B11AA1304602F0B4
:1004C00021FD07460FF2A0094946304602F01AFD09
:1004D0008246404602F0ADFB304602F029F8034662
:1004E000324649460A2002F08BF8002F18BFBAF1B5
:1004F000000F05D1287C401C2874C0B20528BEDB43
:100500000120A872002105F1440002F0B4FB05F1BE
:10051000340002F033FC002020800320BDE8F08787
:10052000415400004F4B000073696D393030615FFA
:10053000636865636B5F70726F636573730D0A0048
:10054000415445300000000041542B4350494E3F78
:10055000000000004350494E0000000041542B436E
:100560004F50533F00000000434F50530000000025
:100570002DE9F84304460F462088DFF8306715461A
:10058000A8B140F26F21401A22D0123856D012384A
:1005900000F08A80133800F0BD80133800F0F0803E
:1005A000133800F022813A3800F0568188E17074E7
:1005B00006F1440030620FF21030FFF7B9FD41F24E
:1005C000883106F1E40002F010FB40F26F2041E1B7
:1005D00006F1E408404602F01AFB18B93078874269
:1005E00040F043813078874213D195B1B5A12846B8
:1005F00002F088FC0746404602F01BFB284601F04B
:1006000097FF03462A460FF2D0210C2001F0F8FF95
:100610002FB9707C401C7074C0B20528CBDB002061
:1006200070740FF2BC20FFF783FD41F2883106F1B0
:10063000E40002F0DAFA40F281200BE106F1E4086E
:10064000404602F0E4FA18B93078874240F00D8154
:100650003078874213D195B19AA1284602F052FC16
:100660000746404602F0E5FA284601F061FF0346DE
:100670002A460FF288210C2001F0C2FF2FB9707CAE
:10068000401C7074C0B20528CBDB002070740FF2E0
:100690007420FFF74DFD44F6206106F1E40002F0FE
:1006A000A4FA40F29320D5E006F1E408404602F0B7
:1006B000AEFA18B93078874240F0D7803078874258
:1006C00013D195B17FA1284602F01CFC0746404695
:1006D00002F0AFFA284601F02BFF03462A460FF23C
:1006E00030210C2001F08CFF2FB9707C401C7074FD
:1006F000C0B20528CBDB002070740FF21C20FFF77E
:1007000017FD41F2883106F1E40002F06EFA40F282
:10071000A6209FE006F1E408404602F078FA18B9F6
:100720003078874240F0A1803078874213D195B16C
:1007300064A1284602F0E6FB0746404602F079FA3B
:10074000284601F0F5FE03462A460FF2E4110C207C
:1007500001F056FF2FB9707C401C7074C0B20528A0
:10076000CBDB002070740FF2D010FFF7E1FC41F2F8
:10077000883106F1E40002F038FA40F2B92069E06D
:1007800006F1E408404602F042FA10B93078874298
:100790006BD13078874213D195B14AA1284602F037
:1007A000B1FB0746404602F044FA284601F0C0FE7D
:1007B00003462A460FF290110C2001F021FF2FB9B9
:1007C000707C401C7074C0B20528CCDB00207074B3
:1007D0000FF27C10FFF7ACFC41F2883106F1E40027
:1007E00002F003FA4FF4337034E006F1E4084046B7
:1007F00002F00DFA10B93078874236D1307887424E
:1008000014D19DB12FA1284602F07CFB0746284653
:1008100001F08EFE03462A460FF240110C2001F033
:10082000EFFE1FB1404602F004FA05E0707C401C68
:100830007074C0B20528CBDB00207074DFF8580854
:10084000FFF776FC41F2883106F1E40002F0CDF9C1
:1008500040F20630208008E006F1E408404602F04D
:10086000D6F918B93078874200D015E2307887423F
:1008700017D1B5B1DFF824783946284602F042FB9B
:100880008146284601F054FE03462A4639460C208C
:1008900001F0B6FEB9F1000F03D0404602F0C9F9ED
:1008A00005E0707C401C7074C0B20528C6DB0021D6
:1008B00006F1540002F0DFF906F1440002F05EFA9E
:1008C000EDE100004F4B000041542B4347434C41A6
:1008D00053533D22422200004C415353000000007C
:1008E00041542B434744434F4E543D312C224950F1
:1008F000222C22434D4E45542200000043474443DE
:100900000000000041542B43474154543D31000046
:10091000434741540000000041542B434950435386
:1009200047503D312C22434D4E45542200000000DB
:10093000435347500000000041542B434950484561
:1009400041443D3100000000504845414400000052
:1009500041542B434D47463D30000000434D474630
:10096000000000002DE9F84304460F462088DFF818
:100970003C63154660B14FF45371401A1BD01038D8
:100980004ED0153800F08480333800F0C58028E15F
:1009900006F1540030620020B074DFF84C0CFFF711
:1009A000C7FB41F2883106F1F40002F01EF94FF462
:1009B0005370208070E106F1F408404602F027F9F8
:1009C00010B930788742F5D13078874213D195B18C
:1009D000B5A1284602F096FA0746404602F029F9EA
:1009E000284601F0A5FD03462A460FF2F8110C2017
:1009F00001F006FE2FB9B07C401CB074C0B20528CF
:100A0000CBDB0020B074DFF8E40BFFF791FB41F281
:100A1000883106F1F40002F0E8F84FF45770C8E7A7
:100A200006F1F408404602F0F2F810B93078874237
:100A3000C0D13078874216D1ADB19BA1284602F0D3
:100A400061FA0746404602F0F4F8284601F070FDCE
:100A500003462A460FF294110C2001F0D1FD17B184
:100A60000320B07205E0B07C401CB074C0B2052811
:100A7000C9DB0020B074DFF82006FFF759FB41F214
:100A8000883106F1F40002F0B0F840F2713090E7DE
:100A900006F1F408404602F0BAF810B930788742FF
:100AA00088D13078874217D1B5B1DFF8F075394673
:100AB000284602F027FA8146284601F039FD034610
:100AC0002A4639460C2001F09BFDB9F1000F03D0F6
:100AD000404602F0AEF805E0B07C401CB074C0B2F5
:100AE0000528C8DB0FF20C10F2690FF210130FF299
:100AF0001C11009006F58275284601F006FD284677
:100B0000FFF716FB0020F07442F21071404602F02D
:100B10006CF84FF469704CE7882F04BF06F1F408B5
:100B2000454522D106F58270FFF702FB42F21071B3
:100B3000404602F05AF8F07C0A2812D10020F074E6
:100B4000002106F1240002F096F806F1240030623C
:100B500006F1540002F012F90FF2CC010A2001F064
:100B600028FDF07C401CF074D3E730788742E2D156
:100B7000002DE0D00FF2C401284602F0C3F900288E
:100B8000D9D00A20B07202F0D7F9007838B9012024
:100B900002F0CEF90FF2B0010A2001F00AFD0120A7
:100BA000F07206F16400306206F1F40002F041F8E0
:100BB000F178002206F1640002F06EF9284601F097
:100BC000B7FC03462A460FF2A4010C2001F018FDE1
:100BD0000FF2A0010C2001F0ECFC06F1540002F031
:100BE000CDF85CE04C4F534500000000534855548D
:100BF0000000000034353637000000003131392E56
:100C000032392E3135352E313438000041542B43E2
:100C1000495053544152543D222573222C222573AE
:100C2000222C222573220000636F6E6E6563742090
:100C30006661696C65640D0A00000000434F4E4E0A
:100C4000454354204F4B00002D2D2D2D2D2D2D2DA6
:100C50002D2D2D2D2D2D2D2D2D2D2D2D2D2D2D4EA3
:100C600045545345544D4F44450A00004950535490
:100C70000000000073696D393030615F7463707516
:100C800064705F636F6E5F70726F6365737320650E
:100C90007869740D0A0000000120BDE8F28300208D
:100CA00020800320BDE8F2834F4B0000580C002049
:100CB00030B583B044880578042002F059FC022046
:100CC00002F056FC0346F5B9002001900090E2B214
:100CD000DFF820590621281D02F0C4FC0128024635
:100CE00011DB2860291DDFF81049201D02F0FEFCF1
:100CF00020602246DFF804094178743002F0CCF815
:100D00002B682A1D04E003B030BD0000D81F000886
:100D100003B0BDE830400FF20801072001F070BCBD
:100D200053594E43000000007CB50488DFF8C458D6
:100D3000022002F01DFC0346002001900090224694
:100D40009921281D02F08EFC012819DBDFF8AC4840
:100D5000A17A0A2914D1286008200FF23801DFF89F
:100D6000986801F026FC2A68291D301D02F0BEFC9F
:100D700030603246617804F1740002B000F068BC63
:100D800073BD00000004300000080140FC0C00208E
:100D9000000C01405320594E432041434B0D0A00A3
:100DA000002110F8012B0AB10120704710F8012B27
:100DB000002A04BF10F8012B002A04BF10F8012BF1
:100DC000002AF1D1091D2829EBD3002070472DE915
:100DD000F84304460F469146042002F0C9FBE07830
:100DE0002179DFF8188840EA01266079A17940EA84
:100DF0000125002088F80D00A07899281BD13346E2
:100E00003A460FF23411082001F0D3FBB74240F00C
:100E10009080484601F00DFFDFF8E477DFF8E42723
:100E200097F8800007F1AC034FF47A7118705E8078
:100E300007F2144037E0032839D1022002F098FB72
:100E4000DFF8BC7797F8800010B9012087F88000A0
:100E5000002088F80C0007F1B4084FF458714046A0
:100E600001F0FCF9052D13DB04F10B00018879B1C9
:100E700007F1AC038A001981811C07F1B60002F06A
:100E8000EDFC4FF4587342460021042002F07BFB36
:100E900007F1AC0007F1B00386804FF47A71DFF8F8
:100EA000682707F2344002F060FDBDE8F1830528B1
:100EB0003FD104F10B08B74204BF484601F0B9FE28
:100EC000DFF83C7707F184062821304601F0C6F9A7
:100ED000281F28282DD1282204F10B01304602F0CA
:100EE000BDFC002016F8011B59B916F8011B41B9C9
:100EF00016F8011B29B916F8011B11B9001D282885
:100F0000F0D398F82820A2B1D52A12DA08F12901E5
:100F1000781C02F0A3FC787CC019817C8DF800104D
:100F2000133002F067FE6A460FF22C010C2001F02C
:100F300040FBBDE8F1830000757753656E6453652F
:100F400071203D202530347820207577536571203D
:100F50003D20253034780A00736F756E645F6C69CC
:100F60006768745F6D61635F6E756D3A30782558A0
:100F70000A0000002DE9F0470446042002F0F8FAC8
:100F800000270546B84624B14FF45871204602F0B8
:100F900059FF2888002851D002F058FF06460FF26A
:100FA000A0090FF2A40A18E0307990B904EB870089
:100FB000801C0422711D02F051FC7F1C3A465146F0
:100FC0000A2001F0F6FA0423721D49460A2001F0B6
:100FD00017FB304602F03DFF0646002EE4D128887C
:100FE00080452ADA05EB880602F030FF06F1020997
:100FF00009E0042249460AF1050001F0B5FAC8B13A
:10100000504602F026FF5FEA000AF2D104EB8700A7
:10101000801C0422B11C02F021FC7F1C3A460FF216
:1010200034010A2001F0C5FA0423B21C19A10A20D8
:1010300001F0E6FA08F10108D1E72780BDE8F08762
:101040004F555431000000006931203D2025640ACD
:101050000000000069203D2025640A0038B50446E0
:10106000DFF8985505F1240028620920A8720020B5
:10107000E87201F05DFF002105F1240001F0FBFDA5
:101080000FF21C01082001F094FA2046BDE832401E
:1010900001F0CFBD4F555400E01F0008EC1F0008C1
:1010A0004552524F520A00002DE9F043DFF84C45FB
:1010B00085B00F462178884240F08780002F00F0ED
:1010C00084800FF27C31384601F01CFF30B1DFF82C
:1010D0007C0DFFF7C3FF0FF2703128E00FF274317F
:1010E000384601F00FFF30B1DFF8600DFFF7B6FFB3
:1010F0000FF268311BE00FF27031384601F002FF49
:1011000030B1DFF8480DFFF7A9FF0FF268310EE0AC
:101110000FF27031384601F0F5FE60B1BEA0FFF766
:1011200007F8DFF8280DFFF799FF0FF260310A206A
:1011300001F03FFA2EE057F8041C384602F055FB48
:10114000060027D002F018FB20B37079B179DFF8E0
:10115000745D40EA01200A301FFA80F840F25451D1
:1011600005F5597001F07AF805F55A79C5F86483E8
:1011700042463146484602F071FB43464A460FF26A
:101180001831072001F03CFA298805F6E8024846A4
:10119000FFF71DFEA1A1384601F0B4FE48B10FF2E1
:1011A00000310A68A178009204F174006A4601F0E7
:1011B00073FE9BA1384601F0A5FE002800F03D819A
:1011C000A1783A4604F17400FBE0E178884244D10A
:1011D000022002F0CDF90746DFF8E85CDFF814647E
:1011E000281DFFF7C7FEE28AA88828B18000801C6E
:1011F00080B20190281D00E0019000903B46012143
:10120000301D02F02FFA01281FDBA17A0A291CD118
:101210003060321DE08ADFF8E073288081A13368F6
:10122000062001F0EDF93268311D381D02F05EFA3A
:1012300038603A46617804F1740001F02DFE42F204
:10124000107105F6E80001F0D0FC207B401C2073F3
:1012500047F2305105F6D80098E0217988425CD1F8
:10126000002F00F0B180022002F082F9804602A82F
:1012700000210022DFF84C5C06C005F6B806BE422D
:101280000BD03B780FF21C213A460A2001F0B8F946
:101290003A783946304602F0E1FA0422791C02A875
:1012A00002F0DCFA787AD34E8DF80C004346E08ADF
:1012B000421C05200190E28202A8009092B2022115
:1012C000301D02F0CFF9012818DBA27A0A2A15D1C5
:1012D00030600246E18AC84F2980381D311D02F076
:1012E00005FA38603A46617804F1740001F0D4FDE3
:1012F00042F2107105F6E80001F077FC00220221AD
:10130000DFF87C0C01F0B9FB00222021DFF8740C1F
:1013100001F0B3FB02F07AFE8FE0617A884238D1A7
:10132000002F51D0022002F023F905463B780FF23E
:101330007C117A1C072001F063F9E08AAD4E421C53
:10134000E2822B463878019092B2781C00900421FA
:10135000301D02F087F901286FDBA27A0A2A6CD1CE
:101360003060DFF8605BE18AA34F29800246311DBF
:10137000381D02F0BBF938603A46617804F1740018
:1013800001F08AFD42F2107105F6E80001F02DFC33
:1013900053E06179884217D1B7B1DFF8B00A01F0A4
:1013A00048FC0920A07204F194052562002001F098
:1013B000BFFDE07A02281CBF0020E072A1793A4606
:1013C000284601F069FD38E0882836D1DFF8F45A64
:1013D00005F6D800874227D101F0AEFD0546E17839
:1013E000002204F1640001F057FDE08A401CE08215
:1013F000287810BB0FF2BC010A2001F0DAF804F1E2
:101400002400206200210920A0720020E07204F173
:10141000240001F030FC10E0415448000D0A3E0069
:101420004F4B00005352430005F6E800874204D1B9
:101430000FF290010C2001F0BCF805B0BDE8F0837C
:10144000434C4F5345440000636C6F7365642072D6
:1014500065630A004552524F520000006572726F78
:1014600072207265630A000053454E44204641498C
:101470004C00000073656E64206661696C207265C3
:10148000630A000052494E470000000052494E478F
:10149000207265630A0000003C2D527800000000B5
:1014A0000D0A3E007761726E000000005452414EFA
:1014B0000000000065745F68656172742063686590
:1014C000636B0A0061636B2074696D65206F7574CE
:1014D0000A00000010B5044608461146228822B1D1
:1014E00040F2EE539A4203D005E040F2EE50C5E0E0
:1014F000FFF7DAFDF9E7C4E070B5404D0C46A97975
:10150000884228D1002C55D00FF20011DFF8806AF4
:101510000C2001F04EF82821304600F09FFE3046A6
:101520002146282202F09AF9282332460FF2F401CC
:101530000C2001F065F80FF68020FEF7F9FD0FF69C
:101540008820FEF7F5FD06F12C00BDE8704041F261
:10155000883101F04ABB297888422BD154B30FF26D
:10156000CC01204601F0CEFC70B1DFF8246A0FF206
:10157000C801012086F828000C2001F01AF806F1B5
:101580002C0001F056FB28E019A1204601F0BAFC1E
:1015900010B1297A224622E00FF2B461204601F010
:1015A000B1FCF8B10FF2A0010C2001F002F8297A89
:1015B000224614E0882802BFDFF8D46906F12C0027
:1015C00084420FD196F8280038B90FF6EC10FEF7D8
:1015D000AFFD0FF6F410FEF7ABFDE979324605F1E9
:1015E000740035E070BD0000B81F0008C81F000877
:1015F0003E000000307B002084800020580C00203A
:10160000D88A0020B10C0008290D000853454E442B
:1016100020534D5320414E442050484F4E450D0A13
:101620000000000050484F4E00000000434C4F5354
:1016300045204F4B00000000677072312069732015
:10164000636C6F73650D0A00534D534F4B0A0000D6
:10165000BDE8704001F020BC10B5044608461146B4
:10166000228822B140F22D639A4203D005E040F275
:101670002D6003E0FFF740FFF9E702E02080012042
:1016800010BD00202080032010BD00002DE9F04394
:10169000DFF8006985B00D467178884224D1002DAD
:1016A00000F0868001F048FCDFF8EC780FF644117A
:1016B00007F1280406466560082000F07AFF60689C
:1016C0000FF644110368021D082000F099FF3078DE
:1016D000012840F0BA820FF63810FEF729FD41F2DA
:1016E000883107F5907022E2B178884260D1002DF0
:1016F00000F08D81DAA1284601F004FC00281FBF0C
:10170000DFF8947807F12804606800281DD003688A
:101710000FF60811021D062000F072FF606850F8F5
:10172000041B01F009F91A2001F004F96068DFF8E0
:101730006C480268011D201D01F0FBFF0346221DBD
:101740000FF6E001062000F05BFFC6A1284601F07D
:10175000D9FB002800F079820FF6D001DFF8387845
:10176000082000F026FF07F5907001F062FA07F1FB
:10177000280400206060A070707B642814DB06F1F0
:10178000240030620920B0720020F07201F0D0FB1A
:10179000002106F1240001F06EFA0FF69C010820EA
:1017A00000F007FF00207073707B401C707344E6EC
:1017B000F179884277D1002D00F02981DFF8D877C0
:1017C000AF4204D038462946282202F047F807F1F4
:1017D0002804002020706070202107F1300000F004
:1017E0003DFD202107F1600000F038FD07F1A00564
:1017F0008021284600F032FD07F150000021002230
:1018000000238C46A0E80E1006F1B40107F1300069
:10181000FEF7AEFC394607F15000FEF7A9FC0FF6C3
:1018200000200FF618220FF62C01039007F1300369
:101830000FF61C20029007F1500001900FF60420D3
:101840000090284600F061FE2A460FF61801082095
:1018500000F0AFFE0FF61800FEF76AFC44F62061B8
:1018600007F5987001F0C1F9DFF8341707F5A87093
:1018700001F0BBF92078401C207007F5B0740222FB
:101880003321204602F0D8FD05462B4622460FF2B2
:10189000EC710A2000F0B4FE2946204605B0BDE8F0
:1018A000F04301F05CB8317A884240F0B080002DFE
:1018B00000F0AD806AA1284601F024FB80B1DFF87A
:1018C000D87607F1A005284600F032FE01462846EA
:1018D00001F032F805B0BDE8F0431A2001F02AB853
:1018E0000FF26C31284601F00DFB002800F0AD81AD
:1018F000DFF8A47607F1280407F598782078012806
:1019000007F1A0054FD10FF27C710A2000F051FEC3
:101910002078401C207044F62061404601F065F9B3
:10192000202107F1300000F099FC202107F1600030
:1019300000F094FC8021284600F090FC07F1500054
:1019400000210022002300241EC006F1B40107F18B
:101950003000FEF70DFC07F1140107F15000FEF70F
:1019600007FC0FF6BC000FF6D4020FF2E8610390FB
:1019700007F130030FF6D800029007F150000190F4
:101980000FF6C0000090284600F0BFFD2A460FF277
:10199000D461082000F00DFE05B0BDE8F0430FF261
:1019A000D060FEF7C5BB0FF2FC610A2000F001FE1B
:1019B0000FF200710A2000F0FCFD60780FF2187140
:1019C000401C60703A46284600F09FFD404601F0FA
:1019D00030F92846FEF7ACFB4CF2503107F5A07009
:1019E00001F003F907F5B0741121204602F014FD4F
:1019F00005462B4622460FF2E8610A2000F000FE61
:101A00002946204605B0BDE8F04300F0A8BF88286D
:101A100040F01B81DFF8807507F59070854223D177
:101A20000FF2C461082000F0C4FD07F12804A0787B
:101A3000032810DB06F12400306200210920B07277
:101A400006F1240001F017F90FF2B0610A2000F04E
:101A5000B0FD0020A070A078401CA070EDE400BF95
:101A60003E0000004F4B000007F59878454540F0D8
:101A7000948007F128040FF29469227849460A20DD
:101A800000F097FD2078012807F1A00554D12278B5
:101A900049460A2000F08DFD0FF284610A2000F013
:101AA00088FD2078401C2070202107F1300000F0D4
:101AB000D5FB202107F1600000F0D0FB80212846F3
:101AC00000F0CCFB07F1500000210022002300248D
:101AD0001EC006F1B40107F13000FEF749FB07F123
:101AE000140107F15000FEF743FB0FF234700FF2C0
:101AF0004C720FF26051039007F130030FF25070F7
:101B0000029007F1500001900FF2387000902846C3
:101B100000F0FBFC2A460FF24C51082000F049FD72
:101B20000FF24C50FEF704FB44F62061404605B02E
:101B3000BDE8F04301F059B80FF204610A2000F04B
:101B400038FDCBA0FEF7F4FA3A460FF28C51284646
:101B500000F0DBFC2846FEF7EBFA4CF2503107F5BB
:101B6000A07001F042F80FF2F8510A2000F021FDB8
:101B700007F5B0741121204602F04EFC05462B46B5
:101B800022460FF2EC510A2000F03AFD2946204689
:101B900005B0BDE8F04300F0E2BE07F5A87085424D
:101BA00026D106F15400306200210920B07207F5F9
:101BB000B07406F1540001F05EF8002087F82800A8
:101BC0000A200FF2B45100F0F4FC1E21204602F06E
:101BD00023FC05462B4622460FF2B0510A2000F0A6
:101BE0000FFD2946204605B0BDE8F04300F0B7BE22
:101BF00007F5A070854228D10FF298510A2000F015
:101C0000D8FC9BA0FEF794FA07F1A00507F1140297
:101C10000FF2C441284600F078FC2846FEF788FA07
:101C200007F5B0741121204602F0F6FB05462B465D
:101C300022460FF23C510A2000F0E2FC29462046E1
:101C400005B0BDE8F04300F08ABEFFF7F6BB000028
:101C50002B434D475300000010B50446084611467B
:101C6000228822B140F264739A4203D005E040F228
:101C7000647003E5FFF70AFDF9E702E510B5C54C0E
:101C8000217D002904F5C2720146104604D102F0FC
:101C900098FC30B9012003E002F093FC08B1002069
:101CA000207504F1840001F016F9012010BD2DE922
:101CB000F043044691B02088BB4E884620B140F2E4
:101CC000C77188422DD0BBE0B24D00F0CFFF287025
:101CD00000F0CCFF307000F0C9FF687000F0C6FF64
:101CE000E87000F0C3FFA87000F0C0FF287100F09A
:101CF000BDFF687100F0BAFFA87100F0B7FFE8718E
:101D000000F0B4FF287200F0B1FF68720A200FF2F1
:101D1000944100F04EFC04E0C82106F5AA6000F0F2
:101D200064FF9C4D05F5C27002F060FCB8F1880FAD
:101D3000814665D106F5AA6000F069FF00285FD0F2
:101D4000D6F84C250FF27441984F0C2000F031FC6E
:101D500040F25451384600F081FAD6F84C253A60EA
:101D6000311D381D01F08AFDD6F84C350FF268415F
:101D7000321D0A2000F044FC2978286A3A1D01F03F
:101D80008BF80FF25C41301D01F0BCF8D0B1684611
:101D9000402100F063FA0FF248227BA1684600F070
:101DA000B4FB684600F0C4FB03466A460FF22821E4
:101DB000092000F025FC684600F0BAFB01466846A1
:101DC00000F0BAFD0FF22421301D01F09BF878B12C
:101DD0006EA1301D01F096F8B435C11C0B222846C7
:101DE00001F03CFD2A460FF20441082000F0E1FB1F
:101DF0004FF4A961301D00F031FA0020C6F84C05FF
:101E000019F1010F06D140F2C770208011B00120F6
:101E1000BDE8F083D6F84C0520B95FFA89F10D29A9
:101E20007FF47FAF8119401C81F80490B0F5A96F51
:101E3000C6F84C05FFF670AF0020C6F84C0570E7F9
:101E40000020208011B00320BDE8F083244300204F
:101E500010B5574C4FF45871204600F0FFF9224658
:101E6000BDE810404FF458730021042001F08BBBF3
:101E70004154480010B5474C802204F5C67104F562
:101E8000C27002F097FB474800F0C3FC002104F148
:101E9000240000F0F0FE002104F1840000F0EBFECD
:101EA000002104F1640000F0E6FE002104F174005A
:101EB00000F0E1FE04F19400BDE81040002100F0C4
:101EC000DABE00004C3A002030B583B0022001F0A9
:101ED0004FFB304D314CEA8A0021019100910346BD
:101EE000992110E030B583B0022001F041FB314967
:101EF000284D0A88294C00919200921C92B20192BE
:101F00000346EA8A0321201D01F0ACFB2978286AE8
:101F1000221D03B0BDE8304000F0BEBF80B50420F4
:101F200001F026FBBDE8005002464FF458730FF253
:101F3000D421002000F064BB30B50FF2D02183B073
:101F40001CC9684669461CC0124C04F503750C2276
:101F5000284601F083FC0C22694604F5087001F064
:101F60007DFC28232A460FF2B0210A2000F048FB0E
:101F700061792A4604F1640000F08EFF03B030BDA1
:101F8000000C01400010014025730A002B38360078
:101F900050B20020580C002030A50020307B0020DB
:101FA000E02202007D1C0008286B0020DC75002068
:101FB000DC9E00208C0E002041542B434950434CA2
:101FC0004F53453D3100000041542B434950534885
:101FD00055543D31000000002D3E636D00000000AF
:101FE00041542B435343413F0000000043534341BE
:101FF0000000000053544152542053454E44206782
:102000007072730A00000000545844410000000040
:1020100041542B43495053454E4400002D3E6770B8
:10202000000000002D3E31410000000053454E44A9
:10203000204F4B0A0000000073696D393030612079
:102040007265636F6E6E65637420616769616E0AA5
:1020500000000000257325732573257325732573F0
:10206000000000007761726E736D733D25730A0086
:1020700041542B434D47533D323700004D302D3EE8
:1020800000000000736D7332312D2D2D2D2D2D2D5F
:102090002D2D2D2D2D2D2D2D2D2D2D2D2D2D2D2D70
:1020A0002D2D0A007374617274312070686F6E6533
:1020B0000A000000706F6E6F31313131312D2D2DDE
:1020C0002D2D2D2D2D2D2D2D2D2D2D2D2D2D2D2D40
:1020D0002D2D2D2D2D2D0A0041544425733B00003C
:1020E0004D312D3E000000005544502053454E44D4
:1020F0002054494D45204F55540A000065745F73C4
:10210000656E64206F75740A000000007562506887
:102110006F6E65496E646578203D2025640A000075
:10212000736D7332322D2D2D2D2D2D2D2D2D2D2D09
:102130002D2D2D2D2D2D2D2D2D2D2D2D2D2D0A001F
:10214000706F6E6F312D2D2D2D2D2D2D2D2D2D2DB3
:102150002D2D2D2D2D2D2D2D2D2D2D2D2D2D0A00FF
:102160007374617274322070686F6E650A000000CB
:102170004D322D3E0000000065745F6261636B5F4D
:10218000756470206F75740A000000004D332D3E99
:102190000000000073746172742070686F6E6520B7
:1021A000320A000073696D393030615F7265737097
:1021B0005F70726F636573730D0A0000726563650B
:1021C0006976652066696E697368207072743D2057
:1021D00025640D0A000000003C2D6770000000001F
:1021E000534D53205265616479000000736D734351
:1021F000656E74657250686F6E65203D2025730AA8
:1022000000000000666E6F64000000003138383254
:10221000303130393236350070686F6E650000003D
:1022200035336431373531663730366237303765AC
:1022300036326135386236360000000030383931C8
:102240003638000031313030304439313638000012
:10225000303030384141304300000000002202F0AD
:10226000DDB9F0B4016844688368091801EB5402D1
:10227000E40748BF4B440C3091422BD011F8014B7E
:1022800014F0030504BF11F8015BED1C26090F2EA5
:1022900007D111F8016B0F3603E011F8017B03F849
:1022A000017B6D1EF9D1002EE6D0A40811F8015B68
:1022B00004F00304032C08BF11F8014B05EB0424C0
:1022C0001C1BB51CD8D014F8016B03F8016B6D1EF4
:1022D000F9D1D1E7F0BC704710B504460A2C04BF11
:1022E0000D20FFF7F9FFDFF84402416821B1491CD6
:1022F000416001F8014D10BD0168080003D020467F
:10230000BDE81040084710BD2DE9F0478AB080466F
:102310008946DFF8186204E059F8040BC0B2FFF7F1
:10232000DBFF18F8010B002800F0E5802528F6D126
:1023300018F8010B0021302808BF012102D02D28F8
:1023400002D1022118F8010B4FF0000A07E00AEB56
:102350008A0200EB4200A0F1300A18F8010BA0F14C
:1023600030020A2AF3D36C2812BF4C2841F0040132
:1023700018F8010B002800F0BE800446612CA4BFB1
:10238000A4F12002D4B2422C41D0432CC4D0442C1E
:1023900043D04F2C3FD0532C04D0552C3DD0582C3B
:1023A0003DD0BCE759F8044B0025204600E06D1CE9
:1023B00010F8012B002AFAD1880705D514E03168FE
:1023C00008001CBF202088472846451C50450BD2DA
:1023D00070680028F3D0202100F8011B7060F3E73B
:1023E00014F8010BFFF778FF20780028F8D1554545
:1023F00097D270686D1C20B1202100F8011B70601D
:10240000F5E731680800F2D020208847EFE7022284
:1024100059F8043B05E00822FAE70A22F8E71022FF
:10242000F6E7442C04D1002B44BF5B4241F0080185
:1024300000270DF1000CB3FBF2FE02FB1E34E4B2E8
:1024400073460A2C07DB78280CBF4FF0270E4FF09D
:10245000070E7444E4B204F1300E0CF801EB7F1C5B
:102460000BB1202FE7D3080703D500AA2D20B854BD
:102470007F1C3D46C8074CBF30242024880712D556
:102480007F1E00A83C5C0A2C04BF0D20FFF724FF30
:102490007068C0B100F8014B706019E03168080045
:1024A0001CBF204688472846451C5045E8D20A2CC8
:1024B00004BF0D20FFF710FF70680028EED000F871
:1024C000014B7060EFE7316808001CBF2046884769
:1024D000002FD5D15545BFF424AF70686D1C20B1D5
:1024E000202100F8011B7060F4E731680800F1D08A
:1024F00020208847EEE70AB0BDE8F0870EB400B5AB
:1025000001A9FFF701FF5DF810FB0CB410B5074CF3
:102510000A46606002A91046FFF7F6FE61680020D7
:102520000870606010BC5DF80CFB000048B400202F
:1025300000F10103810704D010F8011B89B1810764
:10254000FAD10268B2F10131914311F0803F04BF2A
:1025500050F8042FF6E710F8011B11B110F8011B19
:10256000FBE7C01A7047000010B400231446621E37
:102570002CB110F8013B11F8014B1B1BF6D010BC1D
:102580001846704770B504460D4614F8010B02F06A
:102590005EF8C6B215F8010B02F059F8C0B28642D7
:1025A00003D1002E18BF0028EFD1301A70BD774834
:1025B00070470CB4F8B505467548744F066838780E
:1025C0000C46E9B288420DD3142816D076B1706853
:1025D0000FF2C011FFF7D6FF20B171680FF2C010E3
:1025E000FFF78CFF3878EDB2A84206D3387814286C
:1025F00003D006A92046FFF787FEF1BC5DF80CFB6F
:102600002DE9F24F05466248604C0768207816466F
:102610009846A84211DB142800F0A5806FB17868B5
:102620000FF27011FFF7AEFF38B179680FF270103A
:10263000FFF764FF4FA0FFF761FF2078A842C0F2C8
:102640009280142800F08F80009828B101464246FD
:102650000FF25410FFF752FF0027B8F1010F44DBCF
:10266000B14645A599F800100FF24810FFF746FF54
:10267000F81007EB10700011A7EB00100F282FD1F6
:102680003EA0FFF73BFF27F00F04A7421BDB04EB44
:10269000060A9AF800B0ABF120005F2809D358462B
:1026A00001F0E1FF28B9584601F0E7FF08B92E21F3
:1026B00001E09AF800102846FFF720FF641C0AF199
:1026C000010AA742E5DA2BA0FFF718FF009838B1FE
:1026D000781C404504DA2AA10FF2E000FFF70EFF54
:1026E0007F1C09F101094745BCDBF81007EB1070AE
:1026F0000011B7EB001030D03C4622A503E028467D
:10270000FFF7FCFE641CE01004EB10700011B4EB4A
:102710000010F4D119A0FFF7F1FE27F00F00B84226
:1027200018DA86193F1A14A53478A4F120005F281E
:1027300009D3204601F097FF28B9204601F09DFFFC
:1027400008B92E2100E031782846FFF7D7FE761C25
:102750007F1EE9D107A0FFF7D1FEB8F1000F04BF3B
:1027600004A0FFF7CBFE0020BDE8F28F014606A0D3
:10277000FFF7C4BE0D0A000025630000203B0000E7
:1027800000000000202020002E256400A31400205B
:1027900084B300204576656E742074696D6572009F
:1027A000252D3230737C0000252D3573252D3464A2
:1027B0003A0000002025303258000000252D3973E2
:1027C0003A0000006E4801686E480288930602D500
:1027D0000A0006D017E0110703D54FF6F771018004
:1027E000808870476848016868480288930603D566
:1027F00082880A0006D006E0110703D54FF6F7716C
:102800000180808870478088C0B208475E490860B0
:1028100070475F49086070475E49086070475E49CD
:10282000086070475C4801685C480288930602D5DE
:102830000A0006D0E7E7110703D54FF6F7710180CC
:10284000808870475248016855480288930602D52F
:102850000A0006D0D7E7110703D54FF6F7710180BC
:10286000808870474B4801684E480288930602D51D
:102870000A0006D0C7E7110703D54FF6F7710180AC
:1028800080887047411E052900D3704710B53B4929
:1028900001EB800184B051F8044C012803D14FF4BE
:1028A0006120009019E0042803D14FF4E13000903A
:1028B00013E04FF41651022800910ED10020019030
:1028C000ADF80800ADF80C000C20ADF80A000020AF
:1028D0000FF2D401FFF76DFE08E000200190ADF883
:1028E0000800ADF80C000C20ADF80A00204601F0FD
:1028F000CFFE00A9204601F00FFF012240F2255132
:10290000204601F069FF0121204601F05BFF04B081
:1029100010BD1B490860704751B11C4A0378B2F8DA
:1029200000C05FEA0C6CFAD5401C9380491EF5D1BB
:10293000002070471A490DE051B1194A0378B2F8E6
:1029400000C05FEA0C6CFAD5401C9380491EF5D19B
:10295000002070470A881206FCD58880704751B164
:10296000104A0378B2F800C05FEA0C6CFAD5401C3C
:102970009380491EF5D1002070470000A01200206E
:10298000B4B4002000380140B8B400200044004036
:10299000BCB40020C0B40020C4B4002000480040F3
:1029A000004C004000500040554152543220696EA6
:1029B00069740A002DE9F041CC78002204F00F037D
:1029C000E40644BF8C7823430C88E5B225B3D0F8E5
:1029D00000C001250F2605FA02F7BE460EEA0408DC
:1029E000F04514D14FEA820E06FA0EF82CEA080CD4
:1029F00003FA0EFE4EEA0C0C91F803E0BEF1280F2C
:102A000008BF476103D0BEF1480F08BF0761521CE1
:102A1000082AE0D3C0F800C0FF2C28DDD0F804C09D
:102A2000002201250F2602F1080705FA07F7BE4626
:102A30000EEA0408F04515D14FEA820E06FA0EF8A8
:102A40002CEA080C03FA0EFE4EEA0C0C91F803E097
:102A5000BEF1280F08BF476191F803E0BEF1480FAF
:102A600008BF0761521C082ADDD3C0F804C0BDE8C6
:102A7000F08101617047416170470AB1016170479F
:102A80004161704770B4164A00284CBF94691468BD
:102A900000F44016C0F3034583B2B6F5401F06D1DB
:102AA000156825F0706524F0706415600CE0C602AE
:102AB00003D5032606FA05F503E0450D2D0103FABB
:102AC00005F5AC4344F0706421B1410D090103FAEE
:102AD00001F10C4300284CBF9461146070BC704736
:102AE0000400014038B55E4C206890B101F0BCFE96
:102AF00021680A684B689A18121A06E00B684D683C
:102B0000EB181B1A934238BF1A4689680029F5D181
:102B10001018606031BDF8B50446208810B15928FE
:102B200006D03FE04E490860592020800120F2BDC8
:102B300087294B4E04D08229F6D115E0A868306071
:102B40003568002DF0D0E8689042F7D0A8680028DA
:102B5000EAD0C168914212BF05468068A860F5E7D7
:102B60000020A860FFF7BEFF0027356805E006F1EA
:102B7000080000F0B0F92F46AD68002DD4D02846EB
:102B800001F097FE0028F6D0E8682A46882100F078
:102B900083F90028EBD1E860002FA86814BFB86063
:102BA0003060DDE7002020800320F2BD2D4800F0DA
:102BB00092B938B504462A4D05F1080000F08BF9AA
:102BC0002868E16849B1014600E0896829B1A1425D
:102BD000FBD125480068E06004E023490968E16012
:102BE000A0602C60BDE831407CE710B5044601F0E0
:102BF00051FE03E010B5044601F050FE2046BDE84A
:102C00001040D6E710B5044601F04DFEF6E7C06867
:102C100008B901207047002070471148006800B1D2
:102C2000012070470E48016809B9002070474068CC
:102C3000704710B504460A4801688C4203D1896880
:102C4000016006E0014631B18868A042FAD1A0686F
:102C50008860FFF747FF0020A060E06010BD000023
:102C6000FC0700200408002084B30020A049087855
:102C7000421C0A70704738B59D4CA268134600E0AC
:102C80001B68834218BF002BFAD183420BD002602D
:102C9000A06001228273002282810A46E5688121B8
:102CA00000F04FF8E56031BD2DE9F041904DEE6840
:102CB000AF680446884602E0002F40D03F68A74234
:102CC000FAD1002F3BD0A07B58B30020A073AF688F
:102CD00004E039463846FFF7E7FF3F68B7B1BC422A
:102CE000FBD0B87BC007F8D5BB681800F5D0EF6003
:102CF0000220B8732246872107F10C00984702286A
:102D000018BF0328E5D00120B873E6E7A3681800D0
:102D100018BF444505D0EC600022832104F10C006B
:102D20009847AF68BC4203D13868A86006E0074600
:102D300027B13868A042FAD120683860EE60BDE85B
:102D4000F08138B504460D46A07BC00715D5A368B1
:102D5000180012D06648C4600220A07304F10C0071
:102D6000984702281CBF0328832D04D12146204602
:102D7000BDE8344098E70120A07331BD5C49C968C3
:102D800092E75B488A210170002181704170816067
:102D9000C160704738B5564C0020E070A56804E06B
:102DA00029462846FFF780FF2D68C5B1E87B00283B
:102DB000FAD00120A8730020E873AB681800F3D0A4
:102DC000E5600220A8730022822105F10C009847DB
:102DD000022818BF0328E3D00120A873E4E731BD1F
:102DE00070B5434CE07808B1FFF7D4FF6378002B4F
:102DF0004ED0A5783F4A05EB450080006D1C815CF4
:102E0000217180182E114268226105EBD666806818
:102E10007611A5EB46155B1EA570637090BBA0688C
:102E200006E0226921796069FFF78BFF606900681D
:102E30006061606960B3E0780028F2D00020E07043
:102E4000A56804E029462846FFF72EFF2D68002DCF
:102E5000E7D0E87B0028F9D00120A8730020E873B0
:102E6000AB681800F2D0E5600220A873002282212E
:102E700005F10C009847022818BF0328E2D0012072
:102E8000A873E3E7812904BF01238373FFF759FF88
:102E90006078E178081870BD70B4154B5C78202C10
:102EA00008BF01200ED09D78651905F01F0505EBC0
:102EB0004506B5000F4EA955A9194A608860601CE7
:102EC0005870002070BC704738B5094CE568FFF7B2
:102ED00038FFE56031BD48B1817B012918BF022967
:102EE00004D10121C17301200149C870704700005D
:102EF00078B300203CA20020817B481E8041C04363
:102F0000C00F704770B50C46257835B970BD11F803
:102F1000013F1678B34206D0401C294601F0DEFC82
:102F200028B10146224612F8013F002BEFD170BDB7
:102F3000DFF83C1508727047DFF83805704770B548
:102F400082B015460FF25051DFF82C650A20FFF7CA
:102F500030FB089C069A0FF2545100942B460A202D
:102F6000FFF727FB079D23462A4635A10A20FFF7D6
:102F700047FB346022462946301DDFF8F44400F058
:102F80006DFC2178324604F5B360FFF785FF02201F
:102F9000207201F073FCE06073BD704770B50446A9
:102FA00082B0208810B1A6281BD01EE0DFF8C054E4
:102FB0000FF2B45005F5B566314601F0A0FCDFF81C
:102FC000BC1405F5B76001F0E3FCDFF8B404009031
:102FD00041F2D71332464FF4FA6105F2645001F022
:102FE0004AFEA6202080012076BD002020800320FC
:102FF00076BD30B5044683B00D46042000F0B8FA23
:10300000022000F0B5FAC4B90021019100910346F5
:10301000DFF85C442A46062104F1140000F022FB8C
:1030200001280ADB206104F11002A17804F5B360E5
:1030300003B0BDE83040FFF72FBF03B030BD000044
:103040003C2D77002DE9F04F044683B00D4616461F
:103050009946042000F08CFAE878297940EA012AA0
:103060006879A97940EA0127A87899280ED15645B0
:1030700040F082804846FFF7DCFDDFF8080490F856
:1030800080005FFA8AF1FFF7B4FF75E003283BD1B7
:10309000022000F06DFADFF8EC8308F1800681462B
:1030A000307808B90120307008F1840B4FF4587162
:1030B0005846FFF7D3F8052F11DB05F10B00018807
:1030C00069B1B1808A00811C08F1860000F0C6FB5E
:1030D0004FF458735A460021042000F054FA00209F
:1030E000019000904B4652469921201D00F0BAFAFB
:1030F000012841DB20602246DFF87403817800F567
:10310000B360FFF7C9FE37E0052835D105F10B04A0
:10311000564504BF4846FFF78CFDDA4E06F5797A2E
:1031200028215046FFF79AF8381F282824D1282252
:1031300005F10B01504600F091FBCD48007A0228C2
:103140001AD15046FDF72CFE94F82820A2B1D52ABA
:1031500012DA04F12901701C00F080FB707C30440D
:10316000817C8DF80010133000F044FD6A460FF2A8
:1031700068310C20FFF71DFA03B0BDE8F08FF0B501
:10318000BB4C85B00E462178884221D1002E44D018
:10319000BD4D00202870301D00F0EEFA002800F030
:1031A0001E8133680FF24C31321D0720FFF728FAD9
:1031B000AA8805F6CC03311D04F11000FFF742FF89
:1031C000207A022800F00B810220207205B0F0BDA9
:1031D000A178884221D106B33268012AC0F2FF806B
:1031E000A94D05F55B77311D384600F07FFA06469C
:1031F00082B2394604F2645001F02EFD42F21071A1
:1032000005F6CC00FFF7F1FC33463A460FF2EC210D
:103210000720FFF7F5F905B0F0BD6178884208BFD7
:10322000002E0BD147F230519848FFF7DEFC0FF229
:10323000D4210C20FFF7BDF905B0F0BDE17888423C
:1032400046D1002E73D0022000F092F9074602A862
:103250000021002206C08C4D05F6DC00B04203D0F0
:103260003278314600F0FAFA0422711C02A800F00C
:10327000F5FA707A8DF80C003B466888421C0520F0
:1032800001906A8002A8009092B2022104F1140019
:1032900000F0E8F901280FDB206104F110026888D2
:1032A000A88004F5B360A178FFF7F6FD42F2107133
:1032B00005F6CC00FFF799FC002202217448FFF7C5
:1032C000DCFB002220217348FFF7D7FB05B0F0BDDF
:1032D000217988422BD156B3022000F049F90746E4
:1032E00033780FF22C21721C0720FFF789F9664D05
:1032F0006888421C6A803B463078019092B2701C0C
:103300000090042104F1140000F0ACF9012866DB00
:10331000206104F110026888A88004F5B360A178E8
:10332000FFF7BAFD42F2107105F6CC0038E08828AC
:1033300055D1554D05F6BC07BE4235D1022000F0EF
:1033400017F9064605F10800FDF714FE6A8828897A
:1033500030B18000801C80B2019005F1080000E0CF
:10336000019000903346012104F1140000F07AF935
:10337000012812DB206104F110026888A88004F59E
:10338000B360A178FFF788FD42F2107105F6CC001A
:10339000FFF72BFC6888401C688047F230513846A4
:1033A000FFF723FC05B0F0BD05F6CC00864216D130
:1033B0000FF264110C20FFF7FCF8287802280BDBD1
:1033C000207A022806D10FF264110A20FFF7F1F8E3
:1033D00000202072002028702878401C287005B03A
:1033E000F0BD38B5044608461146228822B140F2A5
:1033F000D9139A421AD01CE01D4DFFF737FC2870F4
:10340000FFF734FC6870FFF731FCA870FFF72EFC63
:10341000E870FFF72BFC28710C200FF23811FFF732
:10342000C8F840F2D9102080012032BDFFF7A7FE76
:10343000F7E700202080032032BD38B501F0AEFC54
:1034400001F01EFE01F03CFE094C002104F5B160C4
:10345000FFF711FC04F5B36500212846FFF70BFCCC
:1034600061782846BDE838400022FFF715BD00000E
:10347000DC000020E4000020887000209B2F000862
:103480003F2F000870930020503100200C3A00209C
:10349000000C0140001001404461746120726563BA
:1034A00065697665642066726F6D2000206F6E20FE
:1034B000706F72742025642066726F6D20706F7259
:1034C000742025642077697468206C656E67746861
:1034D0002025643A200A0000736F756E645F6C6982
:1034E0006768745F6D61635F6E756D3A30782558FB
:1034F0000A0000003C2D69700000000049502D3E7C
:1035000000000000495048656172740A0000000024
:103510005452414E0000000049502041434B20547A
:10352000494D45204F55540A000000002D2D2D2DEA
:103530002D2D2D2D2D2D2D2D2D2D2D2D2D2D2D2DBB
:103540002D2D2D2D2D2D2D2D2D736574206D6F643A
:10355000650A000069705F646174615F70726F6317
:103560006573730A00000000771D9B942F48704715
:1035700038B1072805DA401E2D49C0B251F82000A5
:103580007047002070472DE9F04182B004001546D5
:1035900047D0072C45DA264800930B4650F82420E4
:1035A0000FF294010920FFF704F8204E214F40F25A
:1035B0007E3842463946304602F024F9012C03D1C8
:1035C000B81C29460C2214E0022C04D107F10E008D
:1035D000294608220DE0032C04D107F116002946E4
:1035E000082206E0042C06D107F11E0029464FF4FC
:1035F000587200F033F943463A460FF25801092059
:10360000FEF7FEFFE0223946304602F0BBF84346A3
:1036100032460FF248010920FEF7F2FF0020BDE814
:10362000F6814FF0FF30BDE8F681000000F00108A0
:10363000940700204443002053543A307825303812
:10364000582B3078253034585B737A2025645D0D13
:103650000A000000664E464F00000000464E464FEE
:103660000000000070B50446002514B94FF0FF308B
:1036700070BD7E202070A1700E206070E270100A74
:1036800020716571A57104221946E01D00F0E6F86D
:10369000049900291CBF059A002A05D104206071F5
:1036A00011480078A07109E0101D607115460E48A0
:1036B0000078A07104F10B0000F0D0F805F10B06C2
:1036C000711E89B2601C02F0BBF82A19010AD1727E
:1036D0006D1CADB22919C872691C89B209197F2005
:1036E000C872F01C70BD0000A8B3002058B50024BB
:1036F000C2B10B78661C1A2B03D1EF232354EA23A3
:1037000008E0EF2B08BF235404D01B2B05D1EF2377
:103710002354EB233354741C01E023543446491CD6
:10372000521EE6D10FF2EC010620FEF742FF2046C2
:1037300052BDF0B400230024551E02E02654641C40
:103740005B1CAB4211DA5E5CEF2EF7D15F187F781D
:10375000EA2F08D0EF2F02D0EB2FEFD11B262654F3
:10376000641C5B1CECE71A26F9E7511811F8011CE0
:103770002154601CF0BC7047F8B5040031D02078AB
:103780007E281CBF60780E282BD16079A17940EA91
:10379000012000F10A06B6B232460FF284010C2075
:1037A0003719FEF706FFFD1E2878697841EA0025E3
:1037B000311F89B2601C02F043F8044623462A46B2
:1037C0000FF26C010C20FEF7F4FEA54209D17D1E1C
:1037D0000FF278012A780C20FEF7EBFE28787F287C
:1037E00001D00020F2BD0120F2BD10B40022002360
:1037F00010B910BC70475B1C8B4207DA1C5C7E2C36
:1038000002BF1C1864780E2CF5D11A1810BC104693
:1038100070470000434F444520305831410A0000B2
:1038200055574C454E203D20253034780A00000085
:10383000757743524346203D2025303478207577F4
:10384000435243203D20253034780A00656E64667B
:10385000203D20253032780A0000000062B38B073B
:1038600008D0521E11F8013B00F8013B00F0248003
:103870008B07F6D1830740F0208000BF103A07D3B2
:1038800030B4B1E83810103AA0E83810F9D230BCA2
:10389000530724BFB1E80810A0E8081044BF51F84E
:1038A000043B40F8043BD20724BF31F8022B20F838
:1038B000022B44BF0B7803707047083A07D3B1E876
:1038C0000810083A40F8043B40F804CBF7D25307FD
:1038D000E4E70000F8B504461646208810B14B28EE
:1038E00012D030E0384F381D02F0C7F8054604E02A
:1038F000A968281DFFF779F92D68002DF8D101205E
:1039000038704B20208001E0882901D00120F2BDD1
:103910002D4F381D02F0B1F8054600E02D68002D4E
:10392000EFD0281DB042F9D12946381D02F0D1F858
:10393000264E686937683060A96908001CBFE869CD
:1039400088473760DDE7002020800320F2BD10B5F6
:103950001D4C00202070201D02F08CF804F108009E
:10396000BDE810400021FFF786B9F8B5174D164E97
:10397000044628686061A261E361307840B12F6835
:1039800006F108002860201DFFF72FF92F6000E0E6
:10399000A1602146301D01E02146281DBDE8F4400C
:1039A00002F06DB838B5084D0446287818B1201DCE
:1039B000FFF73FF901E0E06020612146281DBDE8E6
:1039C000344002F086B800007C07002084B3002059
:1039D000F8B504000D46164604F10D0702D14FF06C
:1039E000FF30F2BD7E202070BB2116206070A172D6
:1039F000FF20A070E07020716071A071E0712072F2
:103A00006072E07225730A203870FF220421781C4E
:103A100002F08AF804223146781DFFF71FFF7D72FD
:103A2000601C617801F00CFFF872010A0D203873F8
:103A3000B972224660780FF22031051D2B4609200D
:103A4000FEF7DEFD2846F2BD70B505460420FFF7FF
:103A50008FFD2946872918BF892959D1B0F822231B
:103A6000002A7CD0102A7ADAB64C94F8403093427F
:103A700003D3002284F8402001E00F2B69DA94F888
:103A8000402000EB8200892900F5497605D03246B6
:103A90002046FFF79DFF054633E07E202070BB21C6
:103AA00016206070A172FF20A070E070207160711C
:103AB000A071E07120726072E072FF228820207392
:103AC00004210A20607304F10E0002F02DF8042294
:103AD000314604F11200FFF7C1FE8820A075601C7A
:103AE000617801F0ADFE2076010A0D206076E17567
:103AF000224660780FF26021051D2B460920FEF753
:103B00007FFD012D25DB29462046FEF705FF20E03D
:103B100088291ED18C48017809B310291FDA894CF5
:103B200094F840308B4203D3002184F8401001E028
:103B30000F2B0EDA94F8401000EB8100021D882153
:103B40002046FFF745FF012803DB01462046FEF72C
:103B5000E3FE7C4C94F84000401C84F8400070BDAB
:103B600070B504460420FFF703FD0546B5F82203AF
:103B70000F283EDA288800283BD0002600E0761C7B
:103B8000B5F82213F0B288420BD2F6B205EB8600EC
:103B900000F5497104222046FEF7E6FC0028EED12C
:103BA00070BD6A4E304629464FF45872FFF756FEF4
:103BB000B6F8220306EB80000422214600F5497086
:103BC000FFF74CFEB6F822030FF29411401CA6F842
:103BD000220306F549720004830B0820FEF710FD4E
:103BE0003246BDE870404FF4587300210420FFF7BF
:103BF000CABC70BD2DE9F043534D83B00C0006469E
:103C00002C7021D00F2C1FDA002705F104080FF2C9
:103C10006419042231464046FFF720FEF0780190F7
:103C20004946B07800900C20737816F8042BFEF704
:103C3000C0FC7F1CA74208F10408EADB0FF2002653
:103C400005EB8400051D03E000242D1D0FF2F01686
:103C5000042231462846FFF701FE641C2D1D0F2C5F
:103C6000F6DB03B0BDE8F083394B1979187203F124
:103C7000080203F11000FFF70FB938B50446208899
:103C800010B1D2280DD055E0FEF7F0FF3049087191
:103C90000C200FF28811FEF78CFCD220208001202E
:103CA00032BD2B4D2879814225D122B310780FF2F5
:103CB000E401286002460820FEF77BFC287888286B
:103CC00008BF0FF2F40103D087280ED10FF20011C4
:103CD0000820FEF76EFC40F22B20E86046F28F11C0
:103CE00005F13000FEF781FF17E00FF2FC0108201C
:103CF000FEF75FFC11E088290FD105F12000824218
:103D00000BD005F13000824207D10FF2F4010820F8
:103D1000FEF74FFC47F23050E86005F12000E968FB
:103D2000FEF763FF2878882818BF8728B5D1FFF7EA
:103D30008BFEB2E700202080032032BD0021054821
:103D4000FEF799BF90B1002078AE00207C9B002048
:103D50009C000020AC00002072662D3E0000000098
:103D6000416464536F756E644C6967687454616232
:103D70006C650000736F756E645F6C696768745F73
:103D80006D61633A25582025582025582025580A6A
:103D900000000000736F756E64206C6967687420A2
:103DA0007374617465206368616E676520746F2049
:103DB000253032580D0A0000534F554E445F4C4990
:103DC0004748545F53544154455F4F4E0D0A00001D
:103DD000534F554E445F4C494748545F53544154E8
:103DE000455F4F46460D0A00534F554E445F4C49C0
:103DF0004748545F53544154455F4552520D0A00A1
:103E0000534F554E445F4C494748545F53544154B7
:103E1000455F4E4F4D414C0D0A000000736F756EAB
:103E2000645F6C696768745F6D73675F68616E6417
:103E30006C65725F70726F636573730A00000000D7
:103E400000000000002201F073BE0000524801F0A3
:103E500014BE002818BF01F064BE704738B5044690
:103E60004D4801F00AFE01E001F05BFE050008D0BC
:103E70000422691D2046FEF777FB00282846F3D16F
:103E800032BD002032BD70B50646701DFFF7E6FF5B
:103E9000040011D00423721D3DA10820FEF7B0FBE1
:103EA0000FF2FC010820FEF784FB00F0E7FCE06065
:103EB00001202071204670BD364C201D01F078FE97
:103EC000050006D10FF2F0010620FEF772FB00207C
:103ED00070BD0FCE0FC5103D00F0D0FCE860294644
:103EE0000120287104F1100001F0C9FD2068401C78
:103EF0002060284670BD38B50446264D214605F1A0
:103F0000100001F0E6FD2146281D01F06AFE286838
:103F1000401E286031BD70B51F4801F0AEFD1F4E38
:103F200005000BE000F0AAFCE968711888428041A6
:103F3000C00F2871284601F0F4FD0500F2D161BDE3
:103F40002DE9F041144801F098FD0FF2A8050FF299
:103F50009C060FF288070FF27408040014E0217920
:103F60004046FEF7CBFAE1683846FEF7C7FA04236D
:103F7000621D31460020FEF743FB2846FEF7BEFADD
:103F8000204601F0CEFD0400E9D1BDE8F08100003B
:103F90006D616300E8070020F807002074530100FA
:103FA000746865206E6F646520697320696E206C8B
:103FB0006973740D0A0000006E6F20737061636591
:103FC00020666F72206E6F64650D0A006E6F646507
:103FD000737461203D2025640A000000726576201C
:103FE00074696D65203D2025640A00004E4D4143F3
:103FF000000000002D2D2D2D2D2D2D2D2D2D2D2DA5
:104000002D2D2D2D2D2D2D2D2D2D0A0010B50022FD
:104010004FF48071CE48CF4CFEF72FFD00224FF4B5
:1040200000712046FEF729FD2046BDE81040002221
:10403000C8E138B5C84C2279904263D1002961D0DB
:10404000088820602078C00624D40FF28031C14D4A
:104050000C20FEF7AEFA00220221C048FEF70DFD4B
:10406000002220212846FEF708FD00224FF480712F
:10407000B748FEF702FD00224FF400712846FEF714
:10408000FCFC00224FF480712846FEF7F6FC8820E5
:10409000FFF7EAFD2078000624D40FF23C31AD4D45
:1040A0000C20FEF786FA01220221AC48FEF7E5FC5F
:1040B000012220212846FEF7E0FC01224FF4807106
:1040C000A348FEF7DAFC01224FF400712846FEF700
:1040D000D4FC01224FF480712846FEF7CEFC8720E5
:1040E000FFF7C2FD207880060CD40FF200310C20BF
:1040F000FEF75FFA6179224604F12C00BDE83840F2
:10410000FEF7CABE31BD38B5441EA441E443934D09
:10411000E20F01212846FEF7B0FCE20F02212846FB
:10412000FEF7ABFCE20F10218A48FEF7A6FCE20F77
:10413000BDE8384040218648FEF79FBC38B5864C24
:104140006279904224D119B30020208106200FF219
:10415000B021FEF72EFA0020A0714FF47A7104F11D
:104160003C00FEF742FDA2797A482021FEF785FC4B
:104170000020E07141F2883104F14C00FEF735FD7A
:10418000E079FFF7C0FFBDE832407548FEF7F6BDA5
:10419000882859D104F13C0081420FD1207A0028AF
:1041A00052D1A07980F00102A27120216948FEF766
:1041B00064FC4FF47A7104F13C0041E004F14C00DE
:1041C000814241D1607A401C6072E07980F0010048
:1041D000E071FFF798FF607A08282DDB012020723C
:1041E00001225C4C20212046FEF747FC5B4D01225A
:1041F00001212846FEF741FC012202212846FEF754
:104200003CFC012210212046FEF737FC504D0122D4
:1042100040212846FEF731FC002210212046FEF7FF
:104220002CFC002240212846FEF727FCBDE8344044
:1042300000214B48FEF71FBD4FF47A7104F14C008A
:10424000BDE83440FEF7D1BC31BD10B50446084688
:104250001146228812B1C62A02D004E0C62012E01C
:10426000FFF76CFFFAE711E010B504460846114667
:10427000228812B1D32A02D004E0D32003E0FFF752
:10428000D8FEFAE702E02080012010BD0020208047
:10429000032010BD70B50446208810B1EC2819D059
:1042A00052E02D4E2F4DFEF7E1FC3071FEF7DEFCA3
:1042B000707102220021281D01F0C5FC022200219C
:1042C000284601F0C0FC32212748FEF78EFCEC2086
:1042D000208005E0234D05F10C00FEF798FC08B99D
:1042E000012070BD21480068297A00F0B000024624
:1042F000B02A0DD02870491C68782972401C68705B
:104300000B200FF20811FEF754F900206881DAE75C
:104310000029D8D00020287268780228CEDB2868CF
:104320000D4E686002220021284601F08CFC2A799B
:104330000FF2D8010620FEF73CF931792A1D06F16B
:104340001C00FEF7A9FDBEE700202080032070BD01
:1043500000080140001001409C060020000C0140B4
:10436000040700205CB3002068B300200808014067
:1043700010B50B4C002104F10C00FEF77CFC002171
:1043800004F11C00FEF777FC5FF0000104F12C0043
:10439000FEF771FC01224FF480710248024C05E0E7
:1043A0009C0600200008014000100140FEF765FB5C
:1043B00001224FF400712046FEF75FFB2046BDE866
:1043C000104001224FF48071FEF757BB414C41521F
:1043D0004D5F4B45590A000053494C454E434552E9
:1043E0005F4B45595F50494E0A00000053454C460B
:1043F0005F544553545F4B45595F50494E0A000086
:1044000073656C66636865636B0A00004B455920F1
:104410003D20253034780A0000B922E07E22027067
:104420000323421C13708170032152785140C170E4
:10443000EF2101710520704700B912E07E2303705F
:104440004FF0040C431C83F800C08170C2701978CF
:104450005A7851409A7851400171EF2141710620FC
:1044600070474FF0FF30704710B5414C217800295C
:10447000014604F1240004D100F0A3F830B9012072
:1044800003E000F09EF808B100202070201DFEF728
:1044900022FD012010BD10B50446208810B1B628B9
:1044A00005D008E00FF2D8010A20FEF782F8B62006
:1044B0002080012010BD00202080032010BDF8B511
:1044C00004460D46208810B1D7280CD034E00FF2F6
:1044D000C4010A20FEF76DF805E04FF4FA7106F109
:1044E0008400FEF782FB234800F080F8882D074601
:1044F0000ED1214E06F18400FEF789FB40B1324611
:104500000FF2A4010520FEF754F80020C6F8800041
:1045100017F1010F03D1D72020800120F2BD164EE4
:10452000D6F880008755401C8028C6F88000D4DB70
:104530000020C6F88000D6E7002020800320F2BDCE
:1045400010B50B4C802204F12C0104F1240000F082
:1045500031F80A48FEF760F90021201DFEF78BFBB9
:1045600004F11400BDE810400021FEF784BB0000F8
:1045700098090020BC09002054AC002069440008C0
:104580006D70335F6D73675F70726F636573730D0A
:104590000A0000006D70335F7265765F70726F6342
:1045A0006573730D0A000000726576203D20257347
:1045B0000A0000000160511E0171002141718171EA
:1045C0007047437990F806C00279A3EB0C0C02EA1D
:1045D0000C0C944501D10020704702689954417930
:1045E0000279491C114041710120704710B4827951
:1045F00044790379A41A1C40012C07DB0468115D7F
:10460000521C1A408271084610BC704710BC4FF013
:10461000FF30704762F30F2262F31F4200B500BF04
:10462000130096469446103928BFA0E80C50FAD8DB
:104630005FEA417C28BF0CC048BF40F8042BC90783
:1046400028BF20F8022B48BF00F8012B00BD10B591
:104650000446012001F002FBA4F161001A2838BFD2
:10466000203C204610BD10B50446012001F0F6FAAA
:104670002046BDE8104001F0FDBA10B50446012007
:1046800001F0ECFA2046BDE8104001F0FEBA00004F
:1046900080B5474988420BD101214FF4804001F099
:1046A0005EFBBDE8044000214FF4804001F057BBA1
:1046B0004049884208D101214FF4003001F058FBF5
:1046C00000214FF4003022E03B49884208D101210B
:1046D0004FF4802001F04CFB00214FF4802016E0C5
:1046E0003649884208D101214FF4002001F040FBF7
:1046F00000214FF400200AE0314988420BD101210A
:104700004FF4801001F034FB00214FF48010BDE81D
:10471000044001F02DBB01BD30B5044685B00D4607
:10472000208A4CF6FF710840E988084320824EF643
:10473000F311A0890840A988084329890843698999
:104740000843A0814FF6FF41A08A0840A989084389
:10475000A08200A801F0B4FA154884420CBF039867
:104760000298296819225043A28912044CBF4900BB
:104770008900B0FBF1F16420B1FBF0F00001020907
:10478000642303FB1211A289120406D5C900323139
:10479000B1FBF3F101F0070105E009013231B1FB92
:1047A000F3F101F00F010843208105B030BD000096
:1047B000003801400044004000480040004C0040E8
:1047C000005000400029818912BF41F400514DF68C
:1047D000FF721140818170470B065B0F4FF0010C97
:1047E00001F01F010CFA01F1012B08BF0C3003D0BE
:1047F000022B0CBF10301430002A026814BF114382
:1048000022EA01010160704738B51E4C2068401C47
:104810002060FEF702FA30B12568FEF703FA854200
:1048200028BFFEF7C3F9A068401E04D16068401C91
:1048300060604FF47A70A06031BD124900200860BA
:104840004FF47A7110480068B0FBF1F0401EB0F1EF
:10485000807F08D20D490E4A4860F0201070002079
:10486000886007200860704706480068704705495F
:104870000A680B689B1A8342FBD370470148406863
:1048800070470000F8060020C412002010E000E08D
:1048900023ED00E010B50446616006E0016842685F
:1048A00051180160704710B50446FFF7DDFF206026
:1048B00010BD10B50446FFF7D7FF2168401A6168A4
:1048C000401C81428041C00F10BD10B50168406896
:1048D0004418FFF7C9FF201A10BD00000278C9B2C2
:1048E0008A421AB11CBF10F8012FF9E718BF002047
:1048F00070470422FEF7B2BF1022FEF7AFBF0022BE
:104900000A704A708A70CA700A714A718A71CA71D3
:104910000A724A72FF228A72CA7202780A73427855
:104920004A7382788A73C078C8730120704702780E
:10493000002A04BF4278002A27D18278002A04BFC7
:10494000C278002A21D10279002A04BF4279002AC4
:104950001BD18279002A04BFC279002A15D1027ABC
:10496000002A04BF427A002A0FD1827AFF2A04BFAC
:10497000C27AFF2A09D1027B0A70427B4A70827B8D
:104980008A70C07BC870012070470020704700000B
:1049900038B10A0005D041600146DFF8A80201F0F5
:1049A0006EB8704710B5DFF8A04204F1240001F0A2
:1049B000EEF804F1200001F05DF80FF29911201DCE
:1049C00001F0CAFA04F1340001F0E1F804F130001A
:1049D00001F050F804F14000BDE8104001F04AB881
:1049E00080B540B14168DFF8640201F077FBBDE8B3
:1049F000024001F0D5BB02BDDFF8540201F03DB822
:104A0000002818BF01F08DB87047DFF83C0200683D
:104A100070472DE9F0410446DFF82C82002500267E
:104A200008F1200001F029F813E097F82400B042C3
:104A30000CDBC20807F10801204601F043FC002806
:104A400002BF97F824603D46802E05D0384601F01D
:104A500068F80700E9D17DB108F1200001F00DF8F8
:104A6000854209D0294608F1200001F032F8294694
:104A700008F1200001F016F82846BDE8F081F8B5ED
:104A800005001CBF686800284BD06F4C294604F114
:104A9000200001F01EF86868406800F0EEFF05E0B5
:104AA0007068A84208D0304601F03BF80600F7D104
:104AB00005F1080001F038FC68684068314601F0F3
:104AC00008F86868406800F0D8FF20B96868416855
:104AD000201D01F0E0FA294604F1240001F081F8DC
:104AE000314604F1140001F07CF82068401E20607B
:104AF000201D696801F0F2FA01F052FB0646083504
:104B000004F1400000F0B9FF09E02368D7F804C0C1
:104B1000324629460320E047384601F002F80700F4
:104B2000F3D1F1BD10B504001CBF606800280ED0A1
:104B300003E04068FFF7A3FF606800F09EFF0028D5
:104B4000F7D12146BDE81040404801F0A4BA10BD9D
:104B500000000000E6E7F8B504463B4D05F13000E3
:104B600000F08BFF01E000F0DCFF10B3A042FAD1AF
:104B7000214605F1300000F0ACFF214605F134007C
:104B800001F02FF8261D241D05F1400000F075FFEF
:104B90000DE005F1300000F0ADFF0346D7F804C08A
:104BA000324621460120E047384600F0BAFF0700B0
:104BB000EFD1F1BD38B50446264800F05EFF01E0B4
:104BC00000F0AFFF050008D010222146281D01F09B
:104BD00079FB00282846F3D132BD002032BD38B51C
:104BE00000241C4800F049FF03E02C1D284600F07B
:104BF00098FF05000AD0281D01F0B8FA00281CBF54
:104C000090F822000028F0D0281D32BD204632BD89
:104C100038B50D4C02E02846FFF79DFF04F1300047
:104C200000F02BFF05000BD0287F28B905F11400F8
:104C300001F0C6FB0028EED1284600F072FFF1E734
:104C400031BD00005C1300201C1300202013002045
:104C50003C1300204C13002038B50346D86940B1FE
:104C60009C8A250A45EA0424A4B200941B1D01F085
:104C7000B5FB002032BD2DE9F047404E04463078A8
:104C80000D4690461F4628B90021301DFDF7F3FF61
:104C900001203070E582A782B8F1000F04D0201DFA
:104CA00041461022FEF7DAFD0898DFF8D490A061A3
:104CB000301DD9F800A0C9F800002246380A40EAA1
:104CC000072189B2404601F0CBFBE06118B1290A07
:104CD00041EA05210182C9F800A000B10120BDE828
:104CE000F0872DE9F043044683B02088154610B1C3
:104CF0008B2806D03AE08B20208003B00120BDE84D
:104D0000F083204800788142F5D1002DF3D01E4871
:104D100000788007EFD51D481D4F01681D4E3A8869
:104D20003046FEF79BFDA8690028E4D0DFF85080EC
:104D3000286AD8F800903B88C8F8000002930196D2
:104D40001548428D018D130A43EA022292B2009265
:104D500000F118030A0A42EA012200F1080128467C
:104D6000AD6992B2A847C8F80090C4E7002020803F
:104D700003B00320BDE8F08300000000781200209B
:104D800084B30020D4B400201B53002054530020CF
:104D9000485300203C650020444B002010B586B0ED
:104DA0000121182000F0C9FF01214FF4804000F0DC
:104DB000CDFF4FF46040ADF8000003208DF80200F5
:104DC00018208DF8030000A9264C2046FDF7F2FDBF
:104DD0004FF48050ADF8000000A901208DF80200CA
:104DE00010208DF803002046FDF7E4FD0020ADF80B
:104DF00004004FF48270ADF8060000200290ADF878
:104E00000C004FF40070ADF80E001820ADF8100043
:104E10000020ADF812000720ADF8140001A9124CD3
:104E2000204601F0D3FD0121204601F0EBFD06B044
:104E300010BD38B504460C4D0221284601F0F0FDA6
:104E40000028F9D02146284601F0E6FD0121284638
:104E500001F0E6FD0028F9D0284601F0DFFDC0B2E0
:104E600032BD0000000C01400038004010B501F0D8
:104E7000A2FF00218C4A0323147844B1947C012CB6
:104E800005D19478FE2C06BFD478802C911C20325A
:104E90005B1EF1D118B1102201F014FA38B9834C1D
:104EA0002078E0B100F0A2F80020207010BD01F0E1
:104EB00082FF4FF6FF71808B7C4C884205D12078B1
:104EC00018B100F093F80020207004F11C00BDE838
:104ED00010400023764A44F62061FEF746BD10BD1F
:104EE00000283CD1002918BF002A38D008880028A3
:104EF00004BF4888002811D18888002804BFC888CA
:104F000000280BD10889002804BF4889002805D152
:104F10008889002804BFC889002820D0108800286C
:104F200004BF5088002811D19088002804BFD08881
:104F300000280BD11089002804BF5089002805D112
:104F40009089002804BFD089002808D057480178EC
:104F500029B1574A002300211C30FEF706BD7047D7
:104F600038B5524C607800283FD120704AF6AA200C
:104F7000A0800020E08020816081A081E0812082EB
:104F80006082201D4B4902F079F901220021201D89
:104F900002F037F8484D95F82A00297E31B10028F3
:104FA00012BF012805F11A0001F0BEF995F84A0078
:104FB00095F8381031B1002812BF012805F13A00E8
:104FC00001F0B2F995F86A0095F8581031B100284F
:104FD00012BF012805F15A0001F0A6F9374904F182
:104FE0001400FFF7D5FC0120607031BD10B584B00E
:104FF0000024FFF7B5FF2C480321027842B1827CE0
:10500000012A05D18278FE2A06BFC278802A841C34
:105010002030491EF1D17CB3204602F058F838B355
:1050200021461E2001F04FFD01F0C5FE044602F0AE
:105030008AF9206A00281CBFD0F88800002805D013
:10504000FFF789FD216A0020C1F888004AF6AA20EE
:10505000ADF8000040220020ADF80200019002905F
:10506000039000A9204601F00BFE002004B010BD03
:105070004FF0FF3004B010BD6FF0010004B010BD60
:1050800010B5FFF76DFF094C094A002344F6206173
:1050900004F11C00FEF769FC012020700020BDE82F
:1050A000104002F06CB90000F8A7002014B20020F4
:1050B0006D4E00089CB40020E0A70020E14E0008DF
:1050C00010B5DFF8A046FF2020706070A070E0707F
:1050D00000202071DFF890060068804702F0EAFAAD
:1050E000DFF8881691F82A200B7E00206BB1002A89
:1050F00018BF012A09D101EB401000F11A0104F197
:105100001400BDE81040FFF7F7BB91F84A2091F872
:10511000383001201BB1002A18BF012AEBD091F8CA
:105120006A2091F8583002201BB1002A18BF012ACA
:10513000E1D010BDDFF82C2601211171014602F1EA
:105140000800FFF7D6BB0146DFF82406FFF7D1BB06
:105150000146DFF82006FFF7CCBBDFF81C067047DE
:10516000DFF80C067047DFF80C06704730B45218B1
:10517000521E91420CD20C784D7805EB0424A4B257
:10518000201880B2A04238BF401C891C9142F2D343
:10519000914207D1097800EB012080B2B0EB012FDA
:1051A00038BF401C30BC80B2704738B5044610464A
:1051B000A1F128054019102204F1080180B2FFF77F
:1051C000D5FF102204F11801FFF7D0FFAAB204F1B5
:1051D0002801FFF7CBFF00281CBFBDE8324003F0D9
:1051E00024BD4FF6FF7032BD2DE9F84F0446154639
:1051F0006079227900EB02239942C0F24F8100EBE3
:10520000022028301FFA80FBABF1280204F12801AC
:1052100005F11400FEF722FB4520287005F1140665
:1052200000206870E871A87105F1140AABF1140050
:105230001FFA80F94FEA1920A87005F11408DFF869
:10524000247585F80390388A401C388280B2010AA0
:1052500029716871A079062804D0112809D03A284C
:1052600021D01BE16872062259462046FFF79DFFB8
:1052700023E06872ABF1280B0BF11100102204F14E
:10528000080180B2FFF772FF102204F11801FFF746
:105290006DFF1FFA8BF204F12801FFF767FF60B181
:1052A00003F0C3FC09E00120687294F8280081280B
:1052B00040F0F480002088F8000005F11001E0794A
:1052C000287204F11800FFF732FB002800F0E68096
:1052D000387940B9288A3988884202BF688A798833
:1052E000884240F0DB8007F1080105F10C00FFF770
:1052F00000FB687A112818BF062868D1308803F0AF
:1053000094FC03F0D5FC002830880BD003F08DFC12
:1053100000AA04F1080103F0C7FC002857D0BDF82B
:10532000000051E003F081FCB0F5806F4FDB708826
:1053300003F07BFC0746308803F077FC697A009124
:105340003B46014605F1100204F1080003F0CEFCD3
:10535000070013D1708803F068FC0746308803F01B
:1053600064FC697A00913B46014605F1100204F1A4
:10537000080003F003FD070000F09080687A06281B
:1053800015D19AF80D00810748BF44F6206105D475
:1053900040074CBF47F23051DFF8E013384603F0C6
:1053A00073FD9AF80D00052108420CD008E0DFF8E3
:1053B000CC13384603F068FD7088B0F5545F02D115
:1053C000384603F067FD388C03F02FFC3080002056
:1053D000688114222946FFF7C9FE00280CBF4FF64A
:1053E000FF7003F022FCC0436881687A012841D035
:1053F000062802D011281DD050E00020AAF8100085
:10540000A9F11404A01D082205F10C0180B2FFF7D8
:10541000ADFEA2B205F11401FFF7A8FE00280CBFF3
:105420004FF6FF7003F001FCC043AAF81000484695
:10543000BDE8F28F0020F080A9F1140404F11100FE
:10544000082205F10C0180B2FFF790FEA2B205F12F
:105450001401FFF78BFE00280CBF4FF6FF7003F01E
:10546000E4FBC043F080F0880028E0D14FF6FF70E5
:10547000F080DCE70020A9F11402A8F8020092B243
:1054800005F11401FFF772FE00280CBF4FF6FF7004
:1054900003F0CBFBC043A8F80200C8E70020BDE83A
:1054A000F28F2DE9F04F064685B01446F078B278B9
:1054B00000EB02239942A2BF00EB0227BFB2152FD7
:1054C000C0F2458107F1140040F2EB51884280F2AE
:1054D0003E81A7F1140206F1140104F12800FEF741
:1054E000BDF907F11400ADF8020004F12805BDF87C
:1054F0000200A0F1280760202070BFB20020607079
:10550000608004F12808380A2071677106F1140BD5
:10551000307AE07104F1280904F1080106F10C0069
:10552000FFF7EDF9002800F01281707ADFF834A25D
:10553000012806D0062818BF112840F00881A07164
:105540000FE09BF80000082840F001813A20A0718C
:105550000AF11401802089F8000004F11800FFF717
:10556000CBF9308ABAF80020904202BF718ABAF8AB
:105570000230994225D0BAF80C30BAF8081003EA84
:10558000000C03EA010EF44529D1BAF80EC0B6F8B2
:1055900012E0BAF80AB00CEA0E0E0CEA0B0BDE456C
:1055A00001BFDB4303EA000E1A40964517D16FEAAC
:1055B0000C02738ABAF802C0134002EA0C0293424A
:1055C0000DD140F2FF20208300206083A083E08380
:1055D00020846084A0844FF48070E0844DE09AF8C9
:1055E0000420002A00F0B380884202BF708ABAF813
:1055F0000A10884240F0AB80707A062818BF112844
:105600003BD1B8F8020003F010FBB0F5806F1BDB54
:10561000B8F8020003F009FB03F048FBD8B1B8F872
:10562000020003F002FB00AA01A903F03BFB58B102
:1056300001A904F11800FFF75FF9BDF8000003F0BD
:10564000F4FAA8F8020018E00AF1140104F11800B5
:10565000FFF752F911E0688803F0E7FA717A03F076
:1056600079FB060073D006F10C0104F11800FFF776
:1056700043F9708C03F0D9FA6880A079062804D029
:10568000112822D03A2843D061E008F10205002019
:10569000E8811022B81D04F1080180B2FFF766FD11
:1056A000102204F11801FFF761FD3A4604F12801C8
:1056B000FFF75CFD00280CBF4FF6FF7003F0B5FA52
:1056C000C043E881BDF8020042E00020E8801022DB
:1056D00007F1110004F1080180B2FFF747FD102225
:1056E00004F11801FFF742FD3A4604F12801FFF7E3
:1056F0003DFD00280CBF4FF6FF7003F096FAC04343
:10570000E880E8880028DDD14FF6FF70E880D9E70F
:105710000020A9F80200102207F13A0004F1080164
:1057200080B2FFF723FD102204F11801FFF71EFDE0
:105730003A4604F12801FFF719FD00280CBF4FF687
:10574000FF7003F072FAC043A9F80200BAE7002024
:1057500005B0BDE8F08F0A48006800470848406877
:105760000047000018B30020A4010108E0A70020B2
:1057700024B30020ACB4002020B30020E093040048
:105780005C0301082DE9F04115460C46234A00262A
:10579000014612180F46B2F5805F07D90FF280005C
:1057A000FCF7ACFE4FF0FF30BDE8F081C00748BF0A
:1057B0006FF0010024D4002000E0401C80B2A84219
:1057C00007D251F8042B12F1010FF6D06FF0010847
:1057D00000E0B04603F066FB18F1020F0AD138462C
:1057E00003F072FB06E054F8041B384603F089FB13
:1057F0003F1D761CB6B2AE42F5D303F05DFB002030
:10580000BDE8F08138B503460C461546002024B1AA
:1058100019462046FEF722F8284632BD0010FEF752
:10582000656557726974654D756C7469576F7264FC
:105830003A4F7574206F662072616E67650D0A00BD
:1058400070B4FF22FF2359B10FF224140FF21C058C
:1058500010F8016B5640725D5A40335D491EF7D116
:10586000FFE770BC43EA02207047000000C181409E
:1058700001C0804101C0804100C1814001C0804120
:1058800000C1814000C1814001C0804101C0804110
:1058900000C1814000C1814001C0804100C1814000
:1058A00001C0804101C0804100C1814001C08041F0
:1058B00000C1814000C1814001C0804100C18140E0
:1058C00001C0804101C0804100C1814000C18140D0
:1058D00001C0804101C0804100C1814001C08041C0
:1058E00000C1814000C1814001C0804101C08041B0
:1058F00000C1814000C1814001C0804100C18140A0
:1059000001C0804101C0804100C1814000C181408F
:1059100001C0804101C0804100C1814001C080417F
:1059200000C1814000C1814001C0804100C181406F
:1059300001C0804101C0804100C1814001C080415F
:1059400000C1814000C1814001C0804101C080414F
:1059500000C1814000C1814001C0804100C181403F
:1059600001C0804101C0804100C1814000000000B1
:1059700000C0C101C30302C2C60607C705C5C404EF
:10598000CC0C0DCD0FCFCE0E0ACACB0BC90908C85F
:10599000D81819D91BDBDA1A1EDEDF1FDD1D1CDC4F
:1059A00014D4D515D71716D6D21213D311D1D010BF
:1059B000F03031F133F3F23236F6F737F53534F4AF
:1059C0003CFCFD3DFF3F3EFEFA3A3BFB39F9F8381F
:1059D00028E8E929EB2B2AEAEE2E2FEF2DEDEC2C0F
:1059E000E42425E527E7E62622E2E323E12120E07F
:1059F000A06061A163A3A26266A6A767A56564A46F
:105A00006CACAD6DAF6F6EAEAA6A6BAB69A9A868DE
:105A100078B8B979BB7B7ABABE7E7FBF7DBDBC7CCE
:105A2000B47475B577B7B67672B2B373B17170B03E
:105A3000509091519353529296565797559594542E
:105A40009C5C5D9D5F9F9E5E5A9A9B5B995958989E
:105A5000884849894B8B8A4A4E8E8F4F8D4D4C8C8E
:105A600044848545874746868242438341818040FE
:105A7000000000000021016070470068704738B5E1
:105A800004460D4600F025F800202860206828B163
:105A900000E0084601680029FBD108B9256031BD46
:105AA000056031BD026882B1002301E0134612682F
:105AB0005AB18A42FAD1D2F800C0002B0CBFC0F80C
:105AC00000C0C3F800C00023136002680A600160D0
:105AD000704702686AB1002301E01346126842B1C0
