:020000040801F1
:100000002022002051140208CD100208D710020847
:10001000E1100208EB100208F510020800000000D1
:10002000000000000000000000000000FF100208B7
:1000300005110208000000000B1102085D610108B3
:100040009D140208A1140208A5140208A9140208AC
:10005000AD140208B1140208310E0208610E020844
:10006000B5140208B9140208BD140208C11402082C
:10007000C5140208C9140208CD140208D1140208DC
:10008000D514020841100208D9140208DD14020830
:10009000E1140208E5140208E9140208ED1402084C
:1000A000F1140208F5140208F9140208FD140208FC
:1000B00099F301080115020805150208091502083F
:1000C0000D15020811150208151502081915020868
:1000D0001D15020889330108A9330108DD33010821
:1000E0002115020825150208291502082D150208F8
:1000F0003115020835150208391502083D150208A8
:100100004115020845150208491502084D15020857
:10011000FD3301081D340108511502085515020868
:10012000591502085D1502086115020865150208D7
:1001300010B590B004466846402102F071FE224698
:100140006CA1684602F0C3FF684602F0D3FF034685
:100150006A46DFF8E419032003F034F8684602F039
:10016000C9FF0146684603F0C3F9002010B010BD76
:1001700038B504460D46284602F0BCFF00210A2887
:100180001EDB01EBD1725210B1EB420205D14A19CC
:100190000B1952780A554A5D5A70491C8142F0DBAE
:1001A0000219462102F8011C2246411911F8011CCE
:1001B00001550820BDE838400FF2080102F0DBBF0E
:1001C00031BD0000534D533D25730A0070B5044600
:1001D000208830B140F20911401A1BD0401F3CD09A
:1001E0006DE00121DFF8800C03F028FA0FF2D8014E
:1001F000032002F0C0FF01220221DFF8400903F0D2
:1002000018FA41F28831DFF8380903F0CAFA40F2EF
:10021000091020E0DFF81C59A835284603F0D3FA6E
:1002200010B3DFF8186900220221304603F001FA0A
:1002300000222021DFF8340C03F0FBF900224FF4F8
:100240000041304603F0F5F941F28831284603F0C9
:10025000A8FA4FF48770208006E0DFF8D85805F13F
:10026000A80003F0B0FA08B9012070BD0FF26C06C7
:1002700031460C2002F07FFF002105F1480003F019
:10028000D6FA05F1580003F055FB05F1680003F0BC
:1002900051FB01222021DFF8D40B03F0CAF901221F
:1002A0004FF40041DFF8940803F0C3F931460C2005
:1002B00002F061FF0021DFF8B00B03F0BFF900206E
:1002C0002080032070BD000073696D393030615F9C
:1002D000686172645F696E69740D0A0073696D39D3
:1002E0003030615F686172645F696E6974320D0AF3
:1002F0000000000025730A002DE9F04704460F4670
:100300002088DFF83058164660B14FF4E471401A87
:100310001FD0153857D0113800F08A80153800F0FA
:10032000CA8006E105F1480068630020E8750FF215
:10033000142102F020FF0020E87580A0FFF7F8FEEE
:1003400041F2883105F1D80003F02BFA4FF4E47044
:10035000AFE005F1D808404603F035FA18B928781F
:10036000874240F0B1802878874215D1A6B174A1A8
:10037000304603F0A3FB0746404603F036FA30460A
:1003800002F0B8FE034632466CA1032002F01AFFC9
:1003900017B10020287407E00120A875E87D401CF3
:1003A000E875C0B20528C8DB0020E8750FF2AC1074
:1003B000FFF7BEFE41F2883105F1D80003F0F1F9F4
:1003C00040F2DD1075E005F1D808404603F0FBF976
:1003D00010B92878874277D12878874213D196B10F
:1003E00057A1304603F06AFB0746404603F0FDF98B
:1003F000304602F07FFE034632460FF260110320C2
:1004000002F0E0FE2FB9E87D401CE875C0B2052877
:10041000CCDB0020E8750FF24C10FFF789FE41F2AB
:10042000883105F1D80003F0BCF94FF4F77040E0D3
:1004300005F1D808404603F0C6F910B9287887427C
:1004400042D12878874220D1FEB13DA1304603F049
:1004500035FB07460FF218194946304603F02EFBCC
:100460008246404603F0C1F9304602F043FE03469F
:1004700032464946032002F0A5FE002F18BFBAF10C
:10048000000F02D00120287405E0E87D401CE875CB
:10049000C0B20528BFDB0020E8750FF2DC00FFF7D3
:1004A00047FE41F2883105F1D80003F07AF940F2B5
:1004B0000320208008E005F1D808404603F083F9C6
:1004C00028B92878874202D00120BDE8F087287833
:1004D00087421DD1E6B11AA1304603F0EFFA074674
:1004E0000FF2A0094946304603F0E8FA824640463A
:1004F00003F07BF9304602F0FDFD034632464946E3
:10050000032002F05FFE002F18BFBAF1000F05D1E3
:10051000E87D401CE875C0B20528BEDB01202874C8
:10052000002105F1580003F082F905F1480003F0BD
:1005300001FA002020800320BDE8F087415400002C
:100540004F4B000073696D393030615F63686563DC
:100550006B5F70726F636573730D0A0041544530B1
:100560000000000041542B4350494E3F0000000062
:100570004350494E0000000041542B434F50533F1D
:1005800000000000434F5053000000002DE9F043ED
:10059000044687B02088DFF89C650F46154608B3EF
:1005A00040F27221401A2ED0113862D0173800F074
:1005B0009980153800F0D080123800F0F58033387B
:1005C00000F06781143800F09F81153800F0D28167
:1005D000143800F00582143800F037823B3800F000
:1005E0006B82A0E2307606F158007063DFF8080AEB
:1005F000FFF79EFD41F2883106F1E80003F0D1F8E3
:1006000040F2722056E206F1E808404603F0DBF8BB
:1006100018B93078874240F058823078874213D139
:1006200095B1B7A1284603F049FA0746404603F0C2
:10063000DCF8284602F05EFD03462A460FF630013C
:10064000032002F0BFFD2FB9307E401C3076C0B2CF
:100650000528CBDB00203076DFF8A009FFF768FD26
:1006600041F2883106F1E80003F09BF840F2832064
:1006700020E206F1E808404603F0A5F818B9307802
:10068000874240F022823078874216D1ADB19CA1DA
:10069000284603F013FA0746404603F0A6F828461A
:1006A00002F028FD03462A460FF2CC71032002F027
:1006B00089FD17B10320307405E0307E401C307690
:1006C000C0B20528C8DB002030760FF27840FFF773
:1006D0002FFD41F2883106F1E80003F062F840F2A4
:1006E0009A20E7E106F1E808404603F06CF800289C
:1006F00000F0EB81307887421CD1DDB181A1284622
:1007000003F0DCF907467EA1284603F0D7F98146BD
:10071000404603F06AF8284602F0ECFC03462A46FD
:100720000FF23C41032002F04DFDB9F1000F18BF5C
:10073000002F05D1307E401C3076C0B20528C4DBC6
:100740000FF20C40FFF7F4FC41F28831404603F011
:1007500028F840F2AF20ADE106F1E808404603F08A
:1007600032F8002800F0B181307887420DD165B1B0
:10077000404603F03AF8284602F0BCFC03462A46FD
:100780000FF2DC31032002F01DFD002030760FF265
:10079000C830FFF7CDFC42F2107106F1E80003F01B
:1007A00000F840F2C12085E106F1E808404603F078
:1007B0000AF818B93078874240F08781307887424C
:1007C00052D1002D50D0DFF83818284603F076F9C2
:1007D0000746404603F009F8284602F08BFC034622
:1007E0002A460FF27C31032002F0ECFC002F3BD1B3
:1007F00016222946684603F077F9022030760DF17B
:1008000002000278A2F130030A2B09D2337E06EBF4
:100810006301DB0758BF120111D5CB7E303A0DE0E2
:10082000A2F1610106290BD2337E06EB6301DB07DF
:1008300002D4573A120102E0CB7E573AD218CA7658
:10084000337E591C3176401CC9B21629D9DB06F11A
:100850001C0002F04FFC034606F11C020FF20831A7
:10086000032002F0AFFC05E0307E401C3076C0B2C1
:1008700005288CDB002030760FF2F420FFF758FCBF
:1008800041F2883106F1E80002F08BFF4FF43D7031
:1008900010E106F1E808404602F095FF18B93078FB
:1008A000874240F012813078874213D195B114A16C
:1008B000284603F003F90746404602F096FF284613
:1008C00002F018FC03462A460FF2B421032002F07E
:1008D00079FC2FB9307E401C3076C0B20528CBDBC6
:1008E000002030760FF2A020FFF722FC44F62061B2
:1008F00006F1E80002F055FF4FF44270DAE000BF65
:100900004F4B00003100000006F1E808404602F0BD
:100910005AFF18B93078874240F0D7803078874244
:1009200013D195B182A1284603F0C8F80746404686
:1009300002F05BFF284602F0DDFB03462A460FF279
:100940005421032002F03EFC2FB9307E401C30764B
:10095000C0B20528C6DB002030760FF24020FFF73A
:10096000E7FB41F2883106F1E80002F01AFF40F29D
:100970001D309FE006F1E808404602F024FF18B958
:100980003078874240F0A1803078874213D195B10A
:1009900067A1284603F092F80746404602F025FF7B
:1009A000284602F0A7FB03462A460FF2FC1103205B
:1009B00002F008FC2FB9307E401C3076C0B205280A
:1009C000CBDB002030760FF2E810FFF7B1FB41F2ED
:1009D000883106F1E80002F0E4FE40F2313069E0CF
:1009E00006F1E808404602F0EEFE10B93078874282
:1009F0006BD13078874213D195B14DA1284603F0D1
:100A00005DF80746404602F0F0FE284602F072FB11
:100A100003462A460FF2A811032002F0D3FB2FB998
:100A2000307E401C3076C0B20528CCDB002030760A
:100A30000FF29410FFF77CFB41F2883106F1E800D9
:100A400002F0AFFE40F2453034E006F1E8084046DF
:100A500002F0B9FE10B93078874236D1307887423B
:100A600014D19DB132A1284603F028F80746284644
:100A700002F040FB03462A460FF25811032002F011
:100A8000A1FB1FB1404602F0B0FE05E0307E401CE5
:100A90003076C0B20528CBDB00203076DFF8A00C22
:100AA000FFF746FB41F2883106F1E80002F079FEDB
:100AB0004FF46070208008E006F1E808404602F03C
:100AC00082FE30B93078874203D0012007B0BDE8FC
:100AD000F0833078874217D1B5B1DFF8687C3946AA
:100AE000284602F0EBFF8146284602F003FB03464E
:100AF0002A463946032002F065FBB9F1000F03D006
:100B0000404602F072FE05E0307E401C3076C0B2F6
:100B10000528C3DB002106F1680002F088FE06F11B
:100B2000580002F007FF0020208007B001F0EABF64
:100B30004F4B00000C0B0020602C01080008014006
:100B4000B40B002041542B43474154543F00000054
:100B500041542B435351000041542B43434944001B
:100B60004C415353000000004943434944000000F6
:100B700041542B435354543D22434D4E455422007F
:100B8000434744430000000041542B43494943522A
:100B900000000000434741540000000041542B4333
:100BA00049465352000000004353475000000000E4
:100BB00041542B434950484541443D310000000019
:100BC000504845414400000041542B434D47463DA9
:100BD00030000000434D4746000000002DE9F84377
:100BE00004460F462088DFF8606B154660B140F27E
:100BF000C731401A1DD0113850D0163800F0868009
:100C0000343800F0C7802AE106F1680070630020E4
:100C10007076DFF8E403FFF78BFA41F2883106F1D2
:100C2000F80002F0BEFD40F2C73020800120BDE890
:100C3000F28306F1F808404602F0C5FD10B930789D
:100C40008742F3D13078874213D195B1B5A12846B8
:100C500002F034FF0746404602F0C7FD284602F086
:100C600049FA03462A460FF20821032002F0AAFAA5
:100C70002FB9707E401C7076C0B20528C9DB0020F9
:100C80007076DFF87803FFF753FA41F2883106F106
:100C9000F80002F086FD4FF47670C6E706F1F8081A
:100CA000404602F090FD10B930788742BED13078CE
:100CB000874216D1ADB19BA1284602F0FFFE074640
:100CC000404602F092FD284602F014FA03462A46F6
:100CD0000FF2A411032002F075FA17B1032030744B
:100CE00005E0707E401C7076C0B20528C9DB00208C
:100CF0007076DFF84C0AFFF71BFA41F2883106F1F3
:100D0000F80002F04EFD40F2EE308EE706F1F808F2
:100D1000404602F058FD10B93078874286D13078CD
:100D2000874217D1B5B1DFF81C7A3946284602F060
:100D3000C5FE8146284602F0DDF903462A463946BB
:100D4000032002F03FFAB9F1000F03D0404602F051
:100D50004CFD05E0707E401C7076C0B20528C8DBF3
:100D60000FF21C10326B0FF220130FF22C110090B7
:100D700006F58475284602F0AAF92846FFF7D8F947
:100D80000020B07642F21071404602F00AFD40F2B7
:100D900022404AE7882F04BF06F1F808454522D1D2
:100DA00006F58470FFF7C4F942F21071404602F074
:100DB000F8FCB07E0A2812D10020B076002106F19E
:100DC000380002F034FD06F13800706306F1680067
:100DD00002F0B0FD0FF2DC01032002F0CCF9B07E8E
:100DE000401CB076D3E730788742E2D1002DE0D0C6
:100DF0000FF2D401284602F061FE0028D9D00A2063
:100E0000307402F0B1FE007838B9012002F0A8FE7B
:100E10000FF2C0010A2002F0AEF90120707406F151
:100E20007800706306F1F80002F0DFFCF178002230
:100E300006F1780002F00CFE284602F05BF903464A
:100E40002A460FF2B401032002F0BCF90FF2B00100
:100E50000C2002F090F906F1680002F06BFD002012
:100E600020800320BDE8F28300043000000C014024
:100E70004C4F5345000000005348555400000000FB
:100E800034353637000000003133392E3135392EF4
:100E90003232302E3133380041542B4349505354B1
:100EA0004152543D222573222C222573222C2225C7
:100EB00073220000636F6E6E656374206661696CF7
:100EC00065640D0A00000000434F4E4E4543542018
:100ED0004F4B00002D2D2D2D2D2D2D2D2D2D2D2D5C
:100EE0002D2D2D2D2D2D2D2D2D2D2D4E4554534594
:100EF000544D4F44450A000049505354000000002F
:100F000073696D393030615F7463707564705F63ED
:100F10006F6E5F70726F6365737320657869740DAF
:100F20000A0000004F4B000030B583B044880578BC
:100F3000042003F089FC022003F086FC0346F5B987
:100F4000002001900090E2B2DFF804580621281D2D
:100F500003F0F4FC0128024611DB2860291DDFF8AC
:100F6000F447201D03F03CFD20602246DFF8D8073F
:100F70004178883002F06CFD2B682A1D01E003B037
:100F800030BD03B0BDE830400FF20801072002F089
:100F900019B9000053594E43000000007CB5048885
:100FA000DFF8AC57022003F04FFC0346002001900D
:100FB000009022469921281D03F0C0FC012819DB6E
:100FC000DFF88447217C0A2914D1286008200FF219
:100FD0003401DFF8806702F0CEF82A68291D301D41
:100FE00003F0FEFC30603246617804F1880002B004
:100FF00001F058B873BD0000842001089420010856
:10100000641E01085320594E432041434B0D0A00F2
:10101000002110F8012B0AB10120704710F8012BB4
:10102000002A04BF10F8012B002A04BF10F8012B7E
:10103000002AF1D1091D2829EBD3002070470000B8
:101040002DE9F043054685B00C461746042003F011
:10105000FBFBE8782979DFF8F08640EA0126687919
:10106000A97940EA0129002088F81300A878992876
:101070001CD1334622460FF2DC41082002F07BF8F7
:10108000B44240F06382384602F0AFFBDFF8B44D63
:10109000DFF8B42D04F5967004F5B273007B187078
:1010A0005E804FF47A7104F25C5038E0032839D145
:1010B0000220DFF8904D03F0C7FB04F59677387BEC
:1010C00008B901203873002088F8120004F5BA77B7
:1010D0004FF45871384601F0A3FEB9F1050F13DB48
:1010E00005F10B00018879B104F5B2738A00198209
:1010F000811C04F5BB7002F0F7FC4FF458733A46BC
:101100000021042003F0ABFB04F5B27004F5B873C2
:1011100086814FF47A71DFF8342D04F27C5003F0AD
:1011200062FD13E205284DD105F10B08B44204BF5E
:10113000384602F05AFBDFF80C4D04F59E76282164
:10114000304601F06DFEA9F104002828C0F2FE81AE
:10115000282205F10B01304602F0C6FC002016F8EB
:10116000011B59B916F8011B41B916F8011B29B921
:1011700016F8011B11B9001D2828F0D398F8282073
:10118000002A00F0E381D52A80F2E08108F12901EC
:10119000601C02F0A9FC627B0FF2D83104F596774F
:1011A0000C20BA7301F0E7FFB87B0019817B7973DB
:1011B0000F3003F09BFE7A7B0FF2D0310C2001F050
:1011C000DAFFC3E10E284ED1B44204BF384602F024
:1011D0000CFB0FF2D431DFF86C4C0C2001F0CBFF8C
:1011E0000422E91D01A802F07FFC042205F10B0195
:1011F000684602F079FC04F5B471084605F10F0267
:10120000082315782D0905EB8506750005701678FD
:1012100006F00F06A6F10A07052F10D8DFE807F041
:10122000030507090B0D0A350AE00B3508E00C35FC
:1012300006E00D3504E00E3502E00F3500E07519CB
:10124000521C5B1E00F8015BDBD104F29C5420466B
:1012500004F07DFB222322460FF2BC31092001F06D
:10126000B1FF222138E00F2817D1B44204BF38461D
:1012700002F0BBFA0422E91D02A802F035FC0422A8
:1012800005F10B0101A802F02FFCE87BDFF8B44B5D
:10129000009004F2D444C52318E00A2820D1B442B7
:1012A00004BF384602F0A1FA0422E91D02A802F0A8
:1012B0001BFC042205F10B0101A802F015FCE87BE0
:1012C000DFF8804B009004F2D444C22301AA02A9A3
:1012D000204604F09AFB1B21204602F0F9F835E184
:1012E00012282DD1B44204BF384602F07EFA0FF224
:1012F000D021DFF8504B0C2001F03DFF04F5807643
:10130000122030700422E91D04F2011002F0ECFBFF
:10131000042205F10B0104F2051002F0E5FBC420E4
:101320007072082205F10F0104F5857002F0DCFBF4
:10133000122004F59E6400903346C422DD2168E04B
:10134000142838D1B44204BF384602F04EFA0FF2E6
:101350009421DFF8F04A0C2001F00DFF04F58076AF
:101360000E2030750422E91D04F2151002F0BCFBBA
:10137000042205F10B0104F2191002F0B5FBC6209E
:1013800070770C2205F10F0104F58F7002F0ACFBB1
:101390001620009004F2145504F58A73C622FF212A
:1013A000284604F03BFC0446E1B2284602F090F8DF
:1013B000E3B22A4637E018283BD1B44204BF38468E
:1013C00002F013FA0FF23821DFF8784A0C2001F00E
:1013D000D2FE04F596770A2038700422E91D04F243
:1013E0002D1002F081FB042205F10B0104F23110F3
:1013F00002F07AFBC820787204F59B7105F10F00AA
:1014000004F23C5402780A700B2000903B46C8223C
:10141000FF21204604F002FC0546E9B2204602F016
:1014200057F8EBB222460FF2F0110C2001F0CAFE81
:101430008CE010281FD1042003F006FAB44204BF48
:10144000384602F0D2F9872003F087FDDFF8C41B8D
:101450000978002908F5C4701ABF4FF4FA625143A5
:1014600041F2883102F09DF900220421DFF8A80B37
:1014700002F0DFF86AE011281ED1B44204BF3846FA
:1014800002F0B3F9DFF8944BE87ADFF8947B207030
:1014900000260AE005EB860000F10C01042207EBB0
:1014A000860002F021FB761CF6B220788642F1DB42
:1014B000862003F052FD49E0D02847D1B44204BF52
:1014C000384602F092F90422E91D03A802F00CFB51
:1014D000042205F10B0102A802F006FBE87BDFF80D
:1014E0006449009004F2D444872302AA03A9204649
:1014F00004F08BFA1B21204601F0EAFF1B23224651
:101500000FF21411924C0C2001F05CFE04200190AB
:10151000721C02A8009003AB92B2D121201D03F0EF
:101520000DFA012812DB98F810200A2A0ED120604B
:101530000246884D211D281D03F052FA28602A46D4
:1015400098F8011008F1880002F082FA05B0BDE8B1
:10155000F0830000757753656E64536571203D20FC
:101560002530347820207577536571203D20253053
:1015700034780A006572725F616464726573735FC8
:101580006E756D3A307825580A000000736F756EDD
:10159000645F6C696768745F6D61635F6E756D3AF7
:1015A000307825580A000000475052535F465F4389
:1015B0004D445F41534B5F54494D455F41434B00A0
:1015C000475052535F465F434D445F454C455F5320
:1015D00045545F5448524553484F4C445F56414C24
:1015E0000A000000475052535F465F434D445F5727
:1015F000415445525F5345545F56414C0A00000028
:10160000475052535F465F434D445F5741544552E4
:101610005F43414348450A0072662D3E00000000CA
:101620002DE9F0470446042003F00EF90027054693
:10163000B84624B14FF45871204604F039FB28888D
:10164000002851D004F038FB06460FF2A0090FF233
:10165000A40A18E0307990B904EB8700801C0422BA
:10166000711D02F041FA7F1C3A4651460A2001F0F2
:1016700082FD0423721D49460A2001F0A3FD304675
:1016800004F01DFB0646002EE4D1288880452ADAA6
:1016900005EB880604F010FB06F1020909E00422BC
:1016A00049460AF1050001F041FDC8B1504604F079
:1016B00006FB5FEA000AF2D104EB8700801C0422DB
:1016C000B11C02F011FA7F1C3A460FF234010A20D5
:1016D00001F051FD0423B21C1CA10A2001F072FD8F
:1016E00008F10108D1E72780BDE8F0874F55543154
:1016F000000000006931203D2025640A0000000040
:1017000069203D2025640A0038B50446DFF81859E1
:1017100005F138006863092028740020687402F01D
:101720001FFA002105F1380002F081F80FF22801BC
:10173000032001F020FD2046BDE8324002F055B8FC
:10174000682C0108742C01080C0B00204F55540024
:1017500070810020C486002073696D393030615F6C
:101760007265636F6E6E6563740A00002DE9F04365
:10177000DFF8B44885B00F462178884240F08C806D
:10178000002F00F089800FF2C861384602F096F908
:1017900030B1DFF89808FFF7B7FF0FF2BC6128E01F
:1017A0000FF2C061384602F089F930B1DFF87C08E9
:1017B000FFF7AAFF0FF2B4611BE00FF2BC613846DD
:1017C00002F07CF930B1DFF86408FFF79DFF0FF2FB
:1017D000B4610EE00FF2BC61384602F06FF960B1FF
:1017E00083A0FEF7A5FCDFF84408FFF78DFF0FF29A
:1017F000AC610A2001F0BFFC2EE057F8041C38460B
:1018000003F06DF9050027D003F030F920B36879B3
:10181000A979DFF81C6840EA01200A301FFA80F835
:1018200040F2545106F5597001F0FAFA06F55A796A
:10183000C6F8648342462946484602F055F94346B5
:101840004A460FF26461072001F0BCFC318806F6BD
:10185000F8024846FFF7F4FB66A1384602F02EF97D
:1018600070B10FF24C61082001F085FC0FF25C6151
:101870000A68A178009204F188006A4602F0E8F84C
:101880005DA1384602F01AF928B1A1783A4604F170
:10189000880002F0DDF859E6E178884246D102205E
:1018A00002F0D2FF0746DFF88867DFF88857301D5F
:1018B000FFF7B6FE228DB08828B18000801C80B270
:1018C0000190301D00E0019000903B460121281D51
:1018D00003F034F801281FDB217C0A291CD1286081
:1018E0002A1D208DDFF85077308044A12B68062018
:1018F00001F068FC2A68291D381D03F071F8386072
:101900003A46617804F1880002F0A2F842F21071C0
:1019100006F6F80001F045FFA07C401CA07447F2D9
:10192000305106F6E80001F03CFF0FE621798842CD
:1019300066D1002F00F0A280022002F085FF8046D1
:1019400002A800210022DFF8E86606C006F6C805F6
:10195000BD420BD03B780FF278513A460A2001F095
:1019600031FC3A783946284602F0BEF80422791C48
:1019700002A802F0B9F8787ADFF8B8568DF80C00B2
:101980004346208D421C05200190228502A800902C
:1019900092B20221281D02F0D1FF012819DB227C1E
:1019A0000A2A16D128600246218DDFF88C76318014
:1019B000381D291D03F014F838603A46617804F1A7
:1019C000880002F045F842F2107106F6F80001F0C6
:1019D000E8FE00220221DFF8640601F02AFE002260
:1019E0002021DFF8340601F024FE04F045FAADE5CD
:1019F000415448000D0A3E004F4B00005352430033
:101A0000617988423AD1002F76D0022002F01CFF83
:101A100006463B780FF2C0417A1C072001F0D2FB4A
:101A2000208DDFF81056421C22853346387801900D
:101A300092B2781C00900D21281D02F07FFF012832
:101A4000FFF629AF227C0A2A7FF425AF2860DFF851
:101A5000E065218DDFF8E07531800246291D381DD3
:101A600002F0BEFF38603A46617804F1880001F068
:101A7000EFFF42F2107106F6F80054E7A17B8842AE
:101A80003AD1002F78D0022002F0DEFE06463B78E5
:101A90000FF244417A1C072001F094FB208DDFF8FF
:101AA0009455421C228533463878019092B2781CB6
:101AB00000900421281D02F041FF0128FFF6EBAE43
:101AC000227C0A2A7FF4E7AE2860DFF86465218D66
:101AD000DFF8647531800246291D381D02F080FF51
:101AE00038603A46617804F1880001F0B1FF42F2B3
:101AF000107106F6F80016E7E17B88423CD1002F12
:101B000078D0022002F0A0FE0646DFF8BC7C0FF27F
:101B1000C83107233A46072001F054FB208DDFF837
:101B20001455421C062001902285781C00903346F3
:101B3000397892B2281D02F001FF0128FFF6ABAE02
:101B4000227C0A2A7FF4A7AE2860DFF8E464218DA6
:101B5000DFF8E47431800246291D381D02F040FF91
:101B600038603A46617804F1880001F071FF42F272
:101B7000107106F6F800D6E6A17988423AD1002F16
:101B800076D0022002F060FE06463B780FF2483124
:101B90007A1C072001F016FB208DDFF89854421CB8
:101BA000228533463878019092B2781C00900B2140
:101BB000281D02F0C3FE0128FFF66DAE227C0A2A22
:101BC0007FF469AE2860DFF86864218DDFF86874FF
:101BD00031800246291D381D02F002FF38603A4666
:101BE000617804F1880001F033FF42F2107106F6CB
:101BF000F80098E6217A88423AD1002F75D0022069
:101C000002F022FE06463B780FF2CC217A1C072018
:101C100001F0D8FA208DDFF81C54421C228533468F
:101C20003878019092B2781C00900C21281D02F0A7
:101C300085FE0128FFF62FAE227C0A2A7FF42BAE08
:101C40002860DFF8EC63218DDFF8EC733180024609
:101C5000291D381D02F0C4FE38603A46617804F14F
:101C6000880001F0F5FE42F2107106F6F8005AE61F
:101C7000E179884239D1002F00F08C80022002F0F7
:101C8000E3FD06463B780FF250217A1C072001F055
:101C900099FA208DDFF89C53421C22853346387810
:101CA000019092B2781C00901321281D02F046FE8C
:101CB0000128FFF6F0AD227C0A2A7FF4ECAD286003
:101CC000DB4E218DDC4F31800246291D381D02F08C
:101CD00087FE38603A46617804F1880001F0B8FE6A
:101CE00042F2107106F6F8001DE6617A884237D19B
:101CF000002F4FD0022002F0A7FD06463B780FF2DE
:101D0000D8117A1C072001F05DFA208DC94D421CC4
:101D1000228533463878019092B2781C00901521C4
:101D2000281D02F00BFE0128FFF6B5AD227C0A2A21
:101D30007FF4B1AD2860BE4E218DBF4F3180024689
:101D4000291D381D02F04CFE38603A46617804F1D6
:101D5000880001F07DFE42F2107106F6F800E2E51F
:101D6000A17A884216D1AFB1B14E06F6E80001F073
:101D70003CFD0920207406F6B8056563002001F0DB
:101D8000EFFE607C02281CBF00206074E17A3A46B6
:101D900028467EE588287FF47EADA54E06F6E80548
:101DA000AF4225D101F0E0FE0646E178002204F1C1
:101DB000780001F04DFE208D401C208530780028F1
:101DC0007FF469AD284601F010FD0FF214110320D5
:101DD00001F0D1F904F1380060630021092020747A
:101DE0000020607404F1380001F021FDFFF7AEBB64
:101DF00006F6F800874206D10FF2F4010C2001F03C
:101E0000BAF9FFF7A3BB04F5C47001F0DCFC0028AD
:101E10003FF441AD002204217F4801F00AFC01207B
:101E200080F31388BFF34F8FDFF8600DDFF8602D6C
:101E3000016801F4E06111430160BFF34F8F00BFFF
:101E4000FDE70000A86B0020290F01089D0F010885
:101E5000434C4F5345440000636C6F7365642072BC
:101E600065630A004552524F520000006572726F5E
:101E700072207265630A000053454E442046414972
:101E80004C00000073656E64206661696C207265A9
:101E9000630A000052494E470000000052494E4775
:101EA000207265630A0000003C2D5278000000009B
:101EB00073696D393030615F636865636B5F636D53
:101EC000642073656E64466C61670A000D0A3E000B
:101ED0007761726E000000005452414E0000000015
:101EE00065745F686561727420636865636B0A007E
:101EF00061636B2074696D65206F75740A00000062
:101F000010B5044608461146228822B140F2EB7310
:101F10009A4203D005E040F2EB70D9E0FFF726FCCF
:101F2000F9E7D8E070B5404D0C46E97A884228D1EF
:101F3000002C55D00FF20811DFF8F46C0C2001F0E2
:101F40001AF92821304600F06BFF3046214628223E
:101F500001F0CAFD282332460FF2FC010C2001F0EB
:101F600031F90FF22010FEF7E3F80FF22810FEF718
:101F7000DFF806F12C00BDE8704041F2883101F035
:101F800010BC297888422BD154B30FF2D4012046DB
:101F900001F094FD70B1DFF8986C0FF2D0010120D0
:101FA00086F828000C2001F0E6F806F12C0001F07C
:101FB0001CFC28E01BA1204601F080FD10B1697BCC
:101FC000224622E00FF68C01204601F077FDF8B1A1
:101FD0000FF2A8010C2001F0CEF8697B224614E034
:101FE000882802BFDFF8486C06F12C0084420FD12C
:101FF00096F8280038B90FF28C00FEF799F80FF226
:102000009400FEF795F8297B324605F1880049E0F7
:1020100070BD0000B8A1002000100140E4AB00201A
:10202000E8AB00203E0000000C0B00203C16002016
:10203000540D002070810020C4860020000C014057
:1020400053454E4420534D5320414E442050484F59
:102050004E450D0A0000000050484F4E00000000A1
:10206000434C4F5345204F4B0000000067707231C6
:1020700020697320636C6F73650D0A00534D534FD5
:102080004B0A000041542B434950434C4F53453DAC
:102090003100000041542B434950534855543D31C1
:1020A00000000000BDE8704001F0D2BC10B504464D
:1020B00008461146228822B140F62A039A4203D0EC
:1020C00005E040F62A0003E0FFF72CFFF9E702E005
:1020D0002080012010BD00202080032010BD0000C2
:1020E0002DE9F043DFF8546B85B00F4671788842D4
:1020F0004AD1002F00F0C48001F036FDDFF8405BCC
:102100000FF2C86105F128048046A760082001F09D
:1021100032F8A0680FF2C8610368021D082001F0C0
:1021200051F898F800102078012908BF002814D130
:102130000FF2B460FDF7FCFF41F2883105F5A470A1
:1021400001F02FFB0320E07040F6B83105F13800B4
:1021500001F027FB0120207000E028B141F2883116
:1021600005F1480001F01DFBB07D20B1E068401C86
:10217000E0600020B0750820E2680FF2786105B0D9
:10218000BDE8F04300F0F7BFB178884278D1002F66
:1021900000F0A8810FF27461082000F0ECFFEAA1C2
:1021A000384601F08BFCA0B3DFF8945A05F12804FF
:1021B000E07803282DD1A06858B303680FF29C6122
:1021C000DFF8808A021D062000F0FCFFA06850F8AE
:1021D000041B01F08DF91A2001F088F9A06802684B
:1021E000011D08F1040002F01EFC034608F1040280
:1021F0000FF27061062000F0E5FF0120E07005F1AC
:10220000380001F0F2FA05F1480001F0EEFA002082
:102210002070CEA1384601F051FC002800F0D28297
:102220000FF20861DFF8185A082000F0A4FF05F546
:10223000A47001F0DAFA05F128040020A060022061
:10224000E07000202071F07C642814DB06F1380077
:102250007063092030740020707401F081FC00214B
:1022600006F1380001F0E3FA0FF2CC51032000F040
:1022700082FF0020F074F07C401CF074FFF766B918
:10228000317B884277D1002F00F02C81DFF8B059E4
:10229000BD4204D028463946282201F025FC05F12C
:1022A000280400206070A070202105F1580000F083
:1022B000B7FD202105F1880000F0B2FD05F1C80747
:1022C0008021384600F0ACFD05F1780000210022A5
:1022D00000238C46A0E80E1006F1B80105F1580065
:1022E000FDF746FF294605F17800FDF741FF0FF2A3
:1022F0007C500FF294520FF29851039005F158035D
:102300000FF29C50029005F1780001900FF29C5062
:102310000090384600F0DBFE3A460FF29C51082050
:1023200000F029FF0FF29C50FDF702FF44F62061F8
:1023300005F5AC7001F035FADFF80C1905F5BC7045
:1023400001F02FFA6078401C607005F5CC74022211
:102350003321204603F0C0FD05462B4622460FF6EA
:102360001C110A2000F02EFF2946204605B0BDE8CA
:10237000F04301F0D0B8717B884240F0B380002F69
:1023800000F0B08070A1384601F098FB98B1DFF8FA
:10239000B05805F1C807384600F0ACFE0146384693
:1023A00001F0A6F81A2001F0A1F805F1280101209A
:1023B000C870FFF7CBB80FF29C41384601F07EFBA6
:1023C000002800F0FF81DFF8785805F1280405F5B2
:1023D000AC786078012805F1C8074FD10FF6A40149
:1023E0000A2000F0C8FE6078401C607044F620614E
:1023F000404601F0D6F9202105F1580000F010FD0B
:10240000202105F1880000F00BFD8021384600F006
:1024100007FD05F1780000210022002300241EC0E2
:1024200006F1B80105F15800FDF7A2FE05F114010F
:1024300005F17800FDF79CFE0FF230400FF24842A4
:102440000FF24C41039005F158030FF254400290F3
:1024500005F1780001900FF254400090384600F0EA
:1024600036FE3A460FF25041082000F084FE05B0D7
:10247000BDE8F0430FF24C40FDF75ABE0FF62401C1
:102480000A2000F078FE0FF62C010A2000F073FEFF
:10249000A0780FF64401401CA0702A46384600F090
:1024A00016FE404601F0A1F93846FDF741FE4CF218
:1024B000503105F5B47001F074F905F5CC741121B3
:1024C000204603F0F9FC05462B4622460FF6100184
:1024D0000A2000F077FE2946204605B0BDE8F0430B
:1024E00001F019B8882840F06D81DFF8545705F5E0
:1024F000A47087422CD10FF2F071082000F03BFE4F
:1025000005F128042079032818DB06F138007063F0
:1025100000210920307406F1380001F088F901F03B
:1025200023FB007802281CBF002001F019FB0FF2EA
:10253000CC71032000F01FFE002020712079401C88
:102540002071FFF703B800BF3E0000004F4B0000B2
:1025500005F1480001F037F900283CD105F13800B9
:1025600001F031F990B305F12804E078032840F038
:102570002981A068002800F0258103680FF2DC2182
:10258000DFF8C066021D062000F01CFEA06850F8AF
:10259000041B00F0ADFF1A2000F0A8FFA06802683D
:1025A000011D301D02F03FFA0346321D0FF2B42127
:1025B000062000F007FE0120E0700020207005B02A
:1025C00005F14800BDE8F04301F00FB905F5C4700E
:1025D00001F0F9F820B1002085F82800FEF7B6BF19
:1025E00005F5AC78474540F0948005F128040FF2DA
:1025F0001C79627849460A2000F0BDFD6078012808
:1026000005F1C80754D1627849460A2000F0B3FDAD
:102610000FF20C710A2000F0AEFD6078401C607073
:10262000202105F1580000F0FBFB202105F1880076
:1026300000F0F6FB8021384600F0F2FB05F178004F
:1026400000210022002300241EC006F1B80105F17C
:102650005800FDF78DFD05F1140105F17800FDF737
:1026600087FD0FF208200FF220220FF224210390A1
:1026700005F158030FF22820029005F1780001902F
:102680000FF228200090384600F021FD3A460FF264
:102690002821082000F06FFD0FF22820FDF748FDEB
:1026A000404605B0BDE8F04344F6206101F079B83A
:1026B0000FF28C610A2000F05EFD9CA0FDF738FD52
:1026C0002A460FF21461384600F001FD3846FDF746
:1026D0002FFD4CF2503105F5B47001F062F80FF2A5
:1026E00080610A2000F047FD05F5CC7411212046D9
:1026F00003F0E2FB05462B4622460FF274610A20E6
:1027000000F060FD2946204605B0BDE8F04300F02A
:1027100002BF05F5BC70874227D106F168007063DF
:1027200000210920307405F5CC7406F1680001F031
:102730007EF805F128010020487003200FF238616F
:1027400000F019FD1E21204603F0B6FB05462B467E
:1027500022460FF238610A2000F034FD2946204657
:1027600005B0BDE8F04300F0D6BE05F5B470874271
:1027700028D10FF220610A2000F0FDFC6BA0FDF7CC
:10278000D7FC05F1C80705F114020FF24C51384689
:1027900000F09DFC3846FDF7CBFC05F5CC7411210B
:1027A000204603F089FB05462B4622460FF2C05116
:1027B0000A2000F007FD2946204605B0BDE8F04399
:1027C00000F0A9BEFEF7C2BE3007002053544152AC
:1027D000542053454E4420677072730A0000000075
:1027E000545844410000000041542B434950534584
:1027F0004E44000073696D5F636F6E6E6563745F56
:1028000074696D65203D2025640A000073696D3987
:1028100030305F6576656E745F73656E645F6461AA
:1028200074615F776169740A0000000053454E448B
:10283000204F4B0A0000000073696D393030612071
:102840007265636F6E6E65637420616769616E0A9D
:10285000000000002B434D47530000002D3E6770E1
:10286000000000002D3E314100000000353364318E
:102870003735316637303662373037653632613555
:102880003862363600000000303839313638000002
:1028900025732573257325732573257300000000A8
:1028A00030303038414130430000000031313030A9
:1028B00030443931363800007761726E736D733D84
:1028C00025730A0041542B434D47533D32370000D6
:1028D00010B5044608461146228822B140F6C413BA
:1028E0009A4204D006E040F6C410FFF7F1BBFFF7B0
:1028F000F7FBF8E7FFF7EFBB10B5D04CE17E0029FE
:1029000004F5CC720146104604D103F004FB30B943
:10291000012003E003F0FFFA08B10020E07604F1A3
:10292000980001F0B4F8012010BD000041544800A7
:102930002DE9F043044691B02088C54E894620B168
:1029400040F6412188423FD0D9E0BC4F00F06AFFF9
:10295000387000F067FF307000F064FF787000F0AE
:1029600061FFF87000F05EFFB87000F05BFF387137
:1029700000F058FFB87200F055FFF87200F052FFF7
:10298000387300F04FFF787300F04CFFB87300F01D
:1029900049FF787100F046FFB87100F043FF3872CC
:1029A00000F040FFF87100F03DFFF87300F03AFFCF
:1029B00078720A200FF2EC3100F0DDFB04E0C82150
:1029C00006F5AA6000F0EDFE9C4F07F5CC7003F011
:1029D000B7FAB9F1880F804671D106F5AA6000F008
:1029E000F2FE00286BD0D6F84C250FF2D031994D6D
:1029F0000C2000F0C0FB40F25451284600F010FAC1
:102A0000D6F84C252A60311D281D01F07DF8D6F836
:102A10004C350FF2C431321D0A2000F0D3FBD6F83A
:102A20004C15002000E0401CC0B2884203DA821935
:102A300012797E2AF7D13978786B2A1D01F008F8CF
:102A40000FF29C31301D01F039F8D0B168464021B9
:102A500000F0E6F90FF2102276A1684600F037FB8D
:102A6000684600F047FB03466A460FF2F411032064
:102A700000F0A8FB684600F03DFB0146684600F008
:102A800037FD0FF2F011301D01F018F878B16AA18E
:102A9000301D01F013F8B837C11C0B22384601F085
:102AA00023F83A460FF24431082000F064FB4FF45B
:102AB000A961301D00F0B4F90020C6F84C0518F1EA
:102AC000010F06D140F64120208011B00120BDE861
:102AD000F083D6F84C0520B95FFA88F10D297FF410
:102AE00073AF8119401C81F80480B0F5A96FC6F856
:102AF0004C05FFF664AF0020C6F84C0564E70020E3
:102B0000208011B00320BDE8F08310B5524C4FF483
:102B10005871204600F084F92246BDE810404FF479
:102B200058730021042001F09ABE10B5434C802256
:102B300004F5D07104F5CC7003F0E6F9434800F0D9
:102B400047FC002104F1380000F071FE002104F17F
:102B5000980000F06CFE002104F1780000F067FEA0
:102B600004F18800BDE81040002100F060BE30B5DF
:102B700083B0022001F068FE304D324C2A8D0021D6
:102B8000019100910346992115E000000CED00E051
:102B90000400FA0530B583B0022001F055FE2F493C
:102BA000264D0A88274C00919200921C92B2019205
:102BB00003462A8D0321201D01F0C0FE2978686B91
:102BC000221D03B0BDE8304000F042BF80B50420B4
:102BD00001F03AFEBDE8005002464FF458730FF280
:102BE0002421002000F0EEBA30B50FF2202183B08E
:102BF0001CC9684669461CC0104C04F508750C22B7
:102C0000284600F071FF0C22694604F50D7000F0B3
:102C10006BFF28232A460FF200210A2000F0D2FA87
:102C2000A17A2A4604F1780000F012FF03B030BD0B
:102C300064B2002025730A002B3836000C0B0020EC
:102C40005C16002070810020E0220200F9280108B3
:102C5000687100201C7C0020BCA10020041800200A
:102C60002D3E636D0000000041542B435343413F10
:102C70000000000043534341000000004D302D3E52
:102C800000000000736D7332312D2D2D2D2D2D2D53
:102C90002D2D2D2D2D2D2D2D2D2D2D2D2D2D2D2D64
:102CA0002D2D0A007374617274312070686F6E6527
:102CB0000A000000706F6E6F31313131312D2D2DD2
:102CC0002D2D2D2D2D2D2D2D2D2D2D2D2D2D2D2D34
:102CD0002D2D2D2D2D2D0A0041544425733B000030
:102CE0004D312D3E000000005544502053454E44C8
:102CF0002054494D45204F55540A000065745F73B8
:102D0000656E64206F75740A00000000756250687B
:102D10006F6E65496E646578203D2025640A000069
:102D2000736D7332322D2D2D2D2D2D2D2D2D2D2DFD
:102D30002D2D2D2D2D2D2D2D2D2D2D2D2D2D0A0013
:102D4000706F6E6F312D2D2D2D2D2D2D2D2D2D2DA7
:102D50002D2D2D2D2D2D2D2D2D2D2D2D2D2D0A00F3
:102D60007374617274322070686F6E650A000000BF
:102D70004D322D3E0000000065745F6261636B5F41
:102D8000756470206F75740A000000004D332D3E8D
:102D90000000000073746172742070686F6E6520AB
:102DA000320A000073696D393030615F726573708B
:102DB0005F70726F636573730D0A000072656365FF
:102DC0006976652066696E697368207072743D204B
:102DD00025640D0A000000003C2D67700000000013
:102DE000534D53205265616479000000736D734345
:102DF000656E74657250686F6E65203D2025730A9C
:102E000000000000666E6F64000000003138383248
:102E1000303130393236350070686F6E6500000031
:102E2000002203F0A5B8F0B401684468836809186B
:102E300001EB5402E40748BF4B440C3091422BD0C5
:102E400011F8014B14F0030504BF11F8015BED1CF0
:102E500026090F2E07D111F8016B0F3603E011F888
:102E6000017B03F8017B6D1EF9D1002EE6D0A4088A
:102E700011F8015B04F00304032C08BF11F8014BA7
:102E800005EB04241C1BB51CD8D014F8016B03F807
:102E9000016B6D1EF9D1D1E7F0BC704710B5044647
:102EA0000A2C04BF0D20FFF7F9FFDFF84402416848
:102EB00021B1491C416001F8014D10BD01680800B5
:102EC00003D02046BDE81040084710BD2DE9F0476B
:102ED0008AB080468946DFF8186204E059F8040B8E
:102EE000C0B2FFF7DBFF18F8010B002800F0E58007
:102EF0002528F6D118F8010B0021302808BF012140
:102F000002D02D2802D1022118F8010B4FF0000A3F
:102F100007E00AEB8A0200EB4200A0F1300A18F841
:102F2000010BA0F130020A2AF3D36C2812BF4C28FF
:102F300041F0040118F8010B002800F0BE8004469F
:102F4000612CA4BFA4F12002D4B2422C41D0432C66
:102F5000C4D0442C43D04F2C3FD0532C04D0552CFC
:102F60003DD0582C3DD0BCE759F8044B00252046F5
:102F700000E06D1C10F8012B002AFAD1880705D556
:102F800014E0316808001CBF202088472846451CF3
:102F900050450BD270680028F3D0202100F8011BA7
:102FA0007060F3E714F8010BFFF778FF2078002832
:102FB000F8D1554597D270686D1C20B1202100F8DA
:102FC000011B7060F5E731680800F2D020208847C7
:102FD000EFE7022259F8043B05E00822FAE70A224B
:102FE000F8E71022F6E7442C04D1002B44BF5B42E3
:102FF00041F0080100270DF1000CB3FBF2FE02FBCB
:103000001E34E4B273460A2C07DB78280CBF4FF05D
:10301000270E4FF0070E7444E4B204F1300E0CF8A2
:1030200001EB7F1C0BB1202FE7D3080703D500AAC3
:103030002D20B8547F1C3D46C8074CBF30242024A7
:10304000880712D57F1E00A83C5C0A2C04BF0D2007
:10305000FFF724FF7068C0B100F8014B706019E001
:10306000316808001CBF204688472846451C50454B
:10307000E8D20A2C04BF0D20FFF710FF706800286B
:10308000EED000F8014B7060EFE7316808001CBF1C
:1030900020468847002FD5D15545BFF424AF70682E
:1030A0006D1C20B1202100F8011B7060F4E731682D
:1030B0000800F1D020208847EEE70AB0BDE8F0878D
:1030C0000EB400B501A9FFF701FF5DF810FB0CB4C9
:1030D00010B5074C0A46606002A91046FFF7F6FEDD
:1030E000616800200870606010BC5DF80CFB000097
:1030F00054B4002000F10103810704D010F8011B33
:1031000089B18107FAD10268B2F10131914311F01E
:10311000803F04BF50F8042FF6E710F8011B11B1EF
:1031200010F8011BFBE7C01A7047000010B4002321
:103130001446621E2CB110F8013B11F8014B1B1B09
:10314000F6D010BC1846704770B504460D4614F80A
:10315000010B02F026FFC6B215F8010B02F021FFA9
:10316000C0B2864203D1002E18BF0028EFD1301A1A
:1031700070BD774870470CB4F8B505467548744F74
:10318000066838780C46E9B288420DD3142816D068
:1031900076B170680FF2C011FFF7D6FF20B17168E9
:1031A0000FF2C010FFF78CFF3878EDB2A84206D3BB
:1031B0003878142803D006A92046FFF787FEF1BC13
:1031C0005DF80CFB2DE9F24F05466248604C07683C
:1031D000207816469846A84211DB142800F0A580F6
:1031E0006FB178680FF27011FFF7AEFF38B17968F0
:1031F0000FF27010FFF764FF4FA0FFF761FF207818
:10320000A842C0F29280142800F08F80009828B164
:10321000014642460FF25410FFF752FF0027B8F163
:10322000010F44DBB14645A599F800100FF2481094
:10323000FFF746FFF81007EB10700011A7EB001026
:103240000F282FD13EA0FFF73BFF27F00F04A74226
:103250001BDB04EB060A9AF800B0ABF120005F28F4
:1032600009D3584602F0A9FE28B9584602F0AFFE2D
:1032700008B92E2101E09AF800102846FFF720FF38
:10328000641C0AF1010AA742E5DA2BA0FFF718FF38
:10329000009838B1781C404504DA2AA10FF2E0000A
:1032A000FFF70EFF7F1C09F101094745BCDBF81051
:1032B00007EB10700011B7EB001030D03C4622A590
:1032C00003E02846FFF7FCFE641CE01004EB1070DE
:1032D0000011B4EB0010F4D119A0FFF7F1FE27F0B4
:1032E0000F00B84218DA86193F1A14A53478A4F1F1
:1032F00020005F2809D3204602F05FFE28B920464F
:1033000002F065FE08B92E2100E031782846FFF76B
:10331000D7FE761C7F1EE9D107A0FFF7D1FEB8F1DA
:10332000000F04BF04A0FFF7CBFE0020BDE8F28F22
:10333000014606A0FFF7C4BE0D0A00002563000089
:10334000203B000000000000202020002E2564000B
:103350001B1E0020B0B300204576656E7420746992
:103360006D657200252D3230737C0000252D35737C
:10337000252D34643A00000020253032580000002A
:10338000252D39733A0000006B4801686B480288AC
:10339000930602D50A0006D017E0110703D54FF6B1
:1033A000F771018080887047654801686548028828
:1033B000930603D582880A0006D006E0110703D5DC
:1033C0004FF6F7710180808870478088C0B2084747
:1033D0005D49086070475E49086070475C48016855
:1033E0005C480288930602D50A0006D0EDE7110773
:1033F00003D54FF6F7710180808870475248016805
:1034000055480288930602D50A0006D0DDE7110769
:1034100003D54FF6F7710180808870474B480168EB
:103420004E480288930602D50A0006D0CDE7110760
:1034300003D54FF6F771018080887047411E05293A
:1034400000D3704710B53B4901EB800184B051F8BF
:10345000044C012803D14FF46120009019E00428A6
:1034600003D14FF4E130009013E04FF416510228DD
:1034700000910ED100200190ADF80800ADF80C00CD
:103480000C20ADF80A0000200FF2D401FFF773FE04
:1034900008E000200190ADF80800ADF80C000C2009
:1034A000ADF80A00204602F09DFD00A9204602F07A
:1034B000DDFD012240F22551204602F037FE0121B8
:1034C000204602F029FE04B010BD1B490860704779
:1034D00051B1204A0378B2F800C05FEA0C6CFAD50B
:1034E000401C9380491EF5D1002070471A490DE019
:1034F00051B1194A0378B2F800C05FEA0C6CFAD5F2
:10350000401C9380491EF5D1002070470A8812069E
:10351000FCD58880704751B1104A0378B2F800C0DA
:103520005FEA0C6CFAD5401C9380491EF5D100204F
:1035300070470000181C0020C4B40020003801406F
:10354000C8B4002000440040CCB40020D0B4002017
:10355000D4B4002000480040004C0040005000401F
:10356000554152543220696E69740A002DE9F041C8
:10357000CC78002204F00F03E40644BF8C78234388
:103580000C88E5B225B3D0F800C001250F2605FA56
:1035900002F7BE460EEA0408F04514D14FEA820E47
:1035A00006FA0EF82CEA080C03FA0EFE4EEA0C0C92
:1035B00091F803E0BEF1280F08BF476103D0BEF1C8
:1035C000480F08BF0761521C082AE0D3C0F800C0AA
:1035D000FF2C28DDD0F804C0002201250F2602F1BF
:1035E000080705FA07F7BE460EEA0408F04515D1AC
:1035F0004FEA820E06FA0EF82CEA080C03FA0EFEC9
:103600004EEA0C0C91F803E0BEF1280F08BF4761A9
:1036100091F803E0BEF1480F08BF0761521C082A69
:10362000DDD3C0F804C0BDE8F0810161704741619D
:1036300070470AB1016170474161704770B4164A22
:1036400000284CBF9469146800F44016C0F3034589
:1036500083B2B6F5401F06D1156825F0706524F0D9
:10366000706415600CE0C60203D5032606FA05F562
:1036700003E0450D2D0103FA05F5AC4344F07064F9
:1036800021B1410D090103FA01F10C4300284CBF9F
:103690009461146070BC70470400014038B55E4C02
:1036A000206890B102F08AFD21680A684B689A1878
:1036B000121A06E00B684D68EB181B1A934238BFCC
:1036C0001A4689680029F5D11018606031BDF8B537
:1036D0000446208810B1592806D03FE04E490860C2
:1036E000592020800120F2BD87294B4E04D0822929
:1036F000F6D115E0A86830603568002DF0D0E86894
:103700009042F7D0A8680028EAD0C168914212BF61
:1037100005468068A860F5E70020A860FFF7BEFFB7
:103720000027356805E006F1080000F0B0F92F46E3
:10373000AD68002DD4D0284602F065FD0028F6D0F3
:10374000E8682A46882100F083F90028EBD1E86078
:10375000002FA86814BFB8603060DDE7002020802B
:103760000320F2BD2D4800F092B938B504462A4D29
:1037700005F1080000F08BF92868E16849B10146BD
:1037800000E0896829B1A142FBD125480068E060CA
:1037900004E023490968E160A0602C60BDE8314085
:1037A0007CE710B5044602F01FFD03E010B50446A7
:1037B00002F01EFD2046BDE81040D6E710B50446D5
:1037C00002F01BFDF6E7C06808B901207047002031
:1037D00070471148006800B1012070470E48016829
:1037E00009B9002070474068704710B504460A4880
:1037F00001688C4203D18968016006E0014631B15D
:103800008868A042FAD1A0688860FFF747FF0020CF
:10381000A060E06010BD0000180700202007002015
:10382000B0B30020A0490878421C0A70704738B530
:103830009D4CA268134600E01B68834218BF002B12
:10384000FAD183420BD00260A06001228273002271
:1038500082810A46E568812100F04FF8E56031BDBC
:103860002DE9F041904DEE68AF680446884602E0CD
:10387000002F40D03F68A742FAD1002F3BD0A07B59
:1038800058B30020A073AF6804E039463846FFF70C
:10389000E7FF3F68B7B1BC42FBD0B87BC007F8D5A3
:1038A000BB681800F5D0EF600220B873224687216C
:1038B00007F10C009847022818BF0328E5D0012023
:1038C000B873E6E7A368180018BF444505D0EC605C
:1038D0000022832104F10C009847AF68BC4203D159
:1038E0003868A86006E0074627B13868A042FAD1D8
:1038F00020683860EE60BDE8F08138B504460D46BA
:10390000A07BC00715D5A368180012D06648C46014
:103910000220A07304F10C00984702281CBF032862
:10392000832D04D121462046BDE8344098E701208C
:10393000A07331BD5C49C96892E75B488A21017078
:103940000021817041708160C160704738B5564C6C
:103950000020E070A56804E029462846FFF780FFB4
:103960002D68C5B1E87B0028FAD00120A87300209B
:10397000E873AB681800F3D0E5600220A87300225A
:10398000822105F10C009847022818BF0328E3D0D4
:103990000120A873E4E731BD70B5434CE07808B16D
:1039A000FFF7D4FF6378002B4ED0A5783F4A05EB94
:1039B000450080006D1C815C217180182E114268C9
:1039C000226105EBD66680687611A5EB46155B1E75
:1039D000A570637090BBA06806E0226921796069D8
:1039E000FFF78BFF606900686061606960B3E07831
:1039F0000028F2D00020E070A56804E0294628469F
:103A0000FFF72EFF2D68002DE7D0E87B0028F9D0C6
:103A10000120A8730020E873AB681800F2D0E560BD
:103A20000220A8730022822105F10C009847022889
:103A300018BF0328E2D00120A873E3E7812904BF5F
:103A400001238373FFF759FF6078E178081870BD90
:103A500070B4154B5C78202C08BF01200ED09D78E7
:103A6000651905F01F0505EB4506B5000F4EA95574
:103A7000A9194A608860601C5870002070BC7047AB
:103A800038B5094CE568FFF738FFE56031BD48B14E
:103A9000817B012918BF022904D10121C1730120B2
:103AA0000149C87070470000A4B300201CA5002085
:103AB000817B481E8041C043C00F704770B50C46E3
:103AC000257835B970BD11F8013F1678B34206D09C
:103AD000401C294602F0ACFB28B10146224612F8F0
:103AE000013F002BEFD170BD62B38B0708D0521E8F
:103AF00011F8013B00F8013B00F024808B07F6D160
:103B0000830740F0208000BF103A07D330B4B1E8FB
:103B10003810103AA0E83810F9D230BC530724BF4F
:103B2000B1E80810A0E8081044BF51F8043B40F881
:103B3000043BD20724BF31F8022B20F8022B44BFEC
:103B40000B7803707047083A07D3B1E80810083AB9
:103B500040F8043B40F804CBF7D25307E4E70000F9
:103B6000DFF8F81A08737047DFF8F40A704770B589
:103B700082B015460FF62831DFF8E86A0A20FFF711
:103B8000FAFA089C069A0FF62C3100942B460A206C
:103B9000FFF7F1FA079D23462A4635A10A20FFF7D1
:103BA00011FB346022462946301DDFF8B04AFFF78A
:103BB0009BFF2178324604F29C50FFF749FF022018
:103BC000207302F005FB206173BD704770B5044699
:103BD00082B0208810B1BC281BD01EE0DFF87C5AD0
:103BE0000FF65C4005F2AC56314602F032FBDFF8CE
:103BF000781A05F2BC5002F075FBDFF8700A0090ED
:103C000041F2D71332464FF4FA6105F5AD6002F088
:103C1000DCFCBC202080012076BD00202080032019
:103C200076BD30B5044683B00D46042000F00CFE8E
:103C3000022000F009FEC4B9002101910091034661
:103C4000DFF8184A2A46062104F1180000F076FE33
:103C500001280ADB606104F11402A17804F29C508F
:103C600003B0BDE83040FFF7F3BE03B030BD000045
:103C70003C2D77002DE9F04F074685B00D461446E0
:103C80001E46042000F0E0FDE878297940EA01288A
:103C90006879A97940EA0129A87899280DD1444585
:103CA00040F072823046FFF7A0FDDFF8C409007BC8
:103CB0005FFA88F1FFF7B5FF66E2032838D10220EA
:103CC00000F0C2FDDFF8AC4904F1AC068246307B5F
:103CD00008B90120307304F1C80B4FF458715846ED
:103CE000FFF79EF8B9F1050F11DB05F10B00018814
:103CF00069B1B1838A00811C04F1CA00FFF7F4FEA8
:103D00004FF458735A460021042000F0A8FD00200B
:103D100001900090534642469921381D00F00EFE56
:103D20000128C0F2318238603A46DFF8304926E295
:103D300005283ED105F10B07444504BF3046FFF787
:103D400054FDDFF8304904F5966628213046FFF728
:103D500067F8A9F104002828C0F21682282205F18C
:103D60000B013046FFF7C0FEDFF8F008007B0228A9
:103D700040F00A823046FDF74BF997F82820002AD8
:103D800000F00282D52A80F2FF8107F12901601C30
:103D9000FFF7AAFE607B0019817B8DF800100F30C1
:103DA00001F0A4F86A460FF638110C20FFF7E3F98A
:103DB000EAE10E2851D1444504BF3046FFF715FD16
:103DC0000FF63811DFF8AC480C20FFF7D4F90422C5
:103DD000E91D01A8FFF788FE042205F10B016846E2
:103DE000FFF782FE04F1BC01084605F10F0208232B
:103DF00015782D0905EB850675000570167806F017
:103E00000F06A6F10A07052F10D8DFE807F0030513
:103E100007090B0D0A350AE00B3508E00C3506E002
:103E20000D3504E00E3502E00F3500E07519521C27
:103E30005B1E00F8015BDBD104F59B64204601F0BA
:103E400086FD222322460FF6CC010920FFF7BAF99E
:103E500022212046FFF73CFB96E10F2823D1444561
:103E600004BF3046FFF7C1FC0FF6B001DFF804488D
:103E70000C20FFF780F90422E91D02A8FFF734FEA9
:103E8000042205F10B0101A8FFF72EFEE87B00904C
:103E900004F58566C52301AA02A9304601F0B5FDE7
:103EA0001B233246D6E00A2831D1444504BF3046B0
:103EB000FFF79BFC0FF66401DFF8B8470C20FFF713
:103EC0005AF90422E91D02A8FFF70EFE042205F1AB
:103ED0000B0101A8FFF708FEE87B009004F585665A
:103EE000C22301AA02A9304601F08FFD1B213046F2
:103EF000FFF7EEFA0FF61C041B23324621460C2076
:103F0000FFF760F91B23324621460220A5E0122864
:103F10002DD1444504BF3046FFF767FC0FF61C0166
:103F2000DFF850470C20FFF726F904F18006122035
:103F300030700422E91D04F18100FFF7D5FD042251
:103F400005F10B0104F18500FFF7CEFDC42070726E
:103F5000082205F10F0104F18A00FFF7C5FD1220C8
:103F600004F2444400903346C422DD2168E0142862
:103F700038D1444504BF3046FFF737FC0FF2E071FB
:103F8000DFF8F0460C20FFF7F6F804F180060E206B
:103F900030750422E91D04F19500FFF7A5FD042208
:103FA00005F10B0104F19900FFF79EFDC620707723
:103FB0000C2205F10F0104F19E00FFF795FD16207C
:103FC000009004F58D6504F19403C622FF21284674
:103FD00001F024FE0446E1B22846FFF779FAE3B285
:103FE0002A4637E018283BD1444504BF3046FFF746
:103FF000FCFB0FF28871DFF87C460C20FFF7BBF862
:1040000004F1AC060A2030700422E91D04F1AD0071
:10401000FFF76AFD042205F10B0104F1B100FFF77F
:1040200063FDC820707204F1B60105F10F0004F5BC
:10403000926402780A700B2000903346C822FF2158
:10404000204601F0EBFD0546E9B22046FFF740FAB5
:10405000EBB222460FF2BC610C20FFF7B3F893E0FD
:10406000102826D1042000F0EFFB444504BF304661
:10407000FFF7BBFB0FF21C71DFF8E0450C20FFF7E8
:104080007AF8872000F069FFDFF8EC15097800293D
:1040900004F2C4501ABF4FF4FA62514341F288311E
:1040A000FFF77FFB00220421DFF8D005FFF7C1FAFC
:1040B0006AE0112823D1444504BF3046FFF795FB41
:1040C0000FF2E861DFF8B845DFF8B8750C20FFF7AC
:1040D00052F8E87A207000260AE005EB860000F12D
:1040E0000C01042207EB8600FFF7FEFC761CF6B2FB
:1040F00020788642F1DB862000F02FFF44E0D028B4
:1041000042D1444504BF3046FFF76FFB0422E91D4E
:1041100003A8FFF7E9FC042205F10B0102A8FFF751
:10412000E3FCE87BDFF84C45009004F585668723C7
:1041300002AA03A9304601F068FC1B213046FFF7B4
:10414000C7F91B2332460FF2CC510C20FFF73AF887
:1041500004F1AC06DFF80445308B421C04200190CA
:10416000328302A8009003AB92B2D12104F118006F
:1041700000F0E4FB012807DB606104F11402A17880
:1041800004F29C50FFF764FC05B0BDE8F08FF0B579
:10419000DFF8C84485B00E46217888421FD1002E32
:1041A00042D0DFF8E45400202870301D00F05EFC9F
:1041B00098B133680FF21461321D0720FFF702F83F
:1041C000AA8805F6CC03311D04F11400FFF752FD57
:1041D000207B02281CBF0220207305B0F0BDA1780F
:1041E000884221D106B33268012AF6DBDFF8985401
:1041F00005F55B77311D384600F0F2FB064682B2CA
:10420000394604F5AD6002F0D1F942F2107105F6BD
:10421000CC00FFF7C6FA33463A460FF2B8510720F2
:10422000FEF7D0FF05B0F0BD6178884208BF002ED0
:104230000CD147F23051DFF85404FFF7B2FA0FF215
:104240009C510C20FEF797FF05B0F0BDE178884245
:1042500049D1002E7CD0022000F0F6FA074602A8D1
:104260000021002206C0DFF8205405F6DC00B04231
:1042700003D032783146FFF737FC0422711C02A8C4
:10428000FFF732FC707A8DF80C003B466888421CC0
:10429000052001906A8002A8009092B2022104F1E8
:1042A000180000F04BFB01280FDB606104F11402E1
:1042B0006888A88004F29C50A178FFF7C9FB42F2FD
:1042C000107105F6CC00FFF76CFA00220221DFF82E
:1042D000C003FFF7AEF900222021DFF8A003FFF7AB
:1042E000A8F905B0F0BD2179884231D1002E4BD01C
:1042F000022000F0A9FA074633780FF2EC41721C55
:104300000720FEF75FFFDFF880536888421C6A8051
:104310003B463078019092B2701C0090042104F169
:10432000180000F00BFB0128FFF657AF606104F1A5
:1043300014026888A88004F29C50A178FFF788FBDB
:1043400042F2107105F6CC00FFF72BFA05B0F0BD74
:10435000617A884218D196B3022000F075FA0646B9
:10436000CC4F0FF2844107233A460720FEF72AFF7D
:10437000C54D6888421C062001906A80781C3978F7
:104380000090334692B2CAE76179884217D18EB362
:10439000022000F059FA074633780FF24C41721CA4
:1043A0000720FEF70FFFB84D6888421C6A803B4625
:1043B0003078019092B2701C00900D21AFE7E17946
:1043C000884217D196B3022000F03EFA07463378B0
:1043D0000FF21441721C0720FEF7F4FEAA4D688804
:1043E000421C6A803B463078019092B2701C00906B
:1043F0000C2194E7A179884218D1002E4CD00220DC
:1044000000F022FA074633780FF2DC31721C0720E5
:10441000FEF7D8FE9C4D6888421C6A803B46307887
:10442000019092B2701C00900B2178E7217A8842AB
:1044300017D18EB3022000F007FA074633780FF247
:10444000A831721C0720FEF7BDFE8F4D6888421C04
:104450006A803B463078019092B2701C0090132124
:104460005DE7A17A884217D1B6B1022000F0ECF9DD
:10447000074633780FF27031721C0720FEF7A2FE58
:10448000814D6888421C6A803B463078019092B228
:10449000701C0090152142E788287FF49EAE7A4D6B
:1044A00005F6BC07BE4232D1022000F0CDF9064627
:1044B00005F10800FDF7B4F86A88288930B180005A
:1044C000801C80B2019005F1080000E0019000908E
:1044D0003346012104F1180000F030FA012812DB04
:1044E000606104F114026888A88004F29C50A178ED
:1044F000FFF7AEFA42F2107105F6CC00FFF751F962
:104500006888401C688047F2305138461CE705F641
:10451000CC0086422DD10FF2D8210C20FEF72BFEC5
:104520002878022820DB207B02281BD10FF2D4211F
:104530000A20FEF720FE00202073002204214F48AD
:10454000FFF777F8012080F31388BFF34F8F5248AD
:10455000524A016801F4E06111430160BFF34F8FDB
:1045600000BFFDE7002028702878401C287005B0A7
:10457000F0BD04F2C450FFF726F900283FF42DAE39
:10458000002204213D48FFF754F8012080F31388EE
:10459000BFF34F8F4048414A016801F4E061114385
:1045A0000160BFF34F8F00BFFDE738B504460846F2
:1045B0001146228822B140F245339A422CD02EE097
:1045C000264DFFF72FF92870FFF72CF96870FFF7D9
:1045D00029F9A870FFF726F9E870FFF723F9287189
:1045E000FFF720F96871FFF71DF9A871FFF71AF9B5
:1045F000E871FFF717F92872FFF714F96872FFF7EF
:1046000011F9A8720C200FF22421FEF7B4FD40F23C
:1046100045302080012032BDFFF7B9FDF7E70020CB
:104620002080032032BD38B502F062F802F0D2F9E2
:1046300002F0F0F9094C002104F28C50FFF7F7F872
:1046400004F29C5500212846FFF7F1F861782846CE
:10465000BDE838400022FFF7FBB900004000002011
:104660004C000020C8760020CB3B01086F3B0108BE
:10467000C491002018910020B8A100200010014032
:10468000E4AB0020E8AB0020C83A002084430020BF
:10469000000C0140300700200CED00E00400FA059A
:1046A0004461746120726563656976656420667231
:1046B0006F6D2000206F6E20706F72742025642053
:1046C00066726F6D20706F72742025642077697434
:1046D00068206C656E6774682025643A200A0000C3
:1046E000736F756E645F6C696768745F6D61635F3B
:1046F0006E756D3A307825580A00000047505253C5
:104700005F465F434D445F41534B5F54494D455FA6
:1047100041434B0072662D3E00000000475052534B
:104720005F465F434D445F454C45435452494341C6
:104730004C5F434F4E54524F4C0A00004750525367
:104740005F465F434D445F454C455F5345545F545E
:1047500048524553484F4C445F56414C0A000000B4
:10476000475052535F465F434D445F574154455253
:104770005F5345545F56414C0A0000004750525366
:104780005F465F434D445F57415445525F43414349
:1047900048450A00475052535F465F434D445F48C7
:1047A0004F53545F52455345540A000047505253EB
:1047B0005F465F434D445F534F554E444C49474815
:1047C000545F52455345540A000000003C2D697067
:1047D0000000000049502D3E00000000495048658F
:1047E0006172740A000000005452414E0000000043
:1047F00049502041434B2054494D45204F55540AC0
:10480000000000002D2D2D2D2D2D2D2D2D2D2D2D8C
:104810002D2D2D2D2D2D2D2D2D2D2D2D2D2D2D2DC8
:104820002D736574206D6F64650A000069705F64A4
:104830006174615F70726F636573730A00000000DA
:104840008B9FDC8A2F48704738B1072805DA2E493C
:10485000401EC0B251F820007047002070472DE97B
:10486000F041040082B0154647D0072C45DA2648AF
:10487000244E264F00930B4650F824200FF290014F
:104880000920FEF778FC40F27E3842463946304631
:1048900002F062FC012C03D1B81C29460C2214E062
:1048A000022C04D107F10E00294608220DE0032C4A
:1048B00004D107F116002946082206E0042C06D18F
:1048C00007F11E0029464FF45872FFF70DF94346D1
:1048D0003A460FF258010920FEF774FCE0223946EF
:1048E000304602F0F9FB434632460FF248010920F8
:1048F000FEF768FC0020BDE8F6814FF0FF30BDE810
:10490000F681000000500308B0060020C4430020D8
:1049100053543A3078253038582B30782530345875
:104920005B737A2025645D0D0A000000664E464FD9
:1049300000000000464E464F00000000F8B50D464E
:1049400004461946002614B94FF0FF30F2BD7E2010
:104950002070E2700E206070A570100A20716671E0
:10496000A6710422E01DFFF7BFF8069900291CBFBD
:10497000079A002A03D105206071A67110E0501D2E
:104980006071101D0012A0710B2D18BF0C2D02D1EB
:104990006079401E6071164604F10B00FFF7A4F821
:1049A000012D06F10B0705D10C4909783019761C49
:1049B000C1727F1C791E89B2601C02F0EBFBB6B29B
:1049C0003219010AD172761CB6B23119C872711C43
:1049D00089B209197F20C872F81CF2BDD4B3002037
:1049E00058B50024C2B10B78661C1A2B03D1EF23F3
:1049F0002354EA2308E0EF2B08BF235404D01B2BD9
:104A000005D1EF232354EB233354741C01E02354CA
:104A10003446491C521EE6D10FF2EC010620FEF787
:104A2000AAFB204652BDF0B400230024551E02E02C
:104A30002654641C5B1CAB4211DA5E5CEF2EF7D18E
:104A40005F187F78EA2F08D0EF2F02D0EB2FEFD13D
:104A50001B262654641C5B1CECE71A26F9E7511848
:104A600011F8011C2154601CF0BC7047F8B504001B
:104A700031D020787E281CBF60780E282BD1607939
:104A8000A17940EA012000F10A06B6B232460FF2DF
:104A900084010C203719FEF76EFBFD1E287869781B
:104AA00041EA0025311F89B2601C02F073FB044605
:104AB00023462A460FF26C010C20FEF75CFBA54250
:104AC00009D17D1E0FF278012A780C20FEF753FBE6
:104AD00028787F2801D00020F2BD0120F2BD10B45B
:104AE0000022002310B910BC70475B1C8B4207DA10
:104AF0001C5C7E2C02BF1C1864780E2CF5D11A1891
:104B000010BC104670470000434F444520305831D8
:104B1000410A000055574C454E203D202530347841
:104B20000A000000757743524346203D202530346B
:104B300078207577435243203D20253034780A0091
:104B4000656E6466203D20253032780A0000000042
:104B5000F8B504461646208810B14B2812D030E034
:104B6000384F381D02F033FC054604E0A968281DC3
:104B7000FEF717FE2D68002DF8D1012038704B206C
:104B8000208001E0882901D00120F2BD2D4F381D81
:104B900002F01DFC054600E02D68002DEFD0281D19
:104BA000B042F9D12946381D02F03DFC264E686915
:104BB00037683060A96908001CBFE869884737601A
:104BC000DDE7002020800320F2BD10B51D4C002041
:104BD0002070201D02F0F8FB04F10800BDE8104031
:104BE0000021FEF724BEF8B5174D164E044628687E
:104BF0006061A261E361307840B12F6806F108007E
:104C00002860201DFEF7CDFD2F6000E0A160214649
:104C1000301D01E02146281DBDE8F44002F0D9BB5B
:104C200038B5084D0446287818B1201DFEF7DDFD83
:104C300001E0E06020612146281DBDE8344002F01B
:104C4000F2BB000098060020B0B30020F8B50400C5
:104C50000D46164604F10D0702D14FF0FF30F2BDAC
:104C60007E202070BB2116206070A172FF20A070F2
:104C7000E07020716071A071E07120726072E0726A
:104C800025730A203870FF220421781C02F0F6FBFD
:104C900004223146781DFEF727FF7D72601C617883
:104CA00002F078FAB8722246000AF8720D203873C2
:104CB0000FF2A0316078051D2B460920FEF782FA1D
:104CC0002846F2BDF8B505460420FFF7BDFD29468C
:104CD000872918BF892923D1B0F82223002A00F0A0
:104CE000B880102A80F2B580D44C04F14006737865
:104CF000934202D30022727002E00F2B80F2A38055
:104D0000727800EB820000F54972892908BF88217A
:104D10002046FFF79BFF0128C0F29580C1B28FE0CB
:104D200088292ED1C6480078002800F092801028EB
:104D300080F28F80C14C04F140067378834202D325
:104D40000020707001E00F2B7DDA7778BD4D0FF2F7
:104D5000F031042205EB870002F0C4FB002872D07A
:104D600004EB87000421443000F0A2FF707805EBCB
:104D7000800288212046FFF769FF012863DBC1B26A
:104D80005EE086295FD1AD4C04F140063078002802
:104D90005FD010285DDA7378834202D300207070F0
:104DA00001E00F2B4FDA75780FF2943104EB850098
:104DB0000422443002F096FB002844D0A14804218C
:104DC00000EB850000F074FF707804EB800000F1C8
:104DD00044057E202070BB2116206070A172FF2048
:104DE000A070E07020716071A071E071207260723B
:104DF000E072FF228720207304210A20607304F1EF
:104E00000E0002F03BFB0422294604F11200FEF7DB
:104E10006BFE8720A075601C617802F0BBF9E0751D
:104E20002246000A20760D2060760FF22821607855
:104E3000051D2B460920FEF7C5F9012D03DBE9B25C
:104E40002046FEF745FB7D4C04F140067078401C7F
:104E50007070F1BD70B505460420FFF7F5FC0446FF
:104E6000B4F822030F2840DA208800283DD000261D
:104E700000E0761CB4F82213F0B288420BD2F6B2EE
:104E800004EB860000F5497104222846FEF74EF92E
:104E90000028EED170BD6C4E304621464FF458725A
:104EA000FEF722FEB6F8220306EB80000422294614
:104EB00000F54970FEF718FEB6F822030FF29C11B8
:104EC000401CA6F8220306F549720004830B082053
:104ED000FEF778F94FF45873324600210420FFF7AB
:104EE000BEFCB4F8220386F8600370BD2DE9F045DE
:104EF0000546534883B00C0004701ED00F2C1CDAFA
:104F0000DFF840810FF2681A00274646042229463E
:104F10003046FEF7E9FDE87801905146A878009008
:104F20000C206B7815F8042BFEF725F97F1C361D35
:104F3000A742EBDB08EB840501E00024414D0FF2B2
:104F4000FC16042231462846FEF7CEFD641C2D1DBA
:104F50000F2CF6DB03B0BDE8F0853C4B19791872D5
:104F600003F1080203F11000FEF772BD38B50446E4
:104F7000208810B1EF280DD058E0FEF753FC3349DC
:104F800008710C200FF29011FEF7F5F8EF20208049
:104F9000012032BD2D4D2879814227D132B31078BE
:104FA0000FF2EC01286002460820FEF7E4F82878AA
:104FB000882808BF0FF2FC010BD0872818BF86286D
:104FC00005D00FF220110820FEF7D5F820E00FF2EF
:104FD000FC010820FEF7CFF840F22B20E86046F2F3
:104FE0008F1105F13000FEF7DCFB11E088290FD1AD
:104FF00005F1200082420BD005F13000824207D13A
:105000000FF2F8010820FEF7B6F847F23050E860DA
:1050100005F12000E968FEF7C4FB287888281CBF4A
:1050200087288628B2D1FFF74DFEAFE70020208009
:10503000032032BD00210648FEF7F9BBA4AB0020D7
:10504000BBA10020D4AE0020589E0020000000200C
:105050001000002072662D3E000000004164645381
:105060006F756E644C696768745461626C650000AA
:10507000736F756E645F6C696768745F6D61633AC6
:1050800025582025582025582025580A00000000C2
:10509000736F756E64206C696768742073746174D3
:1050A00065206368616E676520746F202530325813
:1050B0000D0A0000534F554E445F4C494748545F1A
:1050C00053544154455F4F4E0D0A0000534F554E07
:1050D000445F4C494748545F53544154455F4F46E1
:1050E000460D0A00534F554E445F4C494748545FA4
:1050F00053544154455F4552520D0A00534F554E8B
:10510000445F4C494748545F53544154455F4E4FA8
:105110004D414C0D0A000000736F756E645F6C6941
:105120006768745F6D73675F68616E646C65725FFA
:1051300070726F636573730A000000000000000066
:105140000000000010B5040084B011D001F040F858
:10515000039004220020009004F10E0101208DF83C
:1051600004000DF10500FEF7BFFC684600F0C1FD2C
:1051700004B010BD70B50420FFF766FB0088F8B1DD
:1051800000F09AFD11E005EB8600811C0422601DF1
:10519000FDF7CCFF30B1761C28888642F3DB204631
:1051A00000F0DFFD204600F08AFD040008D0042056
:1051B000FFF74AFB0546002628880028ECD1F1E7D6
:1051C00000F0DFFD0FF66C110A20FDF7D4FFBDE8FB
:1051D00070400023DFF8C828DFF8C80842F21071D9
:1051E000FFF701BDF8B505462A4668780FF6541159
:1051F000031D092005F10D04FDF7E4FF607ACB28BB
:1052000026D10FF648110C20FDF7B5FF2846FFF711
:1052100099FFA87ABB2804BF601CFFF71BFEDFF8CC
:105220008858E87A022840F05A81DFF8800801782F
:10523000DFF87C082A46FEF70BFCDFF878080178D7
:10524000DFF874082A46FEF703FC0020E872F1BD7F
:10525000C12818BFCA2819D10FF600110C20FDF77C
:105260008AFF2846FFF76EFF607ACA2804BF8820AD
:10527000FFF773FEDFF844080178DFF834082246B0
:10528000FEF7E6FB2246DFF83808AFE0EE282CD127
:10529000E078DD281CBF2079DD2800F020810FF6A2
:1052A000C801DFF820780C20FDF765FF20780FF6A5
:1052B000C80107F1A006821F3270D2B26078707008
:1052C000A078B070E078F070207930710C20FDF794
:1052D00052FFDFF8F4070178DFF8D4073246FEF713
:1052E000B7FB3246DFF8E40780E0C2281CD1DFF8C4
:1052F000D477207807F18005801F28702A466078CF
:105300006870A078A870E078E87020792871A07A99
:105310006871DFF8BC070178DFF89407FEF798FBA7
:105320002A46DFF8B00761E0C3281ED1DFF8947782
:10533000207807F18005801F287260786872A07855
:10534000A872E078E87220792873A07A687307F170
:105350008804DFF884070178DFF854072246FEF757
:1053600077FB2246DFF8740740E0C4281ED1DFF83F
:105370005477207807F18005801F2874607868745E
:10538000A078A874E078E87420792875A07A687508
:1053900007F19004DFF848070178DFF81407224688
:1053A000FEF756FB2246DFF83C071FE0C72824D152
:1053B000DFF81077207807F18005801F2876607865
:1053C0006876A078A876E078E87620792877A07AC1
:1053D000687707F19804DFF810070178DFF8D00646
:1053E0002246FEF735FB2246DFF800070178DFF89A
:1053F000C806BDE8F840FEF72BBBCC286FD120785B
:105400000B286CDB2846FFF79DFE2078DFF8B4768A
:10541000DFF894560A38387004F10A01401D78709C
:1054200007F1A006CC20B8706078F870A0783871C9
:10543000E07878712079B8713878821D3A70F81D5B
:10544000D2B2FEF751FB0422611C05F1100002F0FC
:1054500049F840B10422611C05F11000FEF744FB3D
:105460000120307201E0307A90B1DFF884060178D3
:10547000DFF83C063A46FEF7EBFADFF878060178EB
:10548000DFF834063A46FEF7E3FA00203072F1BD49
:10549000A07C06281EBFA17E0729082817D0DFF8A8
:1054A00050060178DFF808063A46FEF7D1FADFF831
:1054B00044060178DFF800063A46FEF7C9FAE87AB2
:1054C00002280CD14FF4FA7105F1740003E041F2A7
:1054D000883105F16400BDE8F440FEF762B9F1BD22
:1054E00010B50446104622881AB1B2F5B67F05D031
:1054F0000EE04FF4B6702080012010BDDFF8A82523
:10550000127A9142F5D10028F3D0FFF76BFEF0E755
:1055100000202080032010BD2DE9F04780468946F9
:10552000B8F8000028B140F20A21884200F02F812B
:1055300066E10FF25C610C20FDF71DFEFEF772F9CB
:10554000DFF864150872DFF86065DFF8AC7506F106
:10555000840000F0F5FCB9F1880F054607F18004DE
:1055600020D107F18800FEF72EF938B10FF234612F
:105570000820FDF700FE00206060387007F1A80ADF
:105580005046FEF720F968B100220421DFF86C05CF
:10559000FEF74FF80FF214610C20FDF7ECFD5046BA
:1055A000FEF704F915F1010F16D1207838B9DFF8AC
:1055B000501507F1A800FEF7F4F801202070012231
:1055C0000421DFF83805FEF734F840F20A20A8F885
:1055D00000000120BDE8F0876068812880F2D48057
:1055E000C555401C6060012804BF38787E2810D162
:1055F000002020700C200FF2C451FDF7BCFD4FF4C9
:10560000FA7107F18800FEF7CCF807F1A800FEF761
:10561000CDF838787E2840F0B78060681028C0F256
:10562000B680F97897F80DA03879FF2908BFFF28D0
:105630000DD0B071A02232707171FF20F8703871F6
:105640000120F0720C200FF27C51FDF794FD797867
:10565000781C01F09FFD0AEB0701897BB1EB202F3D
:1056600001BF0AEB0701497BC0B2814240F08F8045
:105670000D2D01BF7878001D6168884240F0878059
:105680000420FFF7E1F879787B7BA1F10C029A42C4
:1056900076D1008868B30B1D3A460FF280410A208C
:1056A000FDF790FD042307F10E020FF278410A2066
:1056B000FDF788FD0420FFF7C7F805464FF0000A04
:1056C000288810B90EE00AF1010A2888824557DAC5
:1056D00005EB8A00811C042207F10E00FDF726FD70
:1056E0000028F0D1042305220FF240410A20FDF7E3
:1056F00069FD00224021DFF80C04FDF79AFF4FF40A
:105700007A7107F19800FEF74CF8F07A60B1042244
:1057100007F10E01701CFEF7E7F90220F0720C2071
:105720000FF2B841FDF727FD96F9090096F90A1026
:10573000884221D07878DFF8D033051D96F90A0029
:10574000EDB22A46394603EBC010FEF7CDF996F9C3
:105750000A00401C811000EB5171C910A0EBC10080
:10576000B072294696F9090010F1010F04BF00201C
:1057700070723846FDF754FB06F15400FEF787F9C6
:1057800007F18800FEF731F8002060603870B9F149
:10579000880F7FF4D8AEDD48FEF715F820B101225E
:1057A0004021D848FDF745FFBF4E06F16400FEF7E3
:1057B0000AF838B106F16400FEF717F806F1100098
:1057C0000021016006F17400FDF7FDFF00283FF4A1
:1057D000BAAE06F17400FEF708F8F07A02287FF4FA
:1057E000B2AEB2480178B2483246FEF731F9B1485C
:1057F0000178B1483246FEF72BF90020F072A2E69C
:105800000020A8F800000320BDE8F087F8B50446A2
:10581000208820B140F2A922904209D055E00FF231
:10582000D4310C20FDF7A7FC40F2A920208001E034
:10583000822901D00120F2BD9B4D95F9090010F19C
:10584000010F38D095F90900AF4F07EBC010407831
:10585000061DF6B2812EA8BF00260FDA95F90900C1
:1058600007EBC011324605F58670FEF73DF995F954
:105870000900314607EBC01000F01AFA95F909004B
:10588000401C811000EB5171C910A0EBC10068727F
:1058900095F9090095F90A10884204D14FF0FF30BC
:1058A00068720020A87236B105F58672297A05F172
:1058B0004400FEF7CDF895F9090010F1010FB3D0BF
:1058C00005F15400FEF7E3F8AEE700202080032046
:1058D000F2BD10B5744C217B002904F1840201460D
:1058E000104604D100F017FB30B9012003E000F0AE
:1058F00012FB08B10020207304F13400FEF7C7F852
:10590000012010BD10B5684C802204F18C0104F117
:10591000840000F0F9FA002104F13400FDF787FF5C
:105920007B48FDF758FD00235D4A47F2305104F1F2
:105930001400FFF758F9002104F14400FDF777FF48
:1059400004F15400BDE810400021FDF770BF30B5F0
:1059500083B0044608226846FEF7C6F89DF800109A
:105960009DF801306B4D642202FB013189B28DF844
:1059700001100A0A8DF800207E212C60204600F1DB
:105980000D0401701E214170DD218170291D0A78EE
:1059900000F8032F4A784270A81D2968027801F8A0
:1059A000052F42784A7005F108002968027801F84D
:1059B000072F42784A70FF21286841728172C172B4
:1059C0000422EE2101731220207005F10C01601CED
:1059D000FEF78AF8042205F11001601DFEF784F835
:1059E000EE2060720822694604F10A00FEF77CF896
:1059F00028681E21401C01F0CDFB80B2E074010A32
:105A00000D20A174207503B030BDF8B5424E306052
:105A10001D460FF2FC13144602467E20107002F160
:105A20000D0717205070FF20907093F800C002F807
:105A300003CF5B7853700FF2DC12336892F800C02A
:105A400003F805CF52785A700FF2CC12336892F8EF
:105A500000C003F807CF52785A70326850729072C3
:105A6000D07215730B2038700422781CFEF73CF8B6
:105A700004222146781DFEF737F806A87D7207F14B
:105A80000A0102780A7017213068401C01F082FB7D
:105A900080B23873010A0D207873F972F1BD0000ED
:105AA0007551010844070020300700201B0B00201F
:105AB000840B002049000020DC050020100B002092
:105AC0004300002018AD0020110B002045000020ED
:105AD000120B002046000020140B0020470000207D
