:020000040801F1
:10000000202200203D150208B9110208C311020880
:10001000CD110208D7110208E1110208000000000A
:10002000000000000000000000000000EB110208CA
:10003000F111020800000000F7110208996101089F
:10004000891502088D1502089115020895150208F8
:10005000991502089D1502081D0F02084D0F020890
:10006000A1150208A5150208A9150208AD15020878
:10007000B1150208B5150208B9150208BD15020828
:10008000C11502082D110208C5150208C91502087C
:10009000CD150208D1150208D5150208D915020898
:1000A000DD150208E1150208E5150208E915020848
:1000B000A5F40108ED150208F1150208F51502086E
:1000C000F9150208FD1502080116020805160208B6
:1000D00009160208A9330108C9330108FD330108D4
:1000E0000D16020811160208151602081916020844
:1000F0001D160208211602082516020829160208F4
:100100002D160208311602083516020839160208A3
:100110001D3401083D3401083D160208411602084D
:1001200045160208491602084D1602085116020823
:1001300010B590B004466846402102F085FE224684
:100140006CA1684602F0D4FF684602F0E3FF034664
:100150006A46DFF8E419032003F044F8684602F029
:10016000D9FF0146684603F0D3F9002010B010BD56
:1001700038B504460D46284602F0CCFF00210A2877
:100180001EDB01EBD1725210B1EB420205D14A19CC
:100190000B1952780A554A5D5A70491C8142F0DBAE
:1001A0000219462102F8011C2246411911F8011CCE
:1001B00001550820BDE838400FF2080102F0EBBFFE
:1001C00031BD0000534D533D25730A0070B5044600
:1001D000208830B140F20911401A1BD0401F3CD09A
:1001E0006DE00121DFF8800C03F036FA0FF2D80140
:1001F000032002F0D0FF01220221DFF8400903F0C2
:1002000026FA41F28831DFF8380903F0D8FA40F2D3
:10021000091020E0DFF81C59A835284603F0E1FA60
:1002200010B3DFF8186900220221304603F00FFAFC
:1002300000222021DFF8340C03F009FA00224FF4E9
:100240000041304603F003FA41F28831284603F0BA
:10025000B6FA4FF48770208006E0DFF8D85805F131
:10026000A80003F0BEFA08B9012070BD0FF26C06B9
:1002700031460C2002F08FFF002105F1480003F009
:10028000E4FA05F1580003F063FB05F1680003F0A0
:100290005FFB01222021DFF8D40B03F0D8F9012203
:1002A0004FF40041DFF8940803F0D1F931460C20F7
:1002B00002F071FF0021DFF8B00B03F0CDF9002050
:1002C0002080032070BD000073696D393030615F9C
:1002D000686172645F696E69740D0A0073696D39D3
:1002E0003030615F686172645F696E6974320D0AF3
:1002F0000000000025730A002DE9F04704460F4670
:100300002088DFF83058164660B14FF4E471401A87
:100310001FD0153857D0113800F08A80153800F0FA
:10032000CA8006E105F1480068630020E8750FF215
:10033000142102F030FF0020E87580A0FFF7F8FEDE
:1003400041F2883105F1D80003F039FA4FF4E47036
:10035000AFE005F1D808404603F043FA18B9287811
:10036000874240F0B1802878874215D1A6B174A1A8
:10037000304603F0B1FB0746404603F044FA3046EE
:1003800002F0C8FE034632466CA1032002F02AFFA9
:1003900017B10020287407E00120A875E87D401CF3
:1003A000E875C0B20528C8DB0020E8750FF2AC1074
:1003B000FFF7BEFE41F2883105F1D80003F0FFF9E6
:1003C00040F2DD1075E005F1D808404603F009FA67
:1003D00010B92878874277D12878874213D196B10F
:1003E00057A1304603F078FB0746404603F00BFA6E
:1003F000304602F08FFE034632460FF260110320B2
:1004000002F0F0FE2FB9E87D401CE875C0B2052867
:10041000CCDB0020E8750FF24C10FFF789FE41F2AB
:10042000883105F1D80003F0CAF94FF4F77040E0C5
:1004300005F1D808404603F0D4F910B9287887426E
:1004400042D12878874220D1FEB13DA1304603F049
:1004500043FB07460FF218194946304603F03CFBB0
:100460008246404603F0CFF9304602F053FE034681
:1004700032464946032002F0B5FE002F18BFBAF1FC
:10048000000F02D00120287405E0E87D401CE875CB
:10049000C0B20528BFDB0020E8750FF2DC00FFF7D3
:1004A00047FE41F2883105F1D80003F088F940F2A7
:1004B0000320208008E005F1D808404603F091F9B8
:1004C00028B92878874202D00120BDE8F087287833
:1004D00087421DD1E6B11AA1304603F0FDFA074666
:1004E0000FF2A0094946304603F0F6FA824640462C
:1004F00003F089F9304602F00DFE034632464946C4
:10050000032002F06FFE002F18BFBAF1000F05D1D3
:10051000E87D401CE875C0B20528BEDB01202874C8
:10052000002105F1580003F090F905F1480003F0AF
:100530000FFA002020800320BDE8F087415400001E
:100540004F4B000073696D393030615F63686563DC
:100550006B5F70726F636573730D0A0041544530B1
:100560000000000041542B4350494E3F0000000062
:100570004350494E0000000041542B434F50533F1D
:1005800000000000434F5053000000002DE9F043ED
:10059000044687B02088DFF89C650F46154608B3EF
:1005A00040F27221401A2ED0113862D0173800F074
:1005B0009980153800F0D080123800F0F58033387B
:1005C00000F06781143800F09F81153800F0D28167
:1005D000143800F00582143800F037823B3800F000
:1005E0006B82A0E2307606F158007063DFF8080AEB
:1005F000FFF79EFD41F2883106F1E80003F0DFF8D5
:1006000040F2722056E206F1E808404603F0E9F8AD
:1006100018B93078874240F058823078874213D139
:1006200095B1B7A1284603F057FA0746404603F0B4
:10063000EAF8284602F06EFD03462A460FF630011E
:10064000032002F0CFFD2FB9307E401C3076C0B2BF
:100650000528CBDB00203076DFF8A009FFF768FD26
:1006600041F2883106F1E80003F0A9F840F2832056
:1006700020E206F1E808404603F0B3F818B93078F4
:10068000874240F022823078874216D1ADB19CA1DA
:10069000284603F021FA0746404603F0B4F82846FE
:1006A00002F038FD03462A460FF2CC71032002F017
:1006B00099FD17B10320307405E0307E401C307680
:1006C000C0B20528C8DB002030760FF27840FFF773
:1006D0002FFD41F2883106F1E80003F070F840F296
:1006E0009A20E7E106F1E808404603F07AF800288E
:1006F00000F0EB81307887421CD1DDB181A1284622
:1007000003F0EAF907467EA1284603F0E5F98146A1
:10071000404603F078F8284602F0FCFC03462A46DF
:100720000FF23C41032002F05DFDB9F1000F18BF4C
:10073000002F05D1307E401C3076C0B20528C4DBC6
:100740000FF20C40FFF7F4FC41F28831404603F011
:1007500036F840F2AF20ADE106F1E808404603F07C
:1007600040F8002800F0B181307887420DD165B1A2
:10077000404603F048F8284602F0CCFC03462A46DF
:100780000FF2DC31032002F02DFD002030760FF255
:10079000C830FFF7CDFC42F2107106F1E80003F01B
:1007A0000EF840F2C12085E106F1E808404603F06A
:1007B00018F818B93078874240F08781307887423E
:1007C00052D1002D50D0DFF83818284603F084F9B4
:1007D0000746404603F017F8284602F09BFC034604
:1007E0002A460FF27C31032002F0FCFC002F3BD1A3
:1007F00016222946684603F085F9022030760DF16D
:1008000002000278A2F130030A2B09D2337E06EBF4
:100810006301DB0758BF120111D5CB7E303A0DE0E2
:10082000A2F1610106290BD2337E06EB6301DB07DF
:1008300002D4573A120102E0CB7E573AD218CA7658
:10084000337E591C3176401CC9B21629D9DB06F11A
:100850001C0002F05FFC034606F11C020FF2083197
:10086000032002F0BFFC05E0307E401C3076C0B2B1
:1008700005288CDB002030760FF2F420FFF758FCBF
:1008800041F2883106F1E80002F099FF4FF43D7023
:1008900010E106F1E808404602F0A3FF18B93078ED
:1008A000874240F012813078874213D195B114A16C
:1008B000284603F011F90746404602F0A4FF2846F7
:1008C00002F028FC03462A460FF2B421032002F06E
:1008D00089FC2FB9307E401C3076C0B20528CBDBB6
:1008E000002030760FF2A020FFF722FC44F62061B2
:1008F00006F1E80002F063FF4FF44270DAE000BF57
:100900004F4B00003100000006F1E808404602F0BD
:1009100068FF18B93078874240F0D7803078874236
:1009200013D195B182A1284603F0D6F80746404678
:1009300002F069FF284602F0EDFB03462A460FF25B
:100940005421032002F04EFC2FB9307E401C30763B
:10095000C0B20528C6DB002030760FF24020FFF73A
:10096000E7FB41F2883106F1E80002F028FF40F28F
:100970001D309FE006F1E808404602F032FF18B94A
:100980003078874240F0A1803078874213D195B10A
:1009900067A1284603F0A0F80746404602F033FF5F
:1009A000284602F0B7FB03462A460FF2FC1103204B
:1009B00002F018FC2FB9307E401C3076C0B20528FA
:1009C000CBDB002030760FF2E810FFF7B1FB41F2ED
:1009D000883106F1E80002F0F2FE40F2313069E0C1
:1009E00006F1E808404602F0FCFE10B93078874274
:1009F0006BD13078874213D195B14DA1284603F0D1
:100A00006BF80746404602F0FEFE284602F082FBE5
:100A100003462A460FF2A811032002F0E3FB2FB988
:100A2000307E401C3076C0B20528CCDB002030760A
:100A30000FF29410FFF77CFB41F2883106F1E800D9
:100A400002F0BDFE40F2453034E006F1E8084046D1
:100A500002F0C7FE10B93078874236D1307887422D
:100A600014D19DB132A1284603F036F80746284636
:100A700002F050FB03462A460FF25811032002F001
:100A8000B1FB1FB1404602F0BEFE05E0307E401CC7
:100A90003076C0B20528CBDB00203076DFF8C40CFE
:100AA000FFF746FB41F2883106F1E80002F087FECD
:100AB0004FF46070208008E006F1E808404602F03C
:100AC00090FE30B93078874203D0012007B0BDE8EE
:100AD000F0833078874217D1B5B1DFF88C7C394686
:100AE000284602F0F9FF8146284602F013FB034630
:100AF0002A463946032002F075FBB9F1000F03D0F6
:100B0000404602F080FE05E0307E401C3076C0B2E8
:100B10000528C3DB002106F1680002F096FE06F10D
:100B2000580002F015FF0020208007B001F0FEBF42
:100B30004F4B00000C0B0020882C010800080140DE
:100B4000B40B002041542B43474154543F00000054
:100B500041542B435351000041542B43434944001B
:100B60004C415353000000004943434944000000F6
:100B700041542B435354543D22434D4E455422007F
:100B8000434744430000000041542B43494943522A
:100B900000000000434741540000000041542B4333
:100BA00049465352000000004353475000000000E4
:100BB00041542B434950484541443D310000000019
:100BC000504845414400000041542B434D47463DA9
:100BD00030000000434D4746000000002DE9F84377
:100BE00004460F462088DFF8846B154660B140F25A
:100BF000C731401A1DD0113850D0163800F0868009
:100C0000343800F0C7802AE106F1680070630020E4
:100C10007076DFF8E403FFF78BFA41F2883106F1D2
:100C2000F80002F0CCFD40F2C73020800120BDE882
:100C3000F28306F1F808404602F0D3FD10B930788F
:100C40008742F3D13078874213D195B1B5A12846B8
:100C500002F042FF0746404602F0D5FD284602F06A
:100C600059FA03462A460FF20821032002F0BAFA85
:100C70002FB9707E401C7076C0B20528C9DB0020F9
:100C80007076DFF87803FFF753FA41F2883106F106
:100C9000F80002F094FD4FF47670C6E706F1F8080C
:100CA000404602F09EFD10B930788742BED13078C0
:100CB000874216D1ADB19BA1284602F00DFF074631
:100CC000404602F0A0FD284602F024FA03462A46D8
:100CD0000FF2A411032002F085FA17B1032030743B
:100CE00005E0707E401C7076C0B20528C9DB00208C
:100CF0007076DFF8700AFFF71BFA41F2883106F1CF
:100D0000F80002F05CFD40F2EE308EE706F1F808E4
:100D1000404602F066FD10B93078874286D13078BF
:100D2000874217D1B5B1DFF8407A3946284602F03C
:100D3000D3FE8146284602F0EDF903462A4639469D
:100D4000032002F04FFAB9F1000F03D0404602F041
:100D50005AFD05E0707E401C7076C0B20528C8DBE5
:100D60000FF21C10326B0FF220130FF22C110090B7
:100D700006F58475284602F0BBF92846FFF7D8F936
:100D80000020B07642F21071404602F018FD40F2A9
:100D900022404AE7882F04BF06F1F808454522D1D2
:100DA00006F58470FFF7C4F942F21071404602F074
:100DB00006FDB07E0A2812D10020B076002106F18F
:100DC000380002F042FD06F13800706306F1680059
:100DD00002F0BEFD0FF2DC01032002F0DCF9B07E70
:100DE000401CB076D3E730788742E2D1002DE0D0C6
:100DF0000FF2D401284602F06FFE0028D9D00A2055
:100E0000307402F0BFFE007838B9012002F0B6FE5F
:100E10000FF2C0010A2002F0BEF90120707406F141
:100E20007800706306F1F80002F0EDFCF178002222
:100E300006F1780002F01AFE284602F06BF903462C
:100E40002A460FF2B401032002F0CCF90FF2B001F0
:100E50000C2002F0A0F906F1680002F079FD0020F4
:100E600020800320BDE8F28300043000000C014024
:100E70004C4F5345000000005348555400000000FB
:100E8000343536370000000034372E3130362E34FA
:100E9000382E31353700000041542B43495053540C
:100EA0004152543D222573222C222573222C2225C7
:100EB00073220000636F6E6E656374206661696CF7
:100EC00065640D0A00000000434F4E4E4543542018
:100ED0004F4B00002D2D2D2D2D2D2D2D2D2D2D2D5C
:100EE0002D2D2D2D2D2D2D2D2D2D2D4E4554534594
:100EF000544D4F44450A000049505354000000002F
:100F000073696D393030615F7463707564705F63ED
:100F10006F6E5F70726F6365737320657869740DAF
:100F20000A0000004F4B000030B583B044880578BC
:100F3000042003F097FC022003F094FC0346F5B96B
:100F4000002001900090E2B2DFF828580621281D09
:100F500003F002FD0128024611DB2860291DDFF89D
:100F60001848201D03F04AFD20602246DFF8FC07E8
:100F70004178883002F07AFD2B682A1D01E003B029
:100F800030BD03B0BDE830400FF20801072002F089
:100F900029B9000053594E43000000007CB5048875
:100FA000DFF8D057022003F05DFC034600200190DB
:100FB000009022469921281D03F0CEFC012819DB60
:100FC000DFF8A847217C0A2914D1286008200FF2F5
:100FD0003401DFF8A46702F0DEF82A68291D301D0D
:100FE00003F00CFD30603246617804F1880002B0F5
:100FF00001F06AB873BD0000A8200108B8200108FC
:10100000881E01085320594E432041434B0D0A00CE
:10101000002110F8012B0AB10120704710F8012BB4
:10102000002A04BF10F8012B002A04BF10F8012B7E
:10103000002AF1D1091D2829EBD3002070470000B8
:101040002DE9F043054685B00C461746042003F011
:1010500009FCE8782979DFF8148740EA01266879E5
:10106000A97940EA0129002088F81300A878992876
:101070001CD1334622460FF20051082002F08BF8B3
:10108000B44240F07582384602F0BDFBDFF8EC4612
:10109000DFF8EC2604F5967004F5B273007B187047
:1010A0005E804FF47A7104F25C5038E0032839D145
:1010B0000220DFF8C84603F0D5FB04F59677387BAD
:1010C00008B901203873002088F8120004F5BA77B7
:1010D0004FF45871384601F0B7FEB9F1050F13DB34
:1010E00005F10B00018879B104F5B2738A00198209
:1010F000811C04F5BB7002F005FD4FF458733A46AD
:101100000021042003F0B9FB04F5B27004F5B873B4
:1011100086814FF47A71DFF8582D04F27C5003F089
:1011200070FD25E205284DD105F10B08B44204BF3E
:10113000384602F068FBDFF8444604F59E76282125
:10114000304601F081FEA9F104002828C0F2108287
:10115000282205F10B01304602F0D4FC002016F8DD
:10116000011B59B916F8011B41B916F8011B29B921
:1011700016F8011B11B9001D2828F0D398F8282073
:10118000002A00F0F581D52A80F2F28108F12901C8
:10119000601C02F0B7FC627B0FF2FC3104F596771D
:1011A0000C20BA7301F0F7FFB87B0019817B7973CB
:1011B0000F3003F0A9FE7A7B0FF2F4310C2001F01E
:1011C000EAFFD5E10E284ED1B44204BF384602F002
:1011D0001AFB0FF2F831DFF8A4450C2001F0DBFF19
:1011E0000422E91D01A802F08DFC042205F10B0187
:1011F000684602F087FC04F5B471084605F10F0259
:10120000082315782D0905EB8506750005701678FD
:1012100006F00F06A6F10A07052F10D8DFE807F041
:10122000030507090B0D0A350AE00B3508E00C35FC
:1012300006E00D3504E00E3502E00F3500E07519CB
:10124000521C5B1E00F8015BDBD104F29C5420466B
:1012500004F08BFB222322460FF2E031092001F03B
:10126000C1FF222138E00F2817D1B44204BF38460D
:1012700002F0C9FA0422E91D02A802F043FC04228C
:1012800005F10B0101A802F03DFCE87BDFF8EC441E
:10129000009004F2D444C52318E00A2820D1B442B7
:1012A00004BF384602F0AFFA0422E91D02A802F09A
:1012B00029FC042205F10B0101A802F023FCE87BC4
:1012C000DFF8B844009004F2D444C22301AA02A972
:1012D000204604F0A8FB1B21204602F009F947E153
:1012E00012282DD1B44204BF384602F08CFA0FF216
:1012F000F421DFF888440C2001F04DFF04F58076DE
:10130000122030700422E91D04F2011002F0FAFBF1
:10131000042205F10B0104F2051002F0F3FBC420D6
:101320007072082205F10F0104F5857002F0EAFBE6
:10133000122004F59E6400903346C422DD217BE038
:10134000142838D1B44204BF384602F05CFA0FF2D8
:10135000B821DFF828440C2001F01DFF04F5807649
:101360000E2030750422E91D04F2151002F0CAFBAC
:10137000042205F10B0104F2191002F0C3FBC62090
:1013800070770C2205F10F0104F58F7002F0BAFBA3
:101390001620009004F2145504F58A73C622FF212A
:1013A000284604F049FC0446E1B2284602F0A0F8C1
:1013B000E3B22A464AE0DD2811D1B44204BF3846E0
:1013C00002F021FA0FF240210C2001F0E4FEDFF8D8
:1013D000681C4FF00060086004F078FCC8E0182832
:1013E0003AD1B44204BF384602F00DFA0FF234216C
:1013F000E24C0C2001F0CFFE04F596770A203870FD
:101400000422E91D04F22D1002F07CFB042205F1F8
:101410000B0104F2311002F075FBC820787204F55C
:101420009B7105F10F0004F23C5402780A700B2006
:1014300000903B46C822FF21204604F0FDFB0546F4
:10144000E9B2204602F054F8EBB222460FF2EC115A
:101450000C2001F0C7FE8BE010281FD1042003F000
:1014600001FAB44204BF384602F0CDF9872003F0F8
:1014700082FDDFF8C81B0978002908F5C4701ABF7F
:101480004FF4FA62514341F2883102F098F9002298
:101490000421DFF8AC0B02F0DAF869E011281ED164
:1014A000B44204BF384602F0AEF9DFF8984BE87A50
:1014B000DFF8947B207000260AE005EB860000F13F
:1014C0000C01042207EB860002F01CFB761CF6B22E
:1014D00020788642F1DB862003F04DFD48E0D028DD
:1014E00046D1B44204BF384602F08DF90422E91D0A
:1014F00003A802F007FB042205F10B0102A802F089
:1015000001FBE87B9D4C009004F2D444872302AA9F
:1015100003A9204604F087FA1B21204601F0E8FFCA
:101520001B2322460FF21411924C0C2001F05AFE9C
:1015300004200190721C02A8009003AB92B2D1214A
:10154000201D03F009FA012812DB98F810200A2A5E
:101550000ED120600246884D211D281D03F04EFA51
:1015600028602A4698F8011008F1880002F07EFAF7
:1015700005B0BDE8F0830000757753656E64536570
:1015800071203D20253034782020757753657120F7
:101590003D20253034780A006572725F61646472A0
:1015A0006573735F6E756D3A307825580A000000D8
:1015B000736F756E645F6C696768745F6D61635F9C
:1015C0006E756D3A307825580A0000004750525326
:1015D0005F465F434D445F41534B5F54494D455F08
:1015E00041434B00475052535F465F434D445F4574
:1015F0004C455F5345545F5448524553484F4C4403
:101600005F56414C0A000000475052535F465F430B
:101610004D445F57415445525F5345545F56414CCA
:101620000A000000475052535F465F434D445F57E6
:10163000415445525F43414348450A0072662D3E7E
:10164000000000002DE9F0470446042003F00AF9E9
:1016500000270546B84624B14FF45871204604F0DF
:1016600049FB2888002851D004F048FB06460FF2B9
:10167000A0090FF2A40A18E0307990B904EB8700B2
:10168000801C0422711D02F03DFA7F1C3A4651462F
:101690000A2001F080FD0423721D49460A2001F052
:1016A000A1FD304604F02DFB0646002EE4D128882B
:1016B00080452ADA05EB880604F020FB06F10209D2
:1016C00009E0042249460AF1050001F03FFDC8B1D6
:1016D000504604F016FB5FEA000AF2D104EB8700E3
:1016E000801C0422B11C02F00DFA7F1C3A460FF256
:1016F00034010A2001F04FFD0423B21C1CA10A2072
:1017000001F070FD08F10108D1E72780BDE8F087FE
:101710004F555431000000006931203D2025640AF6
:101720000000000069203D2025640A0038B5044609
:10173000DFF81C5905F1380068630920287400207F
:10174000687402F01BFA002105F1380002F07DF800
:101750000FF23001032001F01EFD2046BDE83240AB
:1017600002F051B8902C01089C2C01080C0B0020B1
:101770004F55540070810020C4860020A86B0020C3
:10178000290F010873696D393030615F7265636FCD
:101790006E6E6563740A00002DE9F043DFF8B0480F
:1017A00085B00F462178884240F08C80002F00F0F1
:1017B00089800FF2C061384602F08EF930B1DFF84F
:1017C0009408FFF7B3FF0FF2B46128E00FF2B8619D
:1017D000384602F081F930B1DFF87808FFF7A6FF4C
:1017E0000FF2AC611BE00FF2B461384602F074F9FD
:1017F00030B1DFF86008FFF799FF0FF2AC610EE03F
:101800000FF2B461384602F067F960B183A0FEF7C9
:101810008FFCDFF84008FFF789FF0FF2A4610A2070
:1018200001F0B9FC2EE057F8041C384603F065F9C6
:10183000050027D003F028F920B36879A979DFF8EB
:10184000186840EA01200A301FFA80F840F254512B
:1018500006F5597001F0F8FA06F55A79C6F864836E
:1018600042462946484602F04DF943464A460FF2A1
:101870005C61072001F0B6FC318806F6F8024846A4
:10188000FFF7DEFB66A1384602F026F970B10FF2D1
:101890004461082001F07FFC0FF254610A68A178CE
:1018A000009204F188006A4602F0E0F85DA1384633
:1018B00002F012F928B1A1783A4604F1880002F04A
:1018C000D5F855E6E178884246D1022002F0CAFFF9
:1018D0000746DFF88467DFF88457301DFFF7B2FE54
:1018E000228DB08828B18000801C80B20190301D0C
:1018F00000E0019000903B460121281D03F02CF8E8
:1019000001281FDB217C0A291CD128602A1D208D7B
:10191000DFF84C77308044A12B68062001F062FC90
:101920002A68291D381D03F069F838603A46617845
:1019300004F1880002F09AF842F2107106F6F800FD
:1019400001F03DFFA07C401CA07447F2305106F628
:10195000E80001F034FF0BE62179884266D1002FC0
:1019600000F0A280022002F07DFF804602A8002144
:101970000022DFF8E46606C006F6C805BD420BD0BB
:101980003B780FF270513A460A2001F02BFC3A786E
:101990003946284602F0B6F80422791C02A802F063
:1019A000B1F8787ADFF8B4568DF80C004346208DF4
:1019B000421C05200190228502A8009092B20221CB
:1019C000281D02F0C9FF012819DB227C0A2A16D142
:1019D00028600246218DDFF888763180381D291D68
:1019E00003F00CF838603A46617804F1880002F0A0
:1019F0003DF842F2107106F6F80001F0E0FE002218
:101A00000221DFF8E80D01F022FE00222021DFF89C
:101A1000300601F01CFE04F051FAA9E541544800DB
:101A20000D0A3E004F4B000053524300617988423B
:101A30003AD1002F76D0022002F014FF06463B7800
:101A40000FF2B8417A1C072001F0CCFB208DDFF8A3
:101A50000C56421C228533463878019092B2781C8D
:101A600000900D21281D02F077FF0128FFF629AF15
:101A7000227C0A2A7FF425AF2860DFF8DC65218DFF
:101A8000DFF8DC7531800246291D381D02F0B6FFF3
:101A900038603A46617804F1880001F0E7FF42F2CD
:101AA000107106F6F80054E7A17B88423AD1002F66
:101AB00078D0022002F0D6FE06463B780FF23C4179
:101AC0007A1C072001F08EFB208DDFF89055421C18
:101AD000228533463878019092B2781C0090042118
:101AE000281D02F039FF0128FFF6EBAE227C0A2AFE
:101AF0007FF4E7AE2860DFF86065218DDFF8607560
:101B000031800246291D381D02F078FF38603A46C0
:101B1000617804F1880001F0A9FF42F2107106F625
:101B2000F80016E7E17B88423CD1002F78D00220F4
:101B300002F098FE0646DFF8B87C0FF2C0310723AA
:101B40003A46072001F04EFB208DDFF81055421C6D
:101B5000062001902285781C00903346397892B295
:101B6000281D02F0F9FE0128FFF6ABAE227C0A2AFE
:101B70007FF4A7AE2860DFF8E064218DDFF8E07421
:101B800031800246291D381D02F038FF38603A4680
:101B9000617804F1880001F069FF42F2107106F6E5
:101BA000F800D6E6A17988423AD1002F76D00220FB
:101BB00002F058FE06463B780FF240317A1C0720AF
:101BC00001F010FB208DDFF89454421C228533462F
:101BD0003878019092B2781C00900B21281D02F0F9
:101BE000BBFE0128FFF66DAE227C0A2A7FF469AEA7
:101BF0002860DFF86464218DDFF864743180024668
:101C0000291D381D02F0FAFE38603A46617804F169
:101C1000880001F02BFF42F2107106F6F80098E6FA
:101C2000217A88423AD1002F75D0022002F01AFEA4
:101C300006463B780FF2C4217A1C072001F0D2FA45
:101C4000208DDFF81854421C2285334638780190E5
:101C500092B2781C00900C21281D02F07DFE012814
:101C6000FFF62FAE227C0A2A7FF42BAE2860DFF825
:101C7000E863218DDFF8E87331800246291D381DA5
:101C800002F0BCFE38603A46617804F1880001F049
:101C9000EDFE42F2107106F6F8005AE6E17988424C
:101CA00039D1002F00F08C80022002F0DBFD0646C7
:101CB0003B780FF248217A1C072001F093FA208D1F
:101CC000DFF89853421C228533463878019092B24F
:101CD000781C00901321281D02F03EFE0128FFF61B
:101CE000F0AD227C0A2A7FF4ECAD2860DA4E218D1B
:101CF000DB4F31800246291D381D02F07FFE38601F
:101D00003A46617804F1880001F0B0FE42F21071A9
:101D100006F6F8001DE6617A884237D1002F4FD0D1
:101D2000022002F09FFD06463B780FF2D0117A1C8C
:101D3000072001F057FA208DC84D421C22853346FA
:101D40003878019092B2781C00901521281D02F07D
:101D500003FE0128FFF6B5AD227C0A2A7FF4B1AD5F
:101D60002860BD4E218DBE4F31800246291D381D91
:101D700002F044FE38603A46617804F1880001F0D0
:101D800075FE42F2107106F6F800E2E5A17A88428B
:101D900016D1AFB1B04E06F6E80001F034FD0920CF
:101DA000207406F6B8056563002001F0E7FE607C4C
:101DB00002281CBF00206074E17A3A4628467EE57E
:101DC00088287FF47EADA44E06F6E805AF4225D103
:101DD00001F0D8FE0646E178002204F1780001F017
:101DE00045FE208D401C2085307800287FF469ADA9
:101DF000284601F008FD0FF20C11032001F0CBF989
:101E000004F1380060630021092020740020607410
:101E100004F1380001F019FDFFF7AABB06F6F8003F
:101E2000874206D10FF2EC010C2001F0B4F9FFF764
:101E30009FBB04F5C47001F0D4FC00283FF441AD11
:101E4000002204217E4801F002FC012080F3138867
:101E5000BFF34F8FDFF85C0DDFF85C2D016801F4F4
:101E6000E06111430160BFF34F8F00BFFDE7000049
:101E70009D0F0108434C4F5345440000636C6F7342
:101E80006564207265630A004552524F520000009B
:101E90006572726F72207265630A000053454E448A
:101EA000204641494C00000073656E6420666169FC
:101EB0006C207265630A000052494E470000000022
:101EC00052494E47207265630A0000003C2D52784B
:101ED0000000000073696D393030615F63686563CD
:101EE0006B5F636D642073656E64466C61670A00A6
:101EF0000D0A3E007761726E000000005452414EA0
:101F00000000000065745F68656172742063686535
:101F1000636B0A0061636B2074696D65206F757473
:101F20000A00000010B5044608461146228822B176
:101F300040F2F6739A4203D005E040F2F670D9E021
:101F4000FFF72AFCF9E7D8E070B5414D0C46E97A75
:101F5000884228D1002C55D00FF20811DFF8F86C18
:101F60000C2001F018F92821304600F06DFF3046B2
:101F70002146282201F0C6FD282332460FF2FC013B
:101F80000C2001F02FF90FF22010FEF7D1F80FF21C
:101F90002810FEF7CDF806F12C00BDE8704041F2A4
:101FA000883101F00CBC297888422BD154B30FF250
:101FB000D401204601F090FD70B1DFF89C6C0FF267
:101FC000D001012086F828000C2001F0E4F806F189
:101FD0002C0001F018FC28E01CA1204601F07CFD3B
:101FE00010B1697B224622E00FF69001204601F0F5
:101FF00073FDF8B10FF2A8010C2001F0CCF8697B59
:10200000224614E0882802BFDFF84C6C06F12C0051
:1020100084420FD196F8280038B90FF28C00FEF7F1
:1020200087F80FF29400FEF783F8297B324605F11A
:10203000880049E070BD000008ED00E0B8A1002074
:1020400000100140E4AB0020E8AB00203E0000009F
:102050000C0B00203C160020540D00207081002045
:10206000C486002053454E4420534D5320414E44D6
:102070002050484F4E450D0A0000000050484F4E7A
:1020800000000000434C4F5345204F4B0000000020
:102090006770723120697320636C6F73650D0A007D
:1020A000534D534F4B0A000041542B434950434C6E
:1020B0004F53453D3100000041542B434950534894
:1020C00055543D3100000000BDE8704001F0CEBC29
:1020D00010B5044608461146228822B140F6350361
:1020E0009A4203D005E040F6350003E0FFF72CFFED
:1020F000F9E702E02080012010BD002020800320AD
:1021000010BD00002DE9F043DFF8586B85B00F4695
:10211000717888424AD1002F00F0C48001F032FD6E
:10212000DFF8445B0FF2CC6105F128048046A7601C
:10213000082001F030F8A0680FF2CC610368021D9E
:10214000082001F04FF898F800102078012908BF06
:10215000002814D10FF2B860FDF7EAFF41F2883190
:1021600005F5A47001F02BFB0320E07040F6B831B8
:1021700005F1380001F023FB0120207000E028B1B8
:1021800041F2883105F1480001F019FBB07D20B122
:10219000E068401CE0600020B0750820E2680FF2A3
:1021A0007C6105B0BDE8F04300F0F5BFB17888422E
:1021B00078D1002F00F0A8810FF27861082000F09C
:1021C000EAFFEAA1384601F087FCA0B3DFF8985A8D
:1021D00005F12804E07803282DD1A06858B30368DE
:1021E0000FF2A061DFF8848A021D062000F0FAFFDA
:1021F000A06850F8041B01F08BF91A2001F086F951
:10220000A0680268011D08F1040002F01AFC0346F0
:1022100008F104020FF27461062000F0E3FF0120D0
:10222000E07005F1380001F0EEFA05F1480001F028
:10223000EAFA00202070CEA1384601F04DFC0028BB
:1022400000F0D2820FF20C61DFF81C5A082000F077
:10225000A2FF05F5A47001F0D6FA05F128040020CC
:10226000A0600220E07000202071F07C642814DB64
:1022700006F138007063092030740020707401F09A
:102280007DFC002106F1380001F0DFFA0FF2D05199
:10229000032000F080FF0020F074F07C401CF074FC
:1022A000FFF766B9317B884277D1002F00F02C818F
:1022B000DFF8B459BD4204D028463946282201F03F
:1022C00021FC05F1280400206070A070202105F198
:1022D000580000F0B9FD202105F1880000F0B4FDA0
:1022E00005F1C8078021384600F0AEFD05F1780001
:1022F0000021002200238C46A0E80E1006F1B80150
:1023000005F15800FDF734FF294605F17800FDF787
:102310002FFF0FF280500FF298520FF29C51039052
:1023200005F158030FF2A050029005F178000190DA
:102330000FF2A0500090384600F0DAFE3A460FF255
:10234000A051082000F027FF0FF2A050FDF7F0FE8B
:1023500044F6206105F5AC7001F031FADFF8101990
:1023600005F5BC7001F02BFA6078401C607005F533
:10237000CC7402223321204603F0D0FD05462B46C3
:1023800022460FF620110A2000F02CFF2946204695
:1023900005B0BDE8F04301F0CEB8717B884240F053
:1023A000B380002F00F0B08070A1384601F094FB9C
:1023B00098B1DFF8B45805F1C807384600F0AAFE16
:1023C0000146384601F0A4F81A2001F09FF805F103
:1023D00028010120C870FFF7CBB80FF2A0413846A2
:1023E00001F07AFB002800F0FF81DFF87C5805F14E
:1023F000280405F5AC786078012805F1C8074FD1AD
:102400000FF6A8010A2000F0C6FE6078401C60703C
:1024100044F62061404601F0D2F9202105F1580030
:1024200000F012FD202105F1880000F00DFD802153
:10243000384600F009FD05F1780000210022002354
:1024400000241EC006F1B80105F15800FDF790FE0A
:1024500005F1140105F17800FDF78AFE0FF2344012
:102460000FF24C420FF25041039005F158030FF266
:102470005840029005F1780001900FF2584000900A
:10248000384600F035FE3A460FF25441082000F07D
:1024900082FE05B0BDE8F0430FF25040FDF748BEA4
:1024A0000FF628010A2000F076FE0FF630010A2010
:1024B00000F071FEA0780FF64801401CA0702A467B
:1024C000384600F015FE404601F09DF93846FDF70C
:1024D0002FFE4CF2503105F5B47001F070F905F59E
:1024E000CC741121204603F009FD05462B462246F7
:1024F0000FF614010A2000F075FE2946204605B0AB
:10250000BDE8F04301F017B8882840F06D81DFF88E
:10251000585705F5A47087422CD10FF2F4710820AA
:1025200000F039FE05F128042079032818DB06F1B4
:102530003800706300210920307406F1380001F082
:1025400084F901F01FFB007802281CBF002001F075
:1025500015FB0FF2D071032000F01DFE002020714A
:102560002079401C2071FFF703B800BF3E00000037
:102570004F4B000005F1480001F033F900283CD131
:1025800005F1380001F02DF990B305F12804E07849
:10259000032840F02981A068002800F02581036805
:1025A0000FF2E021DFF8C466021D062000F01AFEDB
:1025B000A06850F8041B00F0ABFF1A2000F0A6FF43
:1025C000A0680268011D301D02F03BFA0346321D6F
:1025D0000FF2B821062000F005FE0120E070002077
:1025E000207005B005F14800BDE8F04301F00BB9DB
:1025F00005F5C47001F0F5F820B1002085F8280039
:10260000FEF7B6BF05F5AC78474540F0948005F17C
:1026100028040FF22079627849460A2000F0BBFDB9
:102620006078012805F1C80754D1627849460A202C
:1026300000F0B1FD0FF210710A2000F0ACFD6078DF
:10264000401C6070202105F1580000F0FDFB2021A6
:1026500005F1880000F0F8FB8021384600F0F4FB1B
:1026600005F1780000210022002300241EC006F19D
:10267000B80105F15800FDF77BFD05F1140105F1E6
:102680007800FDF775FD0FF20C200FF224220FF2F7
:102690002821039005F158030FF22C20029005F138
:1026A000780001900FF22C200090384600F020FDB9
:1026B0003A460FF22C21082000F06DFD0FF22C207D
:1026C000FDF736FD404605B0BDE8F04344F6206115
:1026D00001F075B80FF290610A2000F05CFD9DA03A
:1026E000FDF726FD2A460FF21861384600F000FD7E
:1026F0003846FDF71DFD4CF2503105F5B47001F080
:102700005EF80FF284610A2000F045FD05F5CC74F7
:102710001121204603F0F2FB05462B4622460FF21C
:1027200078610A2000F05EFD2946204605B0BDE82C
:10273000F04300F000BF05F5BC70874227D106F1D9
:102740006800706300210920307405F5CC7406F12F
:10275000680001F07AF805F1280100204870032094
:102760000FF23C6100F017FD1E21204603F0C6FB6E
:1027700005462B4622460FF23C610A2000F032FD4E
:102780002946204605B0BDE8F04300F0D4BE05F56B
:10279000B470874228D10FF224610A2000F0FBFCBC
:1027A0006CA0FDF7C5FC05F1C80705F114020FF296
:1027B0005051384600F09CFC3846FDF7B9FC05F551
:1027C000CC741121204603F099FB05462B46224686
:1027D0000FF2C4510A2000F005FD2946204605B03D
:1027E000BDE8F04300F0A7BEFEF7C2BE000C0140FA
:1027F0003007002053544152542053454E44206723
:102800007072730A00000000545844410000000038
:1028100041542B43495053454E44000073696D5F4A
:10282000636F6E6E6563745F74696D65203D20250E
:10283000640A000073696D3930305F6576656E74C7
:102840005F73656E645F646174615F776169740A68
:102850000000000053454E44204F4B0A000000008A
:1028600073696D39303061207265636F6E6E6563B8
:102870007420616769616E0A000000002B434D47B8
:10288000530000002D3E6770000000002D3E3141D6
:102890000000000035336431373531663730366239
:1028A0003730376536326135386236360000000021
:1028B0003038393136380000257325732573257378
:1028C000257325730000000030303038414130431B
:1028D00000000000313130303044393136380000EA
:1028E0007761726E736D733D25730A0041542B43FB
:1028F0004D47533D3237000010B504460846114697
:10290000228822B140F6CF139A4204D006E040F666
:10291000CF10FFF7EFBBFFF7F5FBF8E7FFF7EDBBD5
:1029200010B5D04CE17E002904F5CC72014610466A
:1029300004D103F012FB30B9012003E003F00DFBDA
:1029400008B10020E07604F1980001F0AEF8012013
:1029500010BD0000415448002DE9F043044691B0F9
:102960002088C54E894620B140F64C2188423FD090
:10297000D9E0BC4F00F064FF387000F061FF3070A8
:1029800000F05EFF787000F05BFFF87000F058FF19
:10299000B87000F055FF387100F052FFB87200F0C7
:1029A0004FFFF87200F04CFF387300F049FF787366
:1029B00000F046FFB87300F043FF787100F040FF6D
:1029C000B87100F03DFF387200F03AFFF87100F086
:1029D00037FFF87300F034FF78720A200FF2EC3101
:1029E00000F0D9FB04E0C82106F5AA6000F0E7FE7C
:1029F0009C4F07F5CC7003F0C5FAB9F1880F8046FB
:102A000071D106F5AA6000F0ECFE00286BD0D6F874
:102A10004C250FF2D031994D0C2000F0BCFB40F258
:102A20005451284600F010FAD6F84C252A60311D82
:102A3000281D01F077F8D6F84C350FF2C431321D5D
:102A40000A2000F0CFFBD6F84C15002000E0401C17
:102A5000C0B2884203DA821912797E2AF7D1397816
:102A6000786B2A1D01F002F80FF29C31301D01F045
:102A700033F8D0B16846402100F0E6F90FF2102299
:102A800076A1684600F034FB684600F043FB03463D
:102A90006A460FF2F411032000F0A4FB684600F030
:102AA00039FB0146684600F033FD0FF2F011301D8E
:102AB00001F012F878B16AA1301D01F00DF8B837B5
:102AC000C11C0B22384601F01DF83A460FF2443182
:102AD000082000F060FB4FF4A961301D00F0B4F94C
:102AE0000020C6F84C0518F1010F06D140F64C2025
:102AF000208011B00120BDE8F083D6F84C0520B944
:102B00005FFA88F10D297FF473AF8119401C81F8B9
:102B10000480B0F5A96FC6F84C05FFF664AF00203D
:102B2000C6F84C0564E70020208011B00320BDE802
:102B3000F08310B5524C4FF45871204600F084F9E0
:102B40002246BDE810404FF458730021042001F0E4
:102B500094BE10B5434C802204F5D07104F5CC70BE
:102B600003F0F4F9434800F043FC002104F138007D
:102B700000F06BFE002104F1980000F066FE0021D9
:102B800004F1780000F061FE04F18800BDE8104017
:102B9000002100F05ABE30B583B0022001F062FE81
:102BA000304D324C2A8D002101910091034699212C
:102BB00015E000000CED00E00400FA0530B583B02C
:102BC000022001F04FFE2F49264D0A88274C009124
:102BD0009200921C92B2019203462A8D0321201D7D
:102BE00001F0BAFE2978686B221D03B0BDE83040C1
:102BF00000F03CBF80B5042001F034FEBDE8005079
:102C000002464FF458730FF22421002000F0EABA74
:102C100030B50FF2202183B01CC9684669461CC03C
:102C2000104C04F508750C22284600F06BFF0C22AE
:102C3000694604F50D7000F065FF28232A460FF25F
:102C400000210A2000F0CEFAA17A2A4604F1780089
:102C500000F00CFF03B030BD64B2002025730A0001
:102C60002B3836000C0B00205C16002070810020F1
:102C7000E022020021290108687100201C7C00204C
:102C8000BCA10020041800202D3E636D0000000050
:102C900041542B435343413F000000004353434101
:102CA000000000004D302D3E00000000736D7332B7
:102CB000312D2D2D2D2D2D2D2D2D2D2D2D2D2D2D40
:102CC0002D2D2D2D2D2D2D2D2D2D0A00737461727E
:102CD00074312070686F6E650A000000706F6E6F4F
:102CE00031313131312D2D2D2D2D2D2D2D2D2D2D00
:102CF0002D2D2D2D2D2D2D2D2D2D2D2D2D2D0A0054
:102D000041544425733B00004D312D3E000000002E
:102D10005544502053454E442054494D45204F556D
:102D2000540A000065745F73656E64206F75740AE1
:102D300000000000756250686F6E65496E646578CA
:102D4000203D2025640A0000736D7332322D2D2D35
:102D50002D2D2D2D2D2D2D2D2D2D2D2D2D2D2D2DA3
:102D60002D2D2D2D2D2D0A00706F6E6F312D2D2DD7
:102D70002D2D2D2D2D2D2D2D2D2D2D2D2D2D2D2D83
:102D80002D2D2D2D2D2D0A0073746172743220703B
:102D9000686F6E650A0000004D322D3E0000000095
:102DA00065745F6261636B5F756470206F75740A30
:102DB000000000004D332D3E00000000737461726E
:102DC000742070686F6E6520320A000073696D3977
:102DD0003030615F726573705F70726F63657373BB
:102DE0000D0A0000726563656976652066696E6923
:102DF0007368207072743D2025640D0A0000000085
:102E00003C2D677000000000534D532052656164F3
:102E100079000000736D7343656E74657250686F5E
:102E20006E65203D2025730A00000000666E6F6409
:102E30000000000031383832303130393236350058
:102E400070686F6E65000000002203F0AFB8F0B448
:102E5000016844688368091801EB5402E40748BF1D
:102E60004B440C3091422BD011F8014B14F0030568
:102E700004BF11F8015BED1C26090F2E07D111F8D4
:102E8000016B0F3603E011F8017B03F8017B6D1E27
:102E9000F9D1002EE6D0A40811F8015B04F0030478
:102EA000032C08BF11F8014B05EB04241C1BB51CB7
:102EB000D8D014F8016B03F8016B6D1EF9D1D1E77E
:102EC000F0BC704710B504460A2C04BF0D20FFF774
:102ED000F9FFDFF83C02416821B1491C416001F86B
:102EE000014D10BD0168080003D02046BDE8104028
:102EF000084710BD2DE9F04788B080468946DFF8C5
:102F0000106204E059F8040BC0B2FFF7DBFF18F8B9
:102F1000010B002800F0E2802528F6D118F8010BFB
:102F20000021302808BF012102D02D2802D1022122
:102F300018F8010B4FF0000A07E00AEB8A0200EBD9
:102F40004200A0F1300A18F8010BA0F130020A2A61
:102F5000F3D36C2812BF4C2841F0040118F8010B80
:102F6000002800F0BB800446612CA4BF203CE4B2E2
:102F7000422C41D0432CC5D0442C43D04F2C3FD0C1
:102F8000532C04D0552C3DD0582C3DD0BDE759F8DA
:102F9000044B0025204600E06D1C10F8012B002A90
:102FA000FAD1880705D514E0316808001CBF20203D
:102FB00088472846451C50450BD270680028F3D03E
:102FC000202100F8011B7060F3E714F8010BFFF7F4
:102FD00079FF20780028F8D1554598D270686D1C8B
:102FE00020B1202100F8011B7060F5E7316808006E
:102FF000F2D020208847EFE7022259F8043B05E091
:103000000822FAE70A22F8E71022F6E7442C04D156
:10301000002B44BF5B4241F008010027EC46B3FBA4
:10302000F2FE02FB1E34E4B20A2C734607DB78285A
:103030000CBF4FF0270E4FF0070E7444E4B230344B
:103040000CF8014B7F1C0BB1202FE8D3080703D5E8
:103050006A462D20B8547F1CC8074CBF302420245A
:1030600088073D4612D57F1E68463C5C0A2C04BF8B
:103070000D20FFF727FF7068C0B100F8014B7060AA
:1030800019E0316808001CBF204688472846451CC7
:103090005045E8D20A2C04BF0D20FFF713FF7068DB
:1030A0000028EED000F8014B7060EFE731680800AF
:1030B0001CBF20468847002FD5D15545BFF427AF08
:1030C00070686D1C20B1202100F8011B7060F4E7CE
:1030D00031680800F1D020208847EEE708B0BDE84D
:1030E000F0870EB400B501A9FFF704FF5DF810FBEF
:1030F0000CB410B5064C60600A4602A91046FFF7F2
:10310000F9FE616800200870606010BC5DF80CFB7F
:1031100054B4002000F10103810704D010F8011B12
:1031200089B18107FAD10268B2F10131914311F0FE
:10313000803F04BF50F8042FF6E710F8011B11B1CF
:1031400010F8011BFBE7C01A7047000010B4002301
:103150001446621E2CB110F8013B11F8014B1B1BE9
:10316000F6D010BC1846704770B504460D4614F8EA
:10317000010B02F034FFC6B215F8010B02F02FFF6D
:10318000C0B2864203D1002E18BF0028EFD1301AFA
:1031900070BD774870470CB4F8B505467548744F54
:1031A000066838780C46E9B288420DD3142816D048
:1031B00076B170680FF2C011FFF7D6FF20B17168C9
:1031C0000FF2C010FFF78DFF3878EDB2A84206D39A
:1031D0003878142803D006A92046FFF78BFEF1BCEF
:1031E0005DF80CFB2DE9F24F05466248604C07681C
:1031F0002078A8421646984611DB142800F0A580D6
:103200006FB178680FF27011FFF7AEFF38B17968CF
:103210000FF27010FFF765FF4FA0FFF762FF2078F5
:10322000A842C0F29280142800F08F80009828B144
:10323000014642460FF25410FFF753FF0027B8F142
:10324000010F44DBB14645A599F800100FF2481074
:10325000FFF747FFF81007EB10700011A7EB001005
:103260000F282FD13EA0FFF73CFF27F00F04A74205
:103270001BDB04EB060A9AF800B0ABF120005F28D4
:1032800009D3584602F0B7FE28B9584602F0BDFEF1
:1032900008B92E2101E09AF800102846FFF721FF17
:1032A000641CA7420AF1010AE5DA2BA0FFF719FF17
:1032B000009838B1781C404504DA2AA10FF2E000EA
:1032C000FFF70FFF7F1C474509F10109BCDBF81030
:1032D00007EB10700011B7EB001030D03C4622A570
:1032E00003E02846FFF7FDFE641CE01004EB1070BD
:1032F0000011B4EB0010F4D119A0FFF7F2FE27F093
:103300000F00B84218DA86193F1A14A53478A4F1D0
:1033100020005F2809D3204602F06DFE28B9204620
:1033200002F073FE08B92E2100E031782846FFF73D
:10333000D8FE761C7F1EE9D107A0FFF7D2FEB8F1B8
:10334000000F04BF04A0FFF7CCFE0020BDE8F28F01
:10335000014606A0FFF7C5BE0D0A00002563000068
:10336000203B000000000000202020002E256400EB
:103370001B1E0020B0B300204576656E7420746972
:103380006D657200252D3230737C0000252D35735C
:10339000252D34643A00000020253032580000000A
:1033A000252D39733A0000006B4801686B4802888C
:1033B000930602D50A0006D017E0110703D54FF691
:1033C000F771018080887047654801686548028808
:1033D000930603D582880A0006D006E0110703D5BC
:1033E0004FF6F7710180808870478088C0B2084727
:1033F0005D49086070475E49086070475C48016835
:103400005C480288930602D50A0006D0EDE7110752
:1034100003D54FF6F77101808088704752480168E4
:1034200055480288930602D50A0006D0DDE7110749
:1034300003D54FF6F7710180808870474B480168CB
:103440004E480288930602D50A0006D0CDE7110740
:1034500003D54FF6F771018080887047411E05291A
:1034600000D3704710B53B4901EB800184B051F89F
:10347000044C012803D14FF46120009019E0042886
:1034800003D14FF4E130009013E04FF416510228BD
:1034900000910ED100200190ADF80800ADF80C00AD
:1034A0000C20ADF80A0000200FF2D401FFF773FEE4
:1034B00008E000200190ADF80800ADF80C000C20E9
:1034C000ADF80A00204602F0ABFD6946204602F046
:1034D000EBFD012240F22551204602F045FE01217C
:1034E000204602F037FE04B010BD1B49086070474B
:1034F00051B1204A0378B2F800C05FEA0C6CFAD5EB
:10350000401C491E9380F5D1002070471A490DE0F8
:1035100051B1194A0378B2F800C05FEA0C6CFAD5D1
:10352000401C491E9380F5D1002070470A8812067E
:10353000FCD58880704751B1104A0378B2F800C0BA
:103540005FEA0C6CFAD5401C491E9380F5D100202F
:1035500070470000181C0020C8B40020003801404B
:10356000CCB4002000440040D0B40020D4B40020EB
:10357000D8B4002000480040004C004000500040FB
:10358000554152543220696E69740A002DE9F041A8
:10359000CC78002204F00F03E40644BF8C78234368
:1035A0000C88E5B21DB3D0F800C001250F2605FA3E
:1035B00002F707EA0408B84514D14FEA820E06FA6A
:1035C0000EF82CEA080C03FA0EFE4EEA0C0C91F8E9
:1035D00003E0BEF1280F08BF476103D0BEF1480FDA
:1035E00008BF0761521C082AE1D3C0F800C0FF2CB5
:1035F00027DDD0F804C0002201250F2602F10807BC
:1036000005FA07F707EA0408B84515D14FEA820E14
:1036100006FA0EF82CEA080C03FA0EFE4EEA0C0C21
:1036200091F803E0BEF1280F08BF476191F803E06D
:10363000BEF1480F08BF0761521C082ADED3C0F84C
:1036400004C0BDE8F0810161704741617047002A04
:1036500014BF01614161704770B4164A00284CBF25
:103660009469146800F44016B6F5401FC0F3034592
:1036700083B206D1156825F0706524F0706415607A
:103680000CE0C60203D5032606FA05F503E0450D56
:103690002D0103FA05F5AC4344F0706421B1410DEE
:1036A000090103FA01F10C4300284CBF9461146036
:1036B00070BC70470400014038B55E4C206890B182
:1036C00002F09AFD21680A684B689A18121A06E0FF
:1036D0000B684D68EB181B1A934238BF1A4689686D
:1036E0000029F5D11018606031BDF8B50446208876
:1036F00010B1592806D03FE04E490860592020807B
:103700000120F2BD87294B4E04D08229F6D115E065
:10371000A86830603568002DF0D0E8689042F7D096
:10372000A8680028EAD0C168914212BF05468068A7
:10373000A860F5E70020A860FFF7BEFF3568002706
:1037400005E006F1080000F0B0F92F46AD68002D45
:10375000D4D0284602F075FD0028F6D0E8682A4645
:10376000882100F083F90028EBD1E860002FA868D9
:1037700014BFB8603060DDE7002020800320F2BD78
:103780002D4800F092B938B504462A4D05F10800DD
:1037900000F08BF92868E16849B1014600E08968CA
:1037A00029B1A142FBD125480068E06004E023492B
:1037B0000968E160A0602C60BDE831407CE710B58D
:1037C000044602F02FFD03E010B5044602F02EFD82
:1037D0002046BDE81040D6E710B5044602F02BFDA8
:1037E000F6E7C06800280CBF012000207047114890
:1037F000006800B1012070470E480168002914BF1D
:1038000040680020704710B504460A4801688C42A1
:1038100003D18968016006E0014631B18868A042A1
:10382000FAD1A0688860FFF747FF0020A060E06041
:1038300010BD00001807002020070020B0B30020B2
:10384000A0490878421C0A70704738B59D4CA268A0
:10385000134600E01B68834218BF002BFAD1834255
:103860000BD00260A06001228273002282810A468E
:10387000E568812100F04FF8E56031BD2DE9F041A8
:10388000904DEE68AF680446884602E0002F40D0B5
:103890003F68A742FAD1002F3BD0A07B58B300204D
:1038A000A073AF6804E039463846FFF7E7FF3F688A
:1038B000B7B1BC42FBD0B87BC007F8D5BB681800D5
:1038C000F5D0EF600220B8732246872107F10C0083
:1038D0009847022818BF0328E5D00120B873E6E70F
:1038E000A368180018BF444505D0EC60002283216E
:1038F00004F10C009847AF68BC4203D13868A86057
:1039000006E0074627B13868A042FAD1206838603F
:10391000EE60BDE8F08138B504460D46A07BC007D7
:1039200015D5A368180012D06648C4600220A073A1
:1039300004F10C00984702281CBF0328832D04D1F2
:1039400021462046BDE8344098E70120A07331BDF0
:103950005C49C96892E75B488A2101700021817047
:1039600041708160C160704738B5564C0020E070EE
:10397000A56804E029462846FFF780FF2D68C5B1F9
:10398000E87B0028FAD00120A8730020E873AB6818
:103990001800F3D0E5600220A8730022822105F10F
:1039A0000C009847022818BF0328E3D00120A87311
:1039B000E4E731BD70B5434CE07808B1FFF7D4FFC0
:1039C0006378002B4ED0A5783F4805EB450100EB0E
:1039D00081006D1C017821712E114268226105EB76
:1039E000D66680687611A5EB46155B1EA5706370E0
:1039F00090BBA06806E0226921796069FFF78BFF20
:103A0000606900686061606960B3E0780028F2D0A6
:103A10000020E070A56804E029462846FFF72EFF45
:103A20002D68002DE7D0E87B0028F9D00120A8738D
:103A30000020E873AB681800F2D0E5600220A8739C
:103A40000022822105F10C009847022818BF0328A4
:103A5000E2D00120A873E3E7812904BF0123837327
:103A6000FFF759FF6078E178081870BDF0B4154B86
:103A70005C78202C08BF01200ED09D78124E65196D
:103A800005F01F0505EB450706EB8705A8602970C3
:103A90006A60601C58700020F0BC704738B5094C53
:103AA000E568FFF738FFE56031BD48B1817B01294A
:103AB00018BF022904D10121C17301200149C87036
:103AC00070470000A4B300201CA50020817B481E85
:103AD0008041C043C00F704770B50C46257835B99A
:103AE00070BD11F8013F1678B34206D0401C29463C
:103AF00002F0BCFB28B10146224612F8013F002B20
:103B0000EFD170BD62B38B0708D0521E11F8013B94
:103B100000F8013B00F024808B07F6D1830740F0CA
:103B2000208000BF103A07D330B4B1E83810103A03
:103B3000A0E83810F9D230BC530724BFB1E8081010
:103B4000A0E8081044BF51F8043B40F8043BD207FA
:103B500024BF31F8022B20F8022B44BF0B780370EE
:103B60007047083A07D3B1E80810083A40F8043B18
:103B700040F804CBF7D25307E4E70000DFF8F81A67
:103B800008737047DFF8F40A704770B582B01546C5
:103B90000FF62831DFF8E86A0A20FFF7FCFA089CE4
:103BA000069A0FF62C3100942B460A20FFF7F3FA01
:103BB000079D23462A4635A10A20FFF713FB3460F0
:103BC00022462946301DDFF8B04AFFF79BFF2178D7
:103BD000324604F29C50FFF749FF0220207302F0A6
:103BE00015FB206173BD704770B5044682B0208814
:103BF00010B1BC281BD01EE0DFF87C5A0FF65C40E9
:103C000005F2AC56314602F042FBDFF8781A05F2B5
:103C1000BC5002F085FBDFF8700A009041F2D71328
:103C200032464FF4FA6105F5AD6002F0EAFCBC20C3
:103C30002080012076BD00202080032076BD30B595
:103C4000044683B00D46042000F00CFE022000F074
:103C500009FEC4B90021019100910346DFF8184A1A
:103C60002A46062104F1180000F076FE01280ADB3E
:103C7000606104F11402A17804F29C5003B0BDE825
:103C80003040FFF7F3BE03B030BD00003C2D77009D
:103C90002DE9F04F074685B00D4614461E46042018
:103CA00000F0E0FDE878297940EA01286879A979EF
:103CB00040EA0129A87899280DD1444540F0728244
:103CC0003046FFF7A0FDDFF8C409007B5FFA88F1FA
:103CD000FFF7B5FF66E2032838D1022000F0C2FDED
:103CE000DFF8AC4904F1AC068246307B08B901200C
:103CF000307304F1C80B4FF458715846FFF7A4F81D
:103D0000B9F1050F11DB05F10B00018869B1B18331
:103D10008A00811C04F1CA00FFF7F4FE4FF45873C7
:103D20005A460021042000F0A8FD002001900090D8
:103D3000534642469921381D00F00EFE0128C0F27C
:103D4000318238603A46DFF8304926E205283ED114
:103D500005F10B07444504BF3046FFF754FDDFF87B
:103D6000304904F5966628213046FFF76DF8A9F131
:103D700004002828C0F21682282205F10B013046E3
:103D8000FFF7C0FEDFF8F008007B022840F00A824F
:103D90003046FDF73DF997F82820002A00F002820E
:103DA000D52A80F2FF8107F12901601CFFF7AAFEE6
:103DB000607B0019817B8DF800100F3001F0A4F8B2
:103DC0006A460FF638110C20FFF7E5F9EAE10E28F4
:103DD00051D1444504BF3046FFF715FD0FF63811A9
:103DE000DFF8AC480C20FFF7D6F90422E91D01A842
:103DF000FFF788FE042205F10B016846FFF782FEFB
:103E000004F1BC01084605F10F02082315782D09BD
:103E100005EB850675000570167806F00F06A6F10D
:103E20000A07052F10D8DFE807F0030507090B0D77
:103E30000A350AE00B3508E00C3506E00D3504E0E4
:103E40000E3502E00F3500E07519521C5B1E00F8BC
:103E5000015BDBD104F59B64204601F086FD222343
:103E600022460FF6CC010920FFF7BCF9222120469B
:103E7000FFF73EFB96E10F2823D1444504BF3046AF
:103E8000FFF7C1FC0FF6B001DFF804480C20FFF784
:103E900082F90422E91D02A8FFF734FE042205F18D
:103EA0000B0101A8FFF72EFEE87B009004F5856664
:103EB000C52301AA02A9304601F0B5FD1B233246F5
:103EC000D6E00A2831D1444504BF3046FFF79BFCB9
:103ED0000FF66401DFF8B8470C20FFF75CF9042205
:103EE000E91D02A8FFF70EFE042205F10B0101A84F
:103EF000FFF708FEE87B009004F58566C22301AA5F
:103F000002A9304601F08FFD1B213046FFF7F0FA81
:103F10000FF61C041B23324621460C20FFF762F9E2
:103F20001B23324621460220A5E012282DD144450C
:103F300004BF3046FFF767FC0FF61C01DFF850475F
:103F40000C20FFF728F904F18006122030700422BB
:103F5000E91D04F18100FFF7D5FD042205F10B01F5
:103F600004F18500FFF7CEFDC4207072082205F130
:103F70000F0104F18A00FFF7C5FD122004F244444A
:103F800000903346C422DD2168E0142838D144452E
:103F900004BF3046FFF737FC0FF2E071DFF8F04660
:103FA0000C20FFF7F8F804F180060E20307504228B
:103FB000E91D04F19500FFF7A5FD042205F10B01B1
:103FC00004F19900FFF79EFDC62070770C2205F1E1
:103FD0000F0104F19E00FFF795FD1620009004F5F7
:103FE0008D6504F19403C622FF21284601F024FECA
:103FF0000446E1B22846FFF77BFAE3B22A4637E0EF
:1040000018283BD1444504BF3046FFF7FCFB0FF2B4
:104010008871DFF87C460C20FFF7BDF804F1AC0690
:104020000A2030700422E91D04F1AD00FFF76AFD9B
:10403000042205F10B0104F1B100FFF763FDC82074
:10404000707204F1B60105F10F0004F59264027874
:104050000A700B2000903346C822FF21204601F051
:10406000EBFD0546E9B22046FFF742FAEBB22246E5
:104070000FF2BC610C20FFF7B5F893E0102826D1B1
:10408000042000F0EFFB444504BF3046FFF7BBFBC4
:104090000FF21C71DFF8E0450C20FFF77CF8872059
:1040A00000F069FFDFF8EC150978002904F2C4502C
:1040B0001ABF4FF4FA62514341F28831FFF77FFB98
:1040C00000220421DFF8D005FFF7C1FA6AE01128C9
:1040D00023D1444504BF3046FFF795FB0FF2E8615A
:1040E000DFF8B845DFF8B8750C20FFF754F8E87A28
:1040F000207000260AE005EB860000F10C01042286
:1041000007EB8600FFF7FEFC761CF6B220788642AD
:10411000F1DB862000F02FFF44E0D02842D1444557
:1041200004BF3046FFF76FFB0422E91D03A8FFF729
:10413000E9FC042205F10B0102A8FFF7E3FCE87B90
:10414000DFF84C45009004F58566872302AA03A991
:10415000304601F068FC1B213046FFF7C9F91B23EC
:1041600032460FF2CC510C20FFF73CF804F1AC06BC
:10417000DFF80445308B421C04200190328302A8F2
:10418000009003AB92B2D12104F1180000F0E4FBDF
:10419000012807DB606104F11402A17804F29C504D
:1041A000FFF764FC05B0BDE8F08FF0B5DFF8C84458
:1041B00085B00E46217888421FD1002E42D0DFF80C
:1041C000E45400202870301D00F05EFC98B1336884
:1041D0000FF21461321D0720FFF704F8AA8805F6D4
:1041E000CC03311D04F11400FFF752FD207B02289F
:1041F0001CBF0220207305B0F0BDA178884221D1F8
:1042000006B33268012AF6DBDFF8985405F55B77D0
:10421000311D384600F0F2FB064682B2394604F5FD
:10422000AD6002F0DFF942F2107105F6CC00FFF745
:10423000C6FA33463A460FF2B8510720FEF7D2FFCE
:1042400005B0F0BD6178884208BF002E0CD147F25E
:104250003051DFF85404FFF7B2FA0FF29C510C20F2
:10426000FEF799FF05B0F0BDE178884249D1002EF4
:104270007CD0022000F0F6FA074602A800210022B6
:1042800006C0DFF8205405F6DC00B04203D03278D7
:104290003146FFF737FC0422711C02A8FFF732FCFD
:1042A000707A8DF80C003B466888421C052001900E
:1042B0006A8002A8009092B2022104F1180000F076
:1042C0004BFB01280FDB606104F114026888A880B1
:1042D00004F29C50A178FFF7C9FB42F2107105F679
:1042E000CC00FFF76CFA00220221DFF8C003FFF7D1
:1042F000AEF900222021DFF8A003FFF7A8F905B0EE
:10430000F0BD2179884231D1002E4BD0022000F03F
:10431000A9FA074633780FF2EC41721C0720FEF72A
:1043200061FFDFF880536888421C6A803B46307822
:10433000019092B2701C0090042104F1180000F06A
:104340000BFB0128FFF657AF606104F11402688887
:10435000A88004F29C50A178FFF788FB42F210710C
:1043600005F6CC00FFF72BFA05B0F0BD617A884264
:1043700018D196B3022000F075FA0646CC4F0FF222
:10438000844107233A460720FEF72CFFC54D688875
:10439000421C062001906A80781C397800903346D0
:1043A00092B2CAE76179884217D18EB3022000F039
:1043B00059FA074633780FF24C41721C0720FEF77A
:1043C00011FFB84D6888421C6A803B4630780190E6
:1043D00092B2701C00900D21AFE7E179884217D1AD
:1043E00096B3022000F03EFA074633780FF21441EC
:1043F000721C0720FEF7F6FEAA4D6888421C6A80F0
:104400003B463078019092B2701C00900C2194E7EA
:10441000A179884218D1002E4CD0022000F022FA57
:10442000074633780FF2DC31721C0720FEF7DAFE04
:104430009C4D6888421C6A803B463078019092B25D
:10444000701C00900B2178E7217A884217D18EB337
:10445000022000F007FA074633780FF2A831721CE9
:104460000720FEF7BFFE8F4D6888421C6A803B46DE
:104470003078019092B2701C009013215DE7A17A10
:10448000884217D1B6B1022000F0ECF90746337824
:104490000FF27031721C0720FEF7A4FE814D688870
:1044A000421C6A803B463078019092B2701C0090AA
:1044B000152142E788287FF49EAE7A4D05F6BC07A9
:1044C000BE4232D1022000F0CDF9064605F10800C7
:1044D000FDF7B8F86A88288930B18000801C80B266
:1044E000019005F1080000E00190009033460121A1
:1044F00004F1180000F030FA012812DB606104F1C9
:1045000014026888A88004F29C50A178FFF7AEFAE4
:1045100042F2107105F6CC00FFF751F96888401C93
:10452000688047F2305138461CE705F6CC008642D9
:104530002DD10FF2D8210C20FEF72DFE287802286D
:1045400020DB207B02281BD10FF2D4210A20FEF7AA
:1045500022FE00202073002204214F48FFF777F845
:10456000012080F31388BFF34F8F5248524A0168ED
:1045700001F4E06111430160BFF34F8F00BFFDE71D
:10458000002028702878401C287005B0F0BD04F287
:10459000C450FFF726F900283FF42DAE0022042175
:1045A0003D48FFF754F8012080F31388BFF34F8F85
:1045B0004048414A016801F4E06111430160BFF3E2
:1045C0004F8F00BFFDE738B50446084611462288E4
:1045D00022B140F251339A422CD02EE0264DFFF703
:1045E0002FF92870FFF72CF96870FFF729F9A870E8
:1045F000FFF726F9E870FFF723F92871FFF720F994
:104600006871FFF71DF9A871FFF71AF9E871FFF754
:1046100017F92872FFF714F96872FFF711F9A872F9
:104620000C200FF22421FEF7B6FD40F2513020801D
:10463000012032BDFFF7B9FDF7E7002020800320FD
:1046400032BD38B502F070F802F0E1F902F0FEF97F
:10465000094C002104F28C50FFF7F7F804F29C5546
:1046600000212846FFF7F1F861782846BDE8384078
:104670000022FFF7FBB90000400000204C000020A2
:10468000C8760020E73B01088B3B0108C49100205D
:1046900018910020B8A1002000100140E4AB0020D8
:1046A000E8AB0020C83A002084430020000C014001
:1046B000300700200CED00E00400FA05446174614D
:1046C0002072656365697665642066726F6D20008F
:1046D000206F6E20706F72742025642066726F6D7B
:1046E00020706F72742025642077697468206C656F
:1046F0006E6774682025643A200A0000736F756E37
:10470000645F6C696768745F6D61635F6E756D3A55
:10471000307825580A000000475052535F465F43E7
:104720004D445F41534B5F54494D455F41434B00FE
:1047300072662D3E00000000475052535F465F43B3
:104740004D445F454C454354524943414C5F434FB0
:104750004E54524F4C0A0000475052535F465F433D
:104760004D445F454C455F5345545F544852455353
:10477000484F4C445F56414C0A000000475052538A
:104780005F465F434D445F57415445525F53455424
:104790005F56414C0A000000475052535F465F434A
:1047A0004D445F57415445525F43414348450A00D9
:1047B000475052535F465F434D445F484F53545FE9
:1047C00052455345540A0000475052535F465F43D9
:1047D0004D445F534F554E444C494748545F5245F2
:1047E0005345540A000000003C2D69700000000091
:1047F00049502D3E00000000495048656172740A1E
:10480000000000005452414E000000004950204179
:10481000434B2054494D45204F55540A0000000099
:104820002D2D2D2D2D2D2D2D2D2D2D2D2D2D2D2DB8
:104830002D2D2D2D2D2D2D2D2D2D2D2D2D736574E3
:10484000206D6F64650A000069705F646174615F68
:1048500070726F636573730A000000002F6A309DE9
:104860002F48704738B1072805DA2E49401EC0B2DC
:1048700051F820007047002070472DE9F0410400F6
:1048800082B0154647D0072C45DA2648244E264FDD
:1048900000930B4650F824200FF290010920FEF7F8
:1048A0007AFC40F27E3842463946304602F05EFCE1
:1048B000012C03D1B81C29460C2214E0022C04D18F
:1048C00007F10E00294608220DE0032C04D107F160
:1048D00016002946082206E0042C06D107F11E0026
:1048E00029464FF45872FFF70DF943463A460FF246
:1048F00058010920FEF776FCE0223946304602F0E6
:10490000F5FB434632460FF248010920FEF76AFCE8
:104910000020BDE8F6814FF0FF30BDE8F6810000D1
:1049200000500308B0060020C443002053543A301E
:1049300078253038582B3078253034585B737A20FE
:1049400025645D0D0A000000664E464F0000000021
:10495000464E464F00000000F8B50D460446194685
:10496000002614B94FF0FF30F2BD7E202070E270B7
:104970000E206070A570100A20716671A671042265
:10498000E01DFFF7BFF8069900291CBF079A002A0F
:1049900003D105206071A67110E0501D6071101DDB
:1049A0000012A0710B2D18BF0C2D02D16079401E92
:1049B0006071164604F10B00FFF7A4F8012D06F113
:1049C0000B0705D10C4909783019761CC1727F1C80
:1049D000791E89B2601C02F0E7FBB6B23219010AF7
:1049E000D172761CB6B23119C872711C89B209191C
:1049F0007F20C872F81CF2BDD4B3002058B5002443
:104A0000C2B10B78661C1A2B03D1EF232354EA237F
:104A100008E0EF2B08BF235404D01B2B05D1EF2354
:104A20002354EB233354741C01E023543446491CB3
:104A3000521EE6D10FF2EC010620FEF7ACFB204639
:104A400052BDF0B400230024551E02E02654641C1D
:104A50005B1CAB4211DA5E5CEF2EF7D15F187F78FA
:104A6000EA2F08D0EF2F02D0EB2FEFD11B262654D0
:104A7000641C5B1CECE71A26F9E7511811F8011CBD
:104A80002154601CF0BC7047F8B5040031D0207888
:104A90007E281CBF60780E282BD16079A17940EA6E
:104AA000012000F10A06B6B232460FF284010C2052
:104AB0003719FEF770FBFD1E2878697841EA00255A
:104AC000311F89B2601C02F06FFB044623462A4660
:104AD0000FF26C010C20FEF75EFBA54209D17D1E92
:104AE0000FF278012A780C20FEF755FB28787F28F2
:104AF00001D00020F2BD0120F2BD10B4002200233D
:104B000010B910BC70475B1C8B4207DA1C5C7E2C12
:104B100002BF1C1864780E2CF5D11A1810BC104670
:104B200070470000434F444520305831410A00008F
:104B300055574C454E203D20253034780A00000062
:104B4000757743524346203D2025303478207577D1
:104B5000435243203D20253034780A00656E646658
:104B6000203D20253032780A00000000F8B50446C8
:104B70001646208810B14B2812D030E0384F381D2F
:104B800002F02FFC054604E0A968281DFEF717FE79
:104B90002D68002DF8D1012038704B20208001E0D5
:104BA000882901D00120F2BD2D4F381D02F019FCDB
:104BB000054600E02D68002DEFD0281DB042F9D148
:104BC0002946381D02F03AFC264E68693768306085
:104BD000A96908001CBFE86988473760DDE7002045
:104BE00020800320F2BD10B51D4C00202070201D38
:104BF00002F0F4FB04F10800BDE810400021FEF7CC
:104C000024BEF8B5174D164E044628686061A261AF
:104C1000E361307840B12F6806F108002860201D5C
:104C2000FEF7CDFD2F6000E0A1602146301D01E0C0
:104C30002146281DBDE8F44002F0D5BB38B5084D2B
:104C40000446287818B1201DFEF7DDFD01E0E06084
:104C500020612146281DBDE8344002F0EFBB000072
:104C600098060020B0B30020F8B504000D461646A3
:104C700004F10D0702D14FF0FF30F2BD7E2020700D
:104C8000BB2116206070A172FF20A070E07020711F
:104C90006071A071E07120726072E07225730A2069
:104CA0003870FF220421781C02F0F4FB0422314604
:104CB000781DFEF727FF7D72601C617802F074FAA0
:104CC000B8722246000AF8720D2038730FF2A03134
:104CD0006078051D2B460920FEF784FA2846F2BDB0
:104CE000F8B505460420FFF7BDFD2946872918BF02
:104CF000892923D1B0F82223002A00F0B880102A95
:104D000080F2B580D44C04F140067378934202D30C
:104D10000022727002E00F2B80F2A380727800EB09
:104D2000820000F54972892908BF88212046FFF7D3
:104D30009BFF0128C0F29580C1B28FE088292ED157
:104D4000C6480078002800F09280102880F28F80FA
:104D5000C14C04F140067378834202D30020707086
:104D600001E00F2B7DDA7778BD4D0FF2F031042290
:104D700005EB870002F0C2FB002872D004EB87002D
:104D80000421443000F0B6FF707805EB80028821E2
:104D90002046FFF769FF012863DBC1B25EE0862988
:104DA0005FD1AD4C04F14006307800285FD0102868
:104DB0005DDA7378834202D30020707001E00F2B1C
:104DC0004FDA75780FF2943104EB850004224430F9
:104DD00002F094FB002844D0A148042100EB850098
:104DE00000F088FF707804EB800000F144057E201D
:104DF0002070BB2116206070A172FF20A070E070AF
:104E000020716071A071E07120726072E072FF2207
:104E10008720207304210A20607304F10E0002F041
:104E200039FB0422294604F11200FEF76BFE8720AD
:104E3000A075601C617802F0B7F9E0752246000A9F
:104E400020760D2060760FF228216078051D2B4614
:104E50000920FEF7C7F9012D03DBE9B22046FEF772
:104E600047FB7D4C04F140067078401C7070F1BD2A
:104E700070B505460420FFF7F5FC0446B4F822039C
:104E80000F2840DA208800283DD0002600E0761C5C
:104E9000B4F82213F0B288420BD2F6B204EB8600CB
:104EA00000F5497104222846FEF750F90028EED19A
:104EB00070BD6C4E304621464FF45872FEF722FE0C
:104EC000B6F8220306EB80000422294600F549705B
:104ED000FEF718FEB6F822030FF29C11401CA6F84C
:104EE000220306F549720004830B0820FEF77AF9C5
:104EF0004FF45873324600210420FFF7BEFCB4F88B
:104F0000220386F8600370BD2DE9F045054653483D
:104F100083B00C0004701ED00F2C1CDADFF8408127
:104F20000FF2681A00274646042229463046FEF74B
:104F3000E9FDE87801905146A87800900C206B7844
:104F400015F8042BFEF727F97F1C361DA742EBDB73
:104F500008EB840501E00024414D0FF2FC16042209
:104F600031462846FEF7CEFD641C2D1D0F2CF6DBC6
:104F700003B0BDE8F0853C4B1979187203F10802C3
:104F800003F11000FEF772BD38B50446208810B159
:104F9000EF280DD058E0FEF753FC334908710C2080
:104FA0000FF29011FEF7F7F8EF202080012032BDBC
:104FB0002D4D2879814227D132B310780FF2EC01C0
:104FC000286002460820FEF7E6F82878882808BFFF
:104FD0000FF2FC010BD0872818BF862805D00FF2EE
:104FE00020110820FEF7D7F820E00FF2FC0108207E
:104FF000FEF7D1F840F22B20E86046F28F1105F160
:105000003000FEF7DCFB11E088290FD105F120000C
:1050100082420BD005F13000824207D10FF2F80135
:105020000820FEF7B8F847F23050E86005F120009C
:10503000E968FEF7C4FB287888281CBF87288628E3
:10504000B2D1FFF74DFEAFE700202080032032BD34
:1050500000210648FEF7F9BBA4AB0020BBA100204D
:10506000D4AE0020589E0020000000201000002038
:1050700072662D3E00000000416464536F756E64DB
:105080004C696768745461626C650000736F756E7B
:10509000645F6C696768745F6D61633A25582025A9
:1050A000582025582025580A00000000736F756E9F
:1050B00064206C6967687420737461746520636828
:1050C000616E676520746F20253032580D0A00002C
:1050D000534F554E445F4C494748545F53544154D5
:1050E000455F4F4E0D0A0000534F554E445F4C49EB
:1050F0004748545F53544154455F4F46460D0A009C
:10510000534F554E445F4C494748545F53544154A4
:10511000455F4552520D0A00534F554E445F4C496E
:105120004748545F53544154455F4E4F4D414C0DD9
:105130000A000000736F756E645F6C696768745F66
:105140006D73675F68616E646C65725F70726F63C8
:105150006573730A000000000000000000000000FA
:1051600010B5040084B011D001F050F8039004226F
:105170000020009004F10E0101208DF804000DF1D3
:105180000500FEF7BFFC684600F0D5FD04B010BD79
:1051900070B50420FFF766FB0088F8B100F0AEFDA3
:1051A00011E005EB8600811C0422601DFDF7CEFF97
:1051B00030B1761C28888642F3DB204600F0F3FDF0
:1051C000204600F09EFD040008D00420FFF74AFBB3
:1051D0000546002628880028ECD1F1E700F0F3FD11
:1051E0000FF66C110A20FDF7D6FFBDE870400023D2
:1051F000DFF8C828DFF8C80842F21071FFF701BDD8
:10520000F8B505462A4668780FF65411031D0920A3
:1052100005F10D04FDF7E6FF607ACB2826D10FF6E5
:1052200048110C20FDF7B7FF2846FFF799FFA87A31
:10523000BB2804BF601CFFF71BFEDFF88858E87A24
:10524000022840F05A81DFF880080178DFF87C08F6
:105250002A46FEF70BFCDFF878080178DFF87408BF
:105260002A46FEF703FC0020E872F1BDC12818BFF2
:10527000CA2819D10FF600110C20FDF78CFF284623
:10528000FFF76EFF607ACA2804BF8820FFF773FE1D
:10529000DFF844080178DFF834082246FEF7E6FB21
:1052A0002246DFF83808AFE0EE282CD1E078DD2880
:1052B0001CBF2079DD2800F020810FF6C801DFF83F
:1052C00020780C20FDF767FF20780FF6C80107F162
:1052D000A006821F3270D2B260787070A078B07071
:1052E000E078F070207930710C20FDF754FFDFF882
:1052F000F4070178DFF8D4073246FEF7B7FB3246F1
:10530000DFF8E40780E0C2281CD1DFF8D4772078EA
:1053100007F18005801F28702A4660786870A078A1
:10532000A870E078E87020792871A07A6871DFF8B9
:10533000BC070178DFF89407FEF798FB2A46DFF8F0
:10534000B00761E0C3281ED1DFF89477207807F119
:105350008005801F287260786872A078A872E07853
:10536000E87220792873A07A687307F18804DFF85F
:1053700084070178DFF854072246FEF777FB2246C0
:10538000DFF8740740E0C4281ED1DFF85477207896
:1053900007F18005801F287460786874A078A8746D
:1053A000E078E87420792875A07A687507F1900490
:1053B000DFF848070178DFF814072246FEF756FBAE
:1053C0002246DFF83C071FE0C72824D1DFF810771A
:1053D000207807F18005801F287660786876A078AD
:1053E000A876E078E87620792877A07A687707F1C0
:1053F0009804DFF810070178DFF8D0062246FEF7A0
:1054000035FB2246DFF800070178DFF8C806BDE863
:10541000F840FEF72BBBCC286FD120780B286CDB33
:105420002846FFF79DFE2078DFF8B476DFF8945623
:105430000A38387004F10A01401D787007F1A0069F
:10544000CC20B8706078F870A0783871E078787106
:105450002079B8713878821D3A70F81DD2B2FEF703
:1054600051FB0422611C05F1100002F047F840B125
:105470000422611C05F11000FEF744FB012030728C
:1054800001E0307A90B1DFF884060178DFF83C065D
:105490003A46FEF7EBFADFF878060178DFF83406D3
:1054A0003A46FEF7E3FA00203072F1BDA07C0628F0
:1054B0001EBFA17E0729082817D0DFF85006017803
:1054C000DFF808063A46FEF7D1FADFF8440601781D
:1054D000DFF800063A46FEF7C9FAE87A02280CD14E
:1054E0004FF4FA7105F1740003E041F2883105F1DF
:1054F0006400BDE8F440FEF762B9F1BD10B50446A2
:10550000104622881AB1B2F5B67F05D00EE04FF4EE
:10551000B6702080012010BDDFF8A825127A9142D4
:10552000F5D10028F3D0FFF76BFEF0E700202080D4
:10553000032010BD2DE9F04780468946B8F80000E9
:1055400028B140F20A21884200F02F8166E10FF273
:105550005C610C20FDF71FFEFEF772F9DFF86415A1
:105560000872DFF86065DFF8AC7506F1840000F0C2
:1055700009FDB9F1880F054607F1800420D107F134
:105580008800FEF72EF938B10FF234610820FDF7DC
:1055900002FE00206060387007F1A80A5046FEF74E
:1055A00020F968B100220421DFF86C05FEF74FF8FE
:1055B0000FF214610C20FDF7EEFD5046FEF704F9E2
:1055C00015F1010F16D1207838B9DFF8501507F121
:1055D000A800FEF7F4F80120207001220421DFF872
:1055E0003805FEF734F840F20A20A8F80000012040
:1055F000BDE8F0876068812880F2D480C555401CE2
:105600006060012804BF38787E2810D10020207007
:105610000C200FF2C451FDF7BEFD4FF4FA7107F1F3
:105620008800FEF7CCF807F1A800FEF7CDF838782F
:105630007E2840F0B78060681028C0F2B680F97804
:1056400097F80DA03879FF2908BFFF280DD0B07159
:10565000A02232707171FF20F87038710120F07251
:105660000C200FF27C51FDF796FD7978781C01F043
:105670009BFD0AEB0701897BB1EB202F01BF0AEBF1
:105680000701497BC0B2814240F08F800D2D01BFE0
:105690007878001D6168884240F087800420FFF719
:1056A000E1F879787B7BA1F10C029A4276D10088EF
:1056B00068B30B1D3A460FF280410A20FDF792FDB8
:1056C000042307F10E020FF278410A20FDF78AFD4C
:1056D0000420FFF7C7F805464FF0000A288810B9E4
:1056E0000EE00AF1010A2888824557DA05EB8A00A4
:1056F000811C042207F10E00FDF728FD0028F0D1DF
:10570000042305220FF240410A20FDF76BFD002221
:105710004021DFF80C04FDF79AFF4FF47A7107F18E
:105720009800FEF74CF8F07A60B1042207F10E0100
:10573000701CFEF7E7F90220F0720C200FF2B8415E
:10574000FDF729FD96F9090096F90A10884221D043
:105750007878DFF8D033051D96F90A00EDB22A46B5
:10576000394603EBC010FEF7CDF996F90A00401C4C
:10577000811000EB5171C910A0EBC100B072294635
:1057800096F9090010F1010F04BF0020707238462D
:10579000FDF75AFB06F15400FEF787F907F1880080
:1057A000FEF731F8002060603870B9F1880F7FF49F
:1057B000D8AEDD48FEF715F820B101224021D848C7
:1057C000FDF745FFBF4E06F16400FEF70AF838B159
:1057D00006F16400FEF717F806F1100000210160E1
:1057E00006F17400FDF7FDFF00283FF4BAAE06F1A4
:1057F0007400FEF708F8F07A02287FF4B2AEB248DF
:105800000178B2483246FEF731F9B1480178B14823
:105810003246FEF72BF90020F072A2E60020A8F82D
:1058200000000320BDE8F087F8B50446208820B1C9
:1058300040F2A922904209D055E00FF2D4310C2059
:10584000FDF7A9FC40F2A920208001E0822901D0C7
:105850000120F2BD9B4D95F9090010F1010F38D0E0
:1058600095F90900AF4F07EBC0104078061DF6B25E
:10587000812EA8BF00260FDA95F9090007EBC011A9
:10588000324605F58670FEF73DF995F90900314677
:1058900007EBC01000F02EFA95F90900401C8110AA
:1058A00000EB5171C910A0EBC100687295F90900B5
:1058B00095F90A10884204D14FF0FF306872002039
:1058C000A87236B105F58672297A05F14400FEF713
:1058D000CDF895F9090010F1010FB3D005F154008E
:1058E000FEF7E3F8AEE7002020800320F2BD10B5FC
:1058F000744C217B002904F184020146104604D136
:1059000000F02BFB30B9012003E000F026FB08B1CA
:105910000020207304F13400FEF7C7F8012010BD09
:1059200010B5684C802204F18C0104F1840000F071
:105930000DFB002104F13400FDF787FF7B48FDF7E4
:105940005AFD00235D4A47F2305104F11400FFF77D
:1059500058F9002104F14400FDF777FF04F15400E9
:10596000BDE810400021FDF770BF30B583B004469C
:1059700008226846FEF7C6F89DF800109DF8013031
:105980006B4D642202FB013189B28DF801100A0AC5
:105990008DF800207E212C60204600F10D0401705E
:1059A0001E214170DD218170291D0A7800F8032F26
:1059B0004A784270A81D2968027801F8052F4278BC
:1059C0004A7005F108002968027801F8072F42782B
:1059D0004A70FF21286841728172C1720422EE214F
:1059E00001731220207005F10C01601CFEF78AF88B
:1059F000042205F11001601DFEF784F8EE206072AC
:105A00000822694604F10A00FEF77CF828681E2186
:105A1000401C01F0C9FB80B2E074010A0D20A174A2
:105A2000207503B030BDF8B5424E30601D460FF210
:105A3000FC13144602467E20107002F10D07172059
:105A40005070FF20907093F800C002F803CF5B788D
:105A500053700FF2DC12336892F800C003F805CFE0
:105A600052785A700FF2CC12336892F800C003F8E3
:105A700007CF52785A70326850729072D072157394
:105A80000B2038700422781CFEF73CF804222146D3
:105A9000781DFEF737F806A87D7207F10A01027833
:105AA0000A7017213068401C01F07EFB80B2387309
:105AB000010A0D207873F972F1BD000091510108BF
:105AC00044070020300700201B0B0020840B00201F
:105AD00049000020DC050020100B002043000020BE
